{
	"contracts/NFT.sol": {
		"NFT": {
			"abi": [
				{
					"inputs": [],
					"stateMutability": "nonpayable",
					"type": "constructor"
				},
				{
					"inputs": [
						{
							"internalType": "address",
							"name": "sender",
							"type": "address"
						},
						{
							"internalType": "uint256",
							"name": "tokenId",
							"type": "uint256"
						},
						{
							"internalType": "address",
							"name": "owner",
							"type": "address"
						}
					],
					"name": "ERC721IncorrectOwner",
					"type": "error"
				},
				{
					"inputs": [
						{
							"internalType": "address",
							"name": "operator",
							"type": "address"
						},
						{
							"internalType": "uint256",
							"name": "tokenId",
							"type": "uint256"
						}
					],
					"name": "ERC721InsufficientApproval",
					"type": "error"
				},
				{
					"inputs": [
						{
							"internalType": "address",
							"name": "approver",
							"type": "address"
						}
					],
					"name": "ERC721InvalidApprover",
					"type": "error"
				},
				{
					"inputs": [
						{
							"internalType": "address",
							"name": "operator",
							"type": "address"
						}
					],
					"name": "ERC721InvalidOperator",
					"type": "error"
				},
				{
					"inputs": [
						{
							"internalType": "address",
							"name": "owner",
							"type": "address"
						}
					],
					"name": "ERC721InvalidOwner",
					"type": "error"
				},
				{
					"inputs": [
						{
							"internalType": "address",
							"name": "receiver",
							"type": "address"
						}
					],
					"name": "ERC721InvalidReceiver",
					"type": "error"
				},
				{
					"inputs": [
						{
							"internalType": "address",
							"name": "sender",
							"type": "address"
						}
					],
					"name": "ERC721InvalidSender",
					"type": "error"
				},
				{
					"inputs": [
						{
							"internalType": "uint256",
							"name": "tokenId",
							"type": "uint256"
						}
					],
					"name": "ERC721NonexistentToken",
					"type": "error"
				},
				{
					"anonymous": false,
					"inputs": [
						{
							"indexed": true,
							"internalType": "address",
							"name": "owner",
							"type": "address"
						},
						{
							"indexed": true,
							"internalType": "address",
							"name": "approved",
							"type": "address"
						},
						{
							"indexed": true,
							"internalType": "uint256",
							"name": "tokenId",
							"type": "uint256"
						}
					],
					"name": "Approval",
					"type": "event"
				},
				{
					"anonymous": false,
					"inputs": [
						{
							"indexed": true,
							"internalType": "address",
							"name": "owner",
							"type": "address"
						},
						{
							"indexed": true,
							"internalType": "address",
							"name": "operator",
							"type": "address"
						},
						{
							"indexed": false,
							"internalType": "bool",
							"name": "approved",
							"type": "bool"
						}
					],
					"name": "ApprovalForAll",
					"type": "event"
				},
				{
					"anonymous": false,
					"inputs": [
						{
							"indexed": false,
							"internalType": "uint256",
							"name": "_fromTokenId",
							"type": "uint256"
						},
						{
							"indexed": false,
							"internalType": "uint256",
							"name": "_toTokenId",
							"type": "uint256"
						}
					],
					"name": "BatchMetadataUpdate",
					"type": "event"
				},
				{
					"anonymous": false,
					"inputs": [
						{
							"indexed": false,
							"internalType": "uint256",
							"name": "_tokenId",
							"type": "uint256"
						}
					],
					"name": "MetadataUpdate",
					"type": "event"
				},
				{
					"anonymous": false,
					"inputs": [
						{
							"indexed": false,
							"internalType": "uint256",
							"name": "tokenId",
							"type": "uint256"
						},
						{
							"indexed": true,
							"internalType": "address",
							"name": "owner",
							"type": "address"
						},
						{
							"indexed": false,
							"internalType": "string",
							"name": "tokenURI",
							"type": "string"
						},
						{
							"indexed": false,
							"internalType": "bytes32",
							"name": "ipfsHash",
							"type": "bytes32"
						}
					],
					"name": "NFTMinted",
					"type": "event"
				},
				{
					"anonymous": false,
					"inputs": [
						{
							"indexed": true,
							"internalType": "address",
							"name": "from",
							"type": "address"
						},
						{
							"indexed": true,
							"internalType": "address",
							"name": "to",
							"type": "address"
						},
						{
							"indexed": true,
							"internalType": "uint256",
							"name": "tokenId",
							"type": "uint256"
						}
					],
					"name": "Transfer",
					"type": "event"
				},
				{
					"inputs": [
						{
							"internalType": "address",
							"name": "to",
							"type": "address"
						},
						{
							"internalType": "uint256",
							"name": "tokenId",
							"type": "uint256"
						}
					],
					"name": "approve",
					"outputs": [],
					"stateMutability": "nonpayable",
					"type": "function"
				},
				{
					"inputs": [
						{
							"internalType": "address",
							"name": "owner",
							"type": "address"
						}
					],
					"name": "balanceOf",
					"outputs": [
						{
							"internalType": "uint256",
							"name": "",
							"type": "uint256"
						}
					],
					"stateMutability": "view",
					"type": "function"
				},
				{
					"inputs": [
						{
							"internalType": "uint256",
							"name": "tokenId",
							"type": "uint256"
						}
					],
					"name": "burn",
					"outputs": [],
					"stateMutability": "nonpayable",
					"type": "function"
				},
				{
					"inputs": [
						{
							"internalType": "string",
							"name": "ipfsLink",
							"type": "string"
						}
					],
					"name": "generateIPFSHash",
					"outputs": [
						{
							"internalType": "bytes32",
							"name": "",
							"type": "bytes32"
						}
					],
					"stateMutability": "pure",
					"type": "function"
				},
				{
					"inputs": [
						{
							"internalType": "uint256",
							"name": "tokenId",
							"type": "uint256"
						}
					],
					"name": "getApproved",
					"outputs": [
						{
							"internalType": "address",
							"name": "",
							"type": "address"
						}
					],
					"stateMutability": "view",
					"type": "function"
				},
				{
					"inputs": [
						{
							"internalType": "uint256",
							"name": "tokenId",
							"type": "uint256"
						}
					],
					"name": "getBlockHashForToken",
					"outputs": [
						{
							"internalType": "bytes32",
							"name": "",
							"type": "bytes32"
						}
					],
					"stateMutability": "view",
					"type": "function"
				},
				{
					"inputs": [
						{
							"internalType": "address",
							"name": "owner",
							"type": "address"
						},
						{
							"internalType": "address",
							"name": "operator",
							"type": "address"
						}
					],
					"name": "isApprovedForAll",
					"outputs": [
						{
							"internalType": "bool",
							"name": "",
							"type": "bool"
						}
					],
					"stateMutability": "view",
					"type": "function"
				},
				{
					"inputs": [
						{
							"internalType": "address",
							"name": "_to",
							"type": "address"
						},
						{
							"internalType": "string",
							"name": "_uri",
							"type": "string"
						}
					],
					"name": "mint",
					"outputs": [
						{
							"internalType": "uint256",
							"name": "",
							"type": "uint256"
						}
					],
					"stateMutability": "nonpayable",
					"type": "function"
				},
				{
					"inputs": [],
					"name": "name",
					"outputs": [
						{
							"internalType": "string",
							"name": "",
							"type": "string"
						}
					],
					"stateMutability": "view",
					"type": "function"
				},
				{
					"inputs": [
						{
							"internalType": "uint256",
							"name": "",
							"type": "uint256"
						}
					],
					"name": "nftHashes",
					"outputs": [
						{
							"internalType": "bytes32",
							"name": "",
							"type": "bytes32"
						}
					],
					"stateMutability": "view",
					"type": "function"
				},
				{
					"inputs": [
						{
							"internalType": "uint256",
							"name": "tokenId",
							"type": "uint256"
						}
					],
					"name": "ownerOf",
					"outputs": [
						{
							"internalType": "address",
							"name": "",
							"type": "address"
						}
					],
					"stateMutability": "view",
					"type": "function"
				},
				{
					"inputs": [
						{
							"internalType": "address",
							"name": "from",
							"type": "address"
						},
						{
							"internalType": "address",
							"name": "to",
							"type": "address"
						},
						{
							"internalType": "uint256",
							"name": "tokenId",
							"type": "uint256"
						}
					],
					"name": "safeTransferFrom",
					"outputs": [],
					"stateMutability": "nonpayable",
					"type": "function"
				},
				{
					"inputs": [
						{
							"internalType": "address",
							"name": "from",
							"type": "address"
						},
						{
							"internalType": "address",
							"name": "to",
							"type": "address"
						},
						{
							"internalType": "uint256",
							"name": "tokenId",
							"type": "uint256"
						},
						{
							"internalType": "bytes",
							"name": "data",
							"type": "bytes"
						}
					],
					"name": "safeTransferFrom",
					"outputs": [],
					"stateMutability": "nonpayable",
					"type": "function"
				},
				{
					"inputs": [
						{
							"internalType": "address",
							"name": "operator",
							"type": "address"
						},
						{
							"internalType": "bool",
							"name": "approved",
							"type": "bool"
						}
					],
					"name": "setApprovalForAll",
					"outputs": [],
					"stateMutability": "nonpayable",
					"type": "function"
				},
				{
					"inputs": [
						{
							"internalType": "bytes4",
							"name": "interfaceId",
							"type": "bytes4"
						}
					],
					"name": "supportsInterface",
					"outputs": [
						{
							"internalType": "bool",
							"name": "",
							"type": "bool"
						}
					],
					"stateMutability": "view",
					"type": "function"
				},
				{
					"inputs": [],
					"name": "symbol",
					"outputs": [
						{
							"internalType": "string",
							"name": "",
							"type": "string"
						}
					],
					"stateMutability": "view",
					"type": "function"
				},
				{
					"inputs": [
						{
							"internalType": "uint256",
							"name": "index",
							"type": "uint256"
						}
					],
					"name": "tokenByIndex",
					"outputs": [
						{
							"internalType": "uint256",
							"name": "",
							"type": "uint256"
						}
					],
					"stateMutability": "view",
					"type": "function"
				},
				{
					"inputs": [
						{
							"internalType": "uint256",
							"name": "tokenId",
							"type": "uint256"
						}
					],
					"name": "tokenExists",
					"outputs": [
						{
							"internalType": "bool",
							"name": "",
							"type": "bool"
						}
					],
					"stateMutability": "view",
					"type": "function"
				},
				{
					"inputs": [
						{
							"internalType": "uint256",
							"name": "tokenId",
							"type": "uint256"
						}
					],
					"name": "tokenURI",
					"outputs": [
						{
							"internalType": "string",
							"name": "",
							"type": "string"
						}
					],
					"stateMutability": "view",
					"type": "function"
				},
				{
					"inputs": [],
					"name": "totalSupply",
					"outputs": [
						{
							"internalType": "uint256",
							"name": "",
							"type": "uint256"
						}
					],
					"stateMutability": "view",
					"type": "function"
				},
				{
					"inputs": [],
					"name": "totalTokens",
					"outputs": [
						{
							"internalType": "uint256",
							"name": "",
							"type": "uint256"
						}
					],
					"stateMutability": "view",
					"type": "function"
				},
				{
					"inputs": [
						{
							"internalType": "address",
							"name": "from",
							"type": "address"
						},
						{
							"internalType": "address",
							"name": "to",
							"type": "address"
						},
						{
							"internalType": "uint256",
							"name": "tokenId",
							"type": "uint256"
						}
					],
					"name": "transferFrom",
					"outputs": [],
					"stateMutability": "nonpayable",
					"type": "function"
				},
				{
					"inputs": [
						{
							"internalType": "uint256",
							"name": "tokenId",
							"type": "uint256"
						},
						{
							"internalType": "bytes32",
							"name": "providedHash",
							"type": "bytes32"
						}
					],
					"name": "verifyNFTHash",
					"outputs": [
						{
							"internalType": "bool",
							"name": "",
							"type": "bool"
						}
					],
					"stateMutability": "view",
					"type": "function"
				}
			],
			"devdoc": {
				"errors": {
					"ERC721IncorrectOwner(address,uint256,address)": [
						{
							"details": "Indicates an error related to the ownership over a particular token. Used in transfers.",
							"params": {
								"owner": "Address of the current owner of a token.",
								"sender": "Address whose tokens are being transferred.",
								"tokenId": "Identifier number of a token."
							}
						}
					],
					"ERC721InsufficientApproval(address,uint256)": [
						{
							"details": "Indicates a failure with the `operator`’s approval. Used in transfers.",
							"params": {
								"operator": "Address that may be allowed to operate on tokens without being their owner.",
								"tokenId": "Identifier number of a token."
							}
						}
					],
					"ERC721InvalidApprover(address)": [
						{
							"details": "Indicates a failure with the `approver` of a token to be approved. Used in approvals.",
							"params": {
								"approver": "Address initiating an approval operation."
							}
						}
					],
					"ERC721InvalidOperator(address)": [
						{
							"details": "Indicates a failure with the `operator` to be approved. Used in approvals.",
							"params": {
								"operator": "Address that may be allowed to operate on tokens without being their owner."
							}
						}
					],
					"ERC721InvalidOwner(address)": [
						{
							"details": "Indicates that an address can't be an owner. For example, `address(0)` is a forbidden owner in EIP-20. Used in balance queries.",
							"params": {
								"owner": "Address of the current owner of a token."
							}
						}
					],
					"ERC721InvalidReceiver(address)": [
						{
							"details": "Indicates a failure with the token `receiver`. Used in transfers.",
							"params": {
								"receiver": "Address to which tokens are being transferred."
							}
						}
					],
					"ERC721InvalidSender(address)": [
						{
							"details": "Indicates a failure with the token `sender`. Used in transfers.",
							"params": {
								"sender": "Address whose tokens are being transferred."
							}
						}
					],
					"ERC721NonexistentToken(uint256)": [
						{
							"details": "Indicates a `tokenId` whose `owner` is the zero address.",
							"params": {
								"tokenId": "Identifier number of a token."
							}
						}
					]
				},
				"events": {
					"Approval(address,address,uint256)": {
						"details": "Emitted when `owner` enables `approved` to manage the `tokenId` token."
					},
					"ApprovalForAll(address,address,bool)": {
						"details": "Emitted when `owner` enables or disables (`approved`) `operator` to manage all of its assets."
					},
					"BatchMetadataUpdate(uint256,uint256)": {
						"details": "This event emits when the metadata of a range of tokens is changed. So that the third-party platforms such as NFT market could timely update the images and related attributes of the NFTs."
					},
					"MetadataUpdate(uint256)": {
						"details": "This event emits when the metadata of a token is changed. So that the third-party platforms such as NFT market could timely update the images and related attributes of the NFT."
					},
					"Transfer(address,address,uint256)": {
						"details": "Emitted when `tokenId` token is transferred from `from` to `to`."
					}
				},
				"kind": "dev",
				"methods": {
					"approve(address,uint256)": {
						"details": "See {IERC721-approve}."
					},
					"balanceOf(address)": {
						"details": "See {IERC721-balanceOf}."
					},
					"getApproved(uint256)": {
						"details": "See {IERC721-getApproved}."
					},
					"isApprovedForAll(address,address)": {
						"details": "See {IERC721-isApprovedForAll}."
					},
					"name()": {
						"details": "See {IERC721Metadata-name}."
					},
					"ownerOf(uint256)": {
						"details": "See {IERC721-ownerOf}."
					},
					"safeTransferFrom(address,address,uint256)": {
						"details": "See {IERC721-safeTransferFrom}."
					},
					"safeTransferFrom(address,address,uint256,bytes)": {
						"details": "See {IERC721-safeTransferFrom}."
					},
					"setApprovalForAll(address,bool)": {
						"details": "See {IERC721-setApprovalForAll}."
					},
					"supportsInterface(bytes4)": {
						"details": "See {IERC165-supportsInterface}"
					},
					"symbol()": {
						"details": "See {IERC721Metadata-symbol}."
					},
					"tokenURI(uint256)": {
						"details": "See {IERC721Metadata-tokenURI}."
					},
					"transferFrom(address,address,uint256)": {
						"details": "See {IERC721-transferFrom}."
					}
				},
				"version": 1
			},
			"evm": {
				"assembly": "    /* \"contracts/NFT.sol\":597:3534  contract NFT is ERC721URIStorage {... */\n  mstore(0x40, 0x80)\n    /* \"contracts/NFT.sol\":1205:1330  constructor() ERC721(\"JobApplicationNFT\", \"JOBAPP\") {... */\n  callvalue\n  dup1\n  iszero\n  tag_1\n  jumpi\n  0x00\n  dup1\n  revert\ntag_1:\n  pop\n    /* \"@openzeppelin/contracts/token/ERC721/ERC721.sol\":1381:1494  constructor(string memory name_, string memory symbol_) {... */\n  mload(0x40)\n  dup1\n  0x40\n  add\n  0x40\n  mstore\n  dup1\n  0x11\n  dup2\n  mstore\n  0x20\n  add\n  0x4a6f624170706c69636174696f6e4e4654000000000000000000000000000000\n  dup2\n  mstore\n  pop\n  mload(0x40)\n  dup1\n  0x40\n  add\n  0x40\n  mstore\n  dup1\n  0x06\n  dup2\n  mstore\n  0x20\n  add\n  0x4a4f424150500000000000000000000000000000000000000000000000000000\n  dup2\n  mstore\n  pop\n    /* \"@openzeppelin/contracts/token/ERC721/ERC721.sol\":1455:1460  name_ */\n  dup2\n    /* \"@openzeppelin/contracts/token/ERC721/ERC721.sol\":1447:1452  _name */\n  0x00\n    /* \"@openzeppelin/contracts/token/ERC721/ERC721.sol\":1447:1460  _name = name_ */\n  swap1\n  dup2\n  tag_5\n  swap2\n  swap1\n  tag_6\n  jump\t// in\ntag_5:\n  pop\n    /* \"@openzeppelin/contracts/token/ERC721/ERC721.sol\":1480:1487  symbol_ */\n  dup1\n    /* \"@openzeppelin/contracts/token/ERC721/ERC721.sol\":1470:1477  _symbol */\n  0x01\n    /* \"@openzeppelin/contracts/token/ERC721/ERC721.sol\":1470:1487  _symbol = symbol_ */\n  swap1\n  dup2\n  tag_7\n  swap2\n  swap1\n  tag_6\n  jump\t// in\ntag_7:\n  pop\n    /* \"@openzeppelin/contracts/token/ERC721/ERC721.sol\":1381:1494  constructor(string memory name_, string memory symbol_) {... */\n  pop\n  pop\n    /* \"contracts/NFT.sol\":597:3534  contract NFT is ERC721URIStorage {... */\n  jump(tag_9)\n    /* \"#utility.yul\":7:106   */\ntag_10:\n    /* \"#utility.yul\":59:65   */\n  0x00\n    /* \"#utility.yul\":93:98   */\n  dup2\n    /* \"#utility.yul\":87:99   */\n  mload\n    /* \"#utility.yul\":77:99   */\n  swap1\n  pop\n    /* \"#utility.yul\":7:106   */\n  swap2\n  swap1\n  pop\n  jump\t// out\n    /* \"#utility.yul\":112:292   */\ntag_11:\n    /* \"#utility.yul\":160:237   */\n  0x4e487b7100000000000000000000000000000000000000000000000000000000\n    /* \"#utility.yul\":157:158   */\n  0x00\n    /* \"#utility.yul\":150:238   */\n  mstore\n    /* \"#utility.yul\":257:261   */\n  0x41\n    /* \"#utility.yul\":254:255   */\n  0x04\n    /* \"#utility.yul\":247:262   */\n  mstore\n    /* \"#utility.yul\":281:285   */\n  0x24\n    /* \"#utility.yul\":278:279   */\n  0x00\n    /* \"#utility.yul\":271:286   */\n  revert\n    /* \"#utility.yul\":298:478   */\ntag_12:\n    /* \"#utility.yul\":346:423   */\n  0x4e487b7100000000000000000000000000000000000000000000000000000000\n    /* \"#utility.yul\":343:344   */\n  0x00\n    /* \"#utility.yul\":336:424   */\n  mstore\n    /* \"#utility.yul\":443:447   */\n  0x22\n    /* \"#utility.yul\":440:441   */\n  0x04\n    /* \"#utility.yul\":433:448   */\n  mstore\n    /* \"#utility.yul\":467:471   */\n  0x24\n    /* \"#utility.yul\":464:465   */\n  0x00\n    /* \"#utility.yul\":457:472   */\n  revert\n    /* \"#utility.yul\":484:804   */\ntag_13:\n    /* \"#utility.yul\":528:534   */\n  0x00\n    /* \"#utility.yul\":565:566   */\n  0x02\n    /* \"#utility.yul\":559:563   */\n  dup3\n    /* \"#utility.yul\":555:567   */\n  div\n    /* \"#utility.yul\":545:567   */\n  swap1\n  pop\n    /* \"#utility.yul\":612:613   */\n  0x01\n    /* \"#utility.yul\":606:610   */\n  dup3\n    /* \"#utility.yul\":602:614   */\n  and\n    /* \"#utility.yul\":633:651   */\n  dup1\n    /* \"#utility.yul\":623:704   */\n  tag_35\n  jumpi\n    /* \"#utility.yul\":689:693   */\n  0x7f\n    /* \"#utility.yul\":681:687   */\n  dup3\n    /* \"#utility.yul\":677:694   */\n  and\n    /* \"#utility.yul\":667:694   */\n  swap2\n  pop\n    /* \"#utility.yul\":623:704   */\ntag_35:\n    /* \"#utility.yul\":751:753   */\n  0x20\n    /* \"#utility.yul\":743:749   */\n  dup3\n    /* \"#utility.yul\":740:754   */\n  lt\n    /* \"#utility.yul\":720:738   */\n  dup2\n    /* \"#utility.yul\":717:755   */\n  sub\n    /* \"#utility.yul\":714:798   */\n  tag_36\n  jumpi\n    /* \"#utility.yul\":770:788   */\n  tag_37\n  tag_12\n  jump\t// in\ntag_37:\n    /* \"#utility.yul\":714:798   */\ntag_36:\n    /* \"#utility.yul\":535:804   */\n  pop\n    /* \"#utility.yul\":484:804   */\n  swap2\n  swap1\n  pop\n  jump\t// out\n    /* \"#utility.yul\":810:951   */\ntag_14:\n    /* \"#utility.yul\":859:863   */\n  0x00\n    /* \"#utility.yul\":882:885   */\n  dup2\n    /* \"#utility.yul\":874:885   */\n  swap1\n  pop\n    /* \"#utility.yul\":905:908   */\n  dup2\n    /* \"#utility.yul\":902:903   */\n  0x00\n    /* \"#utility.yul\":895:909   */\n  mstore\n    /* \"#utility.yul\":939:943   */\n  0x20\n    /* \"#utility.yul\":936:937   */\n  0x00\n    /* \"#utility.yul\":926:944   */\n  keccak256\n    /* \"#utility.yul\":918:944   */\n  swap1\n  pop\n    /* \"#utility.yul\":810:951   */\n  swap2\n  swap1\n  pop\n  jump\t// out\n    /* \"#utility.yul\":957:1050   */\ntag_15:\n    /* \"#utility.yul\":994:1000   */\n  0x00\n    /* \"#utility.yul\":1041:1043   */\n  0x20\n    /* \"#utility.yul\":1036:1038   */\n  0x1f\n    /* \"#utility.yul\":1029:1034   */\n  dup4\n    /* \"#utility.yul\":1025:1039   */\n  add\n    /* \"#utility.yul\":1021:1044   */\n  div\n    /* \"#utility.yul\":1011:1044   */\n  swap1\n  pop\n    /* \"#utility.yul\":957:1050   */\n  swap2\n  swap1\n  pop\n  jump\t// out\n    /* \"#utility.yul\":1056:1163   */\ntag_16:\n    /* \"#utility.yul\":1100:1108   */\n  0x00\n    /* \"#utility.yul\":1150:1155   */\n  dup3\n    /* \"#utility.yul\":1144:1148   */\n  dup3\n    /* \"#utility.yul\":1140:1156   */\n  shl\n    /* \"#utility.yul\":1119:1156   */\n  swap1\n  pop\n    /* \"#utility.yul\":1056:1163   */\n  swap3\n  swap2\n  pop\n  pop\n  jump\t// out\n    /* \"#utility.yul\":1169:1562   */\ntag_17:\n    /* \"#utility.yul\":1238:1244   */\n  0x00\n    /* \"#utility.yul\":1288:1289   */\n  0x08\n    /* \"#utility.yul\":1276:1286   */\n  dup4\n    /* \"#utility.yul\":1272:1290   */\n  mul\n    /* \"#utility.yul\":1311:1408   */\n  tag_42\n    /* \"#utility.yul\":1341:1407   */\n  0xffffffffffffffffffffffffffffffffffffffffffffffffffffffffffffffff\n    /* \"#utility.yul\":1330:1339   */\n  dup3\n    /* \"#utility.yul\":1311:1408   */\n  tag_16\n  jump\t// in\ntag_42:\n    /* \"#utility.yul\":1429:1468   */\n  tag_43\n    /* \"#utility.yul\":1459:1467   */\n  dup7\n    /* \"#utility.yul\":1448:1457   */\n  dup4\n    /* \"#utility.yul\":1429:1468   */\n  tag_16\n  jump\t// in\ntag_43:\n    /* \"#utility.yul\":1417:1468   */\n  swap6\n  pop\n    /* \"#utility.yul\":1501:1505   */\n  dup1\n    /* \"#utility.yul\":1497:1506   */\n  not\n    /* \"#utility.yul\":1490:1495   */\n  dup5\n    /* \"#utility.yul\":1486:1507   */\n  and\n    /* \"#utility.yul\":1477:1507   */\n  swap4\n  pop\n    /* \"#utility.yul\":1550:1554   */\n  dup1\n    /* \"#utility.yul\":1540:1548   */\n  dup7\n    /* \"#utility.yul\":1536:1555   */\n  and\n    /* \"#utility.yul\":1529:1534   */\n  dup5\n    /* \"#utility.yul\":1526:1556   */\n  or\n    /* \"#utility.yul\":1516:1556   */\n  swap3\n  pop\n    /* \"#utility.yul\":1245:1562   */\n  pop\n  pop\n    /* \"#utility.yul\":1169:1562   */\n  swap4\n  swap3\n  pop\n  pop\n  pop\n  jump\t// out\n    /* \"#utility.yul\":1568:1645   */\ntag_18:\n    /* \"#utility.yul\":1605:1612   */\n  0x00\n    /* \"#utility.yul\":1634:1639   */\n  dup2\n    /* \"#utility.yul\":1623:1639   */\n  swap1\n  pop\n    /* \"#utility.yul\":1568:1645   */\n  swap2\n  swap1\n  pop\n  jump\t// out\n    /* \"#utility.yul\":1651:1711   */\ntag_19:\n    /* \"#utility.yul\":1679:1682   */\n  0x00\n    /* \"#utility.yul\":1700:1705   */\n  dup2\n    /* \"#utility.yul\":1693:1705   */\n  swap1\n  pop\n    /* \"#utility.yul\":1651:1711   */\n  swap2\n  swap1\n  pop\n  jump\t// out\n    /* \"#utility.yul\":1717:1859   */\ntag_20:\n    /* \"#utility.yul\":1767:1776   */\n  0x00\n    /* \"#utility.yul\":1800:1853   */\n  tag_47\n    /* \"#utility.yul\":1818:1852   */\n  tag_48\n    /* \"#utility.yul\":1827:1851   */\n  tag_49\n    /* \"#utility.yul\":1845:1850   */\n  dup5\n    /* \"#utility.yul\":1827:1851   */\n  tag_18\n  jump\t// in\ntag_49:\n    /* \"#utility.yul\":1818:1852   */\n  tag_19\n  jump\t// in\ntag_48:\n    /* \"#utility.yul\":1800:1853   */\n  tag_18\n  jump\t// in\ntag_47:\n    /* \"#utility.yul\":1787:1853   */\n  swap1\n  pop\n    /* \"#utility.yul\":1717:1859   */\n  swap2\n  swap1\n  pop\n  jump\t// out\n    /* \"#utility.yul\":1865:1940   */\ntag_21:\n    /* \"#utility.yul\":1908:1911   */\n  0x00\n    /* \"#utility.yul\":1929:1934   */\n  dup2\n    /* \"#utility.yul\":1922:1934   */\n  swap1\n  pop\n    /* \"#utility.yul\":1865:1940   */\n  swap2\n  swap1\n  pop\n  jump\t// out\n    /* \"#utility.yul\":1946:2215   */\ntag_22:\n    /* \"#utility.yul\":2056:2095   */\n  tag_52\n    /* \"#utility.yul\":2087:2094   */\n  dup4\n    /* \"#utility.yul\":2056:2095   */\n  tag_20\n  jump\t// in\ntag_52:\n    /* \"#utility.yul\":2117:2208   */\n  tag_53\n    /* \"#utility.yul\":2166:2207   */\n  tag_54\n    /* \"#utility.yul\":2190:2206   */\n  dup3\n    /* \"#utility.yul\":2166:2207   */\n  tag_21\n  jump\t// in\ntag_54:\n    /* \"#utility.yul\":2158:2164   */\n  dup5\n    /* \"#utility.yul\":2151:2155   */\n  dup5\n    /* \"#utility.yul\":2145:2156   */\n  sload\n    /* \"#utility.yul\":2117:2208   */\n  tag_17\n  jump\t// in\ntag_53:\n    /* \"#utility.yul\":2111:2115   */\n  dup3\n    /* \"#utility.yul\":2104:2209   */\n  sstore\n    /* \"#utility.yul\":2022:2215   */\n  pop\n    /* \"#utility.yul\":1946:2215   */\n  pop\n  pop\n  pop\n  jump\t// out\n    /* \"#utility.yul\":2221:2294   */\ntag_23:\n    /* \"#utility.yul\":2266:2269   */\n  0x00\n    /* \"#utility.yul\":2221:2294   */\n  swap1\n  jump\t// out\n    /* \"#utility.yul\":2300:2489   */\ntag_24:\n    /* \"#utility.yul\":2377:2409   */\n  tag_57\n  tag_23\n  jump\t// in\ntag_57:\n    /* \"#utility.yul\":2418:2483   */\n  tag_58\n    /* \"#utility.yul\":2476:2482   */\n  dup2\n    /* \"#utility.yul\":2468:2474   */\n  dup5\n    /* \"#utility.yul\":2462:2466   */\n  dup5\n    /* \"#utility.yul\":2418:2483   */\n  tag_22\n  jump\t// in\ntag_58:\n    /* \"#utility.yul\":2353:2489   */\n  pop\n    /* \"#utility.yul\":2300:2489   */\n  pop\n  pop\n  jump\t// out\n    /* \"#utility.yul\":2495:2681   */\ntag_25:\n    /* \"#utility.yul\":2555:2675   */\ntag_60:\n    /* \"#utility.yul\":2572:2575   */\n  dup2\n    /* \"#utility.yul\":2565:2570   */\n  dup2\n    /* \"#utility.yul\":2562:2576   */\n  lt\n    /* \"#utility.yul\":2555:2675   */\n  iszero\n  tag_62\n  jumpi\n    /* \"#utility.yul\":2626:2665   */\n  tag_63\n    /* \"#utility.yul\":2663:2664   */\n  0x00\n    /* \"#utility.yul\":2656:2661   */\n  dup3\n    /* \"#utility.yul\":2626:2665   */\n  tag_24\n  jump\t// in\ntag_63:\n    /* \"#utility.yul\":2599:2600   */\n  0x01\n    /* \"#utility.yul\":2592:2597   */\n  dup2\n    /* \"#utility.yul\":2588:2601   */\n  add\n    /* \"#utility.yul\":2579:2601   */\n  swap1\n  pop\n    /* \"#utility.yul\":2555:2675   */\n  jump(tag_60)\ntag_62:\n    /* \"#utility.yul\":2495:2681   */\n  pop\n  pop\n  jump\t// out\n    /* \"#utility.yul\":2687:3230   */\ntag_26:\n    /* \"#utility.yul\":2788:2790   */\n  0x1f\n    /* \"#utility.yul\":2783:2786   */\n  dup3\n    /* \"#utility.yul\":2780:2791   */\n  gt\n    /* \"#utility.yul\":2777:3223   */\n  iszero\n  tag_65\n  jumpi\n    /* \"#utility.yul\":2822:2860   */\n  tag_66\n    /* \"#utility.yul\":2854:2859   */\n  dup2\n    /* \"#utility.yul\":2822:2860   */\n  tag_14\n  jump\t// in\ntag_66:\n    /* \"#utility.yul\":2906:2935   */\n  tag_67\n    /* \"#utility.yul\":2924:2934   */\n  dup5\n    /* \"#utility.yul\":2906:2935   */\n  tag_15\n  jump\t// in\ntag_67:\n    /* \"#utility.yul\":2896:2904   */\n  dup2\n    /* \"#utility.yul\":2892:2936   */\n  add\n    /* \"#utility.yul\":3089:3091   */\n  0x20\n    /* \"#utility.yul\":3077:3087   */\n  dup6\n    /* \"#utility.yul\":3074:3092   */\n  lt\n    /* \"#utility.yul\":3071:3120   */\n  iszero\n  tag_68\n  jumpi\n    /* \"#utility.yul\":3110:3118   */\n  dup2\n    /* \"#utility.yul\":3095:3118   */\n  swap1\n  pop\n    /* \"#utility.yul\":3071:3120   */\ntag_68:\n    /* \"#utility.yul\":3133:3213   */\n  tag_69\n    /* \"#utility.yul\":3189:3211   */\n  tag_70\n    /* \"#utility.yul\":3207:3210   */\n  dup6\n    /* \"#utility.yul\":3189:3211   */\n  tag_15\n  jump\t// in\ntag_70:\n    /* \"#utility.yul\":3179:3187   */\n  dup4\n    /* \"#utility.yul\":3175:3212   */\n  add\n    /* \"#utility.yul\":3162:3173   */\n  dup3\n    /* \"#utility.yul\":3133:3213   */\n  tag_25\n  jump\t// in\ntag_69:\n    /* \"#utility.yul\":2792:3223   */\n  pop\n  pop\n    /* \"#utility.yul\":2777:3223   */\ntag_65:\n    /* \"#utility.yul\":2687:3230   */\n  pop\n  pop\n  pop\n  jump\t// out\n    /* \"#utility.yul\":3236:3353   */\ntag_27:\n    /* \"#utility.yul\":3290:3298   */\n  0x00\n    /* \"#utility.yul\":3340:3345   */\n  dup3\n    /* \"#utility.yul\":3334:3338   */\n  dup3\n    /* \"#utility.yul\":3330:3346   */\n  shr\n    /* \"#utility.yul\":3309:3346   */\n  swap1\n  pop\n    /* \"#utility.yul\":3236:3353   */\n  swap3\n  swap2\n  pop\n  pop\n  jump\t// out\n    /* \"#utility.yul\":3359:3528   */\ntag_28:\n    /* \"#utility.yul\":3403:3409   */\n  0x00\n    /* \"#utility.yul\":3436:3487   */\n  tag_73\n    /* \"#utility.yul\":3484:3485   */\n  0x00\n    /* \"#utility.yul\":3480:3486   */\n  not\n    /* \"#utility.yul\":3472:3477   */\n  dup5\n    /* \"#utility.yul\":3469:3470   */\n  0x08\n    /* \"#utility.yul\":3465:3478   */\n  mul\n    /* \"#utility.yul\":3436:3487   */\n  tag_27\n  jump\t// in\ntag_73:\n    /* \"#utility.yul\":3432:3488   */\n  not\n    /* \"#utility.yul\":3517:3521   */\n  dup1\n    /* \"#utility.yul\":3511:3515   */\n  dup4\n    /* \"#utility.yul\":3507:3522   */\n  and\n    /* \"#utility.yul\":3497:3522   */\n  swap2\n  pop\n    /* \"#utility.yul\":3410:3528   */\n  pop\n    /* \"#utility.yul\":3359:3528   */\n  swap3\n  swap2\n  pop\n  pop\n  jump\t// out\n    /* \"#utility.yul\":3533:3828   */\ntag_29:\n    /* \"#utility.yul\":3609:3613   */\n  0x00\n    /* \"#utility.yul\":3755:3784   */\n  tag_75\n    /* \"#utility.yul\":3780:3783   */\n  dup4\n    /* \"#utility.yul\":3774:3778   */\n  dup4\n    /* \"#utility.yul\":3755:3784   */\n  tag_28\n  jump\t// in\ntag_75:\n    /* \"#utility.yul\":3747:3784   */\n  swap2\n  pop\n    /* \"#utility.yul\":3817:3820   */\n  dup3\n    /* \"#utility.yul\":3814:3815   */\n  0x02\n    /* \"#utility.yul\":3810:3821   */\n  mul\n    /* \"#utility.yul\":3804:3808   */\n  dup3\n    /* \"#utility.yul\":3801:3822   */\n  or\n    /* \"#utility.yul\":3793:3822   */\n  swap1\n  pop\n    /* \"#utility.yul\":3533:3828   */\n  swap3\n  swap2\n  pop\n  pop\n  jump\t// out\n    /* \"#utility.yul\":3833:5228   */\ntag_6:\n    /* \"#utility.yul\":3950:3987   */\n  tag_77\n    /* \"#utility.yul\":3983:3986   */\n  dup3\n    /* \"#utility.yul\":3950:3987   */\n  tag_10\n  jump\t// in\ntag_77:\n    /* \"#utility.yul\":4052:4070   */\n  0xffffffffffffffff\n    /* \"#utility.yul\":4044:4050   */\n  dup2\n    /* \"#utility.yul\":4041:4071   */\n  gt\n    /* \"#utility.yul\":4038:4094   */\n  iszero\n  tag_78\n  jumpi\n    /* \"#utility.yul\":4074:4092   */\n  tag_79\n  tag_11\n  jump\t// in\ntag_79:\n    /* \"#utility.yul\":4038:4094   */\ntag_78:\n    /* \"#utility.yul\":4118:4156   */\n  tag_80\n    /* \"#utility.yul\":4150:4154   */\n  dup3\n    /* \"#utility.yul\":4144:4155   */\n  sload\n    /* \"#utility.yul\":4118:4156   */\n  tag_13\n  jump\t// in\ntag_80:\n    /* \"#utility.yul\":4203:4270   */\n  tag_81\n    /* \"#utility.yul\":4263:4269   */\n  dup3\n    /* \"#utility.yul\":4255:4261   */\n  dup3\n    /* \"#utility.yul\":4249:4253   */\n  dup6\n    /* \"#utility.yul\":4203:4270   */\n  tag_26\n  jump\t// in\ntag_81:\n    /* \"#utility.yul\":4297:4298   */\n  0x00\n    /* \"#utility.yul\":4321:4325   */\n  0x20\n    /* \"#utility.yul\":4308:4325   */\n  swap1\n  pop\n    /* \"#utility.yul\":4353:4355   */\n  0x1f\n    /* \"#utility.yul\":4345:4351   */\n  dup4\n    /* \"#utility.yul\":4342:4356   */\n  gt\n    /* \"#utility.yul\":4370:4371   */\n  0x01\n    /* \"#utility.yul\":4365:4983   */\n  dup2\n  eq\n  tag_83\n  jumpi\n    /* \"#utility.yul\":5027:5028   */\n  0x00\n    /* \"#utility.yul\":5044:5050   */\n  dup5\n    /* \"#utility.yul\":5041:5118   */\n  iszero\n  tag_84\n  jumpi\n    /* \"#utility.yul\":5093:5102   */\n  dup3\n    /* \"#utility.yul\":5088:5091   */\n  dup8\n    /* \"#utility.yul\":5084:5103   */\n  add\n    /* \"#utility.yul\":5078:5104   */\n  mload\n    /* \"#utility.yul\":5069:5104   */\n  swap1\n  pop\n    /* \"#utility.yul\":5041:5118   */\ntag_84:\n    /* \"#utility.yul\":5144:5211   */\n  tag_85\n    /* \"#utility.yul\":5204:5210   */\n  dup6\n    /* \"#utility.yul\":5197:5202   */\n  dup3\n    /* \"#utility.yul\":5144:5211   */\n  tag_29\n  jump\t// in\ntag_85:\n    /* \"#utility.yul\":5138:5142   */\n  dup7\n    /* \"#utility.yul\":5131:5212   */\n  sstore\n    /* \"#utility.yul\":5000:5222   */\n  pop\n    /* \"#utility.yul\":4335:5222   */\n  jump(tag_82)\n    /* \"#utility.yul\":4365:4983   */\ntag_83:\n    /* \"#utility.yul\":4417:4421   */\n  0x1f\n    /* \"#utility.yul\":4413:4422   */\n  not\n    /* \"#utility.yul\":4405:4411   */\n  dup5\n    /* \"#utility.yul\":4401:4423   */\n  and\n    /* \"#utility.yul\":4451:4488   */\n  tag_86\n    /* \"#utility.yul\":4483:4487   */\n  dup7\n    /* \"#utility.yul\":4451:4488   */\n  tag_14\n  jump\t// in\ntag_86:\n    /* \"#utility.yul\":4510:4511   */\n  0x00\n    /* \"#utility.yul\":4524:4732   */\ntag_87:\n    /* \"#utility.yul\":4538:4545   */\n  dup3\n    /* \"#utility.yul\":4535:4536   */\n  dup2\n    /* \"#utility.yul\":4532:4546   */\n  lt\n    /* \"#utility.yul\":4524:4732   */\n  iszero\n  tag_89\n  jumpi\n    /* \"#utility.yul\":4617:4626   */\n  dup5\n    /* \"#utility.yul\":4612:4615   */\n  dup10\n    /* \"#utility.yul\":4608:4627   */\n  add\n    /* \"#utility.yul\":4602:4628   */\n  mload\n    /* \"#utility.yul\":4594:4600   */\n  dup3\n    /* \"#utility.yul\":4587:4629   */\n  sstore\n    /* \"#utility.yul\":4668:4669   */\n  0x01\n    /* \"#utility.yul\":4660:4666   */\n  dup3\n    /* \"#utility.yul\":4656:4670   */\n  add\n    /* \"#utility.yul\":4646:4670   */\n  swap2\n  pop\n    /* \"#utility.yul\":4715:4717   */\n  0x20\n    /* \"#utility.yul\":4704:4713   */\n  dup6\n    /* \"#utility.yul\":4700:4718   */\n  add\n    /* \"#utility.yul\":4687:4718   */\n  swap5\n  pop\n    /* \"#utility.yul\":4561:4565   */\n  0x20\n    /* \"#utility.yul\":4558:4559   */\n  dup2\n    /* \"#utility.yul\":4554:4566   */\n  add\n    /* \"#utility.yul\":4549:4566   */\n  swap1\n  pop\n    /* \"#utility.yul\":4524:4732   */\n  jump(tag_87)\ntag_89:\n    /* \"#utility.yul\":4760:4766   */\n  dup7\n    /* \"#utility.yul\":4751:4758   */\n  dup4\n    /* \"#utility.yul\":4748:4767   */\n  lt\n    /* \"#utility.yul\":4745:4924   */\n  iszero\n  tag_90\n  jumpi\n    /* \"#utility.yul\":4818:4827   */\n  dup5\n    /* \"#utility.yul\":4813:4816   */\n  dup10\n    /* \"#utility.yul\":4809:4828   */\n  add\n    /* \"#utility.yul\":4803:4829   */\n  mload\n    /* \"#utility.yul\":4861:4909   */\n  tag_91\n    /* \"#utility.yul\":4903:4907   */\n  0x1f\n    /* \"#utility.yul\":4895:4901   */\n  dup10\n    /* \"#utility.yul\":4891:4908   */\n  and\n    /* \"#utility.yul\":4880:4889   */\n  dup3\n    /* \"#utility.yul\":4861:4909   */\n  tag_28\n  jump\t// in\ntag_91:\n    /* \"#utility.yul\":4853:4859   */\n  dup4\n    /* \"#utility.yul\":4846:4910   */\n  sstore\n    /* \"#utility.yul\":4768:4924   */\n  pop\n    /* \"#utility.yul\":4745:4924   */\ntag_90:\n    /* \"#utility.yul\":4970:4971   */\n  0x01\n    /* \"#utility.yul\":4966:4967   */\n  0x02\n    /* \"#utility.yul\":4958:4964   */\n  dup9\n    /* \"#utility.yul\":4954:4968   */\n  mul\n    /* \"#utility.yul\":4950:4972   */\n  add\n    /* \"#utility.yul\":4944:4948   */\n  dup9\n    /* \"#utility.yul\":4937:4973   */\n  sstore\n    /* \"#utility.yul\":4372:4983   */\n  pop\n  pop\n  pop\n    /* \"#utility.yul\":4335:5222   */\ntag_82:\n  pop\n    /* \"#utility.yul\":3925:5228   */\n  pop\n  pop\n  pop\n    /* \"#utility.yul\":3833:5228   */\n  pop\n  pop\n  jump\t// out\n    /* \"contracts/NFT.sol\":597:3534  contract NFT is ERC721URIStorage {... */\ntag_9:\n  dataSize(sub_0)\n  dup1\n  dataOffset(sub_0)\n  0x00\n  codecopy\n  0x00\n  return\nstop\n\nsub_0: assembly {\n        /* \"contracts/NFT.sol\":597:3534  contract NFT is ERC721URIStorage {... */\n      mstore(0x40, 0x80)\n      callvalue\n      dup1\n      iszero\n      tag_1\n      jumpi\n      0x00\n      dup1\n      revert\n    tag_1:\n      pop\n      jumpi(tag_2, lt(calldatasize, 0x04))\n      shr(0xe0, calldataload(0x00))\n      dup1\n      0x70a08231\n      gt\n      tag_26\n      jumpi\n      dup1\n      0xc87b56dd\n      gt\n      tag_27\n      jumpi\n      dup1\n      0xc87b56dd\n      eq\n      tag_20\n      jumpi\n      dup1\n      0xd0def521\n      eq\n      tag_21\n      jumpi\n      dup1\n      0xda69502a\n      eq\n      tag_22\n      jumpi\n      dup1\n      0xe5dbb934\n      eq\n      tag_23\n      jumpi\n      dup1\n      0xe985e9c5\n      eq\n      tag_24\n      jumpi\n      dup1\n      0xffa0d809\n      eq\n      tag_25\n      jumpi\n      jump(tag_2)\n    tag_27:\n      dup1\n      0x70a08231\n      eq\n      tag_14\n      jumpi\n      dup1\n      0x7e1c0c09\n      eq\n      tag_15\n      jumpi\n      dup1\n      0x95d89b41\n      eq\n      tag_16\n      jumpi\n      dup1\n      0x9e28f69e\n      eq\n      tag_17\n      jumpi\n      dup1\n      0xa22cb465\n      eq\n      tag_18\n      jumpi\n      dup1\n      0xb88d4fde\n      eq\n      tag_19\n      jumpi\n      jump(tag_2)\n    tag_26:\n      dup1\n      0x18160ddd\n      gt\n      tag_28\n      jumpi\n      dup1\n      0x18160ddd\n      eq\n      tag_8\n      jumpi\n      dup1\n      0x23b872dd\n      eq\n      tag_9\n      jumpi\n      dup1\n      0x42842e0e\n      eq\n      tag_10\n      jumpi\n      dup1\n      0x42966c68\n      eq\n      tag_11\n      jumpi\n      dup1\n      0x4f6ccce7\n      eq\n      tag_12\n      jumpi\n      dup1\n      0x6352211e\n      eq\n      tag_13\n      jumpi\n      jump(tag_2)\n    tag_28:\n      dup1\n      0x923f9e\n      eq\n      tag_3\n      jumpi\n      dup1\n      0x01ffc9a7\n      eq\n      tag_4\n      jumpi\n      dup1\n      0x06fdde03\n      eq\n      tag_5\n      jumpi\n      dup1\n      0x081812fc\n      eq\n      tag_6\n      jumpi\n      dup1\n      0x095ea7b3\n      eq\n      tag_7\n      jumpi\n    tag_2:\n      0x00\n      dup1\n      revert\n        /* \"contracts/NFT.sol\":3180:3292  function tokenExists(uint256 tokenId) public view returns (bool) {... */\n    tag_3:\n      tag_29\n      0x04\n      dup1\n      calldatasize\n      sub\n      dup2\n      add\n      swap1\n      tag_30\n      swap2\n      swap1\n      tag_31\n      jump\t// in\n    tag_30:\n      tag_32\n      jump\t// in\n    tag_29:\n      mload(0x40)\n      tag_33\n      swap2\n      swap1\n      tag_34\n      jump\t// in\n    tag_33:\n      mload(0x40)\n      dup1\n      swap2\n      sub\n      swap1\n      return\n        /* \"@openzeppelin/contracts/token/ERC721/extensions/ERC721URIStorage.sol\":937:1144  function supportsInterface(bytes4 interfaceId) public view virtual override(ERC721, IERC165) returns (bool) {... */\n    tag_4:\n      tag_35\n      0x04\n      dup1\n      calldatasize\n      sub\n      dup2\n      add\n      swap1\n      tag_36\n      swap2\n      swap1\n      tag_37\n      jump\t// in\n    tag_36:\n      tag_38\n      jump\t// in\n    tag_35:\n      mload(0x40)\n      tag_39\n      swap2\n      swap1\n      tag_34\n      jump\t// in\n    tag_39:\n      mload(0x40)\n      dup1\n      swap2\n      sub\n      swap1\n      return\n        /* \"@openzeppelin/contracts/token/ERC721/ERC721.sol\":2365:2454  function name() public view virtual returns (string memory) {... */\n    tag_5:\n      tag_40\n      tag_41\n      jump\t// in\n    tag_40:\n      mload(0x40)\n      tag_42\n      swap2\n      swap1\n      tag_43\n      jump\t// in\n    tag_42:\n      mload(0x40)\n      dup1\n      swap2\n      sub\n      swap1\n      return\n        /* \"@openzeppelin/contracts/token/ERC721/ERC721.sol\":3497:3651  function getApproved(uint256 tokenId) public view virtual returns (address) {... */\n    tag_6:\n      tag_44\n      0x04\n      dup1\n      calldatasize\n      sub\n      dup2\n      add\n      swap1\n      tag_45\n      swap2\n      swap1\n      tag_31\n      jump\t// in\n    tag_45:\n      tag_46\n      jump\t// in\n    tag_44:\n      mload(0x40)\n      tag_47\n      swap2\n      swap1\n      tag_48\n      jump\t// in\n    tag_47:\n      mload(0x40)\n      dup1\n      swap2\n      sub\n      swap1\n      return\n        /* \"@openzeppelin/contracts/token/ERC721/ERC721.sol\":3323:3436  function approve(address to, uint256 tokenId) public virtual {... */\n    tag_7:\n      tag_49\n      0x04\n      dup1\n      calldatasize\n      sub\n      dup2\n      add\n      swap1\n      tag_50\n      swap2\n      swap1\n      tag_51\n      jump\t// in\n    tag_50:\n      tag_52\n      jump\t// in\n    tag_49:\n      stop\n        /* \"contracts/NFT.sol\":2474:2562  function totalSupply() public view returns(uint256){... */\n    tag_8:\n      tag_53\n      tag_54\n      jump\t// in\n    tag_53:\n      mload(0x40)\n      tag_55\n      swap2\n      swap1\n      tag_56\n      jump\t// in\n    tag_55:\n      mload(0x40)\n      dup1\n      swap2\n      sub\n      swap1\n      return\n        /* \"@openzeppelin/contracts/token/ERC721/ERC721.sol\":4143:4721  function transferFrom(address from, address to, uint256 tokenId) public virtual {... */\n    tag_9:\n      tag_57\n      0x04\n      dup1\n      calldatasize\n      sub\n      dup2\n      add\n      swap1\n      tag_58\n      swap2\n      swap1\n      tag_59\n      jump\t// in\n    tag_58:\n      tag_60\n      jump\t// in\n    tag_57:\n      stop\n        /* \"@openzeppelin/contracts/token/ERC721/ERC721.sol\":4787:4919  function safeTransferFrom(address from, address to, uint256 tokenId) public {... */\n    tag_10:\n      tag_61\n      0x04\n      dup1\n      calldatasize\n      sub\n      dup2\n      add\n      swap1\n      tag_62\n      swap2\n      swap1\n      tag_59\n      jump\t// in\n    tag_62:\n      tag_63\n      jump\t// in\n    tag_61:\n      stop\n        /* \"contracts/NFT.sol\":2114:2249  function burn(uint256 tokenId) public {... */\n    tag_11:\n      tag_64\n      0x04\n      dup1\n      calldatasize\n      sub\n      dup2\n      add\n      swap1\n      tag_65\n      swap2\n      swap1\n      tag_31\n      jump\t// in\n    tag_65:\n      tag_66\n      jump\t// in\n    tag_64:\n      stop\n        /* \"contracts/NFT.sol\":2257:2466  function tokenByIndex(uint256 index) external view returns (uint256) {... */\n    tag_12:\n      tag_67\n      0x04\n      dup1\n      calldatasize\n      sub\n      dup2\n      add\n      swap1\n      tag_68\n      swap2\n      swap1\n      tag_31\n      jump\t// in\n    tag_68:\n      tag_69\n      jump\t// in\n    tag_67:\n      mload(0x40)\n      tag_70\n      swap2\n      swap1\n      tag_56\n      jump\t// in\n    tag_70:\n      mload(0x40)\n      dup1\n      swap2\n      sub\n      swap1\n      return\n        /* \"@openzeppelin/contracts/token/ERC721/ERC721.sol\":2185:2303  function ownerOf(uint256 tokenId) public view virtual returns (address) {... */\n    tag_13:\n      tag_71\n      0x04\n      dup1\n      calldatasize\n      sub\n      dup2\n      add\n      swap1\n      tag_72\n      swap2\n      swap1\n      tag_31\n      jump\t// in\n    tag_72:\n      tag_73\n      jump\t// in\n    tag_71:\n      mload(0x40)\n      tag_74\n      swap2\n      swap1\n      tag_48\n      jump\t// in\n    tag_74:\n      mload(0x40)\n      dup1\n      swap2\n      sub\n      swap1\n      return\n        /* \"@openzeppelin/contracts/token/ERC721/ERC721.sol\":1920:2128  function balanceOf(address owner) public view virtual returns (uint256) {... */\n    tag_14:\n      tag_75\n      0x04\n      dup1\n      calldatasize\n      sub\n      dup2\n      add\n      swap1\n      tag_76\n      swap2\n      swap1\n      tag_77\n      jump\t// in\n    tag_76:\n      tag_78\n      jump\t// in\n    tag_75:\n      mload(0x40)\n      tag_79\n      swap2\n      swap1\n      tag_56\n      jump\t// in\n    tag_79:\n      mload(0x40)\n      dup1\n      swap2\n      sub\n      swap1\n      return\n        /* \"contracts/NFT.sol\":821:847  uint256 public totalTokens */\n    tag_15:\n      tag_80\n      tag_81\n      jump\t// in\n    tag_80:\n      mload(0x40)\n      tag_82\n      swap2\n      swap1\n      tag_56\n      jump\t// in\n    tag_82:\n      mload(0x40)\n      dup1\n      swap2\n      sub\n      swap1\n      return\n        /* \"@openzeppelin/contracts/token/ERC721/ERC721.sol\":2518:2611  function symbol() public view virtual returns (string memory) {... */\n    tag_16:\n      tag_83\n      tag_84\n      jump\t// in\n    tag_83:\n      mload(0x40)\n      tag_85\n      swap2\n      swap1\n      tag_43\n      jump\t// in\n    tag_85:\n      mload(0x40)\n      dup1\n      swap2\n      sub\n      swap1\n      return\n        /* \"contracts/NFT.sol\":2635:2822  function getBlockHashForToken(uint256 tokenId) external view returns (bytes32) {... */\n    tag_17:\n      tag_86\n      0x04\n      dup1\n      calldatasize\n      sub\n      dup2\n      add\n      swap1\n      tag_87\n      swap2\n      swap1\n      tag_31\n      jump\t// in\n    tag_87:\n      tag_88\n      jump\t// in\n    tag_86:\n      mload(0x40)\n      tag_89\n      swap2\n      swap1\n      tag_90\n      jump\t// in\n    tag_89:\n      mload(0x40)\n      dup1\n      swap2\n      sub\n      swap1\n      return\n        /* \"@openzeppelin/contracts/token/ERC721/ERC721.sol\":3718:3862  function setApprovalForAll(address operator, bool approved) public virtual {... */\n    tag_18:\n      tag_91\n      0x04\n      dup1\n      calldatasize\n      sub\n      dup2\n      add\n      swap1\n      tag_92\n      swap2\n      swap1\n      tag_93\n      jump\t// in\n    tag_92:\n      tag_94\n      jump\t// in\n    tag_91:\n      stop\n        /* \"@openzeppelin/contracts/token/ERC721/ERC721.sol\":4985:5193  function safeTransferFrom(address from, address to, uint256 tokenId, bytes memory data) public virtual {... */\n    tag_19:\n      tag_95\n      0x04\n      dup1\n      calldatasize\n      sub\n      dup2\n      add\n      swap1\n      tag_96\n      swap2\n      swap1\n      tag_97\n      jump\t// in\n    tag_96:\n      tag_98\n      jump\t// in\n    tag_95:\n      stop\n        /* \"@openzeppelin/contracts/token/ERC721/extensions/ERC721URIStorage.sol\":1210:1803  function tokenURI(uint256 tokenId) public view virtual override returns (string memory) {... */\n    tag_20:\n      tag_99\n      0x04\n      dup1\n      calldatasize\n      sub\n      dup2\n      add\n      swap1\n      tag_100\n      swap2\n      swap1\n      tag_31\n      jump\t// in\n    tag_100:\n      tag_101\n      jump\t// in\n    tag_99:\n      mload(0x40)\n      tag_102\n      swap2\n      swap1\n      tag_43\n      jump\t// in\n    tag_102:\n      mload(0x40)\n      dup1\n      swap2\n      sub\n      swap1\n      return\n        /* \"contracts/NFT.sol\":1342:2106  function mint(address _to, string calldata _uri) external returns (uint256){ ... */\n    tag_21:\n      tag_103\n      0x04\n      dup1\n      calldatasize\n      sub\n      dup2\n      add\n      swap1\n      tag_104\n      swap2\n      swap1\n      tag_105\n      jump\t// in\n    tag_104:\n      tag_106\n      jump\t// in\n    tag_103:\n      mload(0x40)\n      tag_107\n      swap2\n      swap1\n      tag_56\n      jump\t// in\n    tag_107:\n      mload(0x40)\n      dup1\n      swap2\n      sub\n      swap1\n      return\n        /* \"contracts/NFT.sol\":3354:3531  function generateIPFSHash(string memory ipfsLink) public pure returns (bytes32) {... */\n    tag_22:\n      tag_108\n      0x04\n      dup1\n      calldatasize\n      sub\n      dup2\n      add\n      swap1\n      tag_109\n      swap2\n      swap1\n      tag_110\n      jump\t// in\n    tag_109:\n      tag_111\n      jump\t// in\n    tag_108:\n      mload(0x40)\n      tag_112\n      swap2\n      swap1\n      tag_90\n      jump\t// in\n    tag_112:\n      mload(0x40)\n      dup1\n      swap2\n      sub\n      swap1\n      return\n        /* \"contracts/NFT.sol\":2913:3128  function verifyNFTHash(uint256 tokenId, bytes32 providedHash) external view returns (bool) {... */\n    tag_23:\n      tag_113\n      0x04\n      dup1\n      calldatasize\n      sub\n      dup2\n      add\n      swap1\n      tag_114\n      swap2\n      swap1\n      tag_115\n      jump\t// in\n    tag_114:\n      tag_116\n      jump\t// in\n    tag_113:\n      mload(0x40)\n      tag_117\n      swap2\n      swap1\n      tag_34\n      jump\t// in\n    tag_117:\n      mload(0x40)\n      dup1\n      swap2\n      sub\n      swap1\n      return\n        /* \"@openzeppelin/contracts/token/ERC721/ERC721.sol\":3928:4081  function isApprovedForAll(address owner, address operator) public view virtual returns (bool) {... */\n    tag_24:\n      tag_118\n      0x04\n      dup1\n      calldatasize\n      sub\n      dup2\n      add\n      swap1\n      tag_119\n      swap2\n      swap1\n      tag_120\n      jump\t// in\n    tag_119:\n      tag_121\n      jump\t// in\n    tag_118:\n      mload(0x40)\n      tag_122\n      swap2\n      swap1\n      tag_34\n      jump\t// in\n    tag_122:\n      mload(0x40)\n      dup1\n      swap2\n      sub\n      swap1\n      return\n        /* \"contracts/NFT.sol\":1045:1089  mapping(uint256 => bytes32) public nftHashes */\n    tag_25:\n      tag_123\n      0x04\n      dup1\n      calldatasize\n      sub\n      dup2\n      add\n      swap1\n      tag_124\n      swap2\n      swap1\n      tag_31\n      jump\t// in\n    tag_124:\n      tag_125\n      jump\t// in\n    tag_123:\n      mload(0x40)\n      tag_126\n      swap2\n      swap1\n      tag_90\n      jump\t// in\n    tag_126:\n      mload(0x40)\n      dup1\n      swap2\n      sub\n      swap1\n      return\n        /* \"contracts/NFT.sol\":3180:3292  function tokenExists(uint256 tokenId) public view returns (bool) {... */\n    tag_32:\n        /* \"contracts/NFT.sol\":3239:3243  bool */\n      0x00\n        /* \"contracts/NFT.sol\":3263:3275  _tokenExists */\n      0x0a\n        /* \"contracts/NFT.sol\":3263:3284  _tokenExists[tokenId] */\n      0x00\n        /* \"contracts/NFT.sol\":3276:3283  tokenId */\n      dup4\n        /* \"contracts/NFT.sol\":3263:3284  _tokenExists[tokenId] */\n      dup2\n      mstore\n      0x20\n      add\n      swap1\n      dup2\n      mstore\n      0x20\n      add\n      0x00\n      keccak256\n      0x00\n      swap1\n      sload\n      swap1\n      0x0100\n      exp\n      swap1\n      div\n      0xff\n      and\n        /* \"contracts/NFT.sol\":3256:3284  return _tokenExists[tokenId] */\n      swap1\n      pop\n        /* \"contracts/NFT.sol\":3180:3292  function tokenExists(uint256 tokenId) public view returns (bool) {... */\n      swap2\n      swap1\n      pop\n      jump\t// out\n        /* \"@openzeppelin/contracts/token/ERC721/extensions/ERC721URIStorage.sol\":937:1144  function supportsInterface(bytes4 interfaceId) public view virtual override(ERC721, IERC165) returns (bool) {... */\n    tag_38:\n        /* \"@openzeppelin/contracts/token/ERC721/extensions/ERC721URIStorage.sol\":1039:1043  bool */\n      0x00\n        /* \"@openzeppelin/contracts/token/ERC721/extensions/ERC721URIStorage.sol\":760:770  0x49064906 */\n      0x49064906\n        /* \"@openzeppelin/contracts/token/ERC721/extensions/ERC721URIStorage.sol\":753:771  bytes4(0x49064906) */\n      0xe0\n      shl\n        /* \"@openzeppelin/contracts/token/ERC721/extensions/ERC721URIStorage.sol\":1062:1097  interfaceId == ERC4906_INTERFACE_ID */\n      not(0xffffffffffffffffffffffffffffffffffffffffffffffffffffffff)\n      and\n        /* \"@openzeppelin/contracts/token/ERC721/extensions/ERC721URIStorage.sol\":1062:1073  interfaceId */\n      dup3\n        /* \"@openzeppelin/contracts/token/ERC721/extensions/ERC721URIStorage.sol\":1062:1097  interfaceId == ERC4906_INTERFACE_ID */\n      not(0xffffffffffffffffffffffffffffffffffffffffffffffffffffffff)\n      and\n      eq\n        /* \"@openzeppelin/contracts/token/ERC721/extensions/ERC721URIStorage.sol\":1062:1137  interfaceId == ERC4906_INTERFACE_ID || super.supportsInterface(interfaceId) */\n      dup1\n      tag_129\n      jumpi\n      pop\n        /* \"@openzeppelin/contracts/token/ERC721/extensions/ERC721URIStorage.sol\":1101:1137  super.supportsInterface(interfaceId) */\n      tag_130\n        /* \"@openzeppelin/contracts/token/ERC721/extensions/ERC721URIStorage.sol\":1125:1136  interfaceId */\n      dup3\n        /* \"@openzeppelin/contracts/token/ERC721/extensions/ERC721URIStorage.sol\":1101:1124  super.supportsInterface */\n      tag_131\n        /* \"@openzeppelin/contracts/token/ERC721/extensions/ERC721URIStorage.sol\":1101:1137  super.supportsInterface(interfaceId) */\n      jump\t// in\n    tag_130:\n        /* \"@openzeppelin/contracts/token/ERC721/extensions/ERC721URIStorage.sol\":1062:1137  interfaceId == ERC4906_INTERFACE_ID || super.supportsInterface(interfaceId) */\n    tag_129:\n        /* \"@openzeppelin/contracts/token/ERC721/extensions/ERC721URIStorage.sol\":1055:1137  return interfaceId == ERC4906_INTERFACE_ID || super.supportsInterface(interfaceId) */\n      swap1\n      pop\n        /* \"@openzeppelin/contracts/token/ERC721/extensions/ERC721URIStorage.sol\":937:1144  function supportsInterface(bytes4 interfaceId) public view virtual override(ERC721, IERC165) returns (bool) {... */\n      swap2\n      swap1\n      pop\n      jump\t// out\n        /* \"@openzeppelin/contracts/token/ERC721/ERC721.sol\":2365:2454  function name() public view virtual returns (string memory) {... */\n    tag_41:\n        /* \"@openzeppelin/contracts/token/ERC721/ERC721.sol\":2410:2423  string memory */\n      0x60\n        /* \"@openzeppelin/contracts/token/ERC721/ERC721.sol\":2442:2447  _name */\n      0x00\n        /* \"@openzeppelin/contracts/token/ERC721/ERC721.sol\":2435:2447  return _name */\n      dup1\n      sload\n      tag_133\n      swap1\n      tag_134\n      jump\t// in\n    tag_133:\n      dup1\n      0x1f\n      add\n      0x20\n      dup1\n      swap2\n      div\n      mul\n      0x20\n      add\n      mload(0x40)\n      swap1\n      dup2\n      add\n      0x40\n      mstore\n      dup1\n      swap3\n      swap2\n      swap1\n      dup2\n      dup2\n      mstore\n      0x20\n      add\n      dup3\n      dup1\n      sload\n      tag_135\n      swap1\n      tag_134\n      jump\t// in\n    tag_135:\n      dup1\n      iszero\n      tag_136\n      jumpi\n      dup1\n      0x1f\n      lt\n      tag_137\n      jumpi\n      0x0100\n      dup1\n      dup4\n      sload\n      div\n      mul\n      dup4\n      mstore\n      swap2\n      0x20\n      add\n      swap2\n      jump(tag_136)\n    tag_137:\n      dup3\n      add\n      swap2\n      swap1\n      0x00\n      mstore\n      keccak256(0x00, 0x20)\n      swap1\n    tag_138:\n      dup2\n      sload\n      dup2\n      mstore\n      swap1\n      0x01\n      add\n      swap1\n      0x20\n      add\n      dup1\n      dup4\n      gt\n      tag_138\n      jumpi\n      dup3\n      swap1\n      sub\n      0x1f\n      and\n      dup3\n      add\n      swap2\n    tag_136:\n      pop\n      pop\n      pop\n      pop\n      pop\n      swap1\n      pop\n        /* \"@openzeppelin/contracts/token/ERC721/ERC721.sol\":2365:2454  function name() public view virtual returns (string memory) {... */\n      swap1\n      jump\t// out\n        /* \"@openzeppelin/contracts/token/ERC721/ERC721.sol\":3497:3651  function getApproved(uint256 tokenId) public view virtual returns (address) {... */\n    tag_46:\n        /* \"@openzeppelin/contracts/token/ERC721/ERC721.sol\":3564:3571  address */\n      0x00\n        /* \"@openzeppelin/contracts/token/ERC721/ERC721.sol\":3583:3605  _requireOwned(tokenId) */\n      tag_140\n        /* \"@openzeppelin/contracts/token/ERC721/ERC721.sol\":3597:3604  tokenId */\n      dup3\n        /* \"@openzeppelin/contracts/token/ERC721/ERC721.sol\":3583:3596  _requireOwned */\n      tag_141\n        /* \"@openzeppelin/contracts/token/ERC721/ERC721.sol\":3583:3605  _requireOwned(tokenId) */\n      jump\t// in\n    tag_140:\n      pop\n        /* \"@openzeppelin/contracts/token/ERC721/ERC721.sol\":3623:3644  _getApproved(tokenId) */\n      tag_142\n        /* \"@openzeppelin/contracts/token/ERC721/ERC721.sol\":3636:3643  tokenId */\n      dup3\n        /* \"@openzeppelin/contracts/token/ERC721/ERC721.sol\":3623:3635  _getApproved */\n      tag_143\n        /* \"@openzeppelin/contracts/token/ERC721/ERC721.sol\":3623:3644  _getApproved(tokenId) */\n      jump\t// in\n    tag_142:\n        /* \"@openzeppelin/contracts/token/ERC721/ERC721.sol\":3616:3644  return _getApproved(tokenId) */\n      swap1\n      pop\n        /* \"@openzeppelin/contracts/token/ERC721/ERC721.sol\":3497:3651  function getApproved(uint256 tokenId) public view virtual returns (address) {... */\n      swap2\n      swap1\n      pop\n      jump\t// out\n        /* \"@openzeppelin/contracts/token/ERC721/ERC721.sol\":3323:3436  function approve(address to, uint256 tokenId) public virtual {... */\n    tag_52:\n        /* \"@openzeppelin/contracts/token/ERC721/ERC721.sol\":3394:3429  _approve(to, tokenId, _msgSender()) */\n      tag_145\n        /* \"@openzeppelin/contracts/token/ERC721/ERC721.sol\":3403:3405  to */\n      dup3\n        /* \"@openzeppelin/contracts/token/ERC721/ERC721.sol\":3407:3414  tokenId */\n      dup3\n        /* \"@openzeppelin/contracts/token/ERC721/ERC721.sol\":3416:3428  _msgSender() */\n      tag_146\n        /* \"@openzeppelin/contracts/token/ERC721/ERC721.sol\":3416:3426  _msgSender */\n      tag_147\n        /* \"@openzeppelin/contracts/token/ERC721/ERC721.sol\":3416:3428  _msgSender() */\n      jump\t// in\n    tag_146:\n        /* \"@openzeppelin/contracts/token/ERC721/ERC721.sol\":3394:3402  _approve */\n      tag_148\n        /* \"@openzeppelin/contracts/token/ERC721/ERC721.sol\":3394:3429  _approve(to, tokenId, _msgSender()) */\n      jump\t// in\n    tag_145:\n        /* \"@openzeppelin/contracts/token/ERC721/ERC721.sol\":3323:3436  function approve(address to, uint256 tokenId) public virtual {... */\n      pop\n      pop\n      jump\t// out\n        /* \"contracts/NFT.sol\":2474:2562  function totalSupply() public view returns(uint256){... */\n    tag_54:\n        /* \"contracts/NFT.sol\":2517:2524  uint256 */\n      0x00\n        /* \"contracts/NFT.sol\":2543:2554  totalTokens */\n      sload(0x07)\n        /* \"contracts/NFT.sol\":2536:2554  return totalTokens */\n      swap1\n      pop\n        /* \"contracts/NFT.sol\":2474:2562  function totalSupply() public view returns(uint256){... */\n      swap1\n      jump\t// out\n        /* \"@openzeppelin/contracts/token/ERC721/ERC721.sol\":4143:4721  function transferFrom(address from, address to, uint256 tokenId) public virtual {... */\n    tag_60:\n        /* \"@openzeppelin/contracts/token/ERC721/ERC721.sol\":4251:4252  0 */\n      0x00\n        /* \"@openzeppelin/contracts/token/ERC721/ERC721.sol\":4237:4253  to == address(0) */\n      0xffffffffffffffffffffffffffffffffffffffff\n      and\n        /* \"@openzeppelin/contracts/token/ERC721/ERC721.sol\":4237:4239  to */\n      dup3\n        /* \"@openzeppelin/contracts/token/ERC721/ERC721.sol\":4237:4253  to == address(0) */\n      0xffffffffffffffffffffffffffffffffffffffff\n      and\n      sub\n        /* \"@openzeppelin/contracts/token/ERC721/ERC721.sol\":4233:4320  if (to == address(0)) {... */\n      tag_151\n      jumpi\n        /* \"@openzeppelin/contracts/token/ERC721/ERC721.sol\":4306:4307  0 */\n      0x00\n        /* \"@openzeppelin/contracts/token/ERC721/ERC721.sol\":4276:4309  ERC721InvalidReceiver(address(0)) */\n      mload(0x40)\n      0x64a0ae9200000000000000000000000000000000000000000000000000000000\n      dup2\n      mstore\n      0x04\n      add\n      tag_152\n      swap2\n      swap1\n      tag_48\n      jump\t// in\n    tag_152:\n      mload(0x40)\n      dup1\n      swap2\n      sub\n      swap1\n      revert\n        /* \"@openzeppelin/contracts/token/ERC721/ERC721.sol\":4233:4320  if (to == address(0)) {... */\n    tag_151:\n        /* \"@openzeppelin/contracts/token/ERC721/ERC721.sol\":4538:4559  address previousOwner */\n      0x00\n        /* \"@openzeppelin/contracts/token/ERC721/ERC721.sol\":4562:4596  _update(to, tokenId, _msgSender()) */\n      tag_153\n        /* \"@openzeppelin/contracts/token/ERC721/ERC721.sol\":4570:4572  to */\n      dup4\n        /* \"@openzeppelin/contracts/token/ERC721/ERC721.sol\":4574:4581  tokenId */\n      dup4\n        /* \"@openzeppelin/contracts/token/ERC721/ERC721.sol\":4583:4595  _msgSender() */\n      tag_154\n        /* \"@openzeppelin/contracts/token/ERC721/ERC721.sol\":4583:4593  _msgSender */\n      tag_147\n        /* \"@openzeppelin/contracts/token/ERC721/ERC721.sol\":4583:4595  _msgSender() */\n      jump\t// in\n    tag_154:\n        /* \"@openzeppelin/contracts/token/ERC721/ERC721.sol\":4562:4569  _update */\n      tag_155\n        /* \"@openzeppelin/contracts/token/ERC721/ERC721.sol\":4562:4596  _update(to, tokenId, _msgSender()) */\n      jump\t// in\n    tag_153:\n        /* \"@openzeppelin/contracts/token/ERC721/ERC721.sol\":4538:4596  address previousOwner = _update(to, tokenId, _msgSender()) */\n      swap1\n      pop\n        /* \"@openzeppelin/contracts/token/ERC721/ERC721.sol\":4627:4631  from */\n      dup4\n        /* \"@openzeppelin/contracts/token/ERC721/ERC721.sol\":4610:4631  previousOwner != from */\n      0xffffffffffffffffffffffffffffffffffffffff\n      and\n        /* \"@openzeppelin/contracts/token/ERC721/ERC721.sol\":4610:4623  previousOwner */\n      dup2\n        /* \"@openzeppelin/contracts/token/ERC721/ERC721.sol\":4610:4631  previousOwner != from */\n      0xffffffffffffffffffffffffffffffffffffffff\n      and\n      eq\n        /* \"@openzeppelin/contracts/token/ERC721/ERC721.sol\":4606:4715  if (previousOwner != from) {... */\n      tag_156\n      jumpi\n        /* \"@openzeppelin/contracts/token/ERC721/ERC721.sol\":4675:4679  from */\n      dup4\n        /* \"@openzeppelin/contracts/token/ERC721/ERC721.sol\":4681:4688  tokenId */\n      dup3\n        /* \"@openzeppelin/contracts/token/ERC721/ERC721.sol\":4690:4703  previousOwner */\n      dup3\n        /* \"@openzeppelin/contracts/token/ERC721/ERC721.sol\":4654:4704  ERC721IncorrectOwner(from, tokenId, previousOwner) */\n      mload(0x40)\n      0x64283d7b00000000000000000000000000000000000000000000000000000000\n      dup2\n      mstore\n      0x04\n      add\n      tag_157\n      swap4\n      swap3\n      swap2\n      swap1\n      tag_158\n      jump\t// in\n    tag_157:\n      mload(0x40)\n      dup1\n      swap2\n      sub\n      swap1\n      revert\n        /* \"@openzeppelin/contracts/token/ERC721/ERC721.sol\":4606:4715  if (previousOwner != from) {... */\n    tag_156:\n        /* \"@openzeppelin/contracts/token/ERC721/ERC721.sol\":4223:4721  {... */\n      pop\n        /* \"@openzeppelin/contracts/token/ERC721/ERC721.sol\":4143:4721  function transferFrom(address from, address to, uint256 tokenId) public virtual {... */\n      pop\n      pop\n      pop\n      jump\t// out\n        /* \"@openzeppelin/contracts/token/ERC721/ERC721.sol\":4787:4919  function safeTransferFrom(address from, address to, uint256 tokenId) public {... */\n    tag_63:\n        /* \"@openzeppelin/contracts/token/ERC721/ERC721.sol\":4873:4912  safeTransferFrom(from, to, tokenId, \"\") */\n      tag_160\n        /* \"@openzeppelin/contracts/token/ERC721/ERC721.sol\":4890:4894  from */\n      dup4\n        /* \"@openzeppelin/contracts/token/ERC721/ERC721.sol\":4896:4898  to */\n      dup4\n        /* \"@openzeppelin/contracts/token/ERC721/ERC721.sol\":4900:4907  tokenId */\n      dup4\n        /* \"@openzeppelin/contracts/token/ERC721/ERC721.sol\":4873:4912  safeTransferFrom(from, to, tokenId, \"\") */\n      mload(0x40)\n      dup1\n      0x20\n      add\n      0x40\n      mstore\n      dup1\n      0x00\n      dup2\n      mstore\n      pop\n        /* \"@openzeppelin/contracts/token/ERC721/ERC721.sol\":4873:4889  safeTransferFrom */\n      tag_98\n        /* \"@openzeppelin/contracts/token/ERC721/ERC721.sol\":4873:4912  safeTransferFrom(from, to, tokenId, \"\") */\n      jump\t// in\n    tag_160:\n        /* \"@openzeppelin/contracts/token/ERC721/ERC721.sol\":4787:4919  function safeTransferFrom(address from, address to, uint256 tokenId) public {... */\n      pop\n      pop\n      pop\n      jump\t// out\n        /* \"contracts/NFT.sol\":2114:2249  function burn(uint256 tokenId) public {... */\n    tag_66:\n        /* \"contracts/NFT.sol\":2171:2191  tokenExists(tokenId) */\n      tag_162\n        /* \"contracts/NFT.sol\":2183:2190  tokenId */\n      dup2\n        /* \"contracts/NFT.sol\":2171:2182  tokenExists */\n      tag_32\n        /* \"contracts/NFT.sol\":2171:2191  tokenExists(tokenId) */\n      jump\t// in\n    tag_162:\n        /* \"contracts/NFT.sol\":2163:2216  require(tokenExists(tokenId), \"Token does not exist\") */\n      tag_163\n      jumpi\n      mload(0x40)\n      0x08c379a000000000000000000000000000000000000000000000000000000000\n      dup2\n      mstore\n      0x04\n      add\n      tag_164\n      swap1\n      tag_165\n      jump\t// in\n    tag_164:\n      mload(0x40)\n      dup1\n      swap2\n      sub\n      swap1\n      revert\n    tag_163:\n        /* \"contracts/NFT.sol\":2227:2241  _burn(tokenId) */\n      tag_166\n        /* \"contracts/NFT.sol\":2233:2240  tokenId */\n      dup2\n        /* \"contracts/NFT.sol\":2227:2232  _burn */\n      tag_167\n        /* \"contracts/NFT.sol\":2227:2241  _burn(tokenId) */\n      jump\t// in\n    tag_166:\n        /* \"contracts/NFT.sol\":2114:2249  function burn(uint256 tokenId) public {... */\n      pop\n      jump\t// out\n        /* \"contracts/NFT.sol\":2257:2466  function tokenByIndex(uint256 index) external view returns (uint256) {... */\n    tag_69:\n        /* \"contracts/NFT.sol\":2317:2324  uint256 */\n      0x00\n        /* \"contracts/NFT.sol\":2353:2372  _tokenIds.current() */\n      tag_169\n        /* \"contracts/NFT.sol\":2353:2362  _tokenIds */\n      0x08\n        /* \"contracts/NFT.sol\":2353:2370  _tokenIds.current */\n      tag_170\n        /* \"contracts/NFT.sol\":2353:2372  _tokenIds.current() */\n      jump\t// in\n    tag_169:\n        /* \"contracts/NFT.sol\":2345:2350  index */\n      dup3\n        /* \"contracts/NFT.sol\":2345:2372  index < _tokenIds.current() */\n      lt\n        /* \"contracts/NFT.sol\":2337:2396  require(index < _tokenIds.current(), \"Index out of bounds\") */\n      tag_171\n      jumpi\n      mload(0x40)\n      0x08c379a000000000000000000000000000000000000000000000000000000000\n      dup2\n      mstore\n      0x04\n      add\n      tag_172\n      swap1\n      tag_173\n      jump\t// in\n    tag_172:\n      mload(0x40)\n      dup1\n      swap2\n      sub\n      swap1\n      revert\n    tag_171:\n        /* \"contracts/NFT.sol\":2422:2423  1 */\n      0x01\n        /* \"contracts/NFT.sol\":2414:2419  index */\n      dup3\n        /* \"contracts/NFT.sol\":2414:2423  index + 1 */\n      tag_174\n      swap2\n      swap1\n      tag_175\n      jump\t// in\n    tag_174:\n        /* \"contracts/NFT.sol\":2407:2423  return index + 1 */\n      swap1\n      pop\n        /* \"contracts/NFT.sol\":2257:2466  function tokenByIndex(uint256 index) external view returns (uint256) {... */\n      swap2\n      swap1\n      pop\n      jump\t// out\n        /* \"@openzeppelin/contracts/token/ERC721/ERC721.sol\":2185:2303  function ownerOf(uint256 tokenId) public view virtual returns (address) {... */\n    tag_73:\n        /* \"@openzeppelin/contracts/token/ERC721/ERC721.sol\":2248:2255  address */\n      0x00\n        /* \"@openzeppelin/contracts/token/ERC721/ERC721.sol\":2274:2296  _requireOwned(tokenId) */\n      tag_177\n        /* \"@openzeppelin/contracts/token/ERC721/ERC721.sol\":2288:2295  tokenId */\n      dup3\n        /* \"@openzeppelin/contracts/token/ERC721/ERC721.sol\":2274:2287  _requireOwned */\n      tag_141\n        /* \"@openzeppelin/contracts/token/ERC721/ERC721.sol\":2274:2296  _requireOwned(tokenId) */\n      jump\t// in\n    tag_177:\n        /* \"@openzeppelin/contracts/token/ERC721/ERC721.sol\":2267:2296  return _requireOwned(tokenId) */\n      swap1\n      pop\n        /* \"@openzeppelin/contracts/token/ERC721/ERC721.sol\":2185:2303  function ownerOf(uint256 tokenId) public view virtual returns (address) {... */\n      swap2\n      swap1\n      pop\n      jump\t// out\n        /* \"@openzeppelin/contracts/token/ERC721/ERC721.sol\":1920:2128  function balanceOf(address owner) public view virtual returns (uint256) {... */\n    tag_78:\n        /* \"@openzeppelin/contracts/token/ERC721/ERC721.sol\":1983:1990  uint256 */\n      0x00\n        /* \"@openzeppelin/contracts/token/ERC721/ERC721.sol\":2023:2024  0 */\n      dup1\n        /* \"@openzeppelin/contracts/token/ERC721/ERC721.sol\":2006:2025  owner == address(0) */\n      0xffffffffffffffffffffffffffffffffffffffff\n      and\n        /* \"@openzeppelin/contracts/token/ERC721/ERC721.sol\":2006:2011  owner */\n      dup3\n        /* \"@openzeppelin/contracts/token/ERC721/ERC721.sol\":2006:2025  owner == address(0) */\n      0xffffffffffffffffffffffffffffffffffffffff\n      and\n      sub\n        /* \"@openzeppelin/contracts/token/ERC721/ERC721.sol\":2002:2089  if (owner == address(0)) {... */\n      tag_179\n      jumpi\n        /* \"@openzeppelin/contracts/token/ERC721/ERC721.sol\":2075:2076  0 */\n      0x00\n        /* \"@openzeppelin/contracts/token/ERC721/ERC721.sol\":2048:2078  ERC721InvalidOwner(address(0)) */\n      mload(0x40)\n      0x89c62b6400000000000000000000000000000000000000000000000000000000\n      dup2\n      mstore\n      0x04\n      add\n      tag_180\n      swap2\n      swap1\n      tag_48\n      jump\t// in\n    tag_180:\n      mload(0x40)\n      dup1\n      swap2\n      sub\n      swap1\n      revert\n        /* \"@openzeppelin/contracts/token/ERC721/ERC721.sol\":2002:2089  if (owner == address(0)) {... */\n    tag_179:\n        /* \"@openzeppelin/contracts/token/ERC721/ERC721.sol\":2105:2114  _balances */\n      0x03\n        /* \"@openzeppelin/contracts/token/ERC721/ERC721.sol\":2105:2121  _balances[owner] */\n      0x00\n        /* \"@openzeppelin/contracts/token/ERC721/ERC721.sol\":2115:2120  owner */\n      dup4\n        /* \"@openzeppelin/contracts/token/ERC721/ERC721.sol\":2105:2121  _balances[owner] */\n      0xffffffffffffffffffffffffffffffffffffffff\n      and\n      0xffffffffffffffffffffffffffffffffffffffff\n      and\n      dup2\n      mstore\n      0x20\n      add\n      swap1\n      dup2\n      mstore\n      0x20\n      add\n      0x00\n      keccak256\n      sload\n        /* \"@openzeppelin/contracts/token/ERC721/ERC721.sol\":2098:2121  return _balances[owner] */\n      swap1\n      pop\n        /* \"@openzeppelin/contracts/token/ERC721/ERC721.sol\":1920:2128  function balanceOf(address owner) public view virtual returns (uint256) {... */\n      swap2\n      swap1\n      pop\n      jump\t// out\n        /* \"contracts/NFT.sol\":821:847  uint256 public totalTokens */\n    tag_81:\n      sload(0x07)\n      dup2\n      jump\t// out\n        /* \"@openzeppelin/contracts/token/ERC721/ERC721.sol\":2518:2611  function symbol() public view virtual returns (string memory) {... */\n    tag_84:\n        /* \"@openzeppelin/contracts/token/ERC721/ERC721.sol\":2565:2578  string memory */\n      0x60\n        /* \"@openzeppelin/contracts/token/ERC721/ERC721.sol\":2597:2604  _symbol */\n      0x01\n        /* \"@openzeppelin/contracts/token/ERC721/ERC721.sol\":2590:2604  return _symbol */\n      dup1\n      sload\n      tag_182\n      swap1\n      tag_134\n      jump\t// in\n    tag_182:\n      dup1\n      0x1f\n      add\n      0x20\n      dup1\n      swap2\n      div\n      mul\n      0x20\n      add\n      mload(0x40)\n      swap1\n      dup2\n      add\n      0x40\n      mstore\n      dup1\n      swap3\n      swap2\n      swap1\n      dup2\n      dup2\n      mstore\n      0x20\n      add\n      dup3\n      dup1\n      sload\n      tag_183\n      swap1\n      tag_134\n      jump\t// in\n    tag_183:\n      dup1\n      iszero\n      tag_184\n      jumpi\n      dup1\n      0x1f\n      lt\n      tag_185\n      jumpi\n      0x0100\n      dup1\n      dup4\n      sload\n      div\n      mul\n      dup4\n      mstore\n      swap2\n      0x20\n      add\n      swap2\n      jump(tag_184)\n    tag_185:\n      dup3\n      add\n      swap2\n      swap1\n      0x00\n      mstore\n      keccak256(0x00, 0x20)\n      swap1\n    tag_186:\n      dup2\n      sload\n      dup2\n      mstore\n      swap1\n      0x01\n      add\n      swap1\n      0x20\n      add\n      dup1\n      dup4\n      gt\n      tag_186\n      jumpi\n      dup3\n      swap1\n      sub\n      0x1f\n      and\n      dup3\n      add\n      swap2\n    tag_184:\n      pop\n      pop\n      pop\n      pop\n      pop\n      swap1\n      pop\n        /* \"@openzeppelin/contracts/token/ERC721/ERC721.sol\":2518:2611  function symbol() public view virtual returns (string memory) {... */\n      swap1\n      jump\t// out\n        /* \"contracts/NFT.sol\":2635:2822  function getBlockHashForToken(uint256 tokenId) external view returns (bytes32) {... */\n    tag_88:\n        /* \"contracts/NFT.sol\":2705:2712  bytes32 */\n      0x00\n        /* \"contracts/NFT.sol\":2733:2753  tokenExists(tokenId) */\n      tag_188\n        /* \"contracts/NFT.sol\":2745:2752  tokenId */\n      dup3\n        /* \"contracts/NFT.sol\":2733:2744  tokenExists */\n      tag_32\n        /* \"contracts/NFT.sol\":2733:2753  tokenExists(tokenId) */\n      jump\t// in\n    tag_188:\n        /* \"contracts/NFT.sol\":2725:2778  require(tokenExists(tokenId), \"Token does not exist\") */\n      tag_189\n      jumpi\n      mload(0x40)\n      0x08c379a000000000000000000000000000000000000000000000000000000000\n      dup2\n      mstore\n      0x04\n      add\n      tag_190\n      swap1\n      tag_165\n      jump\t// in\n    tag_190:\n      mload(0x40)\n      dup1\n      swap2\n      sub\n      swap1\n      revert\n    tag_189:\n        /* \"contracts/NFT.sol\":2806:2813  tokenId */\n      dup2\n        /* \"contracts/NFT.sol\":2796:2814  blockhash(tokenId) */\n      blockhash\n        /* \"contracts/NFT.sol\":2789:2814  return blockhash(tokenId) */\n      swap1\n      pop\n        /* \"contracts/NFT.sol\":2635:2822  function getBlockHashForToken(uint256 tokenId) external view returns (bytes32) {... */\n      swap2\n      swap1\n      pop\n      jump\t// out\n        /* \"@openzeppelin/contracts/token/ERC721/ERC721.sol\":3718:3862  function setApprovalForAll(address operator, bool approved) public virtual {... */\n    tag_94:\n        /* \"@openzeppelin/contracts/token/ERC721/ERC721.sol\":3803:3855  _setApprovalForAll(_msgSender(), operator, approved) */\n      tag_192\n        /* \"@openzeppelin/contracts/token/ERC721/ERC721.sol\":3822:3834  _msgSender() */\n      tag_193\n        /* \"@openzeppelin/contracts/token/ERC721/ERC721.sol\":3822:3832  _msgSender */\n      tag_147\n        /* \"@openzeppelin/contracts/token/ERC721/ERC721.sol\":3822:3834  _msgSender() */\n      jump\t// in\n    tag_193:\n        /* \"@openzeppelin/contracts/token/ERC721/ERC721.sol\":3836:3844  operator */\n      dup4\n        /* \"@openzeppelin/contracts/token/ERC721/ERC721.sol\":3846:3854  approved */\n      dup4\n        /* \"@openzeppelin/contracts/token/ERC721/ERC721.sol\":3803:3821  _setApprovalForAll */\n      tag_194\n        /* \"@openzeppelin/contracts/token/ERC721/ERC721.sol\":3803:3855  _setApprovalForAll(_msgSender(), operator, approved) */\n      jump\t// in\n    tag_192:\n        /* \"@openzeppelin/contracts/token/ERC721/ERC721.sol\":3718:3862  function setApprovalForAll(address operator, bool approved) public virtual {... */\n      pop\n      pop\n      jump\t// out\n        /* \"@openzeppelin/contracts/token/ERC721/ERC721.sol\":4985:5193  function safeTransferFrom(address from, address to, uint256 tokenId, bytes memory data) public virtual {... */\n    tag_98:\n        /* \"@openzeppelin/contracts/token/ERC721/ERC721.sol\":5098:5129  transferFrom(from, to, tokenId) */\n      tag_196\n        /* \"@openzeppelin/contracts/token/ERC721/ERC721.sol\":5111:5115  from */\n      dup5\n        /* \"@openzeppelin/contracts/token/ERC721/ERC721.sol\":5117:5119  to */\n      dup5\n        /* \"@openzeppelin/contracts/token/ERC721/ERC721.sol\":5121:5128  tokenId */\n      dup5\n        /* \"@openzeppelin/contracts/token/ERC721/ERC721.sol\":5098:5110  transferFrom */\n      tag_60\n        /* \"@openzeppelin/contracts/token/ERC721/ERC721.sol\":5098:5129  transferFrom(from, to, tokenId) */\n      jump\t// in\n    tag_196:\n        /* \"@openzeppelin/contracts/token/ERC721/ERC721.sol\":5139:5186  _checkOnERC721Received(from, to, tokenId, data) */\n      tag_197\n        /* \"@openzeppelin/contracts/token/ERC721/ERC721.sol\":5162:5166  from */\n      dup5\n        /* \"@openzeppelin/contracts/token/ERC721/ERC721.sol\":5168:5170  to */\n      dup5\n        /* \"@openzeppelin/contracts/token/ERC721/ERC721.sol\":5172:5179  tokenId */\n      dup5\n        /* \"@openzeppelin/contracts/token/ERC721/ERC721.sol\":5181:5185  data */\n      dup5\n        /* \"@openzeppelin/contracts/token/ERC721/ERC721.sol\":5139:5161  _checkOnERC721Received */\n      tag_198\n        /* \"@openzeppelin/contracts/token/ERC721/ERC721.sol\":5139:5186  _checkOnERC721Received(from, to, tokenId, data) */\n      jump\t// in\n    tag_197:\n        /* \"@openzeppelin/contracts/token/ERC721/ERC721.sol\":4985:5193  function safeTransferFrom(address from, address to, uint256 tokenId, bytes memory data) public virtual {... */\n      pop\n      pop\n      pop\n      pop\n      jump\t// out\n        /* \"@openzeppelin/contracts/token/ERC721/extensions/ERC721URIStorage.sol\":1210:1803  function tokenURI(uint256 tokenId) public view virtual override returns (string memory) {... */\n    tag_101:\n        /* \"@openzeppelin/contracts/token/ERC721/extensions/ERC721URIStorage.sol\":1283:1296  string memory */\n      0x60\n        /* \"@openzeppelin/contracts/token/ERC721/extensions/ERC721URIStorage.sol\":1308:1330  _requireOwned(tokenId) */\n      tag_200\n        /* \"@openzeppelin/contracts/token/ERC721/extensions/ERC721URIStorage.sol\":1322:1329  tokenId */\n      dup3\n        /* \"@openzeppelin/contracts/token/ERC721/extensions/ERC721URIStorage.sol\":1308:1321  _requireOwned */\n      tag_141\n        /* \"@openzeppelin/contracts/token/ERC721/extensions/ERC721URIStorage.sol\":1308:1330  _requireOwned(tokenId) */\n      jump\t// in\n    tag_200:\n      pop\n        /* \"@openzeppelin/contracts/token/ERC721/extensions/ERC721URIStorage.sol\":1341:1364  string memory _tokenURI */\n      0x00\n        /* \"@openzeppelin/contracts/token/ERC721/extensions/ERC721URIStorage.sol\":1367:1377  _tokenURIs */\n      0x06\n        /* \"@openzeppelin/contracts/token/ERC721/extensions/ERC721URIStorage.sol\":1367:1386  _tokenURIs[tokenId] */\n      0x00\n        /* \"@openzeppelin/contracts/token/ERC721/extensions/ERC721URIStorage.sol\":1378:1385  tokenId */\n      dup5\n        /* \"@openzeppelin/contracts/token/ERC721/extensions/ERC721URIStorage.sol\":1367:1386  _tokenURIs[tokenId] */\n      dup2\n      mstore\n      0x20\n      add\n      swap1\n      dup2\n      mstore\n      0x20\n      add\n      0x00\n      keccak256\n        /* \"@openzeppelin/contracts/token/ERC721/extensions/ERC721URIStorage.sol\":1341:1386  string memory _tokenURI = _tokenURIs[tokenId] */\n      dup1\n      sload\n      tag_201\n      swap1\n      tag_134\n      jump\t// in\n    tag_201:\n      dup1\n      0x1f\n      add\n      0x20\n      dup1\n      swap2\n      div\n      mul\n      0x20\n      add\n      mload(0x40)\n      swap1\n      dup2\n      add\n      0x40\n      mstore\n      dup1\n      swap3\n      swap2\n      swap1\n      dup2\n      dup2\n      mstore\n      0x20\n      add\n      dup3\n      dup1\n      sload\n      tag_202\n      swap1\n      tag_134\n      jump\t// in\n    tag_202:\n      dup1\n      iszero\n      tag_203\n      jumpi\n      dup1\n      0x1f\n      lt\n      tag_204\n      jumpi\n      0x0100\n      dup1\n      dup4\n      sload\n      div\n      mul\n      dup4\n      mstore\n      swap2\n      0x20\n      add\n      swap2\n      jump(tag_203)\n    tag_204:\n      dup3\n      add\n      swap2\n      swap1\n      0x00\n      mstore\n      keccak256(0x00, 0x20)\n      swap1\n    tag_205:\n      dup2\n      sload\n      dup2\n      mstore\n      swap1\n      0x01\n      add\n      swap1\n      0x20\n      add\n      dup1\n      dup4\n      gt\n      tag_205\n      jumpi\n      dup3\n      swap1\n      sub\n      0x1f\n      and\n      dup3\n      add\n      swap2\n    tag_203:\n      pop\n      pop\n      pop\n      pop\n      pop\n      swap1\n      pop\n        /* \"@openzeppelin/contracts/token/ERC721/extensions/ERC721URIStorage.sol\":1396:1414  string memory base */\n      0x00\n        /* \"@openzeppelin/contracts/token/ERC721/extensions/ERC721URIStorage.sol\":1417:1427  _baseURI() */\n      tag_206\n        /* \"@openzeppelin/contracts/token/ERC721/extensions/ERC721URIStorage.sol\":1417:1425  _baseURI */\n      tag_207\n        /* \"@openzeppelin/contracts/token/ERC721/extensions/ERC721URIStorage.sol\":1417:1427  _baseURI() */\n      jump\t// in\n    tag_206:\n        /* \"@openzeppelin/contracts/token/ERC721/extensions/ERC721URIStorage.sol\":1396:1427  string memory base = _baseURI() */\n      swap1\n      pop\n        /* \"@openzeppelin/contracts/token/ERC721/extensions/ERC721URIStorage.sol\":1522:1523  0 */\n      0x00\n        /* \"@openzeppelin/contracts/token/ERC721/extensions/ERC721URIStorage.sol\":1506:1510  base */\n      dup2\n        /* \"@openzeppelin/contracts/token/ERC721/extensions/ERC721URIStorage.sol\":1500:1518  bytes(base).length */\n      mload\n        /* \"@openzeppelin/contracts/token/ERC721/extensions/ERC721URIStorage.sol\":1500:1523  bytes(base).length == 0 */\n      sub\n        /* \"@openzeppelin/contracts/token/ERC721/extensions/ERC721URIStorage.sol\":1496:1566  if (bytes(base).length == 0) {... */\n      tag_208\n      jumpi\n        /* \"@openzeppelin/contracts/token/ERC721/extensions/ERC721URIStorage.sol\":1546:1555  _tokenURI */\n      dup2\n        /* \"@openzeppelin/contracts/token/ERC721/extensions/ERC721URIStorage.sol\":1539:1555  return _tokenURI */\n      swap3\n      pop\n      pop\n      pop\n      jump(tag_199)\n        /* \"@openzeppelin/contracts/token/ERC721/extensions/ERC721URIStorage.sol\":1496:1566  if (bytes(base).length == 0) {... */\n    tag_208:\n        /* \"@openzeppelin/contracts/token/ERC721/extensions/ERC721URIStorage.sol\":1691:1692  0 */\n      0x00\n        /* \"@openzeppelin/contracts/token/ERC721/extensions/ERC721URIStorage.sol\":1671:1680  _tokenURI */\n      dup3\n        /* \"@openzeppelin/contracts/token/ERC721/extensions/ERC721URIStorage.sol\":1665:1688  bytes(_tokenURI).length */\n      mload\n        /* \"@openzeppelin/contracts/token/ERC721/extensions/ERC721URIStorage.sol\":1665:1692  bytes(_tokenURI).length > 0 */\n      gt\n        /* \"@openzeppelin/contracts/token/ERC721/extensions/ERC721URIStorage.sol\":1661:1756  if (bytes(_tokenURI).length > 0) {... */\n      iszero\n      tag_209\n      jumpi\n        /* \"@openzeppelin/contracts/token/ERC721/extensions/ERC721URIStorage.sol\":1729:1733  base */\n      dup1\n        /* \"@openzeppelin/contracts/token/ERC721/extensions/ERC721URIStorage.sol\":1735:1744  _tokenURI */\n      dup3\n        /* \"@openzeppelin/contracts/token/ERC721/extensions/ERC721URIStorage.sol\":1715:1745  string.concat(base, _tokenURI) */\n      add(0x20, mload(0x40))\n      tag_210\n      swap3\n      swap2\n      swap1\n      tag_211\n      jump\t// in\n    tag_210:\n      mload(0x40)\n      0x20\n      dup2\n      dup4\n      sub\n      sub\n      dup2\n      mstore\n      swap1\n      0x40\n      mstore\n        /* \"@openzeppelin/contracts/token/ERC721/extensions/ERC721URIStorage.sol\":1708:1745  return string.concat(base, _tokenURI) */\n      swap3\n      pop\n      pop\n      pop\n      jump(tag_199)\n        /* \"@openzeppelin/contracts/token/ERC721/extensions/ERC721URIStorage.sol\":1661:1756  if (bytes(_tokenURI).length > 0) {... */\n    tag_209:\n        /* \"@openzeppelin/contracts/token/ERC721/extensions/ERC721URIStorage.sol\":1773:1796  super.tokenURI(tokenId) */\n      tag_212\n        /* \"@openzeppelin/contracts/token/ERC721/extensions/ERC721URIStorage.sol\":1788:1795  tokenId */\n      dup5\n        /* \"@openzeppelin/contracts/token/ERC721/extensions/ERC721URIStorage.sol\":1773:1787  super.tokenURI */\n      tag_213\n        /* \"@openzeppelin/contracts/token/ERC721/extensions/ERC721URIStorage.sol\":1773:1796  super.tokenURI(tokenId) */\n      jump\t// in\n    tag_212:\n        /* \"@openzeppelin/contracts/token/ERC721/extensions/ERC721URIStorage.sol\":1766:1796  return super.tokenURI(tokenId) */\n      swap3\n      pop\n      pop\n      pop\n        /* \"@openzeppelin/contracts/token/ERC721/extensions/ERC721URIStorage.sol\":1210:1803  function tokenURI(uint256 tokenId) public view virtual override returns (string memory) {... */\n    tag_199:\n      swap2\n      swap1\n      pop\n      jump\t// out\n        /* \"contracts/NFT.sol\":1342:2106  function mint(address _to, string calldata _uri) external returns (uint256){ ... */\n    tag_106:\n        /* \"contracts/NFT.sol\":1409:1416  uint256 */\n      0x00\n        /* \"contracts/NFT.sol\":1458:1459  0 */\n      dup1\n        /* \"contracts/NFT.sol\":1443:1447  _uri */\n      dup4\n      dup4\n        /* \"contracts/NFT.sol\":1437:1455  bytes(_uri).length */\n      swap1\n      pop\n        /* \"contracts/NFT.sol\":1437:1459  bytes(_uri).length > 0 */\n      gt\n        /* \"contracts/NFT.sol\":1429:1483  require(bytes(_uri).length > 0, \"URI cannot be empty\") */\n      tag_215\n      jumpi\n      mload(0x40)\n      0x08c379a000000000000000000000000000000000000000000000000000000000\n      dup2\n      mstore\n      0x04\n      add\n      tag_216\n      swap1\n      tag_217\n      jump\t// in\n    tag_216:\n      mload(0x40)\n      dup1\n      swap2\n      sub\n      swap1\n      revert\n    tag_215:\n        /* \"contracts/NFT.sol\":1505:1526  _tokenIds.increment() */\n      tag_218\n        /* \"contracts/NFT.sol\":1505:1514  _tokenIds */\n      0x08\n        /* \"contracts/NFT.sol\":1505:1524  _tokenIds.increment */\n      tag_219\n        /* \"contracts/NFT.sol\":1505:1526  _tokenIds.increment() */\n      jump\t// in\n    tag_218:\n        /* \"contracts/NFT.sol\":1537:1550  uint256 newId */\n      0x00\n        /* \"contracts/NFT.sol\":1553:1572  _tokenIds.current() */\n      tag_220\n        /* \"contracts/NFT.sol\":1553:1562  _tokenIds */\n      0x08\n        /* \"contracts/NFT.sol\":1553:1570  _tokenIds.current */\n      tag_170\n        /* \"contracts/NFT.sol\":1553:1572  _tokenIds.current() */\n      jump\t// in\n    tag_220:\n        /* \"contracts/NFT.sol\":1537:1572  uint256 newId = _tokenIds.current() */\n      swap1\n      pop\n        /* \"contracts/NFT.sol\":1583:1600  _mint(_to, newId) */\n      tag_221\n        /* \"contracts/NFT.sol\":1589:1592  _to */\n      dup6\n        /* \"contracts/NFT.sol\":1594:1599  newId */\n      dup3\n        /* \"contracts/NFT.sol\":1583:1588  _mint */\n      tag_222\n        /* \"contracts/NFT.sol\":1583:1600  _mint(_to, newId) */\n      jump\t// in\n    tag_221:\n        /* \"contracts/NFT.sol\":1724:1749  _setTokenURI(newId, _uri) */\n      tag_223\n        /* \"contracts/NFT.sol\":1737:1742  newId */\n      dup2\n        /* \"contracts/NFT.sol\":1744:1748  _uri */\n      dup6\n      dup6\n        /* \"contracts/NFT.sol\":1724:1749  _setTokenURI(newId, _uri) */\n      dup1\n      dup1\n      0x1f\n      add\n      0x20\n      dup1\n      swap2\n      div\n      mul\n      0x20\n      add\n      mload(0x40)\n      swap1\n      dup2\n      add\n      0x40\n      mstore\n      dup1\n      swap4\n      swap3\n      swap2\n      swap1\n      dup2\n      dup2\n      mstore\n      0x20\n      add\n      dup4\n      dup4\n      dup1\n      dup3\n      dup5\n      calldatacopy\n      0x00\n      dup2\n      dup5\n      add\n      mstore\n      not(0x1f)\n      0x1f\n      dup3\n      add\n      and\n      swap1\n      pop\n      dup1\n      dup4\n      add\n      swap3\n      pop\n      pop\n      pop\n      pop\n      pop\n      pop\n      pop\n        /* \"contracts/NFT.sol\":1724:1736  _setTokenURI */\n      tag_224\n        /* \"contracts/NFT.sol\":1724:1749  _setTokenURI(newId, _uri) */\n      jump\t// in\n    tag_223:\n        /* \"contracts/NFT.sol\":1823:1827  true */\n      0x01\n        /* \"contracts/NFT.sol\":1801:1813  _tokenExists */\n      0x0a\n        /* \"contracts/NFT.sol\":1801:1820  _tokenExists[newId] */\n      0x00\n        /* \"contracts/NFT.sol\":1814:1819  newId */\n      dup4\n        /* \"contracts/NFT.sol\":1801:1820  _tokenExists[newId] */\n      dup2\n      mstore\n      0x20\n      add\n      swap1\n      dup2\n      mstore\n      0x20\n      add\n      0x00\n      keccak256\n      0x00\n        /* \"contracts/NFT.sol\":1801:1827  _tokenExists[newId] = true */\n      0x0100\n      exp\n      dup2\n      sload\n      dup2\n      0xff\n      mul\n      not\n      and\n      swap1\n      dup4\n      iszero\n      iszero\n      mul\n      or\n      swap1\n      sstore\n      pop\n        /* \"contracts/NFT.sol\":1908:1924  bytes32 ipfsHash */\n      0x00\n        /* \"contracts/NFT.sol\":1927:1949  generateIPFSHash(_uri) */\n      tag_225\n        /* \"contracts/NFT.sol\":1944:1948  _uri */\n      dup6\n      dup6\n        /* \"contracts/NFT.sol\":1927:1949  generateIPFSHash(_uri) */\n      dup1\n      dup1\n      0x1f\n      add\n      0x20\n      dup1\n      swap2\n      div\n      mul\n      0x20\n      add\n      mload(0x40)\n      swap1\n      dup2\n      add\n      0x40\n      mstore\n      dup1\n      swap4\n      swap3\n      swap2\n      swap1\n      dup2\n      dup2\n      mstore\n      0x20\n      add\n      dup4\n      dup4\n      dup1\n      dup3\n      dup5\n      calldatacopy\n      0x00\n      dup2\n      dup5\n      add\n      mstore\n      not(0x1f)\n      0x1f\n      dup3\n      add\n      and\n      swap1\n      pop\n      dup1\n      dup4\n      add\n      swap3\n      pop\n      pop\n      pop\n      pop\n      pop\n      pop\n      pop\n        /* \"contracts/NFT.sol\":1927:1943  generateIPFSHash */\n      tag_111\n        /* \"contracts/NFT.sol\":1927:1949  generateIPFSHash(_uri) */\n      jump\t// in\n    tag_225:\n        /* \"contracts/NFT.sol\":1908:1949  bytes32 ipfsHash = generateIPFSHash(_uri) */\n      swap1\n      pop\n        /* \"contracts/NFT.sol\":1979:1987  ipfsHash */\n      dup1\n        /* \"contracts/NFT.sol\":1960:1969  nftHashes */\n      0x09\n        /* \"contracts/NFT.sol\":1960:1976  nftHashes[newId] */\n      0x00\n        /* \"contracts/NFT.sol\":1970:1975  newId */\n      dup5\n        /* \"contracts/NFT.sol\":1960:1976  nftHashes[newId] */\n      dup2\n      mstore\n      0x20\n      add\n      swap1\n      dup2\n      mstore\n      0x20\n      add\n      0x00\n      keccak256\n        /* \"contracts/NFT.sol\":1960:1987  nftHashes[newId] = ipfsHash */\n      dup2\n      swap1\n      sstore\n      pop\n        /* \"contracts/NFT.sol\":2030:2033  _to */\n      dup6\n        /* \"contracts/NFT.sol\":2013:2050  NFTMinted(newId, _to, _uri, ipfsHash) */\n      0xffffffffffffffffffffffffffffffffffffffff\n      and\n      0xcb4d488c9c856f58bf738fd4decd617b237b9923e4ddee8a9dbbd326d4914236\n        /* \"contracts/NFT.sol\":2023:2028  newId */\n      dup4\n        /* \"contracts/NFT.sol\":2035:2039  _uri */\n      dup8\n      dup8\n        /* \"contracts/NFT.sol\":2041:2049  ipfsHash */\n      dup6\n        /* \"contracts/NFT.sol\":2013:2050  NFTMinted(newId, _to, _uri, ipfsHash) */\n      mload(0x40)\n      tag_226\n      swap5\n      swap4\n      swap3\n      swap2\n      swap1\n      tag_227\n      jump\t// in\n    tag_226:\n      mload(0x40)\n      dup1\n      swap2\n      sub\n      swap1\n      log2\n        /* \"contracts/NFT.sol\":2062:2073  totalTokens */\n      0x07\n      0x00\n        /* \"contracts/NFT.sol\":2062:2075  totalTokens++ */\n      dup2\n      sload\n      dup1\n      swap3\n      swap2\n      swap1\n      tag_228\n      swap1\n      tag_229\n      jump\t// in\n    tag_228:\n      swap2\n      swap1\n      pop\n      sstore\n      pop\n        /* \"contracts/NFT.sol\":2093:2098  newId */\n      dup2\n        /* \"contracts/NFT.sol\":2086:2098  return newId */\n      swap3\n      pop\n      pop\n      pop\n        /* \"contracts/NFT.sol\":1342:2106  function mint(address _to, string calldata _uri) external returns (uint256){ ... */\n      swap4\n      swap3\n      pop\n      pop\n      pop\n      jump\t// out\n        /* \"contracts/NFT.sol\":3354:3531  function generateIPFSHash(string memory ipfsLink) public pure returns (bytes32) {... */\n    tag_111:\n        /* \"contracts/NFT.sol\":3425:3432  bytes32 */\n      0x00\n        /* \"contracts/NFT.sol\":3445:3467  bytes memory ipfsBytes */\n      dup1\n        /* \"contracts/NFT.sol\":3476:3484  ipfsLink */\n      dup3\n        /* \"contracts/NFT.sol\":3445:3485  bytes memory ipfsBytes = bytes(ipfsLink) */\n      swap1\n      pop\n        /* \"contracts/NFT.sol\":3513:3522  ipfsBytes */\n      dup1\n        /* \"contracts/NFT.sol\":3503:3523  keccak256(ipfsBytes) */\n      dup1\n      mload\n      swap1\n      0x20\n      add\n      keccak256\n        /* \"contracts/NFT.sol\":3496:3523  return keccak256(ipfsBytes) */\n      swap2\n      pop\n      pop\n        /* \"contracts/NFT.sol\":3354:3531  function generateIPFSHash(string memory ipfsLink) public pure returns (bytes32) {... */\n      swap2\n      swap1\n      pop\n      jump\t// out\n        /* \"contracts/NFT.sol\":2913:3128  function verifyNFTHash(uint256 tokenId, bytes32 providedHash) external view returns (bool) {... */\n    tag_116:\n        /* \"contracts/NFT.sol\":2998:3002  bool */\n      0x00\n        /* \"contracts/NFT.sol\":3023:3043  tokenExists(tokenId) */\n      tag_232\n        /* \"contracts/NFT.sol\":3035:3042  tokenId */\n      dup4\n        /* \"contracts/NFT.sol\":3023:3034  tokenExists */\n      tag_32\n        /* \"contracts/NFT.sol\":3023:3043  tokenExists(tokenId) */\n      jump\t// in\n    tag_232:\n        /* \"contracts/NFT.sol\":3015:3068  require(tokenExists(tokenId), \"Token does not exist\") */\n      tag_233\n      jumpi\n      mload(0x40)\n      0x08c379a000000000000000000000000000000000000000000000000000000000\n      dup2\n      mstore\n      0x04\n      add\n      tag_234\n      swap1\n      tag_165\n      jump\t// in\n    tag_234:\n      mload(0x40)\n      dup1\n      swap2\n      sub\n      swap1\n      revert\n    tag_233:\n        /* \"contracts/NFT.sol\":3108:3120  providedHash */\n      dup2\n        /* \"contracts/NFT.sol\":3086:3095  nftHashes */\n      0x09\n        /* \"contracts/NFT.sol\":3086:3104  nftHashes[tokenId] */\n      0x00\n        /* \"contracts/NFT.sol\":3096:3103  tokenId */\n      dup6\n        /* \"contracts/NFT.sol\":3086:3104  nftHashes[tokenId] */\n      dup2\n      mstore\n      0x20\n      add\n      swap1\n      dup2\n      mstore\n      0x20\n      add\n      0x00\n      keccak256\n      sload\n        /* \"contracts/NFT.sol\":3086:3120  nftHashes[tokenId] == providedHash */\n      eq\n        /* \"contracts/NFT.sol\":3079:3120  return nftHashes[tokenId] == providedHash */\n      swap1\n      pop\n        /* \"contracts/NFT.sol\":2913:3128  function verifyNFTHash(uint256 tokenId, bytes32 providedHash) external view returns (bool) {... */\n      swap3\n      swap2\n      pop\n      pop\n      jump\t// out\n        /* \"@openzeppelin/contracts/token/ERC721/ERC721.sol\":3928:4081  function isApprovedForAll(address owner, address operator) public view virtual returns (bool) {... */\n    tag_121:\n        /* \"@openzeppelin/contracts/token/ERC721/ERC721.sol\":4016:4020  bool */\n      0x00\n        /* \"@openzeppelin/contracts/token/ERC721/ERC721.sol\":4039:4057  _operatorApprovals */\n      0x05\n        /* \"@openzeppelin/contracts/token/ERC721/ERC721.sol\":4039:4064  _operatorApprovals[owner] */\n      0x00\n        /* \"@openzeppelin/contracts/token/ERC721/ERC721.sol\":4058:4063  owner */\n      dup5\n        /* \"@openzeppelin/contracts/token/ERC721/ERC721.sol\":4039:4064  _operatorApprovals[owner] */\n      0xffffffffffffffffffffffffffffffffffffffff\n      and\n      0xffffffffffffffffffffffffffffffffffffffff\n      and\n      dup2\n      mstore\n      0x20\n      add\n      swap1\n      dup2\n      mstore\n      0x20\n      add\n      0x00\n      keccak256\n        /* \"@openzeppelin/contracts/token/ERC721/ERC721.sol\":4039:4074  _operatorApprovals[owner][operator] */\n      0x00\n        /* \"@openzeppelin/contracts/token/ERC721/ERC721.sol\":4065:4073  operator */\n      dup4\n        /* \"@openzeppelin/contracts/token/ERC721/ERC721.sol\":4039:4074  _operatorApprovals[owner][operator] */\n      0xffffffffffffffffffffffffffffffffffffffff\n      and\n      0xffffffffffffffffffffffffffffffffffffffff\n      and\n      dup2\n      mstore\n      0x20\n      add\n      swap1\n      dup2\n      mstore\n      0x20\n      add\n      0x00\n      keccak256\n      0x00\n      swap1\n      sload\n      swap1\n      0x0100\n      exp\n      swap1\n      div\n      0xff\n      and\n        /* \"@openzeppelin/contracts/token/ERC721/ERC721.sol\":4032:4074  return _operatorApprovals[owner][operator] */\n      swap1\n      pop\n        /* \"@openzeppelin/contracts/token/ERC721/ERC721.sol\":3928:4081  function isApprovedForAll(address owner, address operator) public view virtual returns (bool) {... */\n      swap3\n      swap2\n      pop\n      pop\n      jump\t// out\n        /* \"contracts/NFT.sol\":1045:1089  mapping(uint256 => bytes32) public nftHashes */\n    tag_125:\n      mstore(0x20, 0x09)\n      dup1\n      0x00\n      mstore\n      keccak256(0x00, 0x40)\n      0x00\n      swap2\n      pop\n      swap1\n      pop\n      sload\n      dup2\n      jump\t// out\n        /* \"@openzeppelin/contracts/token/ERC721/ERC721.sol\":1561:1861  function supportsInterface(bytes4 interfaceId) public view virtual override(ERC165, IERC165) returns (bool) {... */\n    tag_131:\n        /* \"@openzeppelin/contracts/token/ERC721/ERC721.sol\":1663:1667  bool */\n      0x00\n        /* \"@openzeppelin/contracts/token/ERC721/ERC721.sol\":1713:1738  type(IERC721).interfaceId */\n      0x80ac58cd00000000000000000000000000000000000000000000000000000000\n        /* \"@openzeppelin/contracts/token/ERC721/ERC721.sol\":1698:1738  interfaceId == type(IERC721).interfaceId */\n      not(0xffffffffffffffffffffffffffffffffffffffffffffffffffffffff)\n      and\n        /* \"@openzeppelin/contracts/token/ERC721/ERC721.sol\":1698:1709  interfaceId */\n      dup3\n        /* \"@openzeppelin/contracts/token/ERC721/ERC721.sol\":1698:1738  interfaceId == type(IERC721).interfaceId */\n      not(0xffffffffffffffffffffffffffffffffffffffffffffffffffffffff)\n      and\n      eq\n        /* \"@openzeppelin/contracts/token/ERC721/ERC721.sol\":1698:1802  interfaceId == type(IERC721).interfaceId ||... */\n      dup1\n      tag_237\n      jumpi\n      pop\n        /* \"@openzeppelin/contracts/token/ERC721/ERC721.sol\":1769:1802  type(IERC721Metadata).interfaceId */\n      0x5b5e139f00000000000000000000000000000000000000000000000000000000\n        /* \"@openzeppelin/contracts/token/ERC721/ERC721.sol\":1754:1802  interfaceId == type(IERC721Metadata).interfaceId */\n      not(0xffffffffffffffffffffffffffffffffffffffffffffffffffffffff)\n      and\n        /* \"@openzeppelin/contracts/token/ERC721/ERC721.sol\":1754:1765  interfaceId */\n      dup3\n        /* \"@openzeppelin/contracts/token/ERC721/ERC721.sol\":1754:1802  interfaceId == type(IERC721Metadata).interfaceId */\n      not(0xffffffffffffffffffffffffffffffffffffffffffffffffffffffff)\n      and\n      eq\n        /* \"@openzeppelin/contracts/token/ERC721/ERC721.sol\":1698:1802  interfaceId == type(IERC721).interfaceId ||... */\n    tag_237:\n        /* \"@openzeppelin/contracts/token/ERC721/ERC721.sol\":1698:1854  interfaceId == type(IERC721).interfaceId ||... */\n      dup1\n      tag_238\n      jumpi\n      pop\n        /* \"@openzeppelin/contracts/token/ERC721/ERC721.sol\":1818:1854  super.supportsInterface(interfaceId) */\n      tag_239\n        /* \"@openzeppelin/contracts/token/ERC721/ERC721.sol\":1842:1853  interfaceId */\n      dup3\n        /* \"@openzeppelin/contracts/token/ERC721/ERC721.sol\":1818:1841  super.supportsInterface */\n      tag_240\n        /* \"@openzeppelin/contracts/token/ERC721/ERC721.sol\":1818:1854  super.supportsInterface(interfaceId) */\n      jump\t// in\n    tag_239:\n        /* \"@openzeppelin/contracts/token/ERC721/ERC721.sol\":1698:1854  interfaceId == type(IERC721).interfaceId ||... */\n    tag_238:\n        /* \"@openzeppelin/contracts/token/ERC721/ERC721.sol\":1679:1854  return... */\n      swap1\n      pop\n        /* \"@openzeppelin/contracts/token/ERC721/ERC721.sol\":1561:1861  function supportsInterface(bytes4 interfaceId) public view virtual override(ERC165, IERC165) returns (bool) {... */\n      swap2\n      swap1\n      pop\n      jump\t// out\n        /* \"@openzeppelin/contracts/token/ERC721/ERC721.sol\":16138:16379  function _requireOwned(uint256 tokenId) internal view returns (address) {... */\n    tag_141:\n        /* \"@openzeppelin/contracts/token/ERC721/ERC721.sol\":16201:16208  address */\n      0x00\n        /* \"@openzeppelin/contracts/token/ERC721/ERC721.sol\":16220:16233  address owner */\n      dup1\n        /* \"@openzeppelin/contracts/token/ERC721/ERC721.sol\":16236:16253  _ownerOf(tokenId) */\n      tag_242\n        /* \"@openzeppelin/contracts/token/ERC721/ERC721.sol\":16245:16252  tokenId */\n      dup4\n        /* \"@openzeppelin/contracts/token/ERC721/ERC721.sol\":16236:16244  _ownerOf */\n      tag_243\n        /* \"@openzeppelin/contracts/token/ERC721/ERC721.sol\":16236:16253  _ownerOf(tokenId) */\n      jump\t// in\n    tag_242:\n        /* \"@openzeppelin/contracts/token/ERC721/ERC721.sol\":16220:16253  address owner = _ownerOf(tokenId) */\n      swap1\n      pop\n        /* \"@openzeppelin/contracts/token/ERC721/ERC721.sol\":16284:16285  0 */\n      0x00\n        /* \"@openzeppelin/contracts/token/ERC721/ERC721.sol\":16267:16286  owner == address(0) */\n      0xffffffffffffffffffffffffffffffffffffffff\n      and\n        /* \"@openzeppelin/contracts/token/ERC721/ERC721.sol\":16267:16272  owner */\n      dup2\n        /* \"@openzeppelin/contracts/token/ERC721/ERC721.sol\":16267:16286  owner == address(0) */\n      0xffffffffffffffffffffffffffffffffffffffff\n      and\n      sub\n        /* \"@openzeppelin/contracts/token/ERC721/ERC721.sol\":16263:16351  if (owner == address(0)) {... */\n      tag_244\n      jumpi\n        /* \"@openzeppelin/contracts/token/ERC721/ERC721.sol\":16332:16339  tokenId */\n      dup3\n        /* \"@openzeppelin/contracts/token/ERC721/ERC721.sol\":16309:16340  ERC721NonexistentToken(tokenId) */\n      mload(0x40)\n      0x7e27328900000000000000000000000000000000000000000000000000000000\n      dup2\n      mstore\n      0x04\n      add\n      tag_245\n      swap2\n      swap1\n      tag_56\n      jump\t// in\n    tag_245:\n      mload(0x40)\n      dup1\n      swap2\n      sub\n      swap1\n      revert\n        /* \"@openzeppelin/contracts/token/ERC721/ERC721.sol\":16263:16351  if (owner == address(0)) {... */\n    tag_244:\n        /* \"@openzeppelin/contracts/token/ERC721/ERC721.sol\":16367:16372  owner */\n      dup1\n        /* \"@openzeppelin/contracts/token/ERC721/ERC721.sol\":16360:16372  return owner */\n      swap2\n      pop\n      pop\n        /* \"@openzeppelin/contracts/token/ERC721/ERC721.sol\":16138:16379  function _requireOwned(uint256 tokenId) internal view returns (address) {... */\n      swap2\n      swap1\n      pop\n      jump\t// out\n        /* \"@openzeppelin/contracts/token/ERC721/ERC721.sol\":5938:6065  function _getApproved(uint256 tokenId) internal view virtual returns (address) {... */\n    tag_143:\n        /* \"@openzeppelin/contracts/token/ERC721/ERC721.sol\":6008:6015  address */\n      0x00\n        /* \"@openzeppelin/contracts/token/ERC721/ERC721.sol\":6034:6049  _tokenApprovals */\n      0x04\n        /* \"@openzeppelin/contracts/token/ERC721/ERC721.sol\":6034:6058  _tokenApprovals[tokenId] */\n      0x00\n        /* \"@openzeppelin/contracts/token/ERC721/ERC721.sol\":6050:6057  tokenId */\n      dup4\n        /* \"@openzeppelin/contracts/token/ERC721/ERC721.sol\":6034:6058  _tokenApprovals[tokenId] */\n      dup2\n      mstore\n      0x20\n      add\n      swap1\n      dup2\n      mstore\n      0x20\n      add\n      0x00\n      keccak256\n      0x00\n      swap1\n      sload\n      swap1\n      0x0100\n      exp\n      swap1\n      div\n      0xffffffffffffffffffffffffffffffffffffffff\n      and\n        /* \"@openzeppelin/contracts/token/ERC721/ERC721.sol\":6027:6058  return _tokenApprovals[tokenId] */\n      swap1\n      pop\n        /* \"@openzeppelin/contracts/token/ERC721/ERC721.sol\":5938:6065  function _getApproved(uint256 tokenId) internal view virtual returns (address) {... */\n      swap2\n      swap1\n      pop\n      jump\t// out\n        /* \"@openzeppelin/contracts/utils/Context.sol\":656:752  function _msgSender() internal view virtual returns (address) {... */\n    tag_147:\n        /* \"@openzeppelin/contracts/utils/Context.sol\":709:716  address */\n      0x00\n        /* \"@openzeppelin/contracts/utils/Context.sol\":735:745  msg.sender */\n      caller\n        /* \"@openzeppelin/contracts/utils/Context.sol\":728:745  return msg.sender */\n      swap1\n      pop\n        /* \"@openzeppelin/contracts/utils/Context.sol\":656:752  function _msgSender() internal view virtual returns (address) {... */\n      swap1\n      jump\t// out\n        /* \"@openzeppelin/contracts/token/ERC721/ERC721.sol\":14418:14538  function _approve(address to, uint256 tokenId, address auth) internal {... */\n    tag_148:\n        /* \"@openzeppelin/contracts/token/ERC721/ERC721.sol\":14498:14531  _approve(to, tokenId, auth, true) */\n      tag_249\n        /* \"@openzeppelin/contracts/token/ERC721/ERC721.sol\":14507:14509  to */\n      dup4\n        /* \"@openzeppelin/contracts/token/ERC721/ERC721.sol\":14511:14518  tokenId */\n      dup4\n        /* \"@openzeppelin/contracts/token/ERC721/ERC721.sol\":14520:14524  auth */\n      dup4\n        /* \"@openzeppelin/contracts/token/ERC721/ERC721.sol\":14526:14530  true */\n      0x01\n        /* \"@openzeppelin/contracts/token/ERC721/ERC721.sol\":14498:14506  _approve */\n      tag_250\n        /* \"@openzeppelin/contracts/token/ERC721/ERC721.sol\":14498:14531  _approve(to, tokenId, auth, true) */\n      jump\t// in\n    tag_249:\n        /* \"@openzeppelin/contracts/token/ERC721/ERC721.sol\":14418:14538  function _approve(address to, uint256 tokenId, address auth) internal {... */\n      pop\n      pop\n      pop\n      jump\t// out\n        /* \"@openzeppelin/contracts/token/ERC721/ERC721.sol\":8838:9633  function _update(address to, uint256 tokenId, address auth) internal virtual returns (address) {... */\n    tag_155:\n        /* \"@openzeppelin/contracts/token/ERC721/ERC721.sol\":8924:8931  address */\n      0x00\n        /* \"@openzeppelin/contracts/token/ERC721/ERC721.sol\":8943:8955  address from */\n      dup1\n        /* \"@openzeppelin/contracts/token/ERC721/ERC721.sol\":8958:8975  _ownerOf(tokenId) */\n      tag_252\n        /* \"@openzeppelin/contracts/token/ERC721/ERC721.sol\":8967:8974  tokenId */\n      dup5\n        /* \"@openzeppelin/contracts/token/ERC721/ERC721.sol\":8958:8966  _ownerOf */\n      tag_243\n        /* \"@openzeppelin/contracts/token/ERC721/ERC721.sol\":8958:8975  _ownerOf(tokenId) */\n      jump\t// in\n    tag_252:\n        /* \"@openzeppelin/contracts/token/ERC721/ERC721.sol\":8943:8975  address from = _ownerOf(tokenId) */\n      swap1\n      pop\n        /* \"@openzeppelin/contracts/token/ERC721/ERC721.sol\":9051:9052  0 */\n      0x00\n        /* \"@openzeppelin/contracts/token/ERC721/ERC721.sol\":9035:9053  auth != address(0) */\n      0xffffffffffffffffffffffffffffffffffffffff\n      and\n        /* \"@openzeppelin/contracts/token/ERC721/ERC721.sol\":9035:9039  auth */\n      dup4\n        /* \"@openzeppelin/contracts/token/ERC721/ERC721.sol\":9035:9053  auth != address(0) */\n      0xffffffffffffffffffffffffffffffffffffffff\n      and\n      eq\n        /* \"@openzeppelin/contracts/token/ERC721/ERC721.sol\":9031:9117  if (auth != address(0)) {... */\n      tag_253\n      jumpi\n        /* \"@openzeppelin/contracts/token/ERC721/ERC721.sol\":9069:9106  _checkAuthorized(from, auth, tokenId) */\n      tag_254\n        /* \"@openzeppelin/contracts/token/ERC721/ERC721.sol\":9086:9090  from */\n      dup2\n        /* \"@openzeppelin/contracts/token/ERC721/ERC721.sol\":9092:9096  auth */\n      dup5\n        /* \"@openzeppelin/contracts/token/ERC721/ERC721.sol\":9098:9105  tokenId */\n      dup7\n        /* \"@openzeppelin/contracts/token/ERC721/ERC721.sol\":9069:9085  _checkAuthorized */\n      tag_255\n        /* \"@openzeppelin/contracts/token/ERC721/ERC721.sol\":9069:9106  _checkAuthorized(from, auth, tokenId) */\n      jump\t// in\n    tag_254:\n        /* \"@openzeppelin/contracts/token/ERC721/ERC721.sol\":9031:9117  if (auth != address(0)) {... */\n    tag_253:\n        /* \"@openzeppelin/contracts/token/ERC721/ERC721.sol\":9177:9178  0 */\n      0x00\n        /* \"@openzeppelin/contracts/token/ERC721/ERC721.sol\":9161:9179  from != address(0) */\n      0xffffffffffffffffffffffffffffffffffffffff\n      and\n        /* \"@openzeppelin/contracts/token/ERC721/ERC721.sol\":9161:9165  from */\n      dup2\n        /* \"@openzeppelin/contracts/token/ERC721/ERC721.sol\":9161:9179  from != address(0) */\n      0xffffffffffffffffffffffffffffffffffffffff\n      and\n      eq\n        /* \"@openzeppelin/contracts/token/ERC721/ERC721.sol\":9157:9413  if (from != address(0)) {... */\n      tag_256\n      jumpi\n        /* \"@openzeppelin/contracts/token/ERC721/ERC721.sol\":9277:9325  _approve(address(0), tokenId, address(0), false) */\n      tag_257\n        /* \"@openzeppelin/contracts/token/ERC721/ERC721.sol\":9294:9295  0 */\n      0x00\n        /* \"@openzeppelin/contracts/token/ERC721/ERC721.sol\":9298:9305  tokenId */\n      dup6\n        /* \"@openzeppelin/contracts/token/ERC721/ERC721.sol\":9315:9316  0 */\n      0x00\n        /* \"@openzeppelin/contracts/token/ERC721/ERC721.sol\":9319:9324  false */\n      dup1\n        /* \"@openzeppelin/contracts/token/ERC721/ERC721.sol\":9277:9285  _approve */\n      tag_250\n        /* \"@openzeppelin/contracts/token/ERC721/ERC721.sol\":9277:9325  _approve(address(0), tokenId, address(0), false) */\n      jump\t// in\n    tag_257:\n        /* \"@openzeppelin/contracts/token/ERC721/ERC721.sol\":9387:9388  1 */\n      0x01\n        /* \"@openzeppelin/contracts/token/ERC721/ERC721.sol\":9368:9377  _balances */\n      0x03\n        /* \"@openzeppelin/contracts/token/ERC721/ERC721.sol\":9368:9383  _balances[from] */\n      0x00\n        /* \"@openzeppelin/contracts/token/ERC721/ERC721.sol\":9378:9382  from */\n      dup4\n        /* \"@openzeppelin/contracts/token/ERC721/ERC721.sol\":9368:9383  _balances[from] */\n      0xffffffffffffffffffffffffffffffffffffffff\n      and\n      0xffffffffffffffffffffffffffffffffffffffff\n      and\n      dup2\n      mstore\n      0x20\n      add\n      swap1\n      dup2\n      mstore\n      0x20\n      add\n      0x00\n      keccak256\n      0x00\n        /* \"@openzeppelin/contracts/token/ERC721/ERC721.sol\":9368:9388  _balances[from] -= 1 */\n      dup3\n      dup3\n      sload\n      sub\n      swap3\n      pop\n      pop\n      dup2\n      swap1\n      sstore\n      pop\n        /* \"@openzeppelin/contracts/token/ERC721/ERC721.sol\":9157:9413  if (from != address(0)) {... */\n    tag_256:\n        /* \"@openzeppelin/contracts/token/ERC721/ERC721.sol\":9441:9442  0 */\n      0x00\n        /* \"@openzeppelin/contracts/token/ERC721/ERC721.sol\":9427:9443  to != address(0) */\n      0xffffffffffffffffffffffffffffffffffffffff\n      and\n        /* \"@openzeppelin/contracts/token/ERC721/ERC721.sol\":9427:9429  to */\n      dup6\n        /* \"@openzeppelin/contracts/token/ERC721/ERC721.sol\":9427:9443  to != address(0) */\n      0xffffffffffffffffffffffffffffffffffffffff\n      and\n      eq\n        /* \"@openzeppelin/contracts/token/ERC721/ERC721.sol\":9423:9530  if (to != address(0)) {... */\n      tag_258\n      jumpi\n        /* \"@openzeppelin/contracts/token/ERC721/ERC721.sol\":9504:9505  1 */\n      0x01\n        /* \"@openzeppelin/contracts/token/ERC721/ERC721.sol\":9487:9496  _balances */\n      0x03\n        /* \"@openzeppelin/contracts/token/ERC721/ERC721.sol\":9487:9500  _balances[to] */\n      0x00\n        /* \"@openzeppelin/contracts/token/ERC721/ERC721.sol\":9497:9499  to */\n      dup8\n        /* \"@openzeppelin/contracts/token/ERC721/ERC721.sol\":9487:9500  _balances[to] */\n      0xffffffffffffffffffffffffffffffffffffffff\n      and\n      0xffffffffffffffffffffffffffffffffffffffff\n      and\n      dup2\n      mstore\n      0x20\n      add\n      swap1\n      dup2\n      mstore\n      0x20\n      add\n      0x00\n      keccak256\n      0x00\n        /* \"@openzeppelin/contracts/token/ERC721/ERC721.sol\":9487:9505  _balances[to] += 1 */\n      dup3\n      dup3\n      sload\n      add\n      swap3\n      pop\n      pop\n      dup2\n      swap1\n      sstore\n      pop\n        /* \"@openzeppelin/contracts/token/ERC721/ERC721.sol\":9423:9530  if (to != address(0)) {... */\n    tag_258:\n        /* \"@openzeppelin/contracts/token/ERC721/ERC721.sol\":9559:9561  to */\n      dup5\n        /* \"@openzeppelin/contracts/token/ERC721/ERC721.sol\":9540:9547  _owners */\n      0x02\n        /* \"@openzeppelin/contracts/token/ERC721/ERC721.sol\":9540:9556  _owners[tokenId] */\n      0x00\n        /* \"@openzeppelin/contracts/token/ERC721/ERC721.sol\":9548:9555  tokenId */\n      dup7\n        /* \"@openzeppelin/contracts/token/ERC721/ERC721.sol\":9540:9556  _owners[tokenId] */\n      dup2\n      mstore\n      0x20\n      add\n      swap1\n      dup2\n      mstore\n      0x20\n      add\n      0x00\n      keccak256\n      0x00\n        /* \"@openzeppelin/contracts/token/ERC721/ERC721.sol\":9540:9561  _owners[tokenId] = to */\n      0x0100\n      exp\n      dup2\n      sload\n      dup2\n      0xffffffffffffffffffffffffffffffffffffffff\n      mul\n      not\n      and\n      swap1\n      dup4\n      0xffffffffffffffffffffffffffffffffffffffff\n      and\n      mul\n      or\n      swap1\n      sstore\n      pop\n        /* \"@openzeppelin/contracts/token/ERC721/ERC721.sol\":9596:9603  tokenId */\n      dup4\n        /* \"@openzeppelin/contracts/token/ERC721/ERC721.sol\":9592:9594  to */\n      dup6\n        /* \"@openzeppelin/contracts/token/ERC721/ERC721.sol\":9577:9604  Transfer(from, to, tokenId) */\n      0xffffffffffffffffffffffffffffffffffffffff\n      and\n        /* \"@openzeppelin/contracts/token/ERC721/ERC721.sol\":9586:9590  from */\n      dup3\n        /* \"@openzeppelin/contracts/token/ERC721/ERC721.sol\":9577:9604  Transfer(from, to, tokenId) */\n      0xffffffffffffffffffffffffffffffffffffffff\n      and\n      0xddf252ad1be2c89b69c2b068fc378daa952ba7f163c4a11628f55a4df523b3ef\n      mload(0x40)\n      mload(0x40)\n      dup1\n      swap2\n      sub\n      swap1\n      log4\n        /* \"@openzeppelin/contracts/token/ERC721/ERC721.sol\":9622:9626  from */\n      dup1\n        /* \"@openzeppelin/contracts/token/ERC721/ERC721.sol\":9615:9626  return from */\n      swap2\n      pop\n      pop\n        /* \"@openzeppelin/contracts/token/ERC721/ERC721.sol\":8838:9633  function _update(address to, uint256 tokenId, address auth) internal virtual returns (address) {... */\n      swap4\n      swap3\n      pop\n      pop\n      pop\n      jump\t// out\n        /* \"@openzeppelin/contracts/token/ERC721/ERC721.sol\":11462:11689  function _burn(uint256 tokenId) internal {... */\n    tag_167:\n        /* \"@openzeppelin/contracts/token/ERC721/ERC721.sol\":11513:11534  address previousOwner */\n      0x00\n        /* \"@openzeppelin/contracts/token/ERC721/ERC721.sol\":11537:11577  _update(address(0), tokenId, address(0)) */\n      tag_260\n        /* \"@openzeppelin/contracts/token/ERC721/ERC721.sol\":11553:11554  0 */\n      0x00\n        /* \"@openzeppelin/contracts/token/ERC721/ERC721.sol\":11557:11564  tokenId */\n      dup4\n        /* \"@openzeppelin/contracts/token/ERC721/ERC721.sol\":11574:11575  0 */\n      0x00\n        /* \"@openzeppelin/contracts/token/ERC721/ERC721.sol\":11537:11544  _update */\n      tag_155\n        /* \"@openzeppelin/contracts/token/ERC721/ERC721.sol\":11537:11577  _update(address(0), tokenId, address(0)) */\n      jump\t// in\n    tag_260:\n        /* \"@openzeppelin/contracts/token/ERC721/ERC721.sol\":11513:11577  address previousOwner = _update(address(0), tokenId, address(0)) */\n      swap1\n      pop\n        /* \"@openzeppelin/contracts/token/ERC721/ERC721.sol\":11616:11617  0 */\n      0x00\n        /* \"@openzeppelin/contracts/token/ERC721/ERC721.sol\":11591:11618  previousOwner == address(0) */\n      0xffffffffffffffffffffffffffffffffffffffff\n      and\n        /* \"@openzeppelin/contracts/token/ERC721/ERC721.sol\":11591:11604  previousOwner */\n      dup2\n        /* \"@openzeppelin/contracts/token/ERC721/ERC721.sol\":11591:11618  previousOwner == address(0) */\n      0xffffffffffffffffffffffffffffffffffffffff\n      and\n      sub\n        /* \"@openzeppelin/contracts/token/ERC721/ERC721.sol\":11587:11683  if (previousOwner == address(0)) {... */\n      tag_261\n      jumpi\n        /* \"@openzeppelin/contracts/token/ERC721/ERC721.sol\":11664:11671  tokenId */\n      dup2\n        /* \"@openzeppelin/contracts/token/ERC721/ERC721.sol\":11641:11672  ERC721NonexistentToken(tokenId) */\n      mload(0x40)\n      0x7e27328900000000000000000000000000000000000000000000000000000000\n      dup2\n      mstore\n      0x04\n      add\n      tag_262\n      swap2\n      swap1\n      tag_56\n      jump\t// in\n    tag_262:\n      mload(0x40)\n      dup1\n      swap2\n      sub\n      swap1\n      revert\n        /* \"@openzeppelin/contracts/token/ERC721/ERC721.sol\":11587:11683  if (previousOwner == address(0)) {... */\n    tag_261:\n        /* \"@openzeppelin/contracts/token/ERC721/ERC721.sol\":11503:11689  {... */\n      pop\n        /* \"@openzeppelin/contracts/token/ERC721/ERC721.sol\":11462:11689  function _burn(uint256 tokenId) internal {... */\n      pop\n      jump\t// out\n        /* \"@openzeppelin/contracts/utils/Counters.sol\":827:939  function current(Counter storage counter) internal view returns (uint256) {... */\n    tag_170:\n        /* \"@openzeppelin/contracts/utils/Counters.sol\":892:899  uint256 */\n      0x00\n        /* \"@openzeppelin/contracts/utils/Counters.sol\":918:925  counter */\n      dup2\n        /* \"@openzeppelin/contracts/utils/Counters.sol\":918:932  counter._value */\n      0x00\n      add\n      sload\n        /* \"@openzeppelin/contracts/utils/Counters.sol\":911:932  return counter._value */\n      swap1\n      pop\n        /* \"@openzeppelin/contracts/utils/Counters.sol\":827:939  function current(Counter storage counter) internal view returns (uint256) {... */\n      swap2\n      swap1\n      pop\n      jump\t// out\n        /* \"@openzeppelin/contracts/token/ERC721/ERC721.sol\":15591:15903  function _setApprovalForAll(address owner, address operator, bool approved) internal virtual {... */\n    tag_194:\n        /* \"@openzeppelin/contracts/token/ERC721/ERC721.sol\":15718:15719  0 */\n      0x00\n        /* \"@openzeppelin/contracts/token/ERC721/ERC721.sol\":15698:15720  operator == address(0) */\n      0xffffffffffffffffffffffffffffffffffffffff\n      and\n        /* \"@openzeppelin/contracts/token/ERC721/ERC721.sol\":15698:15706  operator */\n      dup3\n        /* \"@openzeppelin/contracts/token/ERC721/ERC721.sol\":15698:15720  operator == address(0) */\n      0xffffffffffffffffffffffffffffffffffffffff\n      and\n      sub\n        /* \"@openzeppelin/contracts/token/ERC721/ERC721.sol\":15694:15785  if (operator == address(0)) {... */\n      tag_265\n      jumpi\n        /* \"@openzeppelin/contracts/token/ERC721/ERC721.sol\":15765:15773  operator */\n      dup2\n        /* \"@openzeppelin/contracts/token/ERC721/ERC721.sol\":15743:15774  ERC721InvalidOperator(operator) */\n      mload(0x40)\n      0x5b08ba1800000000000000000000000000000000000000000000000000000000\n      dup2\n      mstore\n      0x04\n      add\n      tag_266\n      swap2\n      swap1\n      tag_48\n      jump\t// in\n    tag_266:\n      mload(0x40)\n      dup1\n      swap2\n      sub\n      swap1\n      revert\n        /* \"@openzeppelin/contracts/token/ERC721/ERC721.sol\":15694:15785  if (operator == address(0)) {... */\n    tag_265:\n        /* \"@openzeppelin/contracts/token/ERC721/ERC721.sol\":15832:15840  approved */\n      dup1\n        /* \"@openzeppelin/contracts/token/ERC721/ERC721.sol\":15794:15812  _operatorApprovals */\n      0x05\n        /* \"@openzeppelin/contracts/token/ERC721/ERC721.sol\":15794:15819  _operatorApprovals[owner] */\n      0x00\n        /* \"@openzeppelin/contracts/token/ERC721/ERC721.sol\":15813:15818  owner */\n      dup6\n        /* \"@openzeppelin/contracts/token/ERC721/ERC721.sol\":15794:15819  _operatorApprovals[owner] */\n      0xffffffffffffffffffffffffffffffffffffffff\n      and\n      0xffffffffffffffffffffffffffffffffffffffff\n      and\n      dup2\n      mstore\n      0x20\n      add\n      swap1\n      dup2\n      mstore\n      0x20\n      add\n      0x00\n      keccak256\n        /* \"@openzeppelin/contracts/token/ERC721/ERC721.sol\":15794:15829  _operatorApprovals[owner][operator] */\n      0x00\n        /* \"@openzeppelin/contracts/token/ERC721/ERC721.sol\":15820:15828  operator */\n      dup5\n        /* \"@openzeppelin/contracts/token/ERC721/ERC721.sol\":15794:15829  _operatorApprovals[owner][operator] */\n      0xffffffffffffffffffffffffffffffffffffffff\n      and\n      0xffffffffffffffffffffffffffffffffffffffff\n      and\n      dup2\n      mstore\n      0x20\n      add\n      swap1\n      dup2\n      mstore\n      0x20\n      add\n      0x00\n      keccak256\n      0x00\n        /* \"@openzeppelin/contracts/token/ERC721/ERC721.sol\":15794:15840  _operatorApprovals[owner][operator] = approved */\n      0x0100\n      exp\n      dup2\n      sload\n      dup2\n      0xff\n      mul\n      not\n      and\n      swap1\n      dup4\n      iszero\n      iszero\n      mul\n      or\n      swap1\n      sstore\n      pop\n        /* \"@openzeppelin/contracts/token/ERC721/ERC721.sol\":15877:15885  operator */\n      dup2\n        /* \"@openzeppelin/contracts/token/ERC721/ERC721.sol\":15855:15896  ApprovalForAll(owner, operator, approved) */\n      0xffffffffffffffffffffffffffffffffffffffff\n      and\n        /* \"@openzeppelin/contracts/token/ERC721/ERC721.sol\":15870:15875  owner */\n      dup4\n        /* \"@openzeppelin/contracts/token/ERC721/ERC721.sol\":15855:15896  ApprovalForAll(owner, operator, approved) */\n      0xffffffffffffffffffffffffffffffffffffffff\n      and\n      0x17307eab39ab6107e8899845ad3d59bd9653f200f220920489ca2b5937696c31\n        /* \"@openzeppelin/contracts/token/ERC721/ERC721.sol\":15887:15895  approved */\n      dup4\n        /* \"@openzeppelin/contracts/token/ERC721/ERC721.sol\":15855:15896  ApprovalForAll(owner, operator, approved) */\n      mload(0x40)\n      tag_267\n      swap2\n      swap1\n      tag_34\n      jump\t// in\n    tag_267:\n      mload(0x40)\n      dup1\n      swap2\n      sub\n      swap1\n      log3\n        /* \"@openzeppelin/contracts/token/ERC721/ERC721.sol\":15591:15903  function _setApprovalForAll(address owner, address operator, bool approved) internal virtual {... */\n      pop\n      pop\n      pop\n      jump\t// out\n        /* \"@openzeppelin/contracts/token/ERC721/ERC721.sol\":16918:17700  function _checkOnERC721Received(address from, address to, uint256 tokenId, bytes memory data) private {... */\n    tag_198:\n        /* \"@openzeppelin/contracts/token/ERC721/ERC721.sol\":17051:17052  0 */\n      0x00\n        /* \"@openzeppelin/contracts/token/ERC721/ERC721.sol\":17034:17036  to */\n      dup4\n        /* \"@openzeppelin/contracts/token/ERC721/ERC721.sol\":17034:17048  to.code.length */\n      0xffffffffffffffffffffffffffffffffffffffff\n      and\n      extcodesize\n        /* \"@openzeppelin/contracts/token/ERC721/ERC721.sol\":17034:17052  to.code.length > 0 */\n      gt\n        /* \"@openzeppelin/contracts/token/ERC721/ERC721.sol\":17030:17694  if (to.code.length > 0) {... */\n      iszero\n      tag_269\n      jumpi\n        /* \"@openzeppelin/contracts/token/ERC721/ERC721.sol\":17088:17090  to */\n      dup3\n        /* \"@openzeppelin/contracts/token/ERC721/ERC721.sol\":17072:17108  IERC721Receiver(to).onERC721Received */\n      0xffffffffffffffffffffffffffffffffffffffff\n      and\n      0x150b7a02\n        /* \"@openzeppelin/contracts/token/ERC721/ERC721.sol\":17109:17121  _msgSender() */\n      tag_270\n        /* \"@openzeppelin/contracts/token/ERC721/ERC721.sol\":17109:17119  _msgSender */\n      tag_147\n        /* \"@openzeppelin/contracts/token/ERC721/ERC721.sol\":17109:17121  _msgSender() */\n      jump\t// in\n    tag_270:\n        /* \"@openzeppelin/contracts/token/ERC721/ERC721.sol\":17123:17127  from */\n      dup7\n        /* \"@openzeppelin/contracts/token/ERC721/ERC721.sol\":17129:17136  tokenId */\n      dup6\n        /* \"@openzeppelin/contracts/token/ERC721/ERC721.sol\":17138:17142  data */\n      dup6\n        /* \"@openzeppelin/contracts/token/ERC721/ERC721.sol\":17072:17143  IERC721Receiver(to).onERC721Received(_msgSender(), from, tokenId, data) */\n      mload(0x40)\n      dup6\n      0xffffffff\n      and\n      0xe0\n      shl\n      dup2\n      mstore\n      0x04\n      add\n      tag_271\n      swap5\n      swap4\n      swap3\n      swap2\n      swap1\n      tag_272\n      jump\t// in\n    tag_271:\n      0x20\n      mload(0x40)\n      dup1\n      dup4\n      sub\n      dup2\n      0x00\n      dup8\n      gas\n      call\n      swap3\n      pop\n      pop\n      pop\n      dup1\n      iszero\n      tag_273\n      jumpi\n      pop\n      mload(0x40)\n      returndatasize\n      not(0x1f)\n      0x1f\n      dup3\n      add\n      and\n      dup3\n      add\n      dup1\n      0x40\n      mstore\n      pop\n      dup2\n      add\n      swap1\n      tag_274\n      swap2\n      swap1\n      tag_275\n      jump\t// in\n    tag_274:\n      0x01\n    tag_273:\n        /* \"@openzeppelin/contracts/token/ERC721/ERC721.sol\":17068:17684  try IERC721Receiver(to).onERC721Received(_msgSender(), from, tokenId, data) returns (bytes4 retval) {... */\n      tag_276\n      jumpi\n      returndatasize\n      dup1\n      0x00\n      dup2\n      eq\n      tag_281\n      jumpi\n      mload(0x40)\n      swap2\n      pop\n      and(add(returndatasize, 0x3f), not(0x1f))\n      dup3\n      add\n      0x40\n      mstore\n      returndatasize\n      dup3\n      mstore\n      returndatasize\n      0x00\n      0x20\n      dup5\n      add\n      returndatacopy\n      jump(tag_280)\n    tag_281:\n      0x60\n      swap2\n      pop\n    tag_280:\n      pop\n        /* \"@openzeppelin/contracts/token/ERC721/ERC721.sol\":17398:17399  0 */\n      0x00\n        /* \"@openzeppelin/contracts/token/ERC721/ERC721.sol\":17381:17387  reason */\n      dup2\n        /* \"@openzeppelin/contracts/token/ERC721/ERC721.sol\":17381:17394  reason.length */\n      mload\n        /* \"@openzeppelin/contracts/token/ERC721/ERC721.sol\":17381:17399  reason.length == 0 */\n      sub\n        /* \"@openzeppelin/contracts/token/ERC721/ERC721.sol\":17377:17670  if (reason.length == 0) {... */\n      tag_282\n      jumpi\n        /* \"@openzeppelin/contracts/token/ERC721/ERC721.sol\":17452:17454  to */\n      dup4\n        /* \"@openzeppelin/contracts/token/ERC721/ERC721.sol\":17430:17455  ERC721InvalidReceiver(to) */\n      mload(0x40)\n      0x64a0ae9200000000000000000000000000000000000000000000000000000000\n      dup2\n      mstore\n      0x04\n      add\n      tag_283\n      swap2\n      swap1\n      tag_48\n      jump\t// in\n    tag_283:\n      mload(0x40)\n      dup1\n      swap2\n      sub\n      swap1\n      revert\n        /* \"@openzeppelin/contracts/token/ERC721/ERC721.sol\":17377:17670  if (reason.length == 0) {... */\n    tag_282:\n        /* \"@openzeppelin/contracts/token/ERC721/ERC721.sol\":17622:17628  reason */\n      dup1\n        /* \"@openzeppelin/contracts/token/ERC721/ERC721.sol\":17616:17629  mload(reason) */\n      mload\n        /* \"@openzeppelin/contracts/token/ERC721/ERC721.sol\":17607:17613  reason */\n      dup2\n        /* \"@openzeppelin/contracts/token/ERC721/ERC721.sol\":17603:17605  32 */\n      0x20\n        /* \"@openzeppelin/contracts/token/ERC721/ERC721.sol\":17599:17614  add(32, reason) */\n      add\n        /* \"@openzeppelin/contracts/token/ERC721/ERC721.sol\":17592:17630  revert(add(32, reason), mload(reason)) */\n      revert\n        /* \"@openzeppelin/contracts/token/ERC721/ERC721.sol\":17068:17684  try IERC721Receiver(to).onERC721Received(_msgSender(), from, tokenId, data) returns (bytes4 retval) {... */\n    tag_276:\n        /* \"@openzeppelin/contracts/token/ERC721/ERC721.sol\":17200:17241  IERC721Receiver.onERC721Received.selector */\n      shl(0xe0, 0x150b7a02)\n        /* \"@openzeppelin/contracts/token/ERC721/ERC721.sol\":17190:17241  retval != IERC721Receiver.onERC721Received.selector */\n      not(0xffffffffffffffffffffffffffffffffffffffffffffffffffffffff)\n      and\n        /* \"@openzeppelin/contracts/token/ERC721/ERC721.sol\":17190:17196  retval */\n      dup2\n        /* \"@openzeppelin/contracts/token/ERC721/ERC721.sol\":17190:17241  retval != IERC721Receiver.onERC721Received.selector */\n      not(0xffffffffffffffffffffffffffffffffffffffffffffffffffffffff)\n      and\n      eq\n        /* \"@openzeppelin/contracts/token/ERC721/ERC721.sol\":17186:17316  if (retval != IERC721Receiver.onERC721Received.selector) {... */\n      tag_286\n      jumpi\n        /* \"@openzeppelin/contracts/token/ERC721/ERC721.sol\":17294:17296  to */\n      dup4\n        /* \"@openzeppelin/contracts/token/ERC721/ERC721.sol\":17272:17297  ERC721InvalidReceiver(to) */\n      mload(0x40)\n      0x64a0ae9200000000000000000000000000000000000000000000000000000000\n      dup2\n      mstore\n      0x04\n      add\n      tag_287\n      swap2\n      swap1\n      tag_48\n      jump\t// in\n    tag_287:\n      mload(0x40)\n      dup1\n      swap2\n      sub\n      swap1\n      revert\n        /* \"@openzeppelin/contracts/token/ERC721/ERC721.sol\":17186:17316  if (retval != IERC721Receiver.onERC721Received.selector) {... */\n    tag_286:\n        /* \"@openzeppelin/contracts/token/ERC721/ERC721.sol\":17144:17330  returns (bytes4 retval) {... */\n      pop\n        /* \"@openzeppelin/contracts/token/ERC721/ERC721.sol\":17030:17694  if (to.code.length > 0) {... */\n    tag_269:\n        /* \"@openzeppelin/contracts/token/ERC721/ERC721.sol\":16918:17700  function _checkOnERC721Received(address from, address to, uint256 tokenId, bytes memory data) private {... */\n      pop\n      pop\n      pop\n      pop\n      jump\t// out\n        /* \"@openzeppelin/contracts/token/ERC721/ERC721.sol\":3174:3266  function _baseURI() internal view virtual returns (string memory) {... */\n    tag_207:\n        /* \"@openzeppelin/contracts/token/ERC721/ERC721.sol\":3225:3238  string memory */\n      0x60\n        /* \"@openzeppelin/contracts/token/ERC721/ERC721.sol\":3250:3259  return \"\" */\n      mload(0x40)\n      dup1\n      0x20\n      add\n      0x40\n      mstore\n      dup1\n      0x00\n      dup2\n      mstore\n      pop\n      swap1\n      pop\n        /* \"@openzeppelin/contracts/token/ERC721/ERC721.sol\":3174:3266  function _baseURI() internal view virtual returns (string memory) {... */\n      swap1\n      jump\t// out\n        /* \"@openzeppelin/contracts/token/ERC721/ERC721.sol\":2677:2932  function tokenURI(uint256 tokenId) public view virtual returns (string memory) {... */\n    tag_213:\n        /* \"@openzeppelin/contracts/token/ERC721/ERC721.sol\":2741:2754  string memory */\n      0x60\n        /* \"@openzeppelin/contracts/token/ERC721/ERC721.sol\":2766:2788  _requireOwned(tokenId) */\n      tag_290\n        /* \"@openzeppelin/contracts/token/ERC721/ERC721.sol\":2780:2787  tokenId */\n      dup3\n        /* \"@openzeppelin/contracts/token/ERC721/ERC721.sol\":2766:2779  _requireOwned */\n      tag_141\n        /* \"@openzeppelin/contracts/token/ERC721/ERC721.sol\":2766:2788  _requireOwned(tokenId) */\n      jump\t// in\n    tag_290:\n      pop\n        /* \"@openzeppelin/contracts/token/ERC721/ERC721.sol\":2799:2820  string memory baseURI */\n      0x00\n        /* \"@openzeppelin/contracts/token/ERC721/ERC721.sol\":2823:2833  _baseURI() */\n      tag_291\n        /* \"@openzeppelin/contracts/token/ERC721/ERC721.sol\":2823:2831  _baseURI */\n      tag_207\n        /* \"@openzeppelin/contracts/token/ERC721/ERC721.sol\":2823:2833  _baseURI() */\n      jump\t// in\n    tag_291:\n        /* \"@openzeppelin/contracts/token/ERC721/ERC721.sol\":2799:2833  string memory baseURI = _baseURI() */\n      swap1\n      pop\n        /* \"@openzeppelin/contracts/token/ERC721/ERC721.sol\":2874:2875  0 */\n      0x00\n        /* \"@openzeppelin/contracts/token/ERC721/ERC721.sol\":2856:2863  baseURI */\n      dup2\n        /* \"@openzeppelin/contracts/token/ERC721/ERC721.sol\":2850:2871  bytes(baseURI).length */\n      mload\n        /* \"@openzeppelin/contracts/token/ERC721/ERC721.sol\":2850:2875  bytes(baseURI).length > 0 */\n      gt\n        /* \"@openzeppelin/contracts/token/ERC721/ERC721.sol\":2850:2925  bytes(baseURI).length > 0 ? string.concat(baseURI, tokenId.toString()) : \"\" */\n      tag_292\n      jumpi\n      mload(0x40)\n      dup1\n      0x20\n      add\n      0x40\n      mstore\n      dup1\n      0x00\n      dup2\n      mstore\n      pop\n      jump(tag_293)\n    tag_292:\n        /* \"@openzeppelin/contracts/token/ERC721/ERC721.sol\":2892:2899  baseURI */\n      dup1\n        /* \"@openzeppelin/contracts/token/ERC721/ERC721.sol\":2901:2919  tokenId.toString() */\n      tag_294\n        /* \"@openzeppelin/contracts/token/ERC721/ERC721.sol\":2901:2908  tokenId */\n      dup5\n        /* \"@openzeppelin/contracts/token/ERC721/ERC721.sol\":2901:2917  tokenId.toString */\n      tag_295\n        /* \"@openzeppelin/contracts/token/ERC721/ERC721.sol\":2901:2919  tokenId.toString() */\n      jump\t// in\n    tag_294:\n        /* \"@openzeppelin/contracts/token/ERC721/ERC721.sol\":2878:2920  string.concat(baseURI, tokenId.toString()) */\n      add(0x20, mload(0x40))\n      tag_296\n      swap3\n      swap2\n      swap1\n      tag_211\n      jump\t// in\n    tag_296:\n      mload(0x40)\n      0x20\n      dup2\n      dup4\n      sub\n      sub\n      dup2\n      mstore\n      swap1\n      0x40\n      mstore\n        /* \"@openzeppelin/contracts/token/ERC721/ERC721.sol\":2850:2925  bytes(baseURI).length > 0 ? string.concat(baseURI, tokenId.toString()) : \"\" */\n    tag_293:\n        /* \"@openzeppelin/contracts/token/ERC721/ERC721.sol\":2843:2925  return bytes(baseURI).length > 0 ? string.concat(baseURI, tokenId.toString()) : \"\" */\n      swap2\n      pop\n      pop\n        /* \"@openzeppelin/contracts/token/ERC721/ERC721.sol\":2677:2932  function tokenURI(uint256 tokenId) public view virtual returns (string memory) {... */\n      swap2\n      swap1\n      pop\n      jump\t// out\n        /* \"@openzeppelin/contracts/utils/Counters.sol\":945:1068  function increment(Counter storage counter) internal {... */\n    tag_219:\n        /* \"@openzeppelin/contracts/utils/Counters.sol\":1050:1051  1 */\n      0x01\n        /* \"@openzeppelin/contracts/utils/Counters.sol\":1032:1039  counter */\n      dup2\n        /* \"@openzeppelin/contracts/utils/Counters.sol\":1032:1046  counter._value */\n      0x00\n      add\n      0x00\n        /* \"@openzeppelin/contracts/utils/Counters.sol\":1032:1051  counter._value += 1 */\n      dup3\n      dup3\n      sload\n      add\n      swap3\n      pop\n      pop\n      dup2\n      swap1\n      sstore\n      pop\n        /* \"@openzeppelin/contracts/utils/Counters.sol\":945:1068  function increment(Counter storage counter) internal {... */\n      pop\n      jump\t// out\n        /* \"@openzeppelin/contracts/token/ERC721/ERC721.sol\":9955:10282  function _mint(address to, uint256 tokenId) internal {... */\n    tag_222:\n        /* \"@openzeppelin/contracts/token/ERC721/ERC721.sol\":10036:10037  0 */\n      0x00\n        /* \"@openzeppelin/contracts/token/ERC721/ERC721.sol\":10022:10038  to == address(0) */\n      0xffffffffffffffffffffffffffffffffffffffff\n      and\n        /* \"@openzeppelin/contracts/token/ERC721/ERC721.sol\":10022:10024  to */\n      dup3\n        /* \"@openzeppelin/contracts/token/ERC721/ERC721.sol\":10022:10038  to == address(0) */\n      0xffffffffffffffffffffffffffffffffffffffff\n      and\n      sub\n        /* \"@openzeppelin/contracts/token/ERC721/ERC721.sol\":10018:10105  if (to == address(0)) {... */\n      tag_299\n      jumpi\n        /* \"@openzeppelin/contracts/token/ERC721/ERC721.sol\":10091:10092  0 */\n      0x00\n        /* \"@openzeppelin/contracts/token/ERC721/ERC721.sol\":10061:10094  ERC721InvalidReceiver(address(0)) */\n      mload(0x40)\n      0x64a0ae9200000000000000000000000000000000000000000000000000000000\n      dup2\n      mstore\n      0x04\n      add\n      tag_300\n      swap2\n      swap1\n      tag_48\n      jump\t// in\n    tag_300:\n      mload(0x40)\n      dup1\n      swap2\n      sub\n      swap1\n      revert\n        /* \"@openzeppelin/contracts/token/ERC721/ERC721.sol\":10018:10105  if (to == address(0)) {... */\n    tag_299:\n        /* \"@openzeppelin/contracts/token/ERC721/ERC721.sol\":10114:10135  address previousOwner */\n      0x00\n        /* \"@openzeppelin/contracts/token/ERC721/ERC721.sol\":10138:10170  _update(to, tokenId, address(0)) */\n      tag_301\n        /* \"@openzeppelin/contracts/token/ERC721/ERC721.sol\":10146:10148  to */\n      dup4\n        /* \"@openzeppelin/contracts/token/ERC721/ERC721.sol\":10150:10157  tokenId */\n      dup4\n        /* \"@openzeppelin/contracts/token/ERC721/ERC721.sol\":10167:10168  0 */\n      0x00\n        /* \"@openzeppelin/contracts/token/ERC721/ERC721.sol\":10138:10145  _update */\n      tag_155\n        /* \"@openzeppelin/contracts/token/ERC721/ERC721.sol\":10138:10170  _update(to, tokenId, address(0)) */\n      jump\t// in\n    tag_301:\n        /* \"@openzeppelin/contracts/token/ERC721/ERC721.sol\":10114:10170  address previousOwner = _update(to, tokenId, address(0)) */\n      swap1\n      pop\n        /* \"@openzeppelin/contracts/token/ERC721/ERC721.sol\":10209:10210  0 */\n      0x00\n        /* \"@openzeppelin/contracts/token/ERC721/ERC721.sol\":10184:10211  previousOwner != address(0) */\n      0xffffffffffffffffffffffffffffffffffffffff\n      and\n        /* \"@openzeppelin/contracts/token/ERC721/ERC721.sol\":10184:10197  previousOwner */\n      dup2\n        /* \"@openzeppelin/contracts/token/ERC721/ERC721.sol\":10184:10211  previousOwner != address(0) */\n      0xffffffffffffffffffffffffffffffffffffffff\n      and\n      eq\n        /* \"@openzeppelin/contracts/token/ERC721/ERC721.sol\":10180:10276  if (previousOwner != address(0)) {... */\n      tag_302\n      jumpi\n        /* \"@openzeppelin/contracts/token/ERC721/ERC721.sol\":10262:10263  0 */\n      0x00\n        /* \"@openzeppelin/contracts/token/ERC721/ERC721.sol\":10234:10265  ERC721InvalidSender(address(0)) */\n      mload(0x40)\n      0x73c6ac6e00000000000000000000000000000000000000000000000000000000\n      dup2\n      mstore\n      0x04\n      add\n      tag_303\n      swap2\n      swap1\n      tag_48\n      jump\t// in\n    tag_303:\n      mload(0x40)\n      dup1\n      swap2\n      sub\n      swap1\n      revert\n        /* \"@openzeppelin/contracts/token/ERC721/ERC721.sol\":10180:10276  if (previousOwner != address(0)) {... */\n    tag_302:\n        /* \"@openzeppelin/contracts/token/ERC721/ERC721.sol\":10008:10282  {... */\n      pop\n        /* \"@openzeppelin/contracts/token/ERC721/ERC721.sol\":9955:10282  function _mint(address to, uint256 tokenId) internal {... */\n      pop\n      pop\n      jump\t// out\n        /* \"@openzeppelin/contracts/token/ERC721/extensions/ERC721URIStorage.sol\":1922:2089  function _setTokenURI(uint256 tokenId, string memory _tokenURI) internal virtual {... */\n    tag_224:\n        /* \"@openzeppelin/contracts/token/ERC721/extensions/ERC721URIStorage.sol\":2035:2044  _tokenURI */\n      dup1\n        /* \"@openzeppelin/contracts/token/ERC721/extensions/ERC721URIStorage.sol\":2013:2023  _tokenURIs */\n      0x06\n        /* \"@openzeppelin/contracts/token/ERC721/extensions/ERC721URIStorage.sol\":2013:2032  _tokenURIs[tokenId] */\n      0x00\n        /* \"@openzeppelin/contracts/token/ERC721/extensions/ERC721URIStorage.sol\":2024:2031  tokenId */\n      dup5\n        /* \"@openzeppelin/contracts/token/ERC721/extensions/ERC721URIStorage.sol\":2013:2032  _tokenURIs[tokenId] */\n      dup2\n      mstore\n      0x20\n      add\n      swap1\n      dup2\n      mstore\n      0x20\n      add\n      0x00\n      keccak256\n        /* \"@openzeppelin/contracts/token/ERC721/extensions/ERC721URIStorage.sol\":2013:2044  _tokenURIs[tokenId] = _tokenURI */\n      swap1\n      dup2\n      tag_305\n      swap2\n      swap1\n      tag_306\n      jump\t// in\n    tag_305:\n      pop\n        /* \"@openzeppelin/contracts/token/ERC721/extensions/ERC721URIStorage.sol\":2059:2082  MetadataUpdate(tokenId) */\n      0xf8e1a15aba9398e019f0b49df1a4fde98ee17ae345cb5f6b5e2c27f5033e8ce7\n        /* \"@openzeppelin/contracts/token/ERC721/extensions/ERC721URIStorage.sol\":2074:2081  tokenId */\n      dup3\n        /* \"@openzeppelin/contracts/token/ERC721/extensions/ERC721URIStorage.sol\":2059:2082  MetadataUpdate(tokenId) */\n      mload(0x40)\n      tag_307\n      swap2\n      swap1\n      tag_56\n      jump\t// in\n    tag_307:\n      mload(0x40)\n      dup1\n      swap2\n      sub\n      swap1\n      log1\n        /* \"@openzeppelin/contracts/token/ERC721/extensions/ERC721URIStorage.sol\":1922:2089  function _setTokenURI(uint256 tokenId, string memory _tokenURI) internal virtual {... */\n      pop\n      pop\n      jump\t// out\n        /* \"@openzeppelin/contracts/utils/introspection/ERC165.sol\":762:908  function supportsInterface(bytes4 interfaceId) public view virtual returns (bool) {... */\n    tag_240:\n        /* \"@openzeppelin/contracts/utils/introspection/ERC165.sol\":838:842  bool */\n      0x00\n        /* \"@openzeppelin/contracts/utils/introspection/ERC165.sol\":876:901  type(IERC165).interfaceId */\n      0x01ffc9a700000000000000000000000000000000000000000000000000000000\n        /* \"@openzeppelin/contracts/utils/introspection/ERC165.sol\":861:901  interfaceId == type(IERC165).interfaceId */\n      not(0xffffffffffffffffffffffffffffffffffffffffffffffffffffffff)\n      and\n        /* \"@openzeppelin/contracts/utils/introspection/ERC165.sol\":861:872  interfaceId */\n      dup3\n        /* \"@openzeppelin/contracts/utils/introspection/ERC165.sol\":861:901  interfaceId == type(IERC165).interfaceId */\n      not(0xffffffffffffffffffffffffffffffffffffffffffffffffffffffff)\n      and\n      eq\n        /* \"@openzeppelin/contracts/utils/introspection/ERC165.sol\":854:901  return interfaceId == type(IERC165).interfaceId */\n      swap1\n      pop\n        /* \"@openzeppelin/contracts/utils/introspection/ERC165.sol\":762:908  function supportsInterface(bytes4 interfaceId) public view virtual returns (bool) {... */\n      swap2\n      swap1\n      pop\n      jump\t// out\n        /* \"@openzeppelin/contracts/token/ERC721/ERC721.sol\":5707:5822  function _ownerOf(uint256 tokenId) internal view virtual returns (address) {... */\n    tag_243:\n        /* \"@openzeppelin/contracts/token/ERC721/ERC721.sol\":5773:5780  address */\n      0x00\n        /* \"@openzeppelin/contracts/token/ERC721/ERC721.sol\":5799:5806  _owners */\n      0x02\n        /* \"@openzeppelin/contracts/token/ERC721/ERC721.sol\":5799:5815  _owners[tokenId] */\n      0x00\n        /* \"@openzeppelin/contracts/token/ERC721/ERC721.sol\":5807:5814  tokenId */\n      dup4\n        /* \"@openzeppelin/contracts/token/ERC721/ERC721.sol\":5799:5815  _owners[tokenId] */\n      dup2\n      mstore\n      0x20\n      add\n      swap1\n      dup2\n      mstore\n      0x20\n      add\n      0x00\n      keccak256\n      0x00\n      swap1\n      sload\n      swap1\n      0x0100\n      exp\n      swap1\n      div\n      0xffffffffffffffffffffffffffffffffffffffff\n      and\n        /* \"@openzeppelin/contracts/token/ERC721/ERC721.sol\":5792:5815  return _owners[tokenId] */\n      swap1\n      pop\n        /* \"@openzeppelin/contracts/token/ERC721/ERC721.sol\":5707:5822  function _ownerOf(uint256 tokenId) internal view virtual returns (address) {... */\n      swap2\n      swap1\n      pop\n      jump\t// out\n        /* \"@openzeppelin/contracts/token/ERC721/ERC721.sol\":14720:15382  function _approve(address to, uint256 tokenId, address auth, bool emitEvent) internal virtual {... */\n    tag_250:\n        /* \"@openzeppelin/contracts/token/ERC721/ERC721.sol\":14880:14889  emitEvent */\n      dup1\n        /* \"@openzeppelin/contracts/token/ERC721/ERC721.sol\":14880:14911  emitEvent || auth != address(0) */\n      dup1\n      tag_311\n      jumpi\n      pop\n        /* \"@openzeppelin/contracts/token/ERC721/ERC721.sol\":14909:14910  0 */\n      0x00\n        /* \"@openzeppelin/contracts/token/ERC721/ERC721.sol\":14893:14911  auth != address(0) */\n      0xffffffffffffffffffffffffffffffffffffffff\n      and\n        /* \"@openzeppelin/contracts/token/ERC721/ERC721.sol\":14893:14897  auth */\n      dup3\n        /* \"@openzeppelin/contracts/token/ERC721/ERC721.sol\":14893:14911  auth != address(0) */\n      0xffffffffffffffffffffffffffffffffffffffff\n      and\n      eq\n      iszero\n        /* \"@openzeppelin/contracts/token/ERC721/ERC721.sol\":14880:14911  emitEvent || auth != address(0) */\n    tag_311:\n        /* \"@openzeppelin/contracts/token/ERC721/ERC721.sol\":14876:15336  if (emitEvent || auth != address(0)) {... */\n      iszero\n      tag_312\n      jumpi\n        /* \"@openzeppelin/contracts/token/ERC721/ERC721.sol\":14927:14940  address owner */\n      0x00\n        /* \"@openzeppelin/contracts/token/ERC721/ERC721.sol\":14943:14965  _requireOwned(tokenId) */\n      tag_313\n        /* \"@openzeppelin/contracts/token/ERC721/ERC721.sol\":14957:14964  tokenId */\n      dup5\n        /* \"@openzeppelin/contracts/token/ERC721/ERC721.sol\":14943:14956  _requireOwned */\n      tag_141\n        /* \"@openzeppelin/contracts/token/ERC721/ERC721.sol\":14943:14965  _requireOwned(tokenId) */\n      jump\t// in\n    tag_313:\n        /* \"@openzeppelin/contracts/token/ERC721/ERC721.sol\":14927:14965  address owner = _requireOwned(tokenId) */\n      swap1\n      pop\n        /* \"@openzeppelin/contracts/token/ERC721/ERC721.sol\":15109:15110  0 */\n      0x00\n        /* \"@openzeppelin/contracts/token/ERC721/ERC721.sol\":15093:15111  auth != address(0) */\n      0xffffffffffffffffffffffffffffffffffffffff\n      and\n        /* \"@openzeppelin/contracts/token/ERC721/ERC721.sol\":15093:15097  auth */\n      dup4\n        /* \"@openzeppelin/contracts/token/ERC721/ERC721.sol\":15093:15111  auth != address(0) */\n      0xffffffffffffffffffffffffffffffffffffffff\n      and\n      eq\n      iszero\n        /* \"@openzeppelin/contracts/token/ERC721/ERC721.sol\":15093:15128  auth != address(0) && owner != auth */\n      dup1\n      iszero\n      tag_314\n      jumpi\n      pop\n        /* \"@openzeppelin/contracts/token/ERC721/ERC721.sol\":15124:15128  auth */\n      dup3\n        /* \"@openzeppelin/contracts/token/ERC721/ERC721.sol\":15115:15128  owner != auth */\n      0xffffffffffffffffffffffffffffffffffffffff\n      and\n        /* \"@openzeppelin/contracts/token/ERC721/ERC721.sol\":15115:15120  owner */\n      dup2\n        /* \"@openzeppelin/contracts/token/ERC721/ERC721.sol\":15115:15128  owner != auth */\n      0xffffffffffffffffffffffffffffffffffffffff\n      and\n      eq\n      iszero\n        /* \"@openzeppelin/contracts/token/ERC721/ERC721.sol\":15093:15128  auth != address(0) && owner != auth */\n    tag_314:\n        /* \"@openzeppelin/contracts/token/ERC721/ERC721.sol\":15093:15162  auth != address(0) && owner != auth && !isApprovedForAll(owner, auth) */\n      dup1\n      iszero\n      tag_315\n      jumpi\n      pop\n        /* \"@openzeppelin/contracts/token/ERC721/ERC721.sol\":15133:15162  isApprovedForAll(owner, auth) */\n      tag_316\n        /* \"@openzeppelin/contracts/token/ERC721/ERC721.sol\":15150:15155  owner */\n      dup2\n        /* \"@openzeppelin/contracts/token/ERC721/ERC721.sol\":15157:15161  auth */\n      dup5\n        /* \"@openzeppelin/contracts/token/ERC721/ERC721.sol\":15133:15149  isApprovedForAll */\n      tag_121\n        /* \"@openzeppelin/contracts/token/ERC721/ERC721.sol\":15133:15162  isApprovedForAll(owner, auth) */\n      jump\t// in\n    tag_316:\n        /* \"@openzeppelin/contracts/token/ERC721/ERC721.sol\":15132:15162  !isApprovedForAll(owner, auth) */\n      iszero\n        /* \"@openzeppelin/contracts/token/ERC721/ERC721.sol\":15093:15162  auth != address(0) && owner != auth && !isApprovedForAll(owner, auth) */\n    tag_315:\n        /* \"@openzeppelin/contracts/token/ERC721/ERC721.sol\":15089:15231  if (auth != address(0) && owner != auth && !isApprovedForAll(owner, auth)) {... */\n      iszero\n      tag_317\n      jumpi\n        /* \"@openzeppelin/contracts/token/ERC721/ERC721.sol\":15211:15215  auth */\n      dup3\n        /* \"@openzeppelin/contracts/token/ERC721/ERC721.sol\":15189:15216  ERC721InvalidApprover(auth) */\n      mload(0x40)\n      0xa9fbf51f00000000000000000000000000000000000000000000000000000000\n      dup2\n      mstore\n      0x04\n      add\n      tag_318\n      swap2\n      swap1\n      tag_48\n      jump\t// in\n    tag_318:\n      mload(0x40)\n      dup1\n      swap2\n      sub\n      swap1\n      revert\n        /* \"@openzeppelin/contracts/token/ERC721/ERC721.sol\":15089:15231  if (auth != address(0) && owner != auth && !isApprovedForAll(owner, auth)) {... */\n    tag_317:\n        /* \"@openzeppelin/contracts/token/ERC721/ERC721.sol\":15249:15258  emitEvent */\n      dup2\n        /* \"@openzeppelin/contracts/token/ERC721/ERC721.sol\":15245:15326  if (emitEvent) {... */\n      iszero\n      tag_319\n      jumpi\n        /* \"@openzeppelin/contracts/token/ERC721/ERC721.sol\":15303:15310  tokenId */\n      dup4\n        /* \"@openzeppelin/contracts/token/ERC721/ERC721.sol\":15299:15301  to */\n      dup6\n        /* \"@openzeppelin/contracts/token/ERC721/ERC721.sol\":15283:15311  Approval(owner, to, tokenId) */\n      0xffffffffffffffffffffffffffffffffffffffff\n      and\n        /* \"@openzeppelin/contracts/token/ERC721/ERC721.sol\":15292:15297  owner */\n      dup3\n        /* \"@openzeppelin/contracts/token/ERC721/ERC721.sol\":15283:15311  Approval(owner, to, tokenId) */\n      0xffffffffffffffffffffffffffffffffffffffff\n      and\n      0x8c5be1e5ebec7d5bd14f71427d1e84f3dd0314c0f7b2291e5b200ac8c7c3b925\n      mload(0x40)\n      mload(0x40)\n      dup1\n      swap2\n      sub\n      swap1\n      log4\n        /* \"@openzeppelin/contracts/token/ERC721/ERC721.sol\":15245:15326  if (emitEvent) {... */\n    tag_319:\n        /* \"@openzeppelin/contracts/token/ERC721/ERC721.sol\":14913:15336  {... */\n      pop\n        /* \"@openzeppelin/contracts/token/ERC721/ERC721.sol\":14876:15336  if (emitEvent || auth != address(0)) {... */\n    tag_312:\n        /* \"@openzeppelin/contracts/token/ERC721/ERC721.sol\":15373:15375  to */\n      dup4\n        /* \"@openzeppelin/contracts/token/ERC721/ERC721.sol\":15346:15361  _tokenApprovals */\n      0x04\n        /* \"@openzeppelin/contracts/token/ERC721/ERC721.sol\":15346:15370  _tokenApprovals[tokenId] */\n      0x00\n        /* \"@openzeppelin/contracts/token/ERC721/ERC721.sol\":15362:15369  tokenId */\n      dup6\n        /* \"@openzeppelin/contracts/token/ERC721/ERC721.sol\":15346:15370  _tokenApprovals[tokenId] */\n      dup2\n      mstore\n      0x20\n      add\n      swap1\n      dup2\n      mstore\n      0x20\n      add\n      0x00\n      keccak256\n      0x00\n        /* \"@openzeppelin/contracts/token/ERC721/ERC721.sol\":15346:15375  _tokenApprovals[tokenId] = to */\n      0x0100\n      exp\n      dup2\n      sload\n      dup2\n      0xffffffffffffffffffffffffffffffffffffffff\n      mul\n      not\n      and\n      swap1\n      dup4\n      0xffffffffffffffffffffffffffffffffffffffff\n      and\n      mul\n      or\n      swap1\n      sstore\n      pop\n        /* \"@openzeppelin/contracts/token/ERC721/ERC721.sol\":14720:15382  function _approve(address to, uint256 tokenId, address auth, bool emitEvent) internal virtual {... */\n      pop\n      pop\n      pop\n      pop\n      jump\t// out\n        /* \"@openzeppelin/contracts/token/ERC721/ERC721.sol\":7082:7450  function _checkAuthorized(address owner, address spender, uint256 tokenId) internal view virtual {... */\n    tag_255:\n        /* \"@openzeppelin/contracts/token/ERC721/ERC721.sol\":7194:7232  _isAuthorized(owner, spender, tokenId) */\n      tag_321\n        /* \"@openzeppelin/contracts/token/ERC721/ERC721.sol\":7208:7213  owner */\n      dup4\n        /* \"@openzeppelin/contracts/token/ERC721/ERC721.sol\":7215:7222  spender */\n      dup4\n        /* \"@openzeppelin/contracts/token/ERC721/ERC721.sol\":7224:7231  tokenId */\n      dup4\n        /* \"@openzeppelin/contracts/token/ERC721/ERC721.sol\":7194:7207  _isAuthorized */\n      tag_322\n        /* \"@openzeppelin/contracts/token/ERC721/ERC721.sol\":7194:7232  _isAuthorized(owner, spender, tokenId) */\n      jump\t// in\n    tag_321:\n        /* \"@openzeppelin/contracts/token/ERC721/ERC721.sol\":7189:7444  if (!_isAuthorized(owner, spender, tokenId)) {... */\n      tag_323\n      jumpi\n        /* \"@openzeppelin/contracts/token/ERC721/ERC721.sol\":7269:7270  0 */\n      0x00\n        /* \"@openzeppelin/contracts/token/ERC721/ERC721.sol\":7252:7271  owner == address(0) */\n      0xffffffffffffffffffffffffffffffffffffffff\n      and\n        /* \"@openzeppelin/contracts/token/ERC721/ERC721.sol\":7252:7257  owner */\n      dup4\n        /* \"@openzeppelin/contracts/token/ERC721/ERC721.sol\":7252:7271  owner == address(0) */\n      0xffffffffffffffffffffffffffffffffffffffff\n      and\n      sub\n        /* \"@openzeppelin/contracts/token/ERC721/ERC721.sol\":7248:7434  if (owner == address(0)) {... */\n      tag_324\n      jumpi\n        /* \"@openzeppelin/contracts/token/ERC721/ERC721.sol\":7321:7328  tokenId */\n      dup1\n        /* \"@openzeppelin/contracts/token/ERC721/ERC721.sol\":7298:7329  ERC721NonexistentToken(tokenId) */\n      mload(0x40)\n      0x7e27328900000000000000000000000000000000000000000000000000000000\n      dup2\n      mstore\n      0x04\n      add\n      tag_325\n      swap2\n      swap1\n      tag_56\n      jump\t// in\n    tag_325:\n      mload(0x40)\n      dup1\n      swap2\n      sub\n      swap1\n      revert\n        /* \"@openzeppelin/contracts/token/ERC721/ERC721.sol\":7248:7434  if (owner == address(0)) {... */\n    tag_324:\n        /* \"@openzeppelin/contracts/token/ERC721/ERC721.sol\":7402:7409  spender */\n      dup2\n        /* \"@openzeppelin/contracts/token/ERC721/ERC721.sol\":7411:7418  tokenId */\n      dup2\n        /* \"@openzeppelin/contracts/token/ERC721/ERC721.sol\":7375:7419  ERC721InsufficientApproval(spender, tokenId) */\n      mload(0x40)\n      0x177e802f00000000000000000000000000000000000000000000000000000000\n      dup2\n      mstore\n      0x04\n      add\n      tag_327\n      swap3\n      swap2\n      swap1\n      tag_328\n      jump\t// in\n    tag_327:\n      mload(0x40)\n      dup1\n      swap2\n      sub\n      swap1\n      revert\n        /* \"@openzeppelin/contracts/token/ERC721/ERC721.sol\":7189:7444  if (!_isAuthorized(owner, spender, tokenId)) {... */\n    tag_323:\n        /* \"@openzeppelin/contracts/token/ERC721/ERC721.sol\":7082:7450  function _checkAuthorized(address owner, address spender, uint256 tokenId) internal view virtual {... */\n      pop\n      pop\n      pop\n      jump\t// out\n        /* \"@openzeppelin/contracts/utils/Strings.sol\":637:1335  function toString(uint256 value) internal pure returns (string memory) {... */\n    tag_295:\n        /* \"@openzeppelin/contracts/utils/Strings.sol\":693:706  string memory */\n      0x60\n        /* \"@openzeppelin/contracts/utils/Strings.sol\":742:756  uint256 length */\n      0x00\n        /* \"@openzeppelin/contracts/utils/Strings.sol\":779:780  1 */\n      0x01\n        /* \"@openzeppelin/contracts/utils/Strings.sol\":759:776  Math.log10(value) */\n      tag_330\n        /* \"@openzeppelin/contracts/utils/Strings.sol\":770:775  value */\n      dup5\n        /* \"@openzeppelin/contracts/utils/Strings.sol\":759:769  Math.log10 */\n      tag_331\n        /* \"@openzeppelin/contracts/utils/Strings.sol\":759:776  Math.log10(value) */\n      jump\t// in\n    tag_330:\n        /* \"@openzeppelin/contracts/utils/Strings.sol\":759:780  Math.log10(value) + 1 */\n      add\n        /* \"@openzeppelin/contracts/utils/Strings.sol\":742:780  uint256 length = Math.log10(value) + 1 */\n      swap1\n      pop\n        /* \"@openzeppelin/contracts/utils/Strings.sol\":794:814  string memory buffer */\n      0x00\n        /* \"@openzeppelin/contracts/utils/Strings.sol\":828:834  length */\n      dup2\n        /* \"@openzeppelin/contracts/utils/Strings.sol\":817:835  new string(length) */\n      0xffffffffffffffff\n      dup2\n      gt\n      iszero\n      tag_332\n      jumpi\n      tag_333\n      tag_334\n      jump\t// in\n    tag_333:\n    tag_332:\n      mload(0x40)\n      swap1\n      dup1\n      dup3\n      mstore\n      dup1\n      0x1f\n      add\n      not(0x1f)\n      and\n      0x20\n      add\n      dup3\n      add\n      0x40\n      mstore\n      dup1\n      iszero\n      tag_335\n      jumpi\n      dup2\n      0x20\n      add\n      0x01\n      dup3\n      mul\n      dup1\n      calldatasize\n      dup4\n      calldatacopy\n      dup1\n      dup3\n      add\n      swap2\n      pop\n      pop\n      swap1\n      pop\n    tag_335:\n      pop\n        /* \"@openzeppelin/contracts/utils/Strings.sol\":794:835  string memory buffer = new string(length) */\n      swap1\n      pop\n        /* \"@openzeppelin/contracts/utils/Strings.sol\":849:860  uint256 ptr */\n      0x00\n        /* \"@openzeppelin/contracts/utils/Strings.sol\":975:981  length */\n      dup3\n        /* \"@openzeppelin/contracts/utils/Strings.sol\":971:973  32 */\n      0x20\n        /* \"@openzeppelin/contracts/utils/Strings.sol\":967:982  add(32, length) */\n      add\n        /* \"@openzeppelin/contracts/utils/Strings.sol\":959:965  buffer */\n      dup3\n        /* \"@openzeppelin/contracts/utils/Strings.sol\":955:983  add(buffer, add(32, length)) */\n      add\n        /* \"@openzeppelin/contracts/utils/Strings.sol\":948:983  ptr := add(buffer, add(32, length)) */\n      swap1\n      pop\n        /* \"@openzeppelin/contracts/utils/Strings.sol\":1010:1292  while (true) {... */\n    tag_336:\n        /* \"@openzeppelin/contracts/utils/Strings.sol\":1017:1021  true */\n      0x01\n        /* \"@openzeppelin/contracts/utils/Strings.sol\":1010:1292  while (true) {... */\n      iszero\n      tag_337\n      jumpi\n        /* \"@openzeppelin/contracts/utils/Strings.sol\":1041:1046  ptr-- */\n      dup1\n      dup1\n      0x01\n      swap1\n      sub\n      swap2\n      pop\n      pop\n        /* \"@openzeppelin/contracts/utils/Strings.sol\":1180:1190  HEX_DIGITS */\n      0x3031323334353637383961626364656600000000000000000000000000000000\n        /* \"@openzeppelin/contracts/utils/Strings.sol\":1175:1177  10 */\n      0x0a\n        /* \"@openzeppelin/contracts/utils/Strings.sol\":1168:1173  value */\n      dup7\n        /* \"@openzeppelin/contracts/utils/Strings.sol\":1164:1178  mod(value, 10) */\n      mod\n        /* \"@openzeppelin/contracts/utils/Strings.sol\":1159:1191  byte(mod(value, 10), HEX_DIGITS) */\n      byte\n        /* \"@openzeppelin/contracts/utils/Strings.sol\":1154:1157  ptr */\n      dup2\n        /* \"@openzeppelin/contracts/utils/Strings.sol\":1146:1192  mstore8(ptr, byte(mod(value, 10), HEX_DIGITS)) */\n      mstore8\n        /* \"@openzeppelin/contracts/utils/Strings.sol\":1236:1238  10 */\n      0x0a\n        /* \"@openzeppelin/contracts/utils/Strings.sol\":1227:1238  value /= 10 */\n      dup6\n      dup2\n      tag_338\n      jumpi\n      tag_339\n      tag_340\n      jump\t// in\n    tag_339:\n    tag_338:\n      div\n      swap5\n      pop\n        /* \"@openzeppelin/contracts/utils/Strings.sol\":1269:1270  0 */\n      0x00\n        /* \"@openzeppelin/contracts/utils/Strings.sol\":1260:1265  value */\n      dup6\n        /* \"@openzeppelin/contracts/utils/Strings.sol\":1260:1270  value == 0 */\n      sub\n        /* \"@openzeppelin/contracts/utils/Strings.sol\":1010:1292  while (true) {... */\n      tag_336\n        /* \"@openzeppelin/contracts/utils/Strings.sol\":1256:1277  if (value == 0) break */\n      jumpi\n        /* \"@openzeppelin/contracts/utils/Strings.sol\":1010:1292  while (true) {... */\n    tag_337:\n        /* \"@openzeppelin/contracts/utils/Strings.sol\":1312:1318  buffer */\n      dup2\n        /* \"@openzeppelin/contracts/utils/Strings.sol\":1305:1318  return buffer */\n      swap4\n      pop\n      pop\n      pop\n      pop\n        /* \"@openzeppelin/contracts/utils/Strings.sol\":637:1335  function toString(uint256 value) internal pure returns (string memory) {... */\n      swap2\n      swap1\n      pop\n      jump\t// out\n        /* \"@openzeppelin/contracts/token/ERC721/ERC721.sol\":6376:6648  function _isAuthorized(address owner, address spender, uint256 tokenId) internal view virtual returns (bool) {... */\n    tag_322:\n        /* \"@openzeppelin/contracts/token/ERC721/ERC721.sol\":6479:6483  bool */\n      0x00\n        /* \"@openzeppelin/contracts/token/ERC721/ERC721.sol\":6533:6534  0 */\n      dup1\n        /* \"@openzeppelin/contracts/token/ERC721/ERC721.sol\":6514:6535  spender != address(0) */\n      0xffffffffffffffffffffffffffffffffffffffff\n      and\n        /* \"@openzeppelin/contracts/token/ERC721/ERC721.sol\":6514:6521  spender */\n      dup4\n        /* \"@openzeppelin/contracts/token/ERC721/ERC721.sol\":6514:6535  spender != address(0) */\n      0xffffffffffffffffffffffffffffffffffffffff\n      and\n      eq\n      iszero\n        /* \"@openzeppelin/contracts/token/ERC721/ERC721.sol\":6514:6641  spender != address(0) &&... */\n      dup1\n      iszero\n      tag_343\n      jumpi\n      pop\n        /* \"@openzeppelin/contracts/token/ERC721/ERC721.sol\":6561:6568  spender */\n      dup3\n        /* \"@openzeppelin/contracts/token/ERC721/ERC721.sol\":6552:6568  owner == spender */\n      0xffffffffffffffffffffffffffffffffffffffff\n      and\n        /* \"@openzeppelin/contracts/token/ERC721/ERC721.sol\":6552:6557  owner */\n      dup5\n        /* \"@openzeppelin/contracts/token/ERC721/ERC721.sol\":6552:6568  owner == spender */\n      0xffffffffffffffffffffffffffffffffffffffff\n      and\n      eq\n        /* \"@openzeppelin/contracts/token/ERC721/ERC721.sol\":6552:6604  owner == spender || isApprovedForAll(owner, spender) */\n      dup1\n      tag_344\n      jumpi\n      pop\n        /* \"@openzeppelin/contracts/token/ERC721/ERC721.sol\":6572:6604  isApprovedForAll(owner, spender) */\n      tag_345\n        /* \"@openzeppelin/contracts/token/ERC721/ERC721.sol\":6589:6594  owner */\n      dup5\n        /* \"@openzeppelin/contracts/token/ERC721/ERC721.sol\":6596:6603  spender */\n      dup5\n        /* \"@openzeppelin/contracts/token/ERC721/ERC721.sol\":6572:6588  isApprovedForAll */\n      tag_121\n        /* \"@openzeppelin/contracts/token/ERC721/ERC721.sol\":6572:6604  isApprovedForAll(owner, spender) */\n      jump\t// in\n    tag_345:\n        /* \"@openzeppelin/contracts/token/ERC721/ERC721.sol\":6552:6604  owner == spender || isApprovedForAll(owner, spender) */\n    tag_344:\n        /* \"@openzeppelin/contracts/token/ERC721/ERC721.sol\":6552:6640  owner == spender || isApprovedForAll(owner, spender) || _getApproved(tokenId) == spender */\n      dup1\n      tag_346\n      jumpi\n      pop\n        /* \"@openzeppelin/contracts/token/ERC721/ERC721.sol\":6633:6640  spender */\n      dup3\n        /* \"@openzeppelin/contracts/token/ERC721/ERC721.sol\":6608:6640  _getApproved(tokenId) == spender */\n      0xffffffffffffffffffffffffffffffffffffffff\n      and\n        /* \"@openzeppelin/contracts/token/ERC721/ERC721.sol\":6608:6629  _getApproved(tokenId) */\n      tag_347\n        /* \"@openzeppelin/contracts/token/ERC721/ERC721.sol\":6621:6628  tokenId */\n      dup4\n        /* \"@openzeppelin/contracts/token/ERC721/ERC721.sol\":6608:6620  _getApproved */\n      tag_143\n        /* \"@openzeppelin/contracts/token/ERC721/ERC721.sol\":6608:6629  _getApproved(tokenId) */\n      jump\t// in\n    tag_347:\n        /* \"@openzeppelin/contracts/token/ERC721/ERC721.sol\":6608:6640  _getApproved(tokenId) == spender */\n      0xffffffffffffffffffffffffffffffffffffffff\n      and\n      eq\n        /* \"@openzeppelin/contracts/token/ERC721/ERC721.sol\":6552:6640  owner == spender || isApprovedForAll(owner, spender) || _getApproved(tokenId) == spender */\n    tag_346:\n        /* \"@openzeppelin/contracts/token/ERC721/ERC721.sol\":6514:6641  spender != address(0) &&... */\n    tag_343:\n        /* \"@openzeppelin/contracts/token/ERC721/ERC721.sol\":6495:6641  return... */\n      swap1\n      pop\n        /* \"@openzeppelin/contracts/token/ERC721/ERC721.sol\":6376:6648  function _isAuthorized(address owner, address spender, uint256 tokenId) internal view virtual returns (bool) {... */\n      swap4\n      swap3\n      pop\n      pop\n      pop\n      jump\t// out\n        /* \"@openzeppelin/contracts/utils/math/Math.sol\":12214:13130  function log10(uint256 value) internal pure returns (uint256) {... */\n    tag_331:\n        /* \"@openzeppelin/contracts/utils/math/Math.sol\":12267:12274  uint256 */\n      0x00\n        /* \"@openzeppelin/contracts/utils/math/Math.sol\":12286:12300  uint256 result */\n      dup1\n        /* \"@openzeppelin/contracts/utils/math/Math.sol\":12303:12304  0 */\n      0x00\n        /* \"@openzeppelin/contracts/utils/math/Math.sol\":12286:12304  uint256 result = 0 */\n      swap1\n      pop\n        /* \"@openzeppelin/contracts/utils/math/Math.sol\":12351:12359  10 ** 64 */\n      0x184f03e93ff9f4daa797ed6e38ed64bf6a1f010000000000000000\n        /* \"@openzeppelin/contracts/utils/math/Math.sol\":12342:12347  value */\n      dup4\n        /* \"@openzeppelin/contracts/utils/math/Math.sol\":12342:12359  value >= 10 ** 64 */\n      lt\n        /* \"@openzeppelin/contracts/utils/math/Math.sol\":12338:12441  if (value >= 10 ** 64) {... */\n      tag_349\n      jumpi\n        /* \"@openzeppelin/contracts/utils/math/Math.sol\":12388:12396  10 ** 64 */\n      0x184f03e93ff9f4daa797ed6e38ed64bf6a1f010000000000000000\n        /* \"@openzeppelin/contracts/utils/math/Math.sol\":12379:12396  value /= 10 ** 64 */\n      dup4\n      dup2\n      tag_350\n      jumpi\n      tag_351\n      tag_340\n      jump\t// in\n    tag_351:\n    tag_350:\n      div\n      swap3\n      pop\n        /* \"@openzeppelin/contracts/utils/math/Math.sol\":12424:12426  64 */\n      0x40\n        /* \"@openzeppelin/contracts/utils/math/Math.sol\":12414:12426  result += 64 */\n      dup2\n      add\n      swap1\n      pop\n        /* \"@openzeppelin/contracts/utils/math/Math.sol\":12338:12441  if (value >= 10 ** 64) {... */\n    tag_349:\n        /* \"@openzeppelin/contracts/utils/math/Math.sol\":12467:12475  10 ** 32 */\n      0x04ee2d6d415b85acef8100000000\n        /* \"@openzeppelin/contracts/utils/math/Math.sol\":12458:12463  value */\n      dup4\n        /* \"@openzeppelin/contracts/utils/math/Math.sol\":12458:12475  value >= 10 ** 32 */\n      lt\n        /* \"@openzeppelin/contracts/utils/math/Math.sol\":12454:12557  if (value >= 10 ** 32) {... */\n      tag_352\n      jumpi\n        /* \"@openzeppelin/contracts/utils/math/Math.sol\":12504:12512  10 ** 32 */\n      0x04ee2d6d415b85acef8100000000\n        /* \"@openzeppelin/contracts/utils/math/Math.sol\":12495:12512  value /= 10 ** 32 */\n      dup4\n      dup2\n      tag_353\n      jumpi\n      tag_354\n      tag_340\n      jump\t// in\n    tag_354:\n    tag_353:\n      div\n      swap3\n      pop\n        /* \"@openzeppelin/contracts/utils/math/Math.sol\":12540:12542  32 */\n      0x20\n        /* \"@openzeppelin/contracts/utils/math/Math.sol\":12530:12542  result += 32 */\n      dup2\n      add\n      swap1\n      pop\n        /* \"@openzeppelin/contracts/utils/math/Math.sol\":12454:12557  if (value >= 10 ** 32) {... */\n    tag_352:\n        /* \"@openzeppelin/contracts/utils/math/Math.sol\":12583:12591  10 ** 16 */\n      0x2386f26fc10000\n        /* \"@openzeppelin/contracts/utils/math/Math.sol\":12574:12579  value */\n      dup4\n        /* \"@openzeppelin/contracts/utils/math/Math.sol\":12574:12591  value >= 10 ** 16 */\n      lt\n        /* \"@openzeppelin/contracts/utils/math/Math.sol\":12570:12673  if (value >= 10 ** 16) {... */\n      tag_355\n      jumpi\n        /* \"@openzeppelin/contracts/utils/math/Math.sol\":12620:12628  10 ** 16 */\n      0x2386f26fc10000\n        /* \"@openzeppelin/contracts/utils/math/Math.sol\":12611:12628  value /= 10 ** 16 */\n      dup4\n      dup2\n      tag_356\n      jumpi\n      tag_357\n      tag_340\n      jump\t// in\n    tag_357:\n    tag_356:\n      div\n      swap3\n      pop\n        /* \"@openzeppelin/contracts/utils/math/Math.sol\":12656:12658  16 */\n      0x10\n        /* \"@openzeppelin/contracts/utils/math/Math.sol\":12646:12658  result += 16 */\n      dup2\n      add\n      swap1\n      pop\n        /* \"@openzeppelin/contracts/utils/math/Math.sol\":12570:12673  if (value >= 10 ** 16) {... */\n    tag_355:\n        /* \"@openzeppelin/contracts/utils/math/Math.sol\":12699:12706  10 ** 8 */\n      0x05f5e100\n        /* \"@openzeppelin/contracts/utils/math/Math.sol\":12690:12695  value */\n      dup4\n        /* \"@openzeppelin/contracts/utils/math/Math.sol\":12690:12706  value >= 10 ** 8 */\n      lt\n        /* \"@openzeppelin/contracts/utils/math/Math.sol\":12686:12786  if (value >= 10 ** 8) {... */\n      tag_358\n      jumpi\n        /* \"@openzeppelin/contracts/utils/math/Math.sol\":12735:12742  10 ** 8 */\n      0x05f5e100\n        /* \"@openzeppelin/contracts/utils/math/Math.sol\":12726:12742  value /= 10 ** 8 */\n      dup4\n      dup2\n      tag_359\n      jumpi\n      tag_360\n      tag_340\n      jump\t// in\n    tag_360:\n    tag_359:\n      div\n      swap3\n      pop\n        /* \"@openzeppelin/contracts/utils/math/Math.sol\":12770:12771  8 */\n      0x08\n        /* \"@openzeppelin/contracts/utils/math/Math.sol\":12760:12771  result += 8 */\n      dup2\n      add\n      swap1\n      pop\n        /* \"@openzeppelin/contracts/utils/math/Math.sol\":12686:12786  if (value >= 10 ** 8) {... */\n    tag_358:\n        /* \"@openzeppelin/contracts/utils/math/Math.sol\":12812:12819  10 ** 4 */\n      0x2710\n        /* \"@openzeppelin/contracts/utils/math/Math.sol\":12803:12808  value */\n      dup4\n        /* \"@openzeppelin/contracts/utils/math/Math.sol\":12803:12819  value >= 10 ** 4 */\n      lt\n        /* \"@openzeppelin/contracts/utils/math/Math.sol\":12799:12899  if (value >= 10 ** 4) {... */\n      tag_361\n      jumpi\n        /* \"@openzeppelin/contracts/utils/math/Math.sol\":12848:12855  10 ** 4 */\n      0x2710\n        /* \"@openzeppelin/contracts/utils/math/Math.sol\":12839:12855  value /= 10 ** 4 */\n      dup4\n      dup2\n      tag_362\n      jumpi\n      tag_363\n      tag_340\n      jump\t// in\n    tag_363:\n    tag_362:\n      div\n      swap3\n      pop\n        /* \"@openzeppelin/contracts/utils/math/Math.sol\":12883:12884  4 */\n      0x04\n        /* \"@openzeppelin/contracts/utils/math/Math.sol\":12873:12884  result += 4 */\n      dup2\n      add\n      swap1\n      pop\n        /* \"@openzeppelin/contracts/utils/math/Math.sol\":12799:12899  if (value >= 10 ** 4) {... */\n    tag_361:\n        /* \"@openzeppelin/contracts/utils/math/Math.sol\":12925:12932  10 ** 2 */\n      0x64\n        /* \"@openzeppelin/contracts/utils/math/Math.sol\":12916:12921  value */\n      dup4\n        /* \"@openzeppelin/contracts/utils/math/Math.sol\":12916:12932  value >= 10 ** 2 */\n      lt\n        /* \"@openzeppelin/contracts/utils/math/Math.sol\":12912:13012  if (value >= 10 ** 2) {... */\n      tag_364\n      jumpi\n        /* \"@openzeppelin/contracts/utils/math/Math.sol\":12961:12968  10 ** 2 */\n      0x64\n        /* \"@openzeppelin/contracts/utils/math/Math.sol\":12952:12968  value /= 10 ** 2 */\n      dup4\n      dup2\n      tag_365\n      jumpi\n      tag_366\n      tag_340\n      jump\t// in\n    tag_366:\n    tag_365:\n      div\n      swap3\n      pop\n        /* \"@openzeppelin/contracts/utils/math/Math.sol\":12996:12997  2 */\n      0x02\n        /* \"@openzeppelin/contracts/utils/math/Math.sol\":12986:12997  result += 2 */\n      dup2\n      add\n      swap1\n      pop\n        /* \"@openzeppelin/contracts/utils/math/Math.sol\":12912:13012  if (value >= 10 ** 2) {... */\n    tag_364:\n        /* \"@openzeppelin/contracts/utils/math/Math.sol\":13038:13045  10 ** 1 */\n      0x0a\n        /* \"@openzeppelin/contracts/utils/math/Math.sol\":13029:13034  value */\n      dup4\n        /* \"@openzeppelin/contracts/utils/math/Math.sol\":13029:13045  value >= 10 ** 1 */\n      lt\n        /* \"@openzeppelin/contracts/utils/math/Math.sol\":13025:13091  if (value >= 10 ** 1) {... */\n      tag_367\n      jumpi\n        /* \"@openzeppelin/contracts/utils/math/Math.sol\":13075:13076  1 */\n      0x01\n        /* \"@openzeppelin/contracts/utils/math/Math.sol\":13065:13076  result += 1 */\n      dup2\n      add\n      swap1\n      pop\n        /* \"@openzeppelin/contracts/utils/math/Math.sol\":13025:13091  if (value >= 10 ** 1) {... */\n    tag_367:\n        /* \"@openzeppelin/contracts/utils/math/Math.sol\":13117:13123  result */\n      dup1\n        /* \"@openzeppelin/contracts/utils/math/Math.sol\":13110:13123  return result */\n      swap2\n      pop\n      pop\n        /* \"@openzeppelin/contracts/utils/math/Math.sol\":12214:13130  function log10(uint256 value) internal pure returns (uint256) {... */\n      swap2\n      swap1\n      pop\n      jump\t// out\n        /* \"#utility.yul\":7:82   */\n    tag_368:\n        /* \"#utility.yul\":40:46   */\n      0x00\n        /* \"#utility.yul\":73:75   */\n      0x40\n        /* \"#utility.yul\":67:76   */\n      mload\n        /* \"#utility.yul\":57:76   */\n      swap1\n      pop\n        /* \"#utility.yul\":7:82   */\n      swap1\n      jump\t// out\n        /* \"#utility.yul\":88:205   */\n    tag_369:\n        /* \"#utility.yul\":197:198   */\n      0x00\n        /* \"#utility.yul\":194:195   */\n      dup1\n        /* \"#utility.yul\":187:199   */\n      revert\n        /* \"#utility.yul\":211:328   */\n    tag_370:\n        /* \"#utility.yul\":320:321   */\n      0x00\n        /* \"#utility.yul\":317:318   */\n      dup1\n        /* \"#utility.yul\":310:322   */\n      revert\n        /* \"#utility.yul\":334:411   */\n    tag_371:\n        /* \"#utility.yul\":371:378   */\n      0x00\n        /* \"#utility.yul\":400:405   */\n      dup2\n        /* \"#utility.yul\":389:405   */\n      swap1\n      pop\n        /* \"#utility.yul\":334:411   */\n      swap2\n      swap1\n      pop\n      jump\t// out\n        /* \"#utility.yul\":417:539   */\n    tag_372:\n        /* \"#utility.yul\":490:514   */\n      tag_446\n        /* \"#utility.yul\":508:513   */\n      dup2\n        /* \"#utility.yul\":490:514   */\n      tag_371\n      jump\t// in\n    tag_446:\n        /* \"#utility.yul\":483:488   */\n      dup2\n        /* \"#utility.yul\":480:515   */\n      eq\n        /* \"#utility.yul\":470:533   */\n      tag_447\n      jumpi\n        /* \"#utility.yul\":529:530   */\n      0x00\n        /* \"#utility.yul\":526:527   */\n      dup1\n        /* \"#utility.yul\":519:531   */\n      revert\n        /* \"#utility.yul\":470:533   */\n    tag_447:\n        /* \"#utility.yul\":417:539   */\n      pop\n      jump\t// out\n        /* \"#utility.yul\":545:684   */\n    tag_373:\n        /* \"#utility.yul\":591:596   */\n      0x00\n        /* \"#utility.yul\":629:635   */\n      dup2\n        /* \"#utility.yul\":616:636   */\n      calldataload\n        /* \"#utility.yul\":607:636   */\n      swap1\n      pop\n        /* \"#utility.yul\":645:678   */\n      tag_449\n        /* \"#utility.yul\":672:677   */\n      dup2\n        /* \"#utility.yul\":645:678   */\n      tag_372\n      jump\t// in\n    tag_449:\n        /* \"#utility.yul\":545:684   */\n      swap3\n      swap2\n      pop\n      pop\n      jump\t// out\n        /* \"#utility.yul\":690:1019   */\n    tag_31:\n        /* \"#utility.yul\":749:755   */\n      0x00\n        /* \"#utility.yul\":798:800   */\n      0x20\n        /* \"#utility.yul\":786:795   */\n      dup3\n        /* \"#utility.yul\":777:784   */\n      dup5\n        /* \"#utility.yul\":773:796   */\n      sub\n        /* \"#utility.yul\":769:801   */\n      slt\n        /* \"#utility.yul\":766:885   */\n      iszero\n      tag_451\n      jumpi\n        /* \"#utility.yul\":804:883   */\n      tag_452\n      tag_369\n      jump\t// in\n    tag_452:\n        /* \"#utility.yul\":766:885   */\n    tag_451:\n        /* \"#utility.yul\":924:925   */\n      0x00\n        /* \"#utility.yul\":949:1002   */\n      tag_453\n        /* \"#utility.yul\":994:1001   */\n      dup5\n        /* \"#utility.yul\":985:991   */\n      dup3\n        /* \"#utility.yul\":974:983   */\n      dup6\n        /* \"#utility.yul\":970:992   */\n      add\n        /* \"#utility.yul\":949:1002   */\n      tag_373\n      jump\t// in\n    tag_453:\n        /* \"#utility.yul\":939:1002   */\n      swap2\n      pop\n        /* \"#utility.yul\":895:1012   */\n      pop\n        /* \"#utility.yul\":690:1019   */\n      swap3\n      swap2\n      pop\n      pop\n      jump\t// out\n        /* \"#utility.yul\":1025:1115   */\n    tag_374:\n        /* \"#utility.yul\":1059:1066   */\n      0x00\n        /* \"#utility.yul\":1102:1107   */\n      dup2\n        /* \"#utility.yul\":1095:1108   */\n      iszero\n        /* \"#utility.yul\":1088:1109   */\n      iszero\n        /* \"#utility.yul\":1077:1109   */\n      swap1\n      pop\n        /* \"#utility.yul\":1025:1115   */\n      swap2\n      swap1\n      pop\n      jump\t// out\n        /* \"#utility.yul\":1121:1230   */\n    tag_375:\n        /* \"#utility.yul\":1202:1223   */\n      tag_456\n        /* \"#utility.yul\":1217:1222   */\n      dup2\n        /* \"#utility.yul\":1202:1223   */\n      tag_374\n      jump\t// in\n    tag_456:\n        /* \"#utility.yul\":1197:1200   */\n      dup3\n        /* \"#utility.yul\":1190:1224   */\n      mstore\n        /* \"#utility.yul\":1121:1230   */\n      pop\n      pop\n      jump\t// out\n        /* \"#utility.yul\":1236:1446   */\n    tag_34:\n        /* \"#utility.yul\":1323:1327   */\n      0x00\n        /* \"#utility.yul\":1361:1363   */\n      0x20\n        /* \"#utility.yul\":1350:1359   */\n      dup3\n        /* \"#utility.yul\":1346:1364   */\n      add\n        /* \"#utility.yul\":1338:1364   */\n      swap1\n      pop\n        /* \"#utility.yul\":1374:1439   */\n      tag_458\n        /* \"#utility.yul\":1436:1437   */\n      0x00\n        /* \"#utility.yul\":1425:1434   */\n      dup4\n        /* \"#utility.yul\":1421:1438   */\n      add\n        /* \"#utility.yul\":1412:1418   */\n      dup5\n        /* \"#utility.yul\":1374:1439   */\n      tag_375\n      jump\t// in\n    tag_458:\n        /* \"#utility.yul\":1236:1446   */\n      swap3\n      swap2\n      pop\n      pop\n      jump\t// out\n        /* \"#utility.yul\":1452:1601   */\n    tag_376:\n        /* \"#utility.yul\":1488:1495   */\n      0x00\n        /* \"#utility.yul\":1528:1594   */\n      0xffffffff00000000000000000000000000000000000000000000000000000000\n        /* \"#utility.yul\":1521:1526   */\n      dup3\n        /* \"#utility.yul\":1517:1595   */\n      and\n        /* \"#utility.yul\":1506:1595   */\n      swap1\n      pop\n        /* \"#utility.yul\":1452:1601   */\n      swap2\n      swap1\n      pop\n      jump\t// out\n        /* \"#utility.yul\":1607:1727   */\n    tag_377:\n        /* \"#utility.yul\":1679:1702   */\n      tag_461\n        /* \"#utility.yul\":1696:1701   */\n      dup2\n        /* \"#utility.yul\":1679:1702   */\n      tag_376\n      jump\t// in\n    tag_461:\n        /* \"#utility.yul\":1672:1677   */\n      dup2\n        /* \"#utility.yul\":1669:1703   */\n      eq\n        /* \"#utility.yul\":1659:1721   */\n      tag_462\n      jumpi\n        /* \"#utility.yul\":1717:1718   */\n      0x00\n        /* \"#utility.yul\":1714:1715   */\n      dup1\n        /* \"#utility.yul\":1707:1719   */\n      revert\n        /* \"#utility.yul\":1659:1721   */\n    tag_462:\n        /* \"#utility.yul\":1607:1727   */\n      pop\n      jump\t// out\n        /* \"#utility.yul\":1733:1870   */\n    tag_378:\n        /* \"#utility.yul\":1778:1783   */\n      0x00\n        /* \"#utility.yul\":1816:1822   */\n      dup2\n        /* \"#utility.yul\":1803:1823   */\n      calldataload\n        /* \"#utility.yul\":1794:1823   */\n      swap1\n      pop\n        /* \"#utility.yul\":1832:1864   */\n      tag_464\n        /* \"#utility.yul\":1858:1863   */\n      dup2\n        /* \"#utility.yul\":1832:1864   */\n      tag_377\n      jump\t// in\n    tag_464:\n        /* \"#utility.yul\":1733:1870   */\n      swap3\n      swap2\n      pop\n      pop\n      jump\t// out\n        /* \"#utility.yul\":1876:2203   */\n    tag_37:\n        /* \"#utility.yul\":1934:1940   */\n      0x00\n        /* \"#utility.yul\":1983:1985   */\n      0x20\n        /* \"#utility.yul\":1971:1980   */\n      dup3\n        /* \"#utility.yul\":1962:1969   */\n      dup5\n        /* \"#utility.yul\":1958:1981   */\n      sub\n        /* \"#utility.yul\":1954:1986   */\n      slt\n        /* \"#utility.yul\":1951:2070   */\n      iszero\n      tag_466\n      jumpi\n        /* \"#utility.yul\":1989:2068   */\n      tag_467\n      tag_369\n      jump\t// in\n    tag_467:\n        /* \"#utility.yul\":1951:2070   */\n    tag_466:\n        /* \"#utility.yul\":2109:2110   */\n      0x00\n        /* \"#utility.yul\":2134:2186   */\n      tag_468\n        /* \"#utility.yul\":2178:2185   */\n      dup5\n        /* \"#utility.yul\":2169:2175   */\n      dup3\n        /* \"#utility.yul\":2158:2167   */\n      dup6\n        /* \"#utility.yul\":2154:2176   */\n      add\n        /* \"#utility.yul\":2134:2186   */\n      tag_378\n      jump\t// in\n    tag_468:\n        /* \"#utility.yul\":2124:2186   */\n      swap2\n      pop\n        /* \"#utility.yul\":2080:2196   */\n      pop\n        /* \"#utility.yul\":1876:2203   */\n      swap3\n      swap2\n      pop\n      pop\n      jump\t// out\n        /* \"#utility.yul\":2209:2308   */\n    tag_379:\n        /* \"#utility.yul\":2261:2267   */\n      0x00\n        /* \"#utility.yul\":2295:2300   */\n      dup2\n        /* \"#utility.yul\":2289:2301   */\n      mload\n        /* \"#utility.yul\":2279:2301   */\n      swap1\n      pop\n        /* \"#utility.yul\":2209:2308   */\n      swap2\n      swap1\n      pop\n      jump\t// out\n        /* \"#utility.yul\":2314:2483   */\n    tag_380:\n        /* \"#utility.yul\":2398:2409   */\n      0x00\n        /* \"#utility.yul\":2432:2438   */\n      dup3\n        /* \"#utility.yul\":2427:2430   */\n      dup3\n        /* \"#utility.yul\":2420:2439   */\n      mstore\n        /* \"#utility.yul\":2472:2476   */\n      0x20\n        /* \"#utility.yul\":2467:2470   */\n      dup3\n        /* \"#utility.yul\":2463:2477   */\n      add\n        /* \"#utility.yul\":2448:2477   */\n      swap1\n      pop\n        /* \"#utility.yul\":2314:2483   */\n      swap3\n      swap2\n      pop\n      pop\n      jump\t// out\n        /* \"#utility.yul\":2489:2735   */\n    tag_381:\n        /* \"#utility.yul\":2570:2571   */\n      0x00\n        /* \"#utility.yul\":2580:2693   */\n    tag_472:\n        /* \"#utility.yul\":2594:2600   */\n      dup4\n        /* \"#utility.yul\":2591:2592   */\n      dup2\n        /* \"#utility.yul\":2588:2601   */\n      lt\n        /* \"#utility.yul\":2580:2693   */\n      iszero\n      tag_474\n      jumpi\n        /* \"#utility.yul\":2679:2680   */\n      dup1\n        /* \"#utility.yul\":2674:2677   */\n      dup3\n        /* \"#utility.yul\":2670:2681   */\n      add\n        /* \"#utility.yul\":2664:2682   */\n      mload\n        /* \"#utility.yul\":2660:2661   */\n      dup2\n        /* \"#utility.yul\":2655:2658   */\n      dup5\n        /* \"#utility.yul\":2651:2662   */\n      add\n        /* \"#utility.yul\":2644:2683   */\n      mstore\n        /* \"#utility.yul\":2616:2618   */\n      0x20\n        /* \"#utility.yul\":2613:2614   */\n      dup2\n        /* \"#utility.yul\":2609:2619   */\n      add\n        /* \"#utility.yul\":2604:2619   */\n      swap1\n      pop\n        /* \"#utility.yul\":2580:2693   */\n      jump(tag_472)\n    tag_474:\n        /* \"#utility.yul\":2727:2728   */\n      0x00\n        /* \"#utility.yul\":2718:2724   */\n      dup5\n        /* \"#utility.yul\":2713:2716   */\n      dup5\n        /* \"#utility.yul\":2709:2725   */\n      add\n        /* \"#utility.yul\":2702:2729   */\n      mstore\n        /* \"#utility.yul\":2551:2735   */\n      pop\n        /* \"#utility.yul\":2489:2735   */\n      pop\n      pop\n      pop\n      jump\t// out\n        /* \"#utility.yul\":2741:2843   */\n    tag_382:\n        /* \"#utility.yul\":2782:2788   */\n      0x00\n        /* \"#utility.yul\":2833:2835   */\n      0x1f\n        /* \"#utility.yul\":2829:2836   */\n      not\n        /* \"#utility.yul\":2824:2826   */\n      0x1f\n        /* \"#utility.yul\":2817:2822   */\n      dup4\n        /* \"#utility.yul\":2813:2827   */\n      add\n        /* \"#utility.yul\":2809:2837   */\n      and\n        /* \"#utility.yul\":2799:2837   */\n      swap1\n      pop\n        /* \"#utility.yul\":2741:2843   */\n      swap2\n      swap1\n      pop\n      jump\t// out\n        /* \"#utility.yul\":2849:3226   */\n    tag_383:\n        /* \"#utility.yul\":2937:2940   */\n      0x00\n        /* \"#utility.yul\":2965:3004   */\n      tag_477\n        /* \"#utility.yul\":2998:3003   */\n      dup3\n        /* \"#utility.yul\":2965:3004   */\n      tag_379\n      jump\t// in\n    tag_477:\n        /* \"#utility.yul\":3020:3091   */\n      tag_478\n        /* \"#utility.yul\":3084:3090   */\n      dup2\n        /* \"#utility.yul\":3079:3082   */\n      dup6\n        /* \"#utility.yul\":3020:3091   */\n      tag_380\n      jump\t// in\n    tag_478:\n        /* \"#utility.yul\":3013:3091   */\n      swap4\n      pop\n        /* \"#utility.yul\":3100:3165   */\n      tag_479\n        /* \"#utility.yul\":3158:3164   */\n      dup2\n        /* \"#utility.yul\":3153:3156   */\n      dup6\n        /* \"#utility.yul\":3146:3150   */\n      0x20\n        /* \"#utility.yul\":3139:3144   */\n      dup7\n        /* \"#utility.yul\":3135:3151   */\n      add\n        /* \"#utility.yul\":3100:3165   */\n      tag_381\n      jump\t// in\n    tag_479:\n        /* \"#utility.yul\":3190:3219   */\n      tag_480\n        /* \"#utility.yul\":3212:3218   */\n      dup2\n        /* \"#utility.yul\":3190:3219   */\n      tag_382\n      jump\t// in\n    tag_480:\n        /* \"#utility.yul\":3185:3188   */\n      dup5\n        /* \"#utility.yul\":3181:3220   */\n      add\n        /* \"#utility.yul\":3174:3220   */\n      swap2\n      pop\n        /* \"#utility.yul\":2941:3226   */\n      pop\n        /* \"#utility.yul\":2849:3226   */\n      swap3\n      swap2\n      pop\n      pop\n      jump\t// out\n        /* \"#utility.yul\":3232:3545   */\n    tag_43:\n        /* \"#utility.yul\":3345:3349   */\n      0x00\n        /* \"#utility.yul\":3383:3385   */\n      0x20\n        /* \"#utility.yul\":3372:3381   */\n      dup3\n        /* \"#utility.yul\":3368:3386   */\n      add\n        /* \"#utility.yul\":3360:3386   */\n      swap1\n      pop\n        /* \"#utility.yul\":3432:3441   */\n      dup2\n        /* \"#utility.yul\":3426:3430   */\n      dup2\n        /* \"#utility.yul\":3422:3442   */\n      sub\n        /* \"#utility.yul\":3418:3419   */\n      0x00\n        /* \"#utility.yul\":3407:3416   */\n      dup4\n        /* \"#utility.yul\":3403:3420   */\n      add\n        /* \"#utility.yul\":3396:3443   */\n      mstore\n        /* \"#utility.yul\":3460:3538   */\n      tag_482\n        /* \"#utility.yul\":3533:3537   */\n      dup2\n        /* \"#utility.yul\":3524:3530   */\n      dup5\n        /* \"#utility.yul\":3460:3538   */\n      tag_383\n      jump\t// in\n    tag_482:\n        /* \"#utility.yul\":3452:3538   */\n      swap1\n      pop\n        /* \"#utility.yul\":3232:3545   */\n      swap3\n      swap2\n      pop\n      pop\n      jump\t// out\n        /* \"#utility.yul\":3551:3677   */\n    tag_384:\n        /* \"#utility.yul\":3588:3595   */\n      0x00\n        /* \"#utility.yul\":3628:3670   */\n      0xffffffffffffffffffffffffffffffffffffffff\n        /* \"#utility.yul\":3621:3626   */\n      dup3\n        /* \"#utility.yul\":3617:3671   */\n      and\n        /* \"#utility.yul\":3606:3671   */\n      swap1\n      pop\n        /* \"#utility.yul\":3551:3677   */\n      swap2\n      swap1\n      pop\n      jump\t// out\n        /* \"#utility.yul\":3683:3779   */\n    tag_385:\n        /* \"#utility.yul\":3720:3727   */\n      0x00\n        /* \"#utility.yul\":3749:3773   */\n      tag_485\n        /* \"#utility.yul\":3767:3772   */\n      dup3\n        /* \"#utility.yul\":3749:3773   */\n      tag_384\n      jump\t// in\n    tag_485:\n        /* \"#utility.yul\":3738:3773   */\n      swap1\n      pop\n        /* \"#utility.yul\":3683:3779   */\n      swap2\n      swap1\n      pop\n      jump\t// out\n        /* \"#utility.yul\":3785:3903   */\n    tag_386:\n        /* \"#utility.yul\":3872:3896   */\n      tag_487\n        /* \"#utility.yul\":3890:3895   */\n      dup2\n        /* \"#utility.yul\":3872:3896   */\n      tag_385\n      jump\t// in\n    tag_487:\n        /* \"#utility.yul\":3867:3870   */\n      dup3\n        /* \"#utility.yul\":3860:3897   */\n      mstore\n        /* \"#utility.yul\":3785:3903   */\n      pop\n      pop\n      jump\t// out\n        /* \"#utility.yul\":3909:4131   */\n    tag_48:\n        /* \"#utility.yul\":4002:4006   */\n      0x00\n        /* \"#utility.yul\":4040:4042   */\n      0x20\n        /* \"#utility.yul\":4029:4038   */\n      dup3\n        /* \"#utility.yul\":4025:4043   */\n      add\n        /* \"#utility.yul\":4017:4043   */\n      swap1\n      pop\n        /* \"#utility.yul\":4053:4124   */\n      tag_489\n        /* \"#utility.yul\":4121:4122   */\n      0x00\n        /* \"#utility.yul\":4110:4119   */\n      dup4\n        /* \"#utility.yul\":4106:4123   */\n      add\n        /* \"#utility.yul\":4097:4103   */\n      dup5\n        /* \"#utility.yul\":4053:4124   */\n      tag_386\n      jump\t// in\n    tag_489:\n        /* \"#utility.yul\":3909:4131   */\n      swap3\n      swap2\n      pop\n      pop\n      jump\t// out\n        /* \"#utility.yul\":4137:4259   */\n    tag_387:\n        /* \"#utility.yul\":4210:4234   */\n      tag_491\n        /* \"#utility.yul\":4228:4233   */\n      dup2\n        /* \"#utility.yul\":4210:4234   */\n      tag_385\n      jump\t// in\n    tag_491:\n        /* \"#utility.yul\":4203:4208   */\n      dup2\n        /* \"#utility.yul\":4200:4235   */\n      eq\n        /* \"#utility.yul\":4190:4253   */\n      tag_492\n      jumpi\n        /* \"#utility.yul\":4249:4250   */\n      0x00\n        /* \"#utility.yul\":4246:4247   */\n      dup1\n        /* \"#utility.yul\":4239:4251   */\n      revert\n        /* \"#utility.yul\":4190:4253   */\n    tag_492:\n        /* \"#utility.yul\":4137:4259   */\n      pop\n      jump\t// out\n        /* \"#utility.yul\":4265:4404   */\n    tag_388:\n        /* \"#utility.yul\":4311:4316   */\n      0x00\n        /* \"#utility.yul\":4349:4355   */\n      dup2\n        /* \"#utility.yul\":4336:4356   */\n      calldataload\n        /* \"#utility.yul\":4327:4356   */\n      swap1\n      pop\n        /* \"#utility.yul\":4365:4398   */\n      tag_494\n        /* \"#utility.yul\":4392:4397   */\n      dup2\n        /* \"#utility.yul\":4365:4398   */\n      tag_387\n      jump\t// in\n    tag_494:\n        /* \"#utility.yul\":4265:4404   */\n      swap3\n      swap2\n      pop\n      pop\n      jump\t// out\n        /* \"#utility.yul\":4410:4884   */\n    tag_51:\n        /* \"#utility.yul\":4478:4484   */\n      0x00\n        /* \"#utility.yul\":4486:4492   */\n      dup1\n        /* \"#utility.yul\":4535:4537   */\n      0x40\n        /* \"#utility.yul\":4523:4532   */\n      dup4\n        /* \"#utility.yul\":4514:4521   */\n      dup6\n        /* \"#utility.yul\":4510:4533   */\n      sub\n        /* \"#utility.yul\":4506:4538   */\n      slt\n        /* \"#utility.yul\":4503:4622   */\n      iszero\n      tag_496\n      jumpi\n        /* \"#utility.yul\":4541:4620   */\n      tag_497\n      tag_369\n      jump\t// in\n    tag_497:\n        /* \"#utility.yul\":4503:4622   */\n    tag_496:\n        /* \"#utility.yul\":4661:4662   */\n      0x00\n        /* \"#utility.yul\":4686:4739   */\n      tag_498\n        /* \"#utility.yul\":4731:4738   */\n      dup6\n        /* \"#utility.yul\":4722:4728   */\n      dup3\n        /* \"#utility.yul\":4711:4720   */\n      dup7\n        /* \"#utility.yul\":4707:4729   */\n      add\n        /* \"#utility.yul\":4686:4739   */\n      tag_388\n      jump\t// in\n    tag_498:\n        /* \"#utility.yul\":4676:4739   */\n      swap3\n      pop\n        /* \"#utility.yul\":4632:4749   */\n      pop\n        /* \"#utility.yul\":4788:4790   */\n      0x20\n        /* \"#utility.yul\":4814:4867   */\n      tag_499\n        /* \"#utility.yul\":4859:4866   */\n      dup6\n        /* \"#utility.yul\":4850:4856   */\n      dup3\n        /* \"#utility.yul\":4839:4848   */\n      dup7\n        /* \"#utility.yul\":4835:4857   */\n      add\n        /* \"#utility.yul\":4814:4867   */\n      tag_373\n      jump\t// in\n    tag_499:\n        /* \"#utility.yul\":4804:4867   */\n      swap2\n      pop\n        /* \"#utility.yul\":4759:4877   */\n      pop\n        /* \"#utility.yul\":4410:4884   */\n      swap3\n      pop\n      swap3\n      swap1\n      pop\n      jump\t// out\n        /* \"#utility.yul\":4890:5008   */\n    tag_389:\n        /* \"#utility.yul\":4977:5001   */\n      tag_501\n        /* \"#utility.yul\":4995:5000   */\n      dup2\n        /* \"#utility.yul\":4977:5001   */\n      tag_371\n      jump\t// in\n    tag_501:\n        /* \"#utility.yul\":4972:4975   */\n      dup3\n        /* \"#utility.yul\":4965:5002   */\n      mstore\n        /* \"#utility.yul\":4890:5008   */\n      pop\n      pop\n      jump\t// out\n        /* \"#utility.yul\":5014:5236   */\n    tag_56:\n        /* \"#utility.yul\":5107:5111   */\n      0x00\n        /* \"#utility.yul\":5145:5147   */\n      0x20\n        /* \"#utility.yul\":5134:5143   */\n      dup3\n        /* \"#utility.yul\":5130:5148   */\n      add\n        /* \"#utility.yul\":5122:5148   */\n      swap1\n      pop\n        /* \"#utility.yul\":5158:5229   */\n      tag_503\n        /* \"#utility.yul\":5226:5227   */\n      0x00\n        /* \"#utility.yul\":5215:5224   */\n      dup4\n        /* \"#utility.yul\":5211:5228   */\n      add\n        /* \"#utility.yul\":5202:5208   */\n      dup5\n        /* \"#utility.yul\":5158:5229   */\n      tag_389\n      jump\t// in\n    tag_503:\n        /* \"#utility.yul\":5014:5236   */\n      swap3\n      swap2\n      pop\n      pop\n      jump\t// out\n        /* \"#utility.yul\":5242:5861   */\n    tag_59:\n        /* \"#utility.yul\":5319:5325   */\n      0x00\n        /* \"#utility.yul\":5327:5333   */\n      dup1\n        /* \"#utility.yul\":5335:5341   */\n      0x00\n        /* \"#utility.yul\":5384:5386   */\n      0x60\n        /* \"#utility.yul\":5372:5381   */\n      dup5\n        /* \"#utility.yul\":5363:5370   */\n      dup7\n        /* \"#utility.yul\":5359:5382   */\n      sub\n        /* \"#utility.yul\":5355:5387   */\n      slt\n        /* \"#utility.yul\":5352:5471   */\n      iszero\n      tag_505\n      jumpi\n        /* \"#utility.yul\":5390:5469   */\n      tag_506\n      tag_369\n      jump\t// in\n    tag_506:\n        /* \"#utility.yul\":5352:5471   */\n    tag_505:\n        /* \"#utility.yul\":5510:5511   */\n      0x00\n        /* \"#utility.yul\":5535:5588   */\n      tag_507\n        /* \"#utility.yul\":5580:5587   */\n      dup7\n        /* \"#utility.yul\":5571:5577   */\n      dup3\n        /* \"#utility.yul\":5560:5569   */\n      dup8\n        /* \"#utility.yul\":5556:5578   */\n      add\n        /* \"#utility.yul\":5535:5588   */\n      tag_388\n      jump\t// in\n    tag_507:\n        /* \"#utility.yul\":5525:5588   */\n      swap4\n      pop\n        /* \"#utility.yul\":5481:5598   */\n      pop\n        /* \"#utility.yul\":5637:5639   */\n      0x20\n        /* \"#utility.yul\":5663:5716   */\n      tag_508\n        /* \"#utility.yul\":5708:5715   */\n      dup7\n        /* \"#utility.yul\":5699:5705   */\n      dup3\n        /* \"#utility.yul\":5688:5697   */\n      dup8\n        /* \"#utility.yul\":5684:5706   */\n      add\n        /* \"#utility.yul\":5663:5716   */\n      tag_388\n      jump\t// in\n    tag_508:\n        /* \"#utility.yul\":5653:5716   */\n      swap3\n      pop\n        /* \"#utility.yul\":5608:5726   */\n      pop\n        /* \"#utility.yul\":5765:5767   */\n      0x40\n        /* \"#utility.yul\":5791:5844   */\n      tag_509\n        /* \"#utility.yul\":5836:5843   */\n      dup7\n        /* \"#utility.yul\":5827:5833   */\n      dup3\n        /* \"#utility.yul\":5816:5825   */\n      dup8\n        /* \"#utility.yul\":5812:5834   */\n      add\n        /* \"#utility.yul\":5791:5844   */\n      tag_373\n      jump\t// in\n    tag_509:\n        /* \"#utility.yul\":5781:5844   */\n      swap2\n      pop\n        /* \"#utility.yul\":5736:5854   */\n      pop\n        /* \"#utility.yul\":5242:5861   */\n      swap3\n      pop\n      swap3\n      pop\n      swap3\n      jump\t// out\n        /* \"#utility.yul\":5867:6196   */\n    tag_77:\n        /* \"#utility.yul\":5926:5932   */\n      0x00\n        /* \"#utility.yul\":5975:5977   */\n      0x20\n        /* \"#utility.yul\":5963:5972   */\n      dup3\n        /* \"#utility.yul\":5954:5961   */\n      dup5\n        /* \"#utility.yul\":5950:5973   */\n      sub\n        /* \"#utility.yul\":5946:5978   */\n      slt\n        /* \"#utility.yul\":5943:6062   */\n      iszero\n      tag_511\n      jumpi\n        /* \"#utility.yul\":5981:6060   */\n      tag_512\n      tag_369\n      jump\t// in\n    tag_512:\n        /* \"#utility.yul\":5943:6062   */\n    tag_511:\n        /* \"#utility.yul\":6101:6102   */\n      0x00\n        /* \"#utility.yul\":6126:6179   */\n      tag_513\n        /* \"#utility.yul\":6171:6178   */\n      dup5\n        /* \"#utility.yul\":6162:6168   */\n      dup3\n        /* \"#utility.yul\":6151:6160   */\n      dup6\n        /* \"#utility.yul\":6147:6169   */\n      add\n        /* \"#utility.yul\":6126:6179   */\n      tag_388\n      jump\t// in\n    tag_513:\n        /* \"#utility.yul\":6116:6179   */\n      swap2\n      pop\n        /* \"#utility.yul\":6072:6189   */\n      pop\n        /* \"#utility.yul\":5867:6196   */\n      swap3\n      swap2\n      pop\n      pop\n      jump\t// out\n        /* \"#utility.yul\":6202:6279   */\n    tag_390:\n        /* \"#utility.yul\":6239:6246   */\n      0x00\n        /* \"#utility.yul\":6268:6273   */\n      dup2\n        /* \"#utility.yul\":6257:6273   */\n      swap1\n      pop\n        /* \"#utility.yul\":6202:6279   */\n      swap2\n      swap1\n      pop\n      jump\t// out\n        /* \"#utility.yul\":6285:6403   */\n    tag_391:\n        /* \"#utility.yul\":6372:6396   */\n      tag_516\n        /* \"#utility.yul\":6390:6395   */\n      dup2\n        /* \"#utility.yul\":6372:6396   */\n      tag_390\n      jump\t// in\n    tag_516:\n        /* \"#utility.yul\":6367:6370   */\n      dup3\n        /* \"#utility.yul\":6360:6397   */\n      mstore\n        /* \"#utility.yul\":6285:6403   */\n      pop\n      pop\n      jump\t// out\n        /* \"#utility.yul\":6409:6631   */\n    tag_90:\n        /* \"#utility.yul\":6502:6506   */\n      0x00\n        /* \"#utility.yul\":6540:6542   */\n      0x20\n        /* \"#utility.yul\":6529:6538   */\n      dup3\n        /* \"#utility.yul\":6525:6543   */\n      add\n        /* \"#utility.yul\":6517:6543   */\n      swap1\n      pop\n        /* \"#utility.yul\":6553:6624   */\n      tag_518\n        /* \"#utility.yul\":6621:6622   */\n      0x00\n        /* \"#utility.yul\":6610:6619   */\n      dup4\n        /* \"#utility.yul\":6606:6623   */\n      add\n        /* \"#utility.yul\":6597:6603   */\n      dup5\n        /* \"#utility.yul\":6553:6624   */\n      tag_391\n      jump\t// in\n    tag_518:\n        /* \"#utility.yul\":6409:6631   */\n      swap3\n      swap2\n      pop\n      pop\n      jump\t// out\n        /* \"#utility.yul\":6637:6753   */\n    tag_392:\n        /* \"#utility.yul\":6707:6728   */\n      tag_520\n        /* \"#utility.yul\":6722:6727   */\n      dup2\n        /* \"#utility.yul\":6707:6728   */\n      tag_374\n      jump\t// in\n    tag_520:\n        /* \"#utility.yul\":6700:6705   */\n      dup2\n        /* \"#utility.yul\":6697:6729   */\n      eq\n        /* \"#utility.yul\":6687:6747   */\n      tag_521\n      jumpi\n        /* \"#utility.yul\":6743:6744   */\n      0x00\n        /* \"#utility.yul\":6740:6741   */\n      dup1\n        /* \"#utility.yul\":6733:6745   */\n      revert\n        /* \"#utility.yul\":6687:6747   */\n    tag_521:\n        /* \"#utility.yul\":6637:6753   */\n      pop\n      jump\t// out\n        /* \"#utility.yul\":6759:6892   */\n    tag_393:\n        /* \"#utility.yul\":6802:6807   */\n      0x00\n        /* \"#utility.yul\":6840:6846   */\n      dup2\n        /* \"#utility.yul\":6827:6847   */\n      calldataload\n        /* \"#utility.yul\":6818:6847   */\n      swap1\n      pop\n        /* \"#utility.yul\":6856:6886   */\n      tag_523\n        /* \"#utility.yul\":6880:6885   */\n      dup2\n        /* \"#utility.yul\":6856:6886   */\n      tag_392\n      jump\t// in\n    tag_523:\n        /* \"#utility.yul\":6759:6892   */\n      swap3\n      swap2\n      pop\n      pop\n      jump\t// out\n        /* \"#utility.yul\":6898:7366   */\n    tag_93:\n        /* \"#utility.yul\":6963:6969   */\n      0x00\n        /* \"#utility.yul\":6971:6977   */\n      dup1\n        /* \"#utility.yul\":7020:7022   */\n      0x40\n        /* \"#utility.yul\":7008:7017   */\n      dup4\n        /* \"#utility.yul\":6999:7006   */\n      dup6\n        /* \"#utility.yul\":6995:7018   */\n      sub\n        /* \"#utility.yul\":6991:7023   */\n      slt\n        /* \"#utility.yul\":6988:7107   */\n      iszero\n      tag_525\n      jumpi\n        /* \"#utility.yul\":7026:7105   */\n      tag_526\n      tag_369\n      jump\t// in\n    tag_526:\n        /* \"#utility.yul\":6988:7107   */\n    tag_525:\n        /* \"#utility.yul\":7146:7147   */\n      0x00\n        /* \"#utility.yul\":7171:7224   */\n      tag_527\n        /* \"#utility.yul\":7216:7223   */\n      dup6\n        /* \"#utility.yul\":7207:7213   */\n      dup3\n        /* \"#utility.yul\":7196:7205   */\n      dup7\n        /* \"#utility.yul\":7192:7214   */\n      add\n        /* \"#utility.yul\":7171:7224   */\n      tag_388\n      jump\t// in\n    tag_527:\n        /* \"#utility.yul\":7161:7224   */\n      swap3\n      pop\n        /* \"#utility.yul\":7117:7234   */\n      pop\n        /* \"#utility.yul\":7273:7275   */\n      0x20\n        /* \"#utility.yul\":7299:7349   */\n      tag_528\n        /* \"#utility.yul\":7341:7348   */\n      dup6\n        /* \"#utility.yul\":7332:7338   */\n      dup3\n        /* \"#utility.yul\":7321:7330   */\n      dup7\n        /* \"#utility.yul\":7317:7339   */\n      add\n        /* \"#utility.yul\":7299:7349   */\n      tag_393\n      jump\t// in\n    tag_528:\n        /* \"#utility.yul\":7289:7349   */\n      swap2\n      pop\n        /* \"#utility.yul\":7244:7359   */\n      pop\n        /* \"#utility.yul\":6898:7366   */\n      swap3\n      pop\n      swap3\n      swap1\n      pop\n      jump\t// out\n        /* \"#utility.yul\":7372:7489   */\n    tag_394:\n        /* \"#utility.yul\":7481:7482   */\n      0x00\n        /* \"#utility.yul\":7478:7479   */\n      dup1\n        /* \"#utility.yul\":7471:7483   */\n      revert\n        /* \"#utility.yul\":7495:7612   */\n    tag_395:\n        /* \"#utility.yul\":7604:7605   */\n      0x00\n        /* \"#utility.yul\":7601:7602   */\n      dup1\n        /* \"#utility.yul\":7594:7606   */\n      revert\n        /* \"#utility.yul\":7618:7798   */\n    tag_334:\n        /* \"#utility.yul\":7666:7743   */\n      0x4e487b7100000000000000000000000000000000000000000000000000000000\n        /* \"#utility.yul\":7663:7664   */\n      0x00\n        /* \"#utility.yul\":7656:7744   */\n      mstore\n        /* \"#utility.yul\":7763:7767   */\n      0x41\n        /* \"#utility.yul\":7760:7761   */\n      0x04\n        /* \"#utility.yul\":7753:7768   */\n      mstore\n        /* \"#utility.yul\":7787:7791   */\n      0x24\n        /* \"#utility.yul\":7784:7785   */\n      0x00\n        /* \"#utility.yul\":7777:7792   */\n      revert\n        /* \"#utility.yul\":7804:8085   */\n    tag_396:\n        /* \"#utility.yul\":7887:7914   */\n      tag_533\n        /* \"#utility.yul\":7909:7913   */\n      dup3\n        /* \"#utility.yul\":7887:7914   */\n      tag_382\n      jump\t// in\n    tag_533:\n        /* \"#utility.yul\":7879:7885   */\n      dup2\n        /* \"#utility.yul\":7875:7915   */\n      add\n        /* \"#utility.yul\":8017:8023   */\n      dup2\n        /* \"#utility.yul\":8005:8015   */\n      dup2\n        /* \"#utility.yul\":8002:8024   */\n      lt\n        /* \"#utility.yul\":7981:7999   */\n      0xffffffffffffffff\n        /* \"#utility.yul\":7969:7979   */\n      dup3\n        /* \"#utility.yul\":7966:8000   */\n      gt\n        /* \"#utility.yul\":7963:8025   */\n      or\n        /* \"#utility.yul\":7960:8048   */\n      iszero\n      tag_534\n      jumpi\n        /* \"#utility.yul\":8028:8046   */\n      tag_535\n      tag_334\n      jump\t// in\n    tag_535:\n        /* \"#utility.yul\":7960:8048   */\n    tag_534:\n        /* \"#utility.yul\":8068:8078   */\n      dup1\n        /* \"#utility.yul\":8064:8066   */\n      0x40\n        /* \"#utility.yul\":8057:8079   */\n      mstore\n        /* \"#utility.yul\":7847:8085   */\n      pop\n        /* \"#utility.yul\":7804:8085   */\n      pop\n      pop\n      jump\t// out\n        /* \"#utility.yul\":8091:8220   */\n    tag_397:\n        /* \"#utility.yul\":8125:8131   */\n      0x00\n        /* \"#utility.yul\":8152:8172   */\n      tag_537\n      tag_368\n      jump\t// in\n    tag_537:\n        /* \"#utility.yul\":8142:8172   */\n      swap1\n      pop\n        /* \"#utility.yul\":8181:8214   */\n      tag_538\n        /* \"#utility.yul\":8209:8213   */\n      dup3\n        /* \"#utility.yul\":8201:8207   */\n      dup3\n        /* \"#utility.yul\":8181:8214   */\n      tag_396\n      jump\t// in\n    tag_538:\n        /* \"#utility.yul\":8091:8220   */\n      swap2\n      swap1\n      pop\n      jump\t// out\n        /* \"#utility.yul\":8226:8533   */\n    tag_398:\n        /* \"#utility.yul\":8287:8291   */\n      0x00\n        /* \"#utility.yul\":8377:8395   */\n      0xffffffffffffffff\n        /* \"#utility.yul\":8369:8375   */\n      dup3\n        /* \"#utility.yul\":8366:8396   */\n      gt\n        /* \"#utility.yul\":8363:8419   */\n      iszero\n      tag_540\n      jumpi\n        /* \"#utility.yul\":8399:8417   */\n      tag_541\n      tag_334\n      jump\t// in\n    tag_541:\n        /* \"#utility.yul\":8363:8419   */\n    tag_540:\n        /* \"#utility.yul\":8437:8466   */\n      tag_542\n        /* \"#utility.yul\":8459:8465   */\n      dup3\n        /* \"#utility.yul\":8437:8466   */\n      tag_382\n      jump\t// in\n    tag_542:\n        /* \"#utility.yul\":8429:8466   */\n      swap1\n      pop\n        /* \"#utility.yul\":8521:8525   */\n      0x20\n        /* \"#utility.yul\":8515:8519   */\n      dup2\n        /* \"#utility.yul\":8511:8526   */\n      add\n        /* \"#utility.yul\":8503:8526   */\n      swap1\n      pop\n        /* \"#utility.yul\":8226:8533   */\n      swap2\n      swap1\n      pop\n      jump\t// out\n        /* \"#utility.yul\":8539:8685   */\n    tag_399:\n        /* \"#utility.yul\":8636:8642   */\n      dup3\n        /* \"#utility.yul\":8631:8634   */\n      dup2\n        /* \"#utility.yul\":8626:8629   */\n      dup4\n        /* \"#utility.yul\":8613:8643   */\n      calldatacopy\n        /* \"#utility.yul\":8677:8678   */\n      0x00\n        /* \"#utility.yul\":8668:8674   */\n      dup4\n        /* \"#utility.yul\":8663:8666   */\n      dup4\n        /* \"#utility.yul\":8659:8675   */\n      add\n        /* \"#utility.yul\":8652:8679   */\n      mstore\n        /* \"#utility.yul\":8539:8685   */\n      pop\n      pop\n      pop\n      jump\t// out\n        /* \"#utility.yul\":8691:9114   */\n    tag_400:\n        /* \"#utility.yul\":8768:8773   */\n      0x00\n        /* \"#utility.yul\":8793:8858   */\n      tag_545\n        /* \"#utility.yul\":8809:8857   */\n      tag_546\n        /* \"#utility.yul\":8850:8856   */\n      dup5\n        /* \"#utility.yul\":8809:8857   */\n      tag_398\n      jump\t// in\n    tag_546:\n        /* \"#utility.yul\":8793:8858   */\n      tag_397\n      jump\t// in\n    tag_545:\n        /* \"#utility.yul\":8784:8858   */\n      swap1\n      pop\n        /* \"#utility.yul\":8881:8887   */\n      dup3\n        /* \"#utility.yul\":8874:8879   */\n      dup2\n        /* \"#utility.yul\":8867:8888   */\n      mstore\n        /* \"#utility.yul\":8919:8923   */\n      0x20\n        /* \"#utility.yul\":8912:8917   */\n      dup2\n        /* \"#utility.yul\":8908:8924   */\n      add\n        /* \"#utility.yul\":8957:8960   */\n      dup5\n        /* \"#utility.yul\":8948:8954   */\n      dup5\n        /* \"#utility.yul\":8943:8946   */\n      dup5\n        /* \"#utility.yul\":8939:8955   */\n      add\n        /* \"#utility.yul\":8936:8961   */\n      gt\n        /* \"#utility.yul\":8933:9045   */\n      iszero\n      tag_547\n      jumpi\n        /* \"#utility.yul\":8964:9043   */\n      tag_548\n      tag_395\n      jump\t// in\n    tag_548:\n        /* \"#utility.yul\":8933:9045   */\n    tag_547:\n        /* \"#utility.yul\":9054:9108   */\n      tag_549\n        /* \"#utility.yul\":9101:9107   */\n      dup5\n        /* \"#utility.yul\":9096:9099   */\n      dup3\n        /* \"#utility.yul\":9091:9094   */\n      dup6\n        /* \"#utility.yul\":9054:9108   */\n      tag_399\n      jump\t// in\n    tag_549:\n        /* \"#utility.yul\":8774:9114   */\n      pop\n        /* \"#utility.yul\":8691:9114   */\n      swap4\n      swap3\n      pop\n      pop\n      pop\n      jump\t// out\n        /* \"#utility.yul\":9133:9471   */\n    tag_401:\n        /* \"#utility.yul\":9188:9193   */\n      0x00\n        /* \"#utility.yul\":9237:9240   */\n      dup3\n        /* \"#utility.yul\":9230:9234   */\n      0x1f\n        /* \"#utility.yul\":9222:9228   */\n      dup4\n        /* \"#utility.yul\":9218:9235   */\n      add\n        /* \"#utility.yul\":9214:9241   */\n      slt\n        /* \"#utility.yul\":9204:9326   */\n      tag_551\n      jumpi\n        /* \"#utility.yul\":9245:9324   */\n      tag_552\n      tag_394\n      jump\t// in\n    tag_552:\n        /* \"#utility.yul\":9204:9326   */\n    tag_551:\n        /* \"#utility.yul\":9362:9368   */\n      dup2\n        /* \"#utility.yul\":9349:9369   */\n      calldataload\n        /* \"#utility.yul\":9387:9465   */\n      tag_553\n        /* \"#utility.yul\":9461:9464   */\n      dup5\n        /* \"#utility.yul\":9453:9459   */\n      dup3\n        /* \"#utility.yul\":9446:9450   */\n      0x20\n        /* \"#utility.yul\":9438:9444   */\n      dup7\n        /* \"#utility.yul\":9434:9451   */\n      add\n        /* \"#utility.yul\":9387:9465   */\n      tag_400\n      jump\t// in\n    tag_553:\n        /* \"#utility.yul\":9378:9465   */\n      swap2\n      pop\n        /* \"#utility.yul\":9194:9471   */\n      pop\n        /* \"#utility.yul\":9133:9471   */\n      swap3\n      swap2\n      pop\n      pop\n      jump\t// out\n        /* \"#utility.yul\":9477:10420   */\n    tag_97:\n        /* \"#utility.yul\":9572:9578   */\n      0x00\n        /* \"#utility.yul\":9580:9586   */\n      dup1\n        /* \"#utility.yul\":9588:9594   */\n      0x00\n        /* \"#utility.yul\":9596:9602   */\n      dup1\n        /* \"#utility.yul\":9645:9648   */\n      0x80\n        /* \"#utility.yul\":9633:9642   */\n      dup6\n        /* \"#utility.yul\":9624:9631   */\n      dup8\n        /* \"#utility.yul\":9620:9643   */\n      sub\n        /* \"#utility.yul\":9616:9649   */\n      slt\n        /* \"#utility.yul\":9613:9733   */\n      iszero\n      tag_555\n      jumpi\n        /* \"#utility.yul\":9652:9731   */\n      tag_556\n      tag_369\n      jump\t// in\n    tag_556:\n        /* \"#utility.yul\":9613:9733   */\n    tag_555:\n        /* \"#utility.yul\":9772:9773   */\n      0x00\n        /* \"#utility.yul\":9797:9850   */\n      tag_557\n        /* \"#utility.yul\":9842:9849   */\n      dup8\n        /* \"#utility.yul\":9833:9839   */\n      dup3\n        /* \"#utility.yul\":9822:9831   */\n      dup9\n        /* \"#utility.yul\":9818:9840   */\n      add\n        /* \"#utility.yul\":9797:9850   */\n      tag_388\n      jump\t// in\n    tag_557:\n        /* \"#utility.yul\":9787:9850   */\n      swap5\n      pop\n        /* \"#utility.yul\":9743:9860   */\n      pop\n        /* \"#utility.yul\":9899:9901   */\n      0x20\n        /* \"#utility.yul\":9925:9978   */\n      tag_558\n        /* \"#utility.yul\":9970:9977   */\n      dup8\n        /* \"#utility.yul\":9961:9967   */\n      dup3\n        /* \"#utility.yul\":9950:9959   */\n      dup9\n        /* \"#utility.yul\":9946:9968   */\n      add\n        /* \"#utility.yul\":9925:9978   */\n      tag_388\n      jump\t// in\n    tag_558:\n        /* \"#utility.yul\":9915:9978   */\n      swap4\n      pop\n        /* \"#utility.yul\":9870:9988   */\n      pop\n        /* \"#utility.yul\":10027:10029   */\n      0x40\n        /* \"#utility.yul\":10053:10106   */\n      tag_559\n        /* \"#utility.yul\":10098:10105   */\n      dup8\n        /* \"#utility.yul\":10089:10095   */\n      dup3\n        /* \"#utility.yul\":10078:10087   */\n      dup9\n        /* \"#utility.yul\":10074:10096   */\n      add\n        /* \"#utility.yul\":10053:10106   */\n      tag_373\n      jump\t// in\n    tag_559:\n        /* \"#utility.yul\":10043:10106   */\n      swap3\n      pop\n        /* \"#utility.yul\":9998:10116   */\n      pop\n        /* \"#utility.yul\":10183:10185   */\n      0x60\n        /* \"#utility.yul\":10172:10181   */\n      dup6\n        /* \"#utility.yul\":10168:10186   */\n      add\n        /* \"#utility.yul\":10155:10187   */\n      calldataload\n        /* \"#utility.yul\":10214:10232   */\n      0xffffffffffffffff\n        /* \"#utility.yul\":10206:10212   */\n      dup2\n        /* \"#utility.yul\":10203:10233   */\n      gt\n        /* \"#utility.yul\":10200:10317   */\n      iszero\n      tag_560\n      jumpi\n        /* \"#utility.yul\":10236:10315   */\n      tag_561\n      tag_370\n      jump\t// in\n    tag_561:\n        /* \"#utility.yul\":10200:10317   */\n    tag_560:\n        /* \"#utility.yul\":10341:10403   */\n      tag_562\n        /* \"#utility.yul\":10395:10402   */\n      dup8\n        /* \"#utility.yul\":10386:10392   */\n      dup3\n        /* \"#utility.yul\":10375:10384   */\n      dup9\n        /* \"#utility.yul\":10371:10393   */\n      add\n        /* \"#utility.yul\":10341:10403   */\n      tag_401\n      jump\t// in\n    tag_562:\n        /* \"#utility.yul\":10331:10403   */\n      swap2\n      pop\n        /* \"#utility.yul\":10126:10413   */\n      pop\n        /* \"#utility.yul\":9477:10420   */\n      swap3\n      swap6\n      swap2\n      swap5\n      pop\n      swap3\n      pop\n      jump\t// out\n        /* \"#utility.yul\":10426:10543   */\n    tag_402:\n        /* \"#utility.yul\":10535:10536   */\n      0x00\n        /* \"#utility.yul\":10532:10533   */\n      dup1\n        /* \"#utility.yul\":10525:10537   */\n      revert\n        /* \"#utility.yul\":10549:10666   */\n    tag_403:\n        /* \"#utility.yul\":10658:10659   */\n      0x00\n        /* \"#utility.yul\":10655:10656   */\n      dup1\n        /* \"#utility.yul\":10648:10660   */\n      revert\n        /* \"#utility.yul\":10686:11239   */\n    tag_404:\n        /* \"#utility.yul\":10744:10752   */\n      0x00\n        /* \"#utility.yul\":10754:10760   */\n      dup1\n        /* \"#utility.yul\":10804:10807   */\n      dup4\n        /* \"#utility.yul\":10797:10801   */\n      0x1f\n        /* \"#utility.yul\":10789:10795   */\n      dup5\n        /* \"#utility.yul\":10785:10802   */\n      add\n        /* \"#utility.yul\":10781:10808   */\n      slt\n        /* \"#utility.yul\":10771:10893   */\n      tag_566\n      jumpi\n        /* \"#utility.yul\":10812:10891   */\n      tag_567\n      tag_394\n      jump\t// in\n    tag_567:\n        /* \"#utility.yul\":10771:10893   */\n    tag_566:\n        /* \"#utility.yul\":10925:10931   */\n      dup3\n        /* \"#utility.yul\":10912:10932   */\n      calldataload\n        /* \"#utility.yul\":10902:10932   */\n      swap1\n      pop\n        /* \"#utility.yul\":10955:10973   */\n      0xffffffffffffffff\n        /* \"#utility.yul\":10947:10953   */\n      dup2\n        /* \"#utility.yul\":10944:10974   */\n      gt\n        /* \"#utility.yul\":10941:11058   */\n      iszero\n      tag_568\n      jumpi\n        /* \"#utility.yul\":10977:11056   */\n      tag_569\n      tag_402\n      jump\t// in\n    tag_569:\n        /* \"#utility.yul\":10941:11058   */\n    tag_568:\n        /* \"#utility.yul\":11091:11095   */\n      0x20\n        /* \"#utility.yul\":11083:11089   */\n      dup4\n        /* \"#utility.yul\":11079:11096   */\n      add\n        /* \"#utility.yul\":11067:11096   */\n      swap2\n      pop\n        /* \"#utility.yul\":11145:11148   */\n      dup4\n        /* \"#utility.yul\":11137:11141   */\n      0x01\n        /* \"#utility.yul\":11129:11135   */\n      dup3\n        /* \"#utility.yul\":11125:11142   */\n      mul\n        /* \"#utility.yul\":11115:11123   */\n      dup4\n        /* \"#utility.yul\":11111:11143   */\n      add\n        /* \"#utility.yul\":11108:11149   */\n      gt\n        /* \"#utility.yul\":11105:11233   */\n      iszero\n      tag_570\n      jumpi\n        /* \"#utility.yul\":11152:11231   */\n      tag_571\n      tag_403\n      jump\t// in\n    tag_571:\n        /* \"#utility.yul\":11105:11233   */\n    tag_570:\n        /* \"#utility.yul\":10686:11239   */\n      swap3\n      pop\n      swap3\n      swap1\n      pop\n      jump\t// out\n        /* \"#utility.yul\":11245:11919   */\n    tag_105:\n        /* \"#utility.yul\":11325:11331   */\n      0x00\n        /* \"#utility.yul\":11333:11339   */\n      dup1\n        /* \"#utility.yul\":11341:11347   */\n      0x00\n        /* \"#utility.yul\":11390:11392   */\n      0x40\n        /* \"#utility.yul\":11378:11387   */\n      dup5\n        /* \"#utility.yul\":11369:11376   */\n      dup7\n        /* \"#utility.yul\":11365:11388   */\n      sub\n        /* \"#utility.yul\":11361:11393   */\n      slt\n        /* \"#utility.yul\":11358:11477   */\n      iszero\n      tag_573\n      jumpi\n        /* \"#utility.yul\":11396:11475   */\n      tag_574\n      tag_369\n      jump\t// in\n    tag_574:\n        /* \"#utility.yul\":11358:11477   */\n    tag_573:\n        /* \"#utility.yul\":11516:11517   */\n      0x00\n        /* \"#utility.yul\":11541:11594   */\n      tag_575\n        /* \"#utility.yul\":11586:11593   */\n      dup7\n        /* \"#utility.yul\":11577:11583   */\n      dup3\n        /* \"#utility.yul\":11566:11575   */\n      dup8\n        /* \"#utility.yul\":11562:11584   */\n      add\n        /* \"#utility.yul\":11541:11594   */\n      tag_388\n      jump\t// in\n    tag_575:\n        /* \"#utility.yul\":11531:11594   */\n      swap4\n      pop\n        /* \"#utility.yul\":11487:11604   */\n      pop\n        /* \"#utility.yul\":11671:11673   */\n      0x20\n        /* \"#utility.yul\":11660:11669   */\n      dup5\n        /* \"#utility.yul\":11656:11674   */\n      add\n        /* \"#utility.yul\":11643:11675   */\n      calldataload\n        /* \"#utility.yul\":11702:11720   */\n      0xffffffffffffffff\n        /* \"#utility.yul\":11694:11700   */\n      dup2\n        /* \"#utility.yul\":11691:11721   */\n      gt\n        /* \"#utility.yul\":11688:11805   */\n      iszero\n      tag_576\n      jumpi\n        /* \"#utility.yul\":11724:11803   */\n      tag_577\n      tag_370\n      jump\t// in\n    tag_577:\n        /* \"#utility.yul\":11688:11805   */\n    tag_576:\n        /* \"#utility.yul\":11837:11902   */\n      tag_578\n        /* \"#utility.yul\":11894:11901   */\n      dup7\n        /* \"#utility.yul\":11885:11891   */\n      dup3\n        /* \"#utility.yul\":11874:11883   */\n      dup8\n        /* \"#utility.yul\":11870:11892   */\n      add\n        /* \"#utility.yul\":11837:11902   */\n      tag_404\n      jump\t// in\n    tag_578:\n        /* \"#utility.yul\":11819:11902   */\n      swap3\n      pop\n      swap3\n      pop\n        /* \"#utility.yul\":11614:11912   */\n      pop\n        /* \"#utility.yul\":11245:11919   */\n      swap3\n      pop\n      swap3\n      pop\n      swap3\n      jump\t// out\n        /* \"#utility.yul\":11925:12233   */\n    tag_405:\n        /* \"#utility.yul\":11987:11991   */\n      0x00\n        /* \"#utility.yul\":12077:12095   */\n      0xffffffffffffffff\n        /* \"#utility.yul\":12069:12075   */\n      dup3\n        /* \"#utility.yul\":12066:12096   */\n      gt\n        /* \"#utility.yul\":12063:12119   */\n      iszero\n      tag_580\n      jumpi\n        /* \"#utility.yul\":12099:12117   */\n      tag_581\n      tag_334\n      jump\t// in\n    tag_581:\n        /* \"#utility.yul\":12063:12119   */\n    tag_580:\n        /* \"#utility.yul\":12137:12166   */\n      tag_582\n        /* \"#utility.yul\":12159:12165   */\n      dup3\n        /* \"#utility.yul\":12137:12166   */\n      tag_382\n      jump\t// in\n    tag_582:\n        /* \"#utility.yul\":12129:12166   */\n      swap1\n      pop\n        /* \"#utility.yul\":12221:12225   */\n      0x20\n        /* \"#utility.yul\":12215:12219   */\n      dup2\n        /* \"#utility.yul\":12211:12226   */\n      add\n        /* \"#utility.yul\":12203:12226   */\n      swap1\n      pop\n        /* \"#utility.yul\":11925:12233   */\n      swap2\n      swap1\n      pop\n      jump\t// out\n        /* \"#utility.yul\":12239:12664   */\n    tag_406:\n        /* \"#utility.yul\":12317:12322   */\n      0x00\n        /* \"#utility.yul\":12342:12408   */\n      tag_584\n        /* \"#utility.yul\":12358:12407   */\n      tag_585\n        /* \"#utility.yul\":12400:12406   */\n      dup5\n        /* \"#utility.yul\":12358:12407   */\n      tag_405\n      jump\t// in\n    tag_585:\n        /* \"#utility.yul\":12342:12408   */\n      tag_397\n      jump\t// in\n    tag_584:\n        /* \"#utility.yul\":12333:12408   */\n      swap1\n      pop\n        /* \"#utility.yul\":12431:12437   */\n      dup3\n        /* \"#utility.yul\":12424:12429   */\n      dup2\n        /* \"#utility.yul\":12417:12438   */\n      mstore\n        /* \"#utility.yul\":12469:12473   */\n      0x20\n        /* \"#utility.yul\":12462:12467   */\n      dup2\n        /* \"#utility.yul\":12458:12474   */\n      add\n        /* \"#utility.yul\":12507:12510   */\n      dup5\n        /* \"#utility.yul\":12498:12504   */\n      dup5\n        /* \"#utility.yul\":12493:12496   */\n      dup5\n        /* \"#utility.yul\":12489:12505   */\n      add\n        /* \"#utility.yul\":12486:12511   */\n      gt\n        /* \"#utility.yul\":12483:12595   */\n      iszero\n      tag_586\n      jumpi\n        /* \"#utility.yul\":12514:12593   */\n      tag_587\n      tag_395\n      jump\t// in\n    tag_587:\n        /* \"#utility.yul\":12483:12595   */\n    tag_586:\n        /* \"#utility.yul\":12604:12658   */\n      tag_588\n        /* \"#utility.yul\":12651:12657   */\n      dup5\n        /* \"#utility.yul\":12646:12649   */\n      dup3\n        /* \"#utility.yul\":12641:12644   */\n      dup6\n        /* \"#utility.yul\":12604:12658   */\n      tag_399\n      jump\t// in\n    tag_588:\n        /* \"#utility.yul\":12323:12664   */\n      pop\n        /* \"#utility.yul\":12239:12664   */\n      swap4\n      swap3\n      pop\n      pop\n      pop\n      jump\t// out\n        /* \"#utility.yul\":12684:13024   */\n    tag_407:\n        /* \"#utility.yul\":12740:12745   */\n      0x00\n        /* \"#utility.yul\":12789:12792   */\n      dup3\n        /* \"#utility.yul\":12782:12786   */\n      0x1f\n        /* \"#utility.yul\":12774:12780   */\n      dup4\n        /* \"#utility.yul\":12770:12787   */\n      add\n        /* \"#utility.yul\":12766:12793   */\n      slt\n        /* \"#utility.yul\":12756:12878   */\n      tag_590\n      jumpi\n        /* \"#utility.yul\":12797:12876   */\n      tag_591\n      tag_394\n      jump\t// in\n    tag_591:\n        /* \"#utility.yul\":12756:12878   */\n    tag_590:\n        /* \"#utility.yul\":12914:12920   */\n      dup2\n        /* \"#utility.yul\":12901:12921   */\n      calldataload\n        /* \"#utility.yul\":12939:13018   */\n      tag_592\n        /* \"#utility.yul\":13014:13017   */\n      dup5\n        /* \"#utility.yul\":13006:13012   */\n      dup3\n        /* \"#utility.yul\":12999:13003   */\n      0x20\n        /* \"#utility.yul\":12991:12997   */\n      dup7\n        /* \"#utility.yul\":12987:13004   */\n      add\n        /* \"#utility.yul\":12939:13018   */\n      tag_406\n      jump\t// in\n    tag_592:\n        /* \"#utility.yul\":12930:13018   */\n      swap2\n      pop\n        /* \"#utility.yul\":12746:13024   */\n      pop\n        /* \"#utility.yul\":12684:13024   */\n      swap3\n      swap2\n      pop\n      pop\n      jump\t// out\n        /* \"#utility.yul\":13030:13539   */\n    tag_110:\n        /* \"#utility.yul\":13099:13105   */\n      0x00\n        /* \"#utility.yul\":13148:13150   */\n      0x20\n        /* \"#utility.yul\":13136:13145   */\n      dup3\n        /* \"#utility.yul\":13127:13134   */\n      dup5\n        /* \"#utility.yul\":13123:13146   */\n      sub\n        /* \"#utility.yul\":13119:13151   */\n      slt\n        /* \"#utility.yul\":13116:13235   */\n      iszero\n      tag_594\n      jumpi\n        /* \"#utility.yul\":13154:13233   */\n      tag_595\n      tag_369\n      jump\t// in\n    tag_595:\n        /* \"#utility.yul\":13116:13235   */\n    tag_594:\n        /* \"#utility.yul\":13302:13303   */\n      0x00\n        /* \"#utility.yul\":13291:13300   */\n      dup3\n        /* \"#utility.yul\":13287:13304   */\n      add\n        /* \"#utility.yul\":13274:13305   */\n      calldataload\n        /* \"#utility.yul\":13332:13350   */\n      0xffffffffffffffff\n        /* \"#utility.yul\":13324:13330   */\n      dup2\n        /* \"#utility.yul\":13321:13351   */\n      gt\n        /* \"#utility.yul\":13318:13435   */\n      iszero\n      tag_596\n      jumpi\n        /* \"#utility.yul\":13354:13433   */\n      tag_597\n      tag_370\n      jump\t// in\n    tag_597:\n        /* \"#utility.yul\":13318:13435   */\n    tag_596:\n        /* \"#utility.yul\":13459:13522   */\n      tag_598\n        /* \"#utility.yul\":13514:13521   */\n      dup5\n        /* \"#utility.yul\":13505:13511   */\n      dup3\n        /* \"#utility.yul\":13494:13503   */\n      dup6\n        /* \"#utility.yul\":13490:13512   */\n      add\n        /* \"#utility.yul\":13459:13522   */\n      tag_407\n      jump\t// in\n    tag_598:\n        /* \"#utility.yul\":13449:13522   */\n      swap2\n      pop\n        /* \"#utility.yul\":13245:13532   */\n      pop\n        /* \"#utility.yul\":13030:13539   */\n      swap3\n      swap2\n      pop\n      pop\n      jump\t// out\n        /* \"#utility.yul\":13545:13667   */\n    tag_408:\n        /* \"#utility.yul\":13618:13642   */\n      tag_600\n        /* \"#utility.yul\":13636:13641   */\n      dup2\n        /* \"#utility.yul\":13618:13642   */\n      tag_390\n      jump\t// in\n    tag_600:\n        /* \"#utility.yul\":13611:13616   */\n      dup2\n        /* \"#utility.yul\":13608:13643   */\n      eq\n        /* \"#utility.yul\":13598:13661   */\n      tag_601\n      jumpi\n        /* \"#utility.yul\":13657:13658   */\n      0x00\n        /* \"#utility.yul\":13654:13655   */\n      dup1\n        /* \"#utility.yul\":13647:13659   */\n      revert\n        /* \"#utility.yul\":13598:13661   */\n    tag_601:\n        /* \"#utility.yul\":13545:13667   */\n      pop\n      jump\t// out\n        /* \"#utility.yul\":13673:13812   */\n    tag_409:\n        /* \"#utility.yul\":13719:13724   */\n      0x00\n        /* \"#utility.yul\":13757:13763   */\n      dup2\n        /* \"#utility.yul\":13744:13764   */\n      calldataload\n        /* \"#utility.yul\":13735:13764   */\n      swap1\n      pop\n        /* \"#utility.yul\":13773:13806   */\n      tag_603\n        /* \"#utility.yul\":13800:13805   */\n      dup2\n        /* \"#utility.yul\":13773:13806   */\n      tag_408\n      jump\t// in\n    tag_603:\n        /* \"#utility.yul\":13673:13812   */\n      swap3\n      swap2\n      pop\n      pop\n      jump\t// out\n        /* \"#utility.yul\":13818:14292   */\n    tag_115:\n        /* \"#utility.yul\":13886:13892   */\n      0x00\n        /* \"#utility.yul\":13894:13900   */\n      dup1\n        /* \"#utility.yul\":13943:13945   */\n      0x40\n        /* \"#utility.yul\":13931:13940   */\n      dup4\n        /* \"#utility.yul\":13922:13929   */\n      dup6\n        /* \"#utility.yul\":13918:13941   */\n      sub\n        /* \"#utility.yul\":13914:13946   */\n      slt\n        /* \"#utility.yul\":13911:14030   */\n      iszero\n      tag_605\n      jumpi\n        /* \"#utility.yul\":13949:14028   */\n      tag_606\n      tag_369\n      jump\t// in\n    tag_606:\n        /* \"#utility.yul\":13911:14030   */\n    tag_605:\n        /* \"#utility.yul\":14069:14070   */\n      0x00\n        /* \"#utility.yul\":14094:14147   */\n      tag_607\n        /* \"#utility.yul\":14139:14146   */\n      dup6\n        /* \"#utility.yul\":14130:14136   */\n      dup3\n        /* \"#utility.yul\":14119:14128   */\n      dup7\n        /* \"#utility.yul\":14115:14137   */\n      add\n        /* \"#utility.yul\":14094:14147   */\n      tag_373\n      jump\t// in\n    tag_607:\n        /* \"#utility.yul\":14084:14147   */\n      swap3\n      pop\n        /* \"#utility.yul\":14040:14157   */\n      pop\n        /* \"#utility.yul\":14196:14198   */\n      0x20\n        /* \"#utility.yul\":14222:14275   */\n      tag_608\n        /* \"#utility.yul\":14267:14274   */\n      dup6\n        /* \"#utility.yul\":14258:14264   */\n      dup3\n        /* \"#utility.yul\":14247:14256   */\n      dup7\n        /* \"#utility.yul\":14243:14265   */\n      add\n        /* \"#utility.yul\":14222:14275   */\n      tag_409\n      jump\t// in\n    tag_608:\n        /* \"#utility.yul\":14212:14275   */\n      swap2\n      pop\n        /* \"#utility.yul\":14167:14285   */\n      pop\n        /* \"#utility.yul\":13818:14292   */\n      swap3\n      pop\n      swap3\n      swap1\n      pop\n      jump\t// out\n        /* \"#utility.yul\":14298:14772   */\n    tag_120:\n        /* \"#utility.yul\":14366:14372   */\n      0x00\n        /* \"#utility.yul\":14374:14380   */\n      dup1\n        /* \"#utility.yul\":14423:14425   */\n      0x40\n        /* \"#utility.yul\":14411:14420   */\n      dup4\n        /* \"#utility.yul\":14402:14409   */\n      dup6\n        /* \"#utility.yul\":14398:14421   */\n      sub\n        /* \"#utility.yul\":14394:14426   */\n      slt\n        /* \"#utility.yul\":14391:14510   */\n      iszero\n      tag_610\n      jumpi\n        /* \"#utility.yul\":14429:14508   */\n      tag_611\n      tag_369\n      jump\t// in\n    tag_611:\n        /* \"#utility.yul\":14391:14510   */\n    tag_610:\n        /* \"#utility.yul\":14549:14550   */\n      0x00\n        /* \"#utility.yul\":14574:14627   */\n      tag_612\n        /* \"#utility.yul\":14619:14626   */\n      dup6\n        /* \"#utility.yul\":14610:14616   */\n      dup3\n        /* \"#utility.yul\":14599:14608   */\n      dup7\n        /* \"#utility.yul\":14595:14617   */\n      add\n        /* \"#utility.yul\":14574:14627   */\n      tag_388\n      jump\t// in\n    tag_612:\n        /* \"#utility.yul\":14564:14627   */\n      swap3\n      pop\n        /* \"#utility.yul\":14520:14637   */\n      pop\n        /* \"#utility.yul\":14676:14678   */\n      0x20\n        /* \"#utility.yul\":14702:14755   */\n      tag_613\n        /* \"#utility.yul\":14747:14754   */\n      dup6\n        /* \"#utility.yul\":14738:14744   */\n      dup3\n        /* \"#utility.yul\":14727:14736   */\n      dup7\n        /* \"#utility.yul\":14723:14745   */\n      add\n        /* \"#utility.yul\":14702:14755   */\n      tag_388\n      jump\t// in\n    tag_613:\n        /* \"#utility.yul\":14692:14755   */\n      swap2\n      pop\n        /* \"#utility.yul\":14647:14765   */\n      pop\n        /* \"#utility.yul\":14298:14772   */\n      swap3\n      pop\n      swap3\n      swap1\n      pop\n      jump\t// out\n        /* \"#utility.yul\":14778:14958   */\n    tag_410:\n        /* \"#utility.yul\":14826:14903   */\n      0x4e487b7100000000000000000000000000000000000000000000000000000000\n        /* \"#utility.yul\":14823:14824   */\n      0x00\n        /* \"#utility.yul\":14816:14904   */\n      mstore\n        /* \"#utility.yul\":14923:14927   */\n      0x22\n        /* \"#utility.yul\":14920:14921   */\n      0x04\n        /* \"#utility.yul\":14913:14928   */\n      mstore\n        /* \"#utility.yul\":14947:14951   */\n      0x24\n        /* \"#utility.yul\":14944:14945   */\n      0x00\n        /* \"#utility.yul\":14937:14952   */\n      revert\n        /* \"#utility.yul\":14964:15284   */\n    tag_134:\n        /* \"#utility.yul\":15008:15014   */\n      0x00\n        /* \"#utility.yul\":15045:15046   */\n      0x02\n        /* \"#utility.yul\":15039:15043   */\n      dup3\n        /* \"#utility.yul\":15035:15047   */\n      div\n        /* \"#utility.yul\":15025:15047   */\n      swap1\n      pop\n        /* \"#utility.yul\":15092:15093   */\n      0x01\n        /* \"#utility.yul\":15086:15090   */\n      dup3\n        /* \"#utility.yul\":15082:15094   */\n      and\n        /* \"#utility.yul\":15113:15131   */\n      dup1\n        /* \"#utility.yul\":15103:15184   */\n      tag_616\n      jumpi\n        /* \"#utility.yul\":15169:15173   */\n      0x7f\n        /* \"#utility.yul\":15161:15167   */\n      dup3\n        /* \"#utility.yul\":15157:15174   */\n      and\n        /* \"#utility.yul\":15147:15174   */\n      swap2\n      pop\n        /* \"#utility.yul\":15103:15184   */\n    tag_616:\n        /* \"#utility.yul\":15231:15233   */\n      0x20\n        /* \"#utility.yul\":15223:15229   */\n      dup3\n        /* \"#utility.yul\":15220:15234   */\n      lt\n        /* \"#utility.yul\":15200:15218   */\n      dup2\n        /* \"#utility.yul\":15197:15235   */\n      sub\n        /* \"#utility.yul\":15194:15278   */\n      tag_617\n      jumpi\n        /* \"#utility.yul\":15250:15268   */\n      tag_618\n      tag_410\n      jump\t// in\n    tag_618:\n        /* \"#utility.yul\":15194:15278   */\n    tag_617:\n        /* \"#utility.yul\":15015:15284   */\n      pop\n        /* \"#utility.yul\":14964:15284   */\n      swap2\n      swap1\n      pop\n      jump\t// out\n        /* \"#utility.yul\":15290:15732   */\n    tag_158:\n        /* \"#utility.yul\":15439:15443   */\n      0x00\n        /* \"#utility.yul\":15477:15479   */\n      0x60\n        /* \"#utility.yul\":15466:15475   */\n      dup3\n        /* \"#utility.yul\":15462:15480   */\n      add\n        /* \"#utility.yul\":15454:15480   */\n      swap1\n      pop\n        /* \"#utility.yul\":15490:15561   */\n      tag_620\n        /* \"#utility.yul\":15558:15559   */\n      0x00\n        /* \"#utility.yul\":15547:15556   */\n      dup4\n        /* \"#utility.yul\":15543:15560   */\n      add\n        /* \"#utility.yul\":15534:15540   */\n      dup7\n        /* \"#utility.yul\":15490:15561   */\n      tag_386\n      jump\t// in\n    tag_620:\n        /* \"#utility.yul\":15571:15643   */\n      tag_621\n        /* \"#utility.yul\":15639:15641   */\n      0x20\n        /* \"#utility.yul\":15628:15637   */\n      dup4\n        /* \"#utility.yul\":15624:15642   */\n      add\n        /* \"#utility.yul\":15615:15621   */\n      dup6\n        /* \"#utility.yul\":15571:15643   */\n      tag_389\n      jump\t// in\n    tag_621:\n        /* \"#utility.yul\":15653:15725   */\n      tag_622\n        /* \"#utility.yul\":15721:15723   */\n      0x40\n        /* \"#utility.yul\":15710:15719   */\n      dup4\n        /* \"#utility.yul\":15706:15724   */\n      add\n        /* \"#utility.yul\":15697:15703   */\n      dup5\n        /* \"#utility.yul\":15653:15725   */\n      tag_386\n      jump\t// in\n    tag_622:\n        /* \"#utility.yul\":15290:15732   */\n      swap5\n      swap4\n      pop\n      pop\n      pop\n      pop\n      jump\t// out\n        /* \"#utility.yul\":15738:15908   */\n    tag_411:\n        /* \"#utility.yul\":15878:15900   */\n      0x546f6b656e20646f6573206e6f74206578697374000000000000000000000000\n        /* \"#utility.yul\":15874:15875   */\n      0x00\n        /* \"#utility.yul\":15866:15872   */\n      dup3\n        /* \"#utility.yul\":15862:15876   */\n      add\n        /* \"#utility.yul\":15855:15901   */\n      mstore\n        /* \"#utility.yul\":15738:15908   */\n      pop\n      jump\t// out\n        /* \"#utility.yul\":15914:16280   */\n    tag_412:\n        /* \"#utility.yul\":16056:16059   */\n      0x00\n        /* \"#utility.yul\":16077:16144   */\n      tag_625\n        /* \"#utility.yul\":16141:16143   */\n      0x14\n        /* \"#utility.yul\":16136:16139   */\n      dup4\n        /* \"#utility.yul\":16077:16144   */\n      tag_380\n      jump\t// in\n    tag_625:\n        /* \"#utility.yul\":16070:16144   */\n      swap2\n      pop\n        /* \"#utility.yul\":16153:16246   */\n      tag_626\n        /* \"#utility.yul\":16242:16245   */\n      dup3\n        /* \"#utility.yul\":16153:16246   */\n      tag_411\n      jump\t// in\n    tag_626:\n        /* \"#utility.yul\":16271:16273   */\n      0x20\n        /* \"#utility.yul\":16266:16269   */\n      dup3\n        /* \"#utility.yul\":16262:16274   */\n      add\n        /* \"#utility.yul\":16255:16274   */\n      swap1\n      pop\n        /* \"#utility.yul\":15914:16280   */\n      swap2\n      swap1\n      pop\n      jump\t// out\n        /* \"#utility.yul\":16286:16705   */\n    tag_165:\n        /* \"#utility.yul\":16452:16456   */\n      0x00\n        /* \"#utility.yul\":16490:16492   */\n      0x20\n        /* \"#utility.yul\":16479:16488   */\n      dup3\n        /* \"#utility.yul\":16475:16493   */\n      add\n        /* \"#utility.yul\":16467:16493   */\n      swap1\n      pop\n        /* \"#utility.yul\":16539:16548   */\n      dup2\n        /* \"#utility.yul\":16533:16537   */\n      dup2\n        /* \"#utility.yul\":16529:16549   */\n      sub\n        /* \"#utility.yul\":16525:16526   */\n      0x00\n        /* \"#utility.yul\":16514:16523   */\n      dup4\n        /* \"#utility.yul\":16510:16527   */\n      add\n        /* \"#utility.yul\":16503:16550   */\n      mstore\n        /* \"#utility.yul\":16567:16698   */\n      tag_628\n        /* \"#utility.yul\":16693:16697   */\n      dup2\n        /* \"#utility.yul\":16567:16698   */\n      tag_412\n      jump\t// in\n    tag_628:\n        /* \"#utility.yul\":16559:16698   */\n      swap1\n      pop\n        /* \"#utility.yul\":16286:16705   */\n      swap2\n      swap1\n      pop\n      jump\t// out\n        /* \"#utility.yul\":16711:16880   */\n    tag_413:\n        /* \"#utility.yul\":16851:16872   */\n      0x496e646578206f7574206f6620626f756e647300000000000000000000000000\n        /* \"#utility.yul\":16847:16848   */\n      0x00\n        /* \"#utility.yul\":16839:16845   */\n      dup3\n        /* \"#utility.yul\":16835:16849   */\n      add\n        /* \"#utility.yul\":16828:16873   */\n      mstore\n        /* \"#utility.yul\":16711:16880   */\n      pop\n      jump\t// out\n        /* \"#utility.yul\":16886:17252   */\n    tag_414:\n        /* \"#utility.yul\":17028:17031   */\n      0x00\n        /* \"#utility.yul\":17049:17116   */\n      tag_631\n        /* \"#utility.yul\":17113:17115   */\n      0x13\n        /* \"#utility.yul\":17108:17111   */\n      dup4\n        /* \"#utility.yul\":17049:17116   */\n      tag_380\n      jump\t// in\n    tag_631:\n        /* \"#utility.yul\":17042:17116   */\n      swap2\n      pop\n        /* \"#utility.yul\":17125:17218   */\n      tag_632\n        /* \"#utility.yul\":17214:17217   */\n      dup3\n        /* \"#utility.yul\":17125:17218   */\n      tag_413\n      jump\t// in\n    tag_632:\n        /* \"#utility.yul\":17243:17245   */\n      0x20\n        /* \"#utility.yul\":17238:17241   */\n      dup3\n        /* \"#utility.yul\":17234:17246   */\n      add\n        /* \"#utility.yul\":17227:17246   */\n      swap1\n      pop\n        /* \"#utility.yul\":16886:17252   */\n      swap2\n      swap1\n      pop\n      jump\t// out\n        /* \"#utility.yul\":17258:17677   */\n    tag_173:\n        /* \"#utility.yul\":17424:17428   */\n      0x00\n        /* \"#utility.yul\":17462:17464   */\n      0x20\n        /* \"#utility.yul\":17451:17460   */\n      dup3\n        /* \"#utility.yul\":17447:17465   */\n      add\n        /* \"#utility.yul\":17439:17465   */\n      swap1\n      pop\n        /* \"#utility.yul\":17511:17520   */\n      dup2\n        /* \"#utility.yul\":17505:17509   */\n      dup2\n        /* \"#utility.yul\":17501:17521   */\n      sub\n        /* \"#utility.yul\":17497:17498   */\n      0x00\n        /* \"#utility.yul\":17486:17495   */\n      dup4\n        /* \"#utility.yul\":17482:17499   */\n      add\n        /* \"#utility.yul\":17475:17522   */\n      mstore\n        /* \"#utility.yul\":17539:17670   */\n      tag_634\n        /* \"#utility.yul\":17665:17669   */\n      dup2\n        /* \"#utility.yul\":17539:17670   */\n      tag_414\n      jump\t// in\n    tag_634:\n        /* \"#utility.yul\":17531:17670   */\n      swap1\n      pop\n        /* \"#utility.yul\":17258:17677   */\n      swap2\n      swap1\n      pop\n      jump\t// out\n        /* \"#utility.yul\":17683:17863   */\n    tag_415:\n        /* \"#utility.yul\":17731:17808   */\n      0x4e487b7100000000000000000000000000000000000000000000000000000000\n        /* \"#utility.yul\":17728:17729   */\n      0x00\n        /* \"#utility.yul\":17721:17809   */\n      mstore\n        /* \"#utility.yul\":17828:17832   */\n      0x11\n        /* \"#utility.yul\":17825:17826   */\n      0x04\n        /* \"#utility.yul\":17818:17833   */\n      mstore\n        /* \"#utility.yul\":17852:17856   */\n      0x24\n        /* \"#utility.yul\":17849:17850   */\n      0x00\n        /* \"#utility.yul\":17842:17857   */\n      revert\n        /* \"#utility.yul\":17869:18060   */\n    tag_175:\n        /* \"#utility.yul\":17909:17912   */\n      0x00\n        /* \"#utility.yul\":17928:17948   */\n      tag_637\n        /* \"#utility.yul\":17946:17947   */\n      dup3\n        /* \"#utility.yul\":17928:17948   */\n      tag_371\n      jump\t// in\n    tag_637:\n        /* \"#utility.yul\":17923:17948   */\n      swap2\n      pop\n        /* \"#utility.yul\":17962:17982   */\n      tag_638\n        /* \"#utility.yul\":17980:17981   */\n      dup4\n        /* \"#utility.yul\":17962:17982   */\n      tag_371\n      jump\t// in\n    tag_638:\n        /* \"#utility.yul\":17957:17982   */\n      swap3\n      pop\n        /* \"#utility.yul\":18005:18006   */\n      dup3\n        /* \"#utility.yul\":18002:18003   */\n      dup3\n        /* \"#utility.yul\":17998:18007   */\n      add\n        /* \"#utility.yul\":17991:18007   */\n      swap1\n      pop\n        /* \"#utility.yul\":18026:18029   */\n      dup1\n        /* \"#utility.yul\":18023:18024   */\n      dup3\n        /* \"#utility.yul\":18020:18030   */\n      gt\n        /* \"#utility.yul\":18017:18053   */\n      iszero\n      tag_639\n      jumpi\n        /* \"#utility.yul\":18033:18051   */\n      tag_640\n      tag_415\n      jump\t// in\n    tag_640:\n        /* \"#utility.yul\":18017:18053   */\n    tag_639:\n        /* \"#utility.yul\":17869:18060   */\n      swap3\n      swap2\n      pop\n      pop\n      jump\t// out\n        /* \"#utility.yul\":18066:18214   */\n    tag_416:\n        /* \"#utility.yul\":18168:18179   */\n      0x00\n        /* \"#utility.yul\":18205:18208   */\n      dup2\n        /* \"#utility.yul\":18190:18208   */\n      swap1\n      pop\n        /* \"#utility.yul\":18066:18214   */\n      swap3\n      swap2\n      pop\n      pop\n      jump\t// out\n        /* \"#utility.yul\":18220:18610   */\n    tag_417:\n        /* \"#utility.yul\":18326:18329   */\n      0x00\n        /* \"#utility.yul\":18354:18393   */\n      tag_643\n        /* \"#utility.yul\":18387:18392   */\n      dup3\n        /* \"#utility.yul\":18354:18393   */\n      tag_379\n      jump\t// in\n    tag_643:\n        /* \"#utility.yul\":18409:18498   */\n      tag_644\n        /* \"#utility.yul\":18491:18497   */\n      dup2\n        /* \"#utility.yul\":18486:18489   */\n      dup6\n        /* \"#utility.yul\":18409:18498   */\n      tag_416\n      jump\t// in\n    tag_644:\n        /* \"#utility.yul\":18402:18498   */\n      swap4\n      pop\n        /* \"#utility.yul\":18507:18572   */\n      tag_645\n        /* \"#utility.yul\":18565:18571   */\n      dup2\n        /* \"#utility.yul\":18560:18563   */\n      dup6\n        /* \"#utility.yul\":18553:18557   */\n      0x20\n        /* \"#utility.yul\":18546:18551   */\n      dup7\n        /* \"#utility.yul\":18542:18558   */\n      add\n        /* \"#utility.yul\":18507:18572   */\n      tag_381\n      jump\t// in\n    tag_645:\n        /* \"#utility.yul\":18597:18603   */\n      dup1\n        /* \"#utility.yul\":18592:18595   */\n      dup5\n        /* \"#utility.yul\":18588:18604   */\n      add\n        /* \"#utility.yul\":18581:18604   */\n      swap2\n      pop\n        /* \"#utility.yul\":18330:18610   */\n      pop\n        /* \"#utility.yul\":18220:18610   */\n      swap3\n      swap2\n      pop\n      pop\n      jump\t// out\n        /* \"#utility.yul\":18616:19051   */\n    tag_211:\n        /* \"#utility.yul\":18796:18799   */\n      0x00\n        /* \"#utility.yul\":18818:18913   */\n      tag_647\n        /* \"#utility.yul\":18909:18912   */\n      dup3\n        /* \"#utility.yul\":18900:18906   */\n      dup6\n        /* \"#utility.yul\":18818:18913   */\n      tag_417\n      jump\t// in\n    tag_647:\n        /* \"#utility.yul\":18811:18913   */\n      swap2\n      pop\n        /* \"#utility.yul\":18930:19025   */\n      tag_648\n        /* \"#utility.yul\":19021:19024   */\n      dup3\n        /* \"#utility.yul\":19012:19018   */\n      dup5\n        /* \"#utility.yul\":18930:19025   */\n      tag_417\n      jump\t// in\n    tag_648:\n        /* \"#utility.yul\":18923:19025   */\n      swap2\n      pop\n        /* \"#utility.yul\":19042:19045   */\n      dup2\n        /* \"#utility.yul\":19035:19045   */\n      swap1\n      pop\n        /* \"#utility.yul\":18616:19051   */\n      swap4\n      swap3\n      pop\n      pop\n      pop\n      jump\t// out\n        /* \"#utility.yul\":19057:19226   */\n    tag_418:\n        /* \"#utility.yul\":19197:19218   */\n      0x5552492063616e6e6f7420626520656d70747900000000000000000000000000\n        /* \"#utility.yul\":19193:19194   */\n      0x00\n        /* \"#utility.yul\":19185:19191   */\n      dup3\n        /* \"#utility.yul\":19181:19195   */\n      add\n        /* \"#utility.yul\":19174:19219   */\n      mstore\n        /* \"#utility.yul\":19057:19226   */\n      pop\n      jump\t// out\n        /* \"#utility.yul\":19232:19598   */\n    tag_419:\n        /* \"#utility.yul\":19374:19377   */\n      0x00\n        /* \"#utility.yul\":19395:19462   */\n      tag_651\n        /* \"#utility.yul\":19459:19461   */\n      0x13\n        /* \"#utility.yul\":19454:19457   */\n      dup4\n        /* \"#utility.yul\":19395:19462   */\n      tag_380\n      jump\t// in\n    tag_651:\n        /* \"#utility.yul\":19388:19462   */\n      swap2\n      pop\n        /* \"#utility.yul\":19471:19564   */\n      tag_652\n        /* \"#utility.yul\":19560:19563   */\n      dup3\n        /* \"#utility.yul\":19471:19564   */\n      tag_418\n      jump\t// in\n    tag_652:\n        /* \"#utility.yul\":19589:19591   */\n      0x20\n        /* \"#utility.yul\":19584:19587   */\n      dup3\n        /* \"#utility.yul\":19580:19592   */\n      add\n        /* \"#utility.yul\":19573:19592   */\n      swap1\n      pop\n        /* \"#utility.yul\":19232:19598   */\n      swap2\n      swap1\n      pop\n      jump\t// out\n        /* \"#utility.yul\":19604:20023   */\n    tag_217:\n        /* \"#utility.yul\":19770:19774   */\n      0x00\n        /* \"#utility.yul\":19808:19810   */\n      0x20\n        /* \"#utility.yul\":19797:19806   */\n      dup3\n        /* \"#utility.yul\":19793:19811   */\n      add\n        /* \"#utility.yul\":19785:19811   */\n      swap1\n      pop\n        /* \"#utility.yul\":19857:19866   */\n      dup2\n        /* \"#utility.yul\":19851:19855   */\n      dup2\n        /* \"#utility.yul\":19847:19867   */\n      sub\n        /* \"#utility.yul\":19843:19844   */\n      0x00\n        /* \"#utility.yul\":19832:19841   */\n      dup4\n        /* \"#utility.yul\":19828:19845   */\n      add\n        /* \"#utility.yul\":19821:19868   */\n      mstore\n        /* \"#utility.yul\":19885:20016   */\n      tag_654\n        /* \"#utility.yul\":20011:20015   */\n      dup2\n        /* \"#utility.yul\":19885:20016   */\n      tag_419\n      jump\t// in\n    tag_654:\n        /* \"#utility.yul\":19877:20016   */\n      swap1\n      pop\n        /* \"#utility.yul\":19604:20023   */\n      swap2\n      swap1\n      pop\n      jump\t// out\n        /* \"#utility.yul\":20053:20370   */\n    tag_420:\n        /* \"#utility.yul\":20151:20154   */\n      0x00\n        /* \"#utility.yul\":20172:20243   */\n      tag_656\n        /* \"#utility.yul\":20236:20242   */\n      dup4\n        /* \"#utility.yul\":20231:20234   */\n      dup6\n        /* \"#utility.yul\":20172:20243   */\n      tag_380\n      jump\t// in\n    tag_656:\n        /* \"#utility.yul\":20165:20243   */\n      swap4\n      pop\n        /* \"#utility.yul\":20253:20309   */\n      tag_657\n        /* \"#utility.yul\":20302:20308   */\n      dup4\n        /* \"#utility.yul\":20297:20300   */\n      dup6\n        /* \"#utility.yul\":20290:20295   */\n      dup5\n        /* \"#utility.yul\":20253:20309   */\n      tag_399\n      jump\t// in\n    tag_657:\n        /* \"#utility.yul\":20334:20363   */\n      tag_658\n        /* \"#utility.yul\":20356:20362   */\n      dup4\n        /* \"#utility.yul\":20334:20363   */\n      tag_382\n      jump\t// in\n    tag_658:\n        /* \"#utility.yul\":20329:20332   */\n      dup5\n        /* \"#utility.yul\":20325:20364   */\n      add\n        /* \"#utility.yul\":20318:20364   */\n      swap1\n      pop\n        /* \"#utility.yul\":20053:20370   */\n      swap4\n      swap3\n      pop\n      pop\n      pop\n      jump\t// out\n        /* \"#utility.yul\":20376:20929   */\n    tag_227:\n        /* \"#utility.yul\":20555:20559   */\n      0x00\n        /* \"#utility.yul\":20593:20595   */\n      0x60\n        /* \"#utility.yul\":20582:20591   */\n      dup3\n        /* \"#utility.yul\":20578:20596   */\n      add\n        /* \"#utility.yul\":20570:20596   */\n      swap1\n      pop\n        /* \"#utility.yul\":20606:20677   */\n      tag_660\n        /* \"#utility.yul\":20674:20675   */\n      0x00\n        /* \"#utility.yul\":20663:20672   */\n      dup4\n        /* \"#utility.yul\":20659:20676   */\n      add\n        /* \"#utility.yul\":20650:20656   */\n      dup8\n        /* \"#utility.yul\":20606:20677   */\n      tag_389\n      jump\t// in\n    tag_660:\n        /* \"#utility.yul\":20724:20733   */\n      dup2\n        /* \"#utility.yul\":20718:20722   */\n      dup2\n        /* \"#utility.yul\":20714:20734   */\n      sub\n        /* \"#utility.yul\":20709:20711   */\n      0x20\n        /* \"#utility.yul\":20698:20707   */\n      dup4\n        /* \"#utility.yul\":20694:20712   */\n      add\n        /* \"#utility.yul\":20687:20735   */\n      mstore\n        /* \"#utility.yul\":20752:20840   */\n      tag_661\n        /* \"#utility.yul\":20835:20839   */\n      dup2\n        /* \"#utility.yul\":20826:20832   */\n      dup6\n        /* \"#utility.yul\":20818:20824   */\n      dup8\n        /* \"#utility.yul\":20752:20840   */\n      tag_420\n      jump\t// in\n    tag_661:\n        /* \"#utility.yul\":20744:20840   */\n      swap1\n      pop\n        /* \"#utility.yul\":20850:20922   */\n      tag_662\n        /* \"#utility.yul\":20918:20920   */\n      0x40\n        /* \"#utility.yul\":20907:20916   */\n      dup4\n        /* \"#utility.yul\":20903:20921   */\n      add\n        /* \"#utility.yul\":20894:20900   */\n      dup5\n        /* \"#utility.yul\":20850:20922   */\n      tag_391\n      jump\t// in\n    tag_662:\n        /* \"#utility.yul\":20376:20929   */\n      swap6\n      swap5\n      pop\n      pop\n      pop\n      pop\n      pop\n      jump\t// out\n        /* \"#utility.yul\":20935:21168   */\n    tag_229:\n        /* \"#utility.yul\":20974:20977   */\n      0x00\n        /* \"#utility.yul\":20997:21021   */\n      tag_664\n        /* \"#utility.yul\":21015:21020   */\n      dup3\n        /* \"#utility.yul\":20997:21021   */\n      tag_371\n      jump\t// in\n    tag_664:\n        /* \"#utility.yul\":20988:21021   */\n      swap2\n      pop\n        /* \"#utility.yul\":21043:21109   */\n      0xffffffffffffffffffffffffffffffffffffffffffffffffffffffffffffffff\n        /* \"#utility.yul\":21036:21041   */\n      dup3\n        /* \"#utility.yul\":21033:21110   */\n      sub\n        /* \"#utility.yul\":21030:21133   */\n      tag_665\n      jumpi\n        /* \"#utility.yul\":21113:21131   */\n      tag_666\n      tag_415\n      jump\t// in\n    tag_666:\n        /* \"#utility.yul\":21030:21133   */\n    tag_665:\n        /* \"#utility.yul\":21160:21161   */\n      0x01\n        /* \"#utility.yul\":21153:21158   */\n      dup3\n        /* \"#utility.yul\":21149:21162   */\n      add\n        /* \"#utility.yul\":21142:21162   */\n      swap1\n      pop\n        /* \"#utility.yul\":20935:21168   */\n      swap2\n      swap1\n      pop\n      jump\t// out\n        /* \"#utility.yul\":21174:21272   */\n    tag_421:\n        /* \"#utility.yul\":21225:21231   */\n      0x00\n        /* \"#utility.yul\":21259:21264   */\n      dup2\n        /* \"#utility.yul\":21253:21265   */\n      mload\n        /* \"#utility.yul\":21243:21265   */\n      swap1\n      pop\n        /* \"#utility.yul\":21174:21272   */\n      swap2\n      swap1\n      pop\n      jump\t// out\n        /* \"#utility.yul\":21278:21446   */\n    tag_422:\n        /* \"#utility.yul\":21361:21372   */\n      0x00\n        /* \"#utility.yul\":21395:21401   */\n      dup3\n        /* \"#utility.yul\":21390:21393   */\n      dup3\n        /* \"#utility.yul\":21383:21402   */\n      mstore\n        /* \"#utility.yul\":21435:21439   */\n      0x20\n        /* \"#utility.yul\":21430:21433   */\n      dup3\n        /* \"#utility.yul\":21426:21440   */\n      add\n        /* \"#utility.yul\":21411:21440   */\n      swap1\n      pop\n        /* \"#utility.yul\":21278:21446   */\n      swap3\n      swap2\n      pop\n      pop\n      jump\t// out\n        /* \"#utility.yul\":21452:21825   */\n    tag_423:\n        /* \"#utility.yul\":21538:21541   */\n      0x00\n        /* \"#utility.yul\":21566:21604   */\n      tag_670\n        /* \"#utility.yul\":21598:21603   */\n      dup3\n        /* \"#utility.yul\":21566:21604   */\n      tag_421\n      jump\t// in\n    tag_670:\n        /* \"#utility.yul\":21620:21690   */\n      tag_671\n        /* \"#utility.yul\":21683:21689   */\n      dup2\n        /* \"#utility.yul\":21678:21681   */\n      dup6\n        /* \"#utility.yul\":21620:21690   */\n      tag_422\n      jump\t// in\n    tag_671:\n        /* \"#utility.yul\":21613:21690   */\n      swap4\n      pop\n        /* \"#utility.yul\":21699:21764   */\n      tag_672\n        /* \"#utility.yul\":21757:21763   */\n      dup2\n        /* \"#utility.yul\":21752:21755   */\n      dup6\n        /* \"#utility.yul\":21745:21749   */\n      0x20\n        /* \"#utility.yul\":21738:21743   */\n      dup7\n        /* \"#utility.yul\":21734:21750   */\n      add\n        /* \"#utility.yul\":21699:21764   */\n      tag_381\n      jump\t// in\n    tag_672:\n        /* \"#utility.yul\":21789:21818   */\n      tag_673\n        /* \"#utility.yul\":21811:21817   */\n      dup2\n        /* \"#utility.yul\":21789:21818   */\n      tag_382\n      jump\t// in\n    tag_673:\n        /* \"#utility.yul\":21784:21787   */\n      dup5\n        /* \"#utility.yul\":21780:21819   */\n      add\n        /* \"#utility.yul\":21773:21819   */\n      swap2\n      pop\n        /* \"#utility.yul\":21542:21825   */\n      pop\n        /* \"#utility.yul\":21452:21825   */\n      swap3\n      swap2\n      pop\n      pop\n      jump\t// out\n        /* \"#utility.yul\":21831:22471   */\n    tag_272:\n        /* \"#utility.yul\":22026:22030   */\n      0x00\n        /* \"#utility.yul\":22064:22067   */\n      0x80\n        /* \"#utility.yul\":22053:22062   */\n      dup3\n        /* \"#utility.yul\":22049:22068   */\n      add\n        /* \"#utility.yul\":22041:22068   */\n      swap1\n      pop\n        /* \"#utility.yul\":22078:22149   */\n      tag_675\n        /* \"#utility.yul\":22146:22147   */\n      0x00\n        /* \"#utility.yul\":22135:22144   */\n      dup4\n        /* \"#utility.yul\":22131:22148   */\n      add\n        /* \"#utility.yul\":22122:22128   */\n      dup8\n        /* \"#utility.yul\":22078:22149   */\n      tag_386\n      jump\t// in\n    tag_675:\n        /* \"#utility.yul\":22159:22231   */\n      tag_676\n        /* \"#utility.yul\":22227:22229   */\n      0x20\n        /* \"#utility.yul\":22216:22225   */\n      dup4\n        /* \"#utility.yul\":22212:22230   */\n      add\n        /* \"#utility.yul\":22203:22209   */\n      dup7\n        /* \"#utility.yul\":22159:22231   */\n      tag_386\n      jump\t// in\n    tag_676:\n        /* \"#utility.yul\":22241:22313   */\n      tag_677\n        /* \"#utility.yul\":22309:22311   */\n      0x40\n        /* \"#utility.yul\":22298:22307   */\n      dup4\n        /* \"#utility.yul\":22294:22312   */\n      add\n        /* \"#utility.yul\":22285:22291   */\n      dup6\n        /* \"#utility.yul\":22241:22313   */\n      tag_389\n      jump\t// in\n    tag_677:\n        /* \"#utility.yul\":22360:22369   */\n      dup2\n        /* \"#utility.yul\":22354:22358   */\n      dup2\n        /* \"#utility.yul\":22350:22370   */\n      sub\n        /* \"#utility.yul\":22345:22347   */\n      0x60\n        /* \"#utility.yul\":22334:22343   */\n      dup4\n        /* \"#utility.yul\":22330:22348   */\n      add\n        /* \"#utility.yul\":22323:22371   */\n      mstore\n        /* \"#utility.yul\":22388:22464   */\n      tag_678\n        /* \"#utility.yul\":22459:22463   */\n      dup2\n        /* \"#utility.yul\":22450:22456   */\n      dup5\n        /* \"#utility.yul\":22388:22464   */\n      tag_423\n      jump\t// in\n    tag_678:\n        /* \"#utility.yul\":22380:22464   */\n      swap1\n      pop\n        /* \"#utility.yul\":21831:22471   */\n      swap6\n      swap5\n      pop\n      pop\n      pop\n      pop\n      pop\n      jump\t// out\n        /* \"#utility.yul\":22477:22618   */\n    tag_424:\n        /* \"#utility.yul\":22533:22538   */\n      0x00\n        /* \"#utility.yul\":22564:22570   */\n      dup2\n        /* \"#utility.yul\":22558:22571   */\n      mload\n        /* \"#utility.yul\":22549:22571   */\n      swap1\n      pop\n        /* \"#utility.yul\":22580:22612   */\n      tag_680\n        /* \"#utility.yul\":22606:22611   */\n      dup2\n        /* \"#utility.yul\":22580:22612   */\n      tag_377\n      jump\t// in\n    tag_680:\n        /* \"#utility.yul\":22477:22618   */\n      swap3\n      swap2\n      pop\n      pop\n      jump\t// out\n        /* \"#utility.yul\":22624:22973   */\n    tag_275:\n        /* \"#utility.yul\":22693:22699   */\n      0x00\n        /* \"#utility.yul\":22742:22744   */\n      0x20\n        /* \"#utility.yul\":22730:22739   */\n      dup3\n        /* \"#utility.yul\":22721:22728   */\n      dup5\n        /* \"#utility.yul\":22717:22740   */\n      sub\n        /* \"#utility.yul\":22713:22745   */\n      slt\n        /* \"#utility.yul\":22710:22829   */\n      iszero\n      tag_682\n      jumpi\n        /* \"#utility.yul\":22748:22827   */\n      tag_683\n      tag_369\n      jump\t// in\n    tag_683:\n        /* \"#utility.yul\":22710:22829   */\n    tag_682:\n        /* \"#utility.yul\":22868:22869   */\n      0x00\n        /* \"#utility.yul\":22893:22956   */\n      tag_684\n        /* \"#utility.yul\":22948:22955   */\n      dup5\n        /* \"#utility.yul\":22939:22945   */\n      dup3\n        /* \"#utility.yul\":22928:22937   */\n      dup6\n        /* \"#utility.yul\":22924:22946   */\n      add\n        /* \"#utility.yul\":22893:22956   */\n      tag_424\n      jump\t// in\n    tag_684:\n        /* \"#utility.yul\":22883:22956   */\n      swap2\n      pop\n        /* \"#utility.yul\":22839:22966   */\n      pop\n        /* \"#utility.yul\":22624:22973   */\n      swap3\n      swap2\n      pop\n      pop\n      jump\t// out\n        /* \"#utility.yul\":22979:23120   */\n    tag_425:\n        /* \"#utility.yul\":23028:23032   */\n      0x00\n        /* \"#utility.yul\":23051:23054   */\n      dup2\n        /* \"#utility.yul\":23043:23054   */\n      swap1\n      pop\n        /* \"#utility.yul\":23074:23077   */\n      dup2\n        /* \"#utility.yul\":23071:23072   */\n      0x00\n        /* \"#utility.yul\":23064:23078   */\n      mstore\n        /* \"#utility.yul\":23108:23112   */\n      0x20\n        /* \"#utility.yul\":23105:23106   */\n      0x00\n        /* \"#utility.yul\":23095:23113   */\n      keccak256\n        /* \"#utility.yul\":23087:23113   */\n      swap1\n      pop\n        /* \"#utility.yul\":22979:23120   */\n      swap2\n      swap1\n      pop\n      jump\t// out\n        /* \"#utility.yul\":23126:23219   */\n    tag_426:\n        /* \"#utility.yul\":23163:23169   */\n      0x00\n        /* \"#utility.yul\":23210:23212   */\n      0x20\n        /* \"#utility.yul\":23205:23207   */\n      0x1f\n        /* \"#utility.yul\":23198:23203   */\n      dup4\n        /* \"#utility.yul\":23194:23208   */\n      add\n        /* \"#utility.yul\":23190:23213   */\n      div\n        /* \"#utility.yul\":23180:23213   */\n      swap1\n      pop\n        /* \"#utility.yul\":23126:23219   */\n      swap2\n      swap1\n      pop\n      jump\t// out\n        /* \"#utility.yul\":23225:23332   */\n    tag_427:\n        /* \"#utility.yul\":23269:23277   */\n      0x00\n        /* \"#utility.yul\":23319:23324   */\n      dup3\n        /* \"#utility.yul\":23313:23317   */\n      dup3\n        /* \"#utility.yul\":23309:23325   */\n      shl\n        /* \"#utility.yul\":23288:23325   */\n      swap1\n      pop\n        /* \"#utility.yul\":23225:23332   */\n      swap3\n      swap2\n      pop\n      pop\n      jump\t// out\n        /* \"#utility.yul\":23338:23731   */\n    tag_428:\n        /* \"#utility.yul\":23407:23413   */\n      0x00\n        /* \"#utility.yul\":23457:23458   */\n      0x08\n        /* \"#utility.yul\":23445:23455   */\n      dup4\n        /* \"#utility.yul\":23441:23459   */\n      mul\n        /* \"#utility.yul\":23480:23577   */\n      tag_689\n        /* \"#utility.yul\":23510:23576   */\n      0xffffffffffffffffffffffffffffffffffffffffffffffffffffffffffffffff\n        /* \"#utility.yul\":23499:23508   */\n      dup3\n        /* \"#utility.yul\":23480:23577   */\n      tag_427\n      jump\t// in\n    tag_689:\n        /* \"#utility.yul\":23598:23637   */\n      tag_690\n        /* \"#utility.yul\":23628:23636   */\n      dup7\n        /* \"#utility.yul\":23617:23626   */\n      dup4\n        /* \"#utility.yul\":23598:23637   */\n      tag_427\n      jump\t// in\n    tag_690:\n        /* \"#utility.yul\":23586:23637   */\n      swap6\n      pop\n        /* \"#utility.yul\":23670:23674   */\n      dup1\n        /* \"#utility.yul\":23666:23675   */\n      not\n        /* \"#utility.yul\":23659:23664   */\n      dup5\n        /* \"#utility.yul\":23655:23676   */\n      and\n        /* \"#utility.yul\":23646:23676   */\n      swap4\n      pop\n        /* \"#utility.yul\":23719:23723   */\n      dup1\n        /* \"#utility.yul\":23709:23717   */\n      dup7\n        /* \"#utility.yul\":23705:23724   */\n      and\n        /* \"#utility.yul\":23698:23703   */\n      dup5\n        /* \"#utility.yul\":23695:23725   */\n      or\n        /* \"#utility.yul\":23685:23725   */\n      swap3\n      pop\n        /* \"#utility.yul\":23414:23731   */\n      pop\n      pop\n        /* \"#utility.yul\":23338:23731   */\n      swap4\n      swap3\n      pop\n      pop\n      pop\n      jump\t// out\n        /* \"#utility.yul\":23737:23797   */\n    tag_429:\n        /* \"#utility.yul\":23765:23768   */\n      0x00\n        /* \"#utility.yul\":23786:23791   */\n      dup2\n        /* \"#utility.yul\":23779:23791   */\n      swap1\n      pop\n        /* \"#utility.yul\":23737:23797   */\n      swap2\n      swap1\n      pop\n      jump\t// out\n        /* \"#utility.yul\":23803:23945   */\n    tag_430:\n        /* \"#utility.yul\":23853:23862   */\n      0x00\n        /* \"#utility.yul\":23886:23939   */\n      tag_693\n        /* \"#utility.yul\":23904:23938   */\n      tag_694\n        /* \"#utility.yul\":23913:23937   */\n      tag_695\n        /* \"#utility.yul\":23931:23936   */\n      dup5\n        /* \"#utility.yul\":23913:23937   */\n      tag_371\n      jump\t// in\n    tag_695:\n        /* \"#utility.yul\":23904:23938   */\n      tag_429\n      jump\t// in\n    tag_694:\n        /* \"#utility.yul\":23886:23939   */\n      tag_371\n      jump\t// in\n    tag_693:\n        /* \"#utility.yul\":23873:23939   */\n      swap1\n      pop\n        /* \"#utility.yul\":23803:23945   */\n      swap2\n      swap1\n      pop\n      jump\t// out\n        /* \"#utility.yul\":23951:24026   */\n    tag_431:\n        /* \"#utility.yul\":23994:23997   */\n      0x00\n        /* \"#utility.yul\":24015:24020   */\n      dup2\n        /* \"#utility.yul\":24008:24020   */\n      swap1\n      pop\n        /* \"#utility.yul\":23951:24026   */\n      swap2\n      swap1\n      pop\n      jump\t// out\n        /* \"#utility.yul\":24032:24301   */\n    tag_432:\n        /* \"#utility.yul\":24142:24181   */\n      tag_698\n        /* \"#utility.yul\":24173:24180   */\n      dup4\n        /* \"#utility.yul\":24142:24181   */\n      tag_430\n      jump\t// in\n    tag_698:\n        /* \"#utility.yul\":24203:24294   */\n      tag_699\n        /* \"#utility.yul\":24252:24293   */\n      tag_700\n        /* \"#utility.yul\":24276:24292   */\n      dup3\n        /* \"#utility.yul\":24252:24293   */\n      tag_431\n      jump\t// in\n    tag_700:\n        /* \"#utility.yul\":24244:24250   */\n      dup5\n        /* \"#utility.yul\":24237:24241   */\n      dup5\n        /* \"#utility.yul\":24231:24242   */\n      sload\n        /* \"#utility.yul\":24203:24294   */\n      tag_428\n      jump\t// in\n    tag_699:\n        /* \"#utility.yul\":24197:24201   */\n      dup3\n        /* \"#utility.yul\":24190:24295   */\n      sstore\n        /* \"#utility.yul\":24108:24301   */\n      pop\n        /* \"#utility.yul\":24032:24301   */\n      pop\n      pop\n      pop\n      jump\t// out\n        /* \"#utility.yul\":24307:24380   */\n    tag_433:\n        /* \"#utility.yul\":24352:24355   */\n      0x00\n        /* \"#utility.yul\":24307:24380   */\n      swap1\n      jump\t// out\n        /* \"#utility.yul\":24386:24575   */\n    tag_434:\n        /* \"#utility.yul\":24463:24495   */\n      tag_703\n      tag_433\n      jump\t// in\n    tag_703:\n        /* \"#utility.yul\":24504:24569   */\n      tag_704\n        /* \"#utility.yul\":24562:24568   */\n      dup2\n        /* \"#utility.yul\":24554:24560   */\n      dup5\n        /* \"#utility.yul\":24548:24552   */\n      dup5\n        /* \"#utility.yul\":24504:24569   */\n      tag_432\n      jump\t// in\n    tag_704:\n        /* \"#utility.yul\":24439:24575   */\n      pop\n        /* \"#utility.yul\":24386:24575   */\n      pop\n      pop\n      jump\t// out\n        /* \"#utility.yul\":24581:24767   */\n    tag_435:\n        /* \"#utility.yul\":24641:24761   */\n    tag_706:\n        /* \"#utility.yul\":24658:24661   */\n      dup2\n        /* \"#utility.yul\":24651:24656   */\n      dup2\n        /* \"#utility.yul\":24648:24662   */\n      lt\n        /* \"#utility.yul\":24641:24761   */\n      iszero\n      tag_708\n      jumpi\n        /* \"#utility.yul\":24712:24751   */\n      tag_709\n        /* \"#utility.yul\":24749:24750   */\n      0x00\n        /* \"#utility.yul\":24742:24747   */\n      dup3\n        /* \"#utility.yul\":24712:24751   */\n      tag_434\n      jump\t// in\n    tag_709:\n        /* \"#utility.yul\":24685:24686   */\n      0x01\n        /* \"#utility.yul\":24678:24683   */\n      dup2\n        /* \"#utility.yul\":24674:24687   */\n      add\n        /* \"#utility.yul\":24665:24687   */\n      swap1\n      pop\n        /* \"#utility.yul\":24641:24761   */\n      jump(tag_706)\n    tag_708:\n        /* \"#utility.yul\":24581:24767   */\n      pop\n      pop\n      jump\t// out\n        /* \"#utility.yul\":24773:25316   */\n    tag_436:\n        /* \"#utility.yul\":24874:24876   */\n      0x1f\n        /* \"#utility.yul\":24869:24872   */\n      dup3\n        /* \"#utility.yul\":24866:24877   */\n      gt\n        /* \"#utility.yul\":24863:25309   */\n      iszero\n      tag_711\n      jumpi\n        /* \"#utility.yul\":24908:24946   */\n      tag_712\n        /* \"#utility.yul\":24940:24945   */\n      dup2\n        /* \"#utility.yul\":24908:24946   */\n      tag_425\n      jump\t// in\n    tag_712:\n        /* \"#utility.yul\":24992:25021   */\n      tag_713\n        /* \"#utility.yul\":25010:25020   */\n      dup5\n        /* \"#utility.yul\":24992:25021   */\n      tag_426\n      jump\t// in\n    tag_713:\n        /* \"#utility.yul\":24982:24990   */\n      dup2\n        /* \"#utility.yul\":24978:25022   */\n      add\n        /* \"#utility.yul\":25175:25177   */\n      0x20\n        /* \"#utility.yul\":25163:25173   */\n      dup6\n        /* \"#utility.yul\":25160:25178   */\n      lt\n        /* \"#utility.yul\":25157:25206   */\n      iszero\n      tag_714\n      jumpi\n        /* \"#utility.yul\":25196:25204   */\n      dup2\n        /* \"#utility.yul\":25181:25204   */\n      swap1\n      pop\n        /* \"#utility.yul\":25157:25206   */\n    tag_714:\n        /* \"#utility.yul\":25219:25299   */\n      tag_715\n        /* \"#utility.yul\":25275:25297   */\n      tag_716\n        /* \"#utility.yul\":25293:25296   */\n      dup6\n        /* \"#utility.yul\":25275:25297   */\n      tag_426\n      jump\t// in\n    tag_716:\n        /* \"#utility.yul\":25265:25273   */\n      dup4\n        /* \"#utility.yul\":25261:25298   */\n      add\n        /* \"#utility.yul\":25248:25259   */\n      dup3\n        /* \"#utility.yul\":25219:25299   */\n      tag_435\n      jump\t// in\n    tag_715:\n        /* \"#utility.yul\":24878:25309   */\n      pop\n      pop\n        /* \"#utility.yul\":24863:25309   */\n    tag_711:\n        /* \"#utility.yul\":24773:25316   */\n      pop\n      pop\n      pop\n      jump\t// out\n        /* \"#utility.yul\":25322:25439   */\n    tag_437:\n        /* \"#utility.yul\":25376:25384   */\n      0x00\n        /* \"#utility.yul\":25426:25431   */\n      dup3\n        /* \"#utility.yul\":25420:25424   */\n      dup3\n        /* \"#utility.yul\":25416:25432   */\n      shr\n        /* \"#utility.yul\":25395:25432   */\n      swap1\n      pop\n        /* \"#utility.yul\":25322:25439   */\n      swap3\n      swap2\n      pop\n      pop\n      jump\t// out\n        /* \"#utility.yul\":25445:25614   */\n    tag_438:\n        /* \"#utility.yul\":25489:25495   */\n      0x00\n        /* \"#utility.yul\":25522:25573   */\n      tag_719\n        /* \"#utility.yul\":25570:25571   */\n      0x00\n        /* \"#utility.yul\":25566:25572   */\n      not\n        /* \"#utility.yul\":25558:25563   */\n      dup5\n        /* \"#utility.yul\":25555:25556   */\n      0x08\n        /* \"#utility.yul\":25551:25564   */\n      mul\n        /* \"#utility.yul\":25522:25573   */\n      tag_437\n      jump\t// in\n    tag_719:\n        /* \"#utility.yul\":25518:25574   */\n      not\n        /* \"#utility.yul\":25603:25607   */\n      dup1\n        /* \"#utility.yul\":25597:25601   */\n      dup4\n        /* \"#utility.yul\":25593:25608   */\n      and\n        /* \"#utility.yul\":25583:25608   */\n      swap2\n      pop\n        /* \"#utility.yul\":25496:25614   */\n      pop\n        /* \"#utility.yul\":25445:25614   */\n      swap3\n      swap2\n      pop\n      pop\n      jump\t// out\n        /* \"#utility.yul\":25619:25914   */\n    tag_439:\n        /* \"#utility.yul\":25695:25699   */\n      0x00\n        /* \"#utility.yul\":25841:25870   */\n      tag_721\n        /* \"#utility.yul\":25866:25869   */\n      dup4\n        /* \"#utility.yul\":25860:25864   */\n      dup4\n        /* \"#utility.yul\":25841:25870   */\n      tag_438\n      jump\t// in\n    tag_721:\n        /* \"#utility.yul\":25833:25870   */\n      swap2\n      pop\n        /* \"#utility.yul\":25903:25906   */\n      dup3\n        /* \"#utility.yul\":25900:25901   */\n      0x02\n        /* \"#utility.yul\":25896:25907   */\n      mul\n        /* \"#utility.yul\":25890:25894   */\n      dup3\n        /* \"#utility.yul\":25887:25908   */\n      or\n        /* \"#utility.yul\":25879:25908   */\n      swap1\n      pop\n        /* \"#utility.yul\":25619:25914   */\n      swap3\n      swap2\n      pop\n      pop\n      jump\t// out\n        /* \"#utility.yul\":25919:27314   */\n    tag_306:\n        /* \"#utility.yul\":26036:26073   */\n      tag_723\n        /* \"#utility.yul\":26069:26072   */\n      dup3\n        /* \"#utility.yul\":26036:26073   */\n      tag_379\n      jump\t// in\n    tag_723:\n        /* \"#utility.yul\":26138:26156   */\n      0xffffffffffffffff\n        /* \"#utility.yul\":26130:26136   */\n      dup2\n        /* \"#utility.yul\":26127:26157   */\n      gt\n        /* \"#utility.yul\":26124:26180   */\n      iszero\n      tag_724\n      jumpi\n        /* \"#utility.yul\":26160:26178   */\n      tag_725\n      tag_334\n      jump\t// in\n    tag_725:\n        /* \"#utility.yul\":26124:26180   */\n    tag_724:\n        /* \"#utility.yul\":26204:26242   */\n      tag_726\n        /* \"#utility.yul\":26236:26240   */\n      dup3\n        /* \"#utility.yul\":26230:26241   */\n      sload\n        /* \"#utility.yul\":26204:26242   */\n      tag_134\n      jump\t// in\n    tag_726:\n        /* \"#utility.yul\":26289:26356   */\n      tag_727\n        /* \"#utility.yul\":26349:26355   */\n      dup3\n        /* \"#utility.yul\":26341:26347   */\n      dup3\n        /* \"#utility.yul\":26335:26339   */\n      dup6\n        /* \"#utility.yul\":26289:26356   */\n      tag_436\n      jump\t// in\n    tag_727:\n        /* \"#utility.yul\":26383:26384   */\n      0x00\n        /* \"#utility.yul\":26407:26411   */\n      0x20\n        /* \"#utility.yul\":26394:26411   */\n      swap1\n      pop\n        /* \"#utility.yul\":26439:26441   */\n      0x1f\n        /* \"#utility.yul\":26431:26437   */\n      dup4\n        /* \"#utility.yul\":26428:26442   */\n      gt\n        /* \"#utility.yul\":26456:26457   */\n      0x01\n        /* \"#utility.yul\":26451:27069   */\n      dup2\n      eq\n      tag_729\n      jumpi\n        /* \"#utility.yul\":27113:27114   */\n      0x00\n        /* \"#utility.yul\":27130:27136   */\n      dup5\n        /* \"#utility.yul\":27127:27204   */\n      iszero\n      tag_730\n      jumpi\n        /* \"#utility.yul\":27179:27188   */\n      dup3\n        /* \"#utility.yul\":27174:27177   */\n      dup8\n        /* \"#utility.yul\":27170:27189   */\n      add\n        /* \"#utility.yul\":27164:27190   */\n      mload\n        /* \"#utility.yul\":27155:27190   */\n      swap1\n      pop\n        /* \"#utility.yul\":27127:27204   */\n    tag_730:\n        /* \"#utility.yul\":27230:27297   */\n      tag_731\n        /* \"#utility.yul\":27290:27296   */\n      dup6\n        /* \"#utility.yul\":27283:27288   */\n      dup3\n        /* \"#utility.yul\":27230:27297   */\n      tag_439\n      jump\t// in\n    tag_731:\n        /* \"#utility.yul\":27224:27228   */\n      dup7\n        /* \"#utility.yul\":27217:27298   */\n      sstore\n        /* \"#utility.yul\":27086:27308   */\n      pop\n        /* \"#utility.yul\":26421:27308   */\n      jump(tag_728)\n        /* \"#utility.yul\":26451:27069   */\n    tag_729:\n        /* \"#utility.yul\":26503:26507   */\n      0x1f\n        /* \"#utility.yul\":26499:26508   */\n      not\n        /* \"#utility.yul\":26491:26497   */\n      dup5\n        /* \"#utility.yul\":26487:26509   */\n      and\n        /* \"#utility.yul\":26537:26574   */\n      tag_732\n        /* \"#utility.yul\":26569:26573   */\n      dup7\n        /* \"#utility.yul\":26537:26574   */\n      tag_425\n      jump\t// in\n    tag_732:\n        /* \"#utility.yul\":26596:26597   */\n      0x00\n        /* \"#utility.yul\":26610:26818   */\n    tag_733:\n        /* \"#utility.yul\":26624:26631   */\n      dup3\n        /* \"#utility.yul\":26621:26622   */\n      dup2\n        /* \"#utility.yul\":26618:26632   */\n      lt\n        /* \"#utility.yul\":26610:26818   */\n      iszero\n      tag_735\n      jumpi\n        /* \"#utility.yul\":26703:26712   */\n      dup5\n        /* \"#utility.yul\":26698:26701   */\n      dup10\n        /* \"#utility.yul\":26694:26713   */\n      add\n        /* \"#utility.yul\":26688:26714   */\n      mload\n        /* \"#utility.yul\":26680:26686   */\n      dup3\n        /* \"#utility.yul\":26673:26715   */\n      sstore\n        /* \"#utility.yul\":26754:26755   */\n      0x01\n        /* \"#utility.yul\":26746:26752   */\n      dup3\n        /* \"#utility.yul\":26742:26756   */\n      add\n        /* \"#utility.yul\":26732:26756   */\n      swap2\n      pop\n        /* \"#utility.yul\":26801:26803   */\n      0x20\n        /* \"#utility.yul\":26790:26799   */\n      dup6\n        /* \"#utility.yul\":26786:26804   */\n      add\n        /* \"#utility.yul\":26773:26804   */\n      swap5\n      pop\n        /* \"#utility.yul\":26647:26651   */\n      0x20\n        /* \"#utility.yul\":26644:26645   */\n      dup2\n        /* \"#utility.yul\":26640:26652   */\n      add\n        /* \"#utility.yul\":26635:26652   */\n      swap1\n      pop\n        /* \"#utility.yul\":26610:26818   */\n      jump(tag_733)\n    tag_735:\n        /* \"#utility.yul\":26846:26852   */\n      dup7\n        /* \"#utility.yul\":26837:26844   */\n      dup4\n        /* \"#utility.yul\":26834:26853   */\n      lt\n        /* \"#utility.yul\":26831:27010   */\n      iszero\n      tag_736\n      jumpi\n        /* \"#utility.yul\":26904:26913   */\n      dup5\n        /* \"#utility.yul\":26899:26902   */\n      dup10\n        /* \"#utility.yul\":26895:26914   */\n      add\n        /* \"#utility.yul\":26889:26915   */\n      mload\n        /* \"#utility.yul\":26947:26995   */\n      tag_737\n        /* \"#utility.yul\":26989:26993   */\n      0x1f\n        /* \"#utility.yul\":26981:26987   */\n      dup10\n        /* \"#utility.yul\":26977:26994   */\n      and\n        /* \"#utility.yul\":26966:26975   */\n      dup3\n        /* \"#utility.yul\":26947:26995   */\n      tag_438\n      jump\t// in\n    tag_737:\n        /* \"#utility.yul\":26939:26945   */\n      dup4\n        /* \"#utility.yul\":26932:26996   */\n      sstore\n        /* \"#utility.yul\":26854:27010   */\n      pop\n        /* \"#utility.yul\":26831:27010   */\n    tag_736:\n        /* \"#utility.yul\":27056:27057   */\n      0x01\n        /* \"#utility.yul\":27052:27053   */\n      0x02\n        /* \"#utility.yul\":27044:27050   */\n      dup9\n        /* \"#utility.yul\":27040:27054   */\n      mul\n        /* \"#utility.yul\":27036:27058   */\n      add\n        /* \"#utility.yul\":27030:27034   */\n      dup9\n        /* \"#utility.yul\":27023:27059   */\n      sstore\n        /* \"#utility.yul\":26458:27069   */\n      pop\n      pop\n      pop\n        /* \"#utility.yul\":26421:27308   */\n    tag_728:\n      pop\n        /* \"#utility.yul\":26011:27314   */\n      pop\n      pop\n      pop\n        /* \"#utility.yul\":25919:27314   */\n      pop\n      pop\n      jump\t// out\n        /* \"#utility.yul\":27320:27652   */\n    tag_328:\n        /* \"#utility.yul\":27441:27445   */\n      0x00\n        /* \"#utility.yul\":27479:27481   */\n      0x40\n        /* \"#utility.yul\":27468:27477   */\n      dup3\n        /* \"#utility.yul\":27464:27482   */\n      add\n        /* \"#utility.yul\":27456:27482   */\n      swap1\n      pop\n        /* \"#utility.yul\":27492:27563   */\n      tag_739\n        /* \"#utility.yul\":27560:27561   */\n      0x00\n        /* \"#utility.yul\":27549:27558   */\n      dup4\n        /* \"#utility.yul\":27545:27562   */\n      add\n        /* \"#utility.yul\":27536:27542   */\n      dup6\n        /* \"#utility.yul\":27492:27563   */\n      tag_386\n      jump\t// in\n    tag_739:\n        /* \"#utility.yul\":27573:27645   */\n      tag_740\n        /* \"#utility.yul\":27641:27643   */\n      0x20\n        /* \"#utility.yul\":27630:27639   */\n      dup4\n        /* \"#utility.yul\":27626:27644   */\n      add\n        /* \"#utility.yul\":27617:27623   */\n      dup5\n        /* \"#utility.yul\":27573:27645   */\n      tag_389\n      jump\t// in\n    tag_740:\n        /* \"#utility.yul\":27320:27652   */\n      swap4\n      swap3\n      pop\n      pop\n      pop\n      jump\t// out\n        /* \"#utility.yul\":27658:27838   */\n    tag_340:\n        /* \"#utility.yul\":27706:27783   */\n      0x4e487b7100000000000000000000000000000000000000000000000000000000\n        /* \"#utility.yul\":27703:27704   */\n      0x00\n        /* \"#utility.yul\":27696:27784   */\n      mstore\n        /* \"#utility.yul\":27803:27807   */\n      0x12\n        /* \"#utility.yul\":27800:27801   */\n      0x04\n        /* \"#utility.yul\":27793:27808   */\n      mstore\n        /* \"#utility.yul\":27827:27831   */\n      0x24\n        /* \"#utility.yul\":27824:27825   */\n      0x00\n        /* \"#utility.yul\":27817:27832   */\n      revert\n\n    auxdata: 0xa2646970667358221220c93e08c791640f8d8d2020ab9de6e8b46d8e713aad037d182ecd9db2e2b7528064736f6c63430008180033\n}\n",
				"bytecode": {
					"linkReferences": {},
					"object": "60806040523480156200001157600080fd5b506040518060400160405280601181526020017f4a6f624170706c69636174696f6e4e46540000000000000000000000000000008152506040518060400160405280600681526020017f4a4f42415050000000000000000000000000000000000000000000000000000081525081600090816200008f919062000324565b508060019081620000a1919062000324565b5050506200040b565b600081519050919050565b7f4e487b7100000000000000000000000000000000000000000000000000000000600052604160045260246000fd5b7f4e487b7100000000000000000000000000000000000000000000000000000000600052602260045260246000fd5b600060028204905060018216806200012c57607f821691505b602082108103620001425762000141620000e4565b5b50919050565b60008190508160005260206000209050919050565b60006020601f8301049050919050565b600082821b905092915050565b600060088302620001ac7fffffffffffffffffffffffffffffffffffffffffffffffffffffffffffffffff826200016d565b620001b886836200016d565b95508019841693508086168417925050509392505050565b6000819050919050565b6000819050919050565b600062000205620001ff620001f984620001d0565b620001da565b620001d0565b9050919050565b6000819050919050565b6200022183620001e4565b6200023962000230826200020c565b8484546200017a565b825550505050565b600090565b6200025062000241565b6200025d81848462000216565b505050565b5b8181101562000285576200027960008262000246565b60018101905062000263565b5050565b601f821115620002d4576200029e8162000148565b620002a9846200015d565b81016020851015620002b9578190505b620002d1620002c8856200015d565b83018262000262565b50505b505050565b600082821c905092915050565b6000620002f960001984600802620002d9565b1980831691505092915050565b6000620003148383620002e6565b9150826002028217905092915050565b6200032f82620000aa565b67ffffffffffffffff8111156200034b576200034a620000b5565b5b62000357825462000113565b6200036482828562000289565b600060209050601f8311600181146200039c576000841562000387578287015190505b62000393858262000306565b86555062000403565b601f198416620003ac8662000148565b60005b82811015620003d657848901518255600182019150602085019450602081019050620003af565b86831015620003f65784890151620003f2601f891682620002e6565b8355505b6001600288020188555050505b505050505050565b612cd4806200041b6000396000f3fe608060405234801561001057600080fd5b506004361061014c5760003560e01c806370a08231116100c3578063c87b56dd1161007c578063c87b56dd146103c1578063d0def521146103f1578063da69502a14610421578063e5dbb93414610451578063e985e9c514610481578063ffa0d809146104b15761014c565b806370a08231146102ed5780637e1c0c091461031d57806395d89b411461033b5780639e28f69e14610359578063a22cb46514610389578063b88d4fde146103a55761014c565b806318160ddd1161011557806318160ddd1461021b57806323b872dd1461023957806342842e0e1461025557806342966c68146102715780634f6ccce71461028d5780636352211e146102bd5761014c565b8062923f9e1461015157806301ffc9a71461018157806306fdde03146101b1578063081812fc146101cf578063095ea7b3146101ff575b600080fd5b61016b60048036038101906101669190611dd8565b6104e1565b6040516101789190611e20565b60405180910390f35b61019b60048036038101906101969190611e93565b61050b565b6040516101a89190611e20565b60405180910390f35b6101b961056c565b6040516101c69190611f50565b60405180910390f35b6101e960048036038101906101e49190611dd8565b6105fe565b6040516101f69190611fb3565b60405180910390f35b61021960048036038101906102149190611ffa565b61061a565b005b610223610630565b6040516102309190612049565b60405180910390f35b610253600480360381019061024e9190612064565b61063a565b005b61026f600480360381019061026a9190612064565b61073c565b005b61028b60048036038101906102869190611dd8565b61075c565b005b6102a760048036038101906102a29190611dd8565b6107b0565b6040516102b49190612049565b60405180910390f35b6102d760048036038101906102d29190611dd8565b610811565b6040516102e49190611fb3565b60405180910390f35b610307600480360381019061030291906120b7565b610823565b6040516103149190612049565b60405180910390f35b6103256108dd565b6040516103329190612049565b60405180910390f35b6103436108e3565b6040516103509190611f50565b60405180910390f35b610373600480360381019061036e9190611dd8565b610975565b60405161038091906120fd565b60405180910390f35b6103a3600480360381019061039e9190612144565b6109c8565b005b6103bf60048036038101906103ba91906122b9565b6109de565b005b6103db60048036038101906103d69190611dd8565b6109fb565b6040516103e89190611f50565b60405180910390f35b61040b6004803603810190610406919061239c565b610b0e565b6040516104189190612049565b60405180910390f35b61043b6004803603810190610436919061249d565b610cd2565b60405161044891906120fd565b60405180910390f35b61046b60048036038101906104669190612512565b610ce8565b6040516104789190611e20565b60405180910390f35b61049b60048036038101906104969190612552565b610d50565b6040516104a89190611e20565b60405180910390f35b6104cb60048036038101906104c69190611dd8565b610de4565b6040516104d891906120fd565b60405180910390f35b6000600a600083815260200190815260200160002060009054906101000a900460ff169050919050565b6000634906490660e01b7bffffffffffffffffffffffffffffffffffffffffffffffffffffffff1916827bffffffffffffffffffffffffffffffffffffffffffffffffffffffff19161480610565575061056482610dfc565b5b9050919050565b60606000805461057b906125c1565b80601f01602080910402602001604051908101604052809291908181526020018280546105a7906125c1565b80156105f45780601f106105c9576101008083540402835291602001916105f4565b820191906000526020600020905b8154815290600101906020018083116105d757829003601f168201915b5050505050905090565b600061060982610ede565b5061061382610f66565b9050919050565b61062c8282610627610fa3565b610fab565b5050565b6000600754905090565b600073ffffffffffffffffffffffffffffffffffffffff168273ffffffffffffffffffffffffffffffffffffffff16036106ac5760006040517f64a0ae920000000000000000000000000000000000000000000000000000000081526004016106a39190611fb3565b60405180910390fd5b60006106c083836106bb610fa3565b610fbd565b90508373ffffffffffffffffffffffffffffffffffffffff168173ffffffffffffffffffffffffffffffffffffffff1614610736578382826040517f64283d7b00000000000000000000000000000000000000000000000000000000815260040161072d939291906125f2565b60405180910390fd5b50505050565b610757838383604051806020016040528060008152506109de565b505050565b610765816104e1565b6107a4576040517f08c379a000000000000000000000000000000000000000000000000000000000815260040161079b90612675565b60405180910390fd5b6107ad816111d7565b50565b60006107bc600861125d565b82106107fd576040517f08c379a00000000000000000000000000000000000000000000000000000000081526004016107f4906126e1565b60405180910390fd5b60018261080a9190612730565b9050919050565b600061081c82610ede565b9050919050565b60008073ffffffffffffffffffffffffffffffffffffffff168273ffffffffffffffffffffffffffffffffffffffff16036108965760006040517f89c62b6400000000000000000000000000000000000000000000000000000000815260040161088d9190611fb3565b60405180910390fd5b600360008373ffffffffffffffffffffffffffffffffffffffff1673ffffffffffffffffffffffffffffffffffffffff168152602001908152602001600020549050919050565b60075481565b6060600180546108f2906125c1565b80601f016020809104026020016040519081016040528092919081815260200182805461091e906125c1565b801561096b5780601f106109405761010080835404028352916020019161096b565b820191906000526020600020905b81548152906001019060200180831161094e57829003601f168201915b5050505050905090565b6000610980826104e1565b6109bf576040517f08c379a00000000000000000000000000000000000000000000000000000000081526004016109b690612675565b60405180910390fd5b81409050919050565b6109da6109d3610fa3565b838361126b565b5050565b6109e984848461063a565b6109f5848484846113da565b50505050565b6060610a0682610ede565b506000600660008481526020019081526020016000208054610a27906125c1565b80601f0160208091040260200160405190810160405280929190818152602001828054610a53906125c1565b8015610aa05780601f10610a7557610100808354040283529160200191610aa0565b820191906000526020600020905b815481529060010190602001808311610a8357829003601f168201915b505050505090506000610ab1611591565b90506000815103610ac6578192505050610b09565b600082511115610afb578082604051602001610ae39291906127a0565b60405160208183030381529060405292505050610b09565b610b04846115a8565b925050505b919050565b6000808383905011610b55576040517f08c379a0000000000000000000000000000000000000000000000000000000008152600401610b4c90612810565b60405180910390fd5b610b5f6008611611565b6000610b6b600861125d565b9050610b778582611627565b610bc58185858080601f016020809104026020016040519081016040528093929190818152602001838380828437600081840152601f19601f82011690508083019250505050505050611720565b6001600a600083815260200190815260200160002060006101000a81548160ff0219169083151502179055506000610c4085858080601f016020809104026020016040519081016040528093929190818152602001838380828437600081840152601f19601f82011690508083019250505050505050610cd2565b90508060096000848152602001908152602001600020819055508573ffffffffffffffffffffffffffffffffffffffff167fcb4d488c9c856f58bf738fd4decd617b237b9923e4ddee8a9dbbd326d491423683878785604051610ca6949392919061285d565b60405180910390a260076000815480929190610cc19061289d565b919050555081925050509392505050565b6000808290508080519060200120915050919050565b6000610cf3836104e1565b610d32576040517f08c379a0000000000000000000000000000000000000000000000000000000008152600401610d2990612675565b60405180910390fd5b81600960008581526020019081526020016000205414905092915050565b6000600560008473ffffffffffffffffffffffffffffffffffffffff1673ffffffffffffffffffffffffffffffffffffffff16815260200190815260200160002060008373ffffffffffffffffffffffffffffffffffffffff1673ffffffffffffffffffffffffffffffffffffffff16815260200190815260200160002060009054906101000a900460ff16905092915050565b60096020528060005260406000206000915090505481565b60007f80ac58cd000000000000000000000000000000000000000000000000000000007bffffffffffffffffffffffffffffffffffffffffffffffffffffffff1916827bffffffffffffffffffffffffffffffffffffffffffffffffffffffff19161480610ec757507f5b5e139f000000000000000000000000000000000000000000000000000000007bffffffffffffffffffffffffffffffffffffffffffffffffffffffff1916827bffffffffffffffffffffffffffffffffffffffffffffffffffffffff1916145b80610ed75750610ed68261177c565b5b9050919050565b600080610eea836117e6565b9050600073ffffffffffffffffffffffffffffffffffffffff168173ffffffffffffffffffffffffffffffffffffffff1603610f5d57826040517f7e273289000000000000000000000000000000000000000000000000000000008152600401610f549190612049565b60405180910390fd5b80915050919050565b60006004600083815260200190815260200160002060009054906101000a900473ffffffffffffffffffffffffffffffffffffffff169050919050565b600033905090565b610fb88383836001611823565b505050565b600080610fc9846117e6565b9050600073ffffffffffffffffffffffffffffffffffffffff168373ffffffffffffffffffffffffffffffffffffffff161461100b5761100a8184866119e8565b5b600073ffffffffffffffffffffffffffffffffffffffff168173ffffffffffffffffffffffffffffffffffffffff161461109c5761104d600085600080611823565b6001600360008373ffffffffffffffffffffffffffffffffffffffff1673ffffffffffffffffffffffffffffffffffffffff168152602001908152602001600020600082825403925050819055505b600073ffffffffffffffffffffffffffffffffffffffff168573ffffffffffffffffffffffffffffffffffffffff161461111f576001600360008773ffffffffffffffffffffffffffffffffffffffff1673ffffffffffffffffffffffffffffffffffffffff168152602001908152602001600020600082825401925050819055505b846002600086815260200190815260200160002060006101000a81548173ffffffffffffffffffffffffffffffffffffffff021916908373ffffffffffffffffffffffffffffffffffffffff160217905550838573ffffffffffffffffffffffffffffffffffffffff168273ffffffffffffffffffffffffffffffffffffffff167fddf252ad1be2c89b69c2b068fc378daa952ba7f163c4a11628f55a4df523b3ef60405160405180910390a4809150509392505050565b60006111e66000836000610fbd565b9050600073ffffffffffffffffffffffffffffffffffffffff168173ffffffffffffffffffffffffffffffffffffffff160361125957816040517f7e2732890000000000000000000000000000000000000000000000000000000081526004016112509190612049565b60405180910390fd5b5050565b600081600001549050919050565b600073ffffffffffffffffffffffffffffffffffffffff168273ffffffffffffffffffffffffffffffffffffffff16036112dc57816040517f5b08ba180000000000000000000000000000000000000000000000000000000081526004016112d39190611fb3565b60405180910390fd5b80600560008573ffffffffffffffffffffffffffffffffffffffff1673ffffffffffffffffffffffffffffffffffffffff16815260200190815260200160002060008473ffffffffffffffffffffffffffffffffffffffff1673ffffffffffffffffffffffffffffffffffffffff16815260200190815260200160002060006101000a81548160ff0219169083151502179055508173ffffffffffffffffffffffffffffffffffffffff168373ffffffffffffffffffffffffffffffffffffffff167f17307eab39ab6107e8899845ad3d59bd9653f200f220920489ca2b5937696c31836040516113cd9190611e20565b60405180910390a3505050565b60008373ffffffffffffffffffffffffffffffffffffffff163b111561158b578273ffffffffffffffffffffffffffffffffffffffff1663150b7a0261141e610fa3565b8685856040518563ffffffff1660e01b8152600401611440949392919061293a565b6020604051808303816000875af192505050801561147c57506040513d601f19601f82011682018060405250810190611479919061299b565b60015b611500573d80600081146114ac576040519150601f19603f3d011682016040523d82523d6000602084013e6114b1565b606091505b5060008151036114f857836040517f64a0ae920000000000000000000000000000000000000000000000000000000081526004016114ef9190611fb3565b60405180910390fd5b805181602001fd5b63150b7a0260e01b7bffffffffffffffffffffffffffffffffffffffffffffffffffffffff1916817bffffffffffffffffffffffffffffffffffffffffffffffffffffffff19161461158957836040517f64a0ae920000000000000000000000000000000000000000000000000000000081526004016115809190611fb3565b60405180910390fd5b505b50505050565b606060405180602001604052806000815250905090565b60606115b382610ede565b5060006115be611591565b905060008151116115de5760405180602001604052806000815250611609565b806115e884611aac565b6040516020016115f99291906127a0565b6040516020818303038152906040525b915050919050565b6001816000016000828254019250508190555050565b600073ffffffffffffffffffffffffffffffffffffffff168273ffffffffffffffffffffffffffffffffffffffff16036116995760006040517f64a0ae920000000000000000000000000000000000000000000000000000000081526004016116909190611fb3565b60405180910390fd5b60006116a783836000610fbd565b9050600073ffffffffffffffffffffffffffffffffffffffff168173ffffffffffffffffffffffffffffffffffffffff161461171b5760006040517f73c6ac6e0000000000000000000000000000000000000000000000000000000081526004016117129190611fb3565b60405180910390fd5b505050565b806006600084815260200190815260200160002090816117409190612b74565b507ff8e1a15aba9398e019f0b49df1a4fde98ee17ae345cb5f6b5e2c27f5033e8ce7826040516117709190612049565b60405180910390a15050565b60007f01ffc9a7000000000000000000000000000000000000000000000000000000007bffffffffffffffffffffffffffffffffffffffffffffffffffffffff1916827bffffffffffffffffffffffffffffffffffffffffffffffffffffffff1916149050919050565b60006002600083815260200190815260200160002060009054906101000a900473ffffffffffffffffffffffffffffffffffffffff169050919050565b808061185c5750600073ffffffffffffffffffffffffffffffffffffffff168273ffffffffffffffffffffffffffffffffffffffff1614155b1561199057600061186c84610ede565b9050600073ffffffffffffffffffffffffffffffffffffffff168373ffffffffffffffffffffffffffffffffffffffff16141580156118d757508273ffffffffffffffffffffffffffffffffffffffff168173ffffffffffffffffffffffffffffffffffffffff1614155b80156118ea57506118e88184610d50565b155b1561192c57826040517fa9fbf51f0000000000000000000000000000000000000000000000000000000081526004016119239190611fb3565b60405180910390fd5b811561198e57838573ffffffffffffffffffffffffffffffffffffffff168273ffffffffffffffffffffffffffffffffffffffff167f8c5be1e5ebec7d5bd14f71427d1e84f3dd0314c0f7b2291e5b200ac8c7c3b92560405160405180910390a45b505b836004600085815260200190815260200160002060006101000a81548173ffffffffffffffffffffffffffffffffffffffff021916908373ffffffffffffffffffffffffffffffffffffffff16021790555050505050565b6119f3838383611b7a565b611aa757600073ffffffffffffffffffffffffffffffffffffffff168373ffffffffffffffffffffffffffffffffffffffff1603611a6857806040517f7e273289000000000000000000000000000000000000000000000000000000008152600401611a5f9190612049565b60405180910390fd5b81816040517f177e802f000000000000000000000000000000000000000000000000000000008152600401611a9e929190612c46565b60405180910390fd5b505050565b606060006001611abb84611c3b565b01905060008167ffffffffffffffff811115611ada57611ad961218e565b5b6040519080825280601f01601f191660200182016040528015611b0c5781602001600182028036833780820191505090505b509050600082602001820190505b600115611b6f578080600190039150507f3031323334353637383961626364656600000000000000000000000000000000600a86061a8153600a8581611b6357611b62612c6f565b5b04945060008503611b1a575b819350505050919050565b60008073ffffffffffffffffffffffffffffffffffffffff168373ffffffffffffffffffffffffffffffffffffffff1614158015611c3257508273ffffffffffffffffffffffffffffffffffffffff168473ffffffffffffffffffffffffffffffffffffffff161480611bf35750611bf28484610d50565b5b80611c3157508273ffffffffffffffffffffffffffffffffffffffff16611c1983610f66565b73ffffffffffffffffffffffffffffffffffffffff16145b5b90509392505050565b600080600090507a184f03e93ff9f4daa797ed6e38ed64bf6a1f0100000000000000008310611c99577a184f03e93ff9f4daa797ed6e38ed64bf6a1f0100000000000000008381611c8f57611c8e612c6f565b5b0492506040810190505b6d04ee2d6d415b85acef81000000008310611cd6576d04ee2d6d415b85acef81000000008381611ccc57611ccb612c6f565b5b0492506020810190505b662386f26fc100008310611d0557662386f26fc100008381611cfb57611cfa612c6f565b5b0492506010810190505b6305f5e1008310611d2e576305f5e1008381611d2457611d23612c6f565b5b0492506008810190505b6127108310611d53576127108381611d4957611d48612c6f565b5b0492506004810190505b60648310611d765760648381611d6c57611d6b612c6f565b5b0492506002810190505b600a8310611d85576001810190505b80915050919050565b6000604051905090565b600080fd5b600080fd5b6000819050919050565b611db581611da2565b8114611dc057600080fd5b50565b600081359050611dd281611dac565b92915050565b600060208284031215611dee57611ded611d98565b5b6000611dfc84828501611dc3565b91505092915050565b60008115159050919050565b611e1a81611e05565b82525050565b6000602082019050611e356000830184611e11565b92915050565b60007fffffffff0000000000000000000000000000000000000000000000000000000082169050919050565b611e7081611e3b565b8114611e7b57600080fd5b50565b600081359050611e8d81611e67565b92915050565b600060208284031215611ea957611ea8611d98565b5b6000611eb784828501611e7e565b91505092915050565b600081519050919050565b600082825260208201905092915050565b60005b83811015611efa578082015181840152602081019050611edf565b60008484015250505050565b6000601f19601f8301169050919050565b6000611f2282611ec0565b611f2c8185611ecb565b9350611f3c818560208601611edc565b611f4581611f06565b840191505092915050565b60006020820190508181036000830152611f6a8184611f17565b905092915050565b600073ffffffffffffffffffffffffffffffffffffffff82169050919050565b6000611f9d82611f72565b9050919050565b611fad81611f92565b82525050565b6000602082019050611fc86000830184611fa4565b92915050565b611fd781611f92565b8114611fe257600080fd5b50565b600081359050611ff481611fce565b92915050565b6000806040838503121561201157612010611d98565b5b600061201f85828601611fe5565b925050602061203085828601611dc3565b9150509250929050565b61204381611da2565b82525050565b600060208201905061205e600083018461203a565b92915050565b60008060006060848603121561207d5761207c611d98565b5b600061208b86828701611fe5565b935050602061209c86828701611fe5565b92505060406120ad86828701611dc3565b9150509250925092565b6000602082840312156120cd576120cc611d98565b5b60006120db84828501611fe5565b91505092915050565b6000819050919050565b6120f7816120e4565b82525050565b600060208201905061211260008301846120ee565b92915050565b61212181611e05565b811461212c57600080fd5b50565b60008135905061213e81612118565b92915050565b6000806040838503121561215b5761215a611d98565b5b600061216985828601611fe5565b925050602061217a8582860161212f565b9150509250929050565b600080fd5b600080fd5b7f4e487b7100000000000000000000000000000000000000000000000000000000600052604160045260246000fd5b6121c682611f06565b810181811067ffffffffffffffff821117156121e5576121e461218e565b5b80604052505050565b60006121f8611d8e565b905061220482826121bd565b919050565b600067ffffffffffffffff8211156122245761222361218e565b5b61222d82611f06565b9050602081019050919050565b82818337600083830152505050565b600061225c61225784612209565b6121ee565b90508281526020810184848401111561227857612277612189565b5b61228384828561223a565b509392505050565b600082601f8301126122a05761229f612184565b5b81356122b0848260208601612249565b91505092915050565b600080600080608085870312156122d3576122d2611d98565b5b60006122e187828801611fe5565b94505060206122f287828801611fe5565b935050604061230387828801611dc3565b925050606085013567ffffffffffffffff81111561232457612323611d9d565b5b6123308782880161228b565b91505092959194509250565b600080fd5b600080fd5b60008083601f84011261235c5761235b612184565b5b8235905067ffffffffffffffff8111156123795761237861233c565b5b60208301915083600182028301111561239557612394612341565b5b9250929050565b6000806000604084860312156123b5576123b4611d98565b5b60006123c386828701611fe5565b935050602084013567ffffffffffffffff8111156123e4576123e3611d9d565b5b6123f086828701612346565b92509250509250925092565b600067ffffffffffffffff8211156124175761241661218e565b5b61242082611f06565b9050602081019050919050565b600061244061243b846123fc565b6121ee565b90508281526020810184848401111561245c5761245b612189565b5b61246784828561223a565b509392505050565b600082601f83011261248457612483612184565b5b813561249484826020860161242d565b91505092915050565b6000602082840312156124b3576124b2611d98565b5b600082013567ffffffffffffffff8111156124d1576124d0611d9d565b5b6124dd8482850161246f565b91505092915050565b6124ef816120e4565b81146124fa57600080fd5b50565b60008135905061250c816124e6565b92915050565b6000806040838503121561252957612528611d98565b5b600061253785828601611dc3565b9250506020612548858286016124fd565b9150509250929050565b6000806040838503121561256957612568611d98565b5b600061257785828601611fe5565b925050602061258885828601611fe5565b9150509250929050565b7f4e487b7100000000000000000000000000000000000000000000000000000000600052602260045260246000fd5b600060028204905060018216806125d957607f821691505b6020821081036125ec576125eb612592565b5b50919050565b60006060820190506126076000830186611fa4565b612614602083018561203a565b6126216040830184611fa4565b949350505050565b7f546f6b656e20646f6573206e6f74206578697374000000000000000000000000600082015250565b600061265f601483611ecb565b915061266a82612629565b602082019050919050565b6000602082019050818103600083015261268e81612652565b9050919050565b7f496e646578206f7574206f6620626f756e647300000000000000000000000000600082015250565b60006126cb601383611ecb565b91506126d682612695565b602082019050919050565b600060208201905081810360008301526126fa816126be565b9050919050565b7f4e487b7100000000000000000000000000000000000000000000000000000000600052601160045260246000fd5b600061273b82611da2565b915061274683611da2565b925082820190508082111561275e5761275d612701565b5b92915050565b600081905092915050565b600061277a82611ec0565b6127848185612764565b9350612794818560208601611edc565b80840191505092915050565b60006127ac828561276f565b91506127b8828461276f565b91508190509392505050565b7f5552492063616e6e6f7420626520656d70747900000000000000000000000000600082015250565b60006127fa601383611ecb565b9150612805826127c4565b602082019050919050565b60006020820190508181036000830152612829816127ed565b9050919050565b600061283c8385611ecb565b935061284983858461223a565b61285283611f06565b840190509392505050565b6000606082019050612872600083018761203a565b8181036020830152612885818587612830565b905061289460408301846120ee565b95945050505050565b60006128a882611da2565b91507fffffffffffffffffffffffffffffffffffffffffffffffffffffffffffffffff82036128da576128d9612701565b5b600182019050919050565b600081519050919050565b600082825260208201905092915050565b600061290c826128e5565b61291681856128f0565b9350612926818560208601611edc565b61292f81611f06565b840191505092915050565b600060808201905061294f6000830187611fa4565b61295c6020830186611fa4565b612969604083018561203a565b818103606083015261297b8184612901565b905095945050505050565b60008151905061299581611e67565b92915050565b6000602082840312156129b1576129b0611d98565b5b60006129bf84828501612986565b91505092915050565b60008190508160005260206000209050919050565b60006020601f8301049050919050565b600082821b905092915050565b600060088302612a2a7fffffffffffffffffffffffffffffffffffffffffffffffffffffffffffffffff826129ed565b612a3486836129ed565b95508019841693508086168417925050509392505050565b6000819050919050565b6000612a71612a6c612a6784611da2565b612a4c565b611da2565b9050919050565b6000819050919050565b612a8b83612a56565b612a9f612a9782612a78565b8484546129fa565b825550505050565b600090565b612ab4612aa7565b612abf818484612a82565b505050565b5b81811015612ae357612ad8600082612aac565b600181019050612ac5565b5050565b601f821115612b2857612af9816129c8565b612b02846129dd565b81016020851015612b11578190505b612b25612b1d856129dd565b830182612ac4565b50505b505050565b600082821c905092915050565b6000612b4b60001984600802612b2d565b1980831691505092915050565b6000612b648383612b3a565b9150826002028217905092915050565b612b7d82611ec0565b67ffffffffffffffff811115612b9657612b9561218e565b5b612ba082546125c1565b612bab828285612ae7565b600060209050601f831160018114612bde5760008415612bcc578287015190505b612bd68582612b58565b865550612c3e565b601f198416612bec866129c8565b60005b82811015612c1457848901518255600182019150602085019450602081019050612bef565b86831015612c315784890151612c2d601f891682612b3a565b8355505b6001600288020188555050505b505050505050565b6000604082019050612c5b6000830185611fa4565b612c68602083018461203a565b9392505050565b7f4e487b7100000000000000000000000000000000000000000000000000000000600052601260045260246000fdfea2646970667358221220c93e08c791640f8d8d2020ab9de6e8b46d8e713aad037d182ecd9db2e2b7528064736f6c63430008180033",
					"opcodes": "PUSH1 0x80 PUSH1 0x40 MSTORE CALLVALUE DUP1 ISZERO PUSH3 0x11 JUMPI PUSH1 0x0 DUP1 REVERT JUMPDEST POP PUSH1 0x40 MLOAD DUP1 PUSH1 0x40 ADD PUSH1 0x40 MSTORE DUP1 PUSH1 0x11 DUP2 MSTORE PUSH1 0x20 ADD PUSH32 0x4A6F624170706C69636174696F6E4E4654000000000000000000000000000000 DUP2 MSTORE POP PUSH1 0x40 MLOAD DUP1 PUSH1 0x40 ADD PUSH1 0x40 MSTORE DUP1 PUSH1 0x6 DUP2 MSTORE PUSH1 0x20 ADD PUSH32 0x4A4F424150500000000000000000000000000000000000000000000000000000 DUP2 MSTORE POP DUP2 PUSH1 0x0 SWAP1 DUP2 PUSH3 0x8F SWAP2 SWAP1 PUSH3 0x324 JUMP JUMPDEST POP DUP1 PUSH1 0x1 SWAP1 DUP2 PUSH3 0xA1 SWAP2 SWAP1 PUSH3 0x324 JUMP JUMPDEST POP POP POP PUSH3 0x40B JUMP JUMPDEST PUSH1 0x0 DUP2 MLOAD SWAP1 POP SWAP2 SWAP1 POP JUMP JUMPDEST PUSH32 0x4E487B7100000000000000000000000000000000000000000000000000000000 PUSH1 0x0 MSTORE PUSH1 0x41 PUSH1 0x4 MSTORE PUSH1 0x24 PUSH1 0x0 REVERT JUMPDEST PUSH32 0x4E487B7100000000000000000000000000000000000000000000000000000000 PUSH1 0x0 MSTORE PUSH1 0x22 PUSH1 0x4 MSTORE PUSH1 0x24 PUSH1 0x0 REVERT JUMPDEST PUSH1 0x0 PUSH1 0x2 DUP3 DIV SWAP1 POP PUSH1 0x1 DUP3 AND DUP1 PUSH3 0x12C JUMPI PUSH1 0x7F DUP3 AND SWAP2 POP JUMPDEST PUSH1 0x20 DUP3 LT DUP2 SUB PUSH3 0x142 JUMPI PUSH3 0x141 PUSH3 0xE4 JUMP JUMPDEST JUMPDEST POP SWAP2 SWAP1 POP JUMP JUMPDEST PUSH1 0x0 DUP2 SWAP1 POP DUP2 PUSH1 0x0 MSTORE PUSH1 0x20 PUSH1 0x0 KECCAK256 SWAP1 POP SWAP2 SWAP1 POP JUMP JUMPDEST PUSH1 0x0 PUSH1 0x20 PUSH1 0x1F DUP4 ADD DIV SWAP1 POP SWAP2 SWAP1 POP JUMP JUMPDEST PUSH1 0x0 DUP3 DUP3 SHL SWAP1 POP SWAP3 SWAP2 POP POP JUMP JUMPDEST PUSH1 0x0 PUSH1 0x8 DUP4 MUL PUSH3 0x1AC PUSH32 0xFFFFFFFFFFFFFFFFFFFFFFFFFFFFFFFFFFFFFFFFFFFFFFFFFFFFFFFFFFFFFFFF DUP3 PUSH3 0x16D JUMP JUMPDEST PUSH3 0x1B8 DUP7 DUP4 PUSH3 0x16D JUMP JUMPDEST SWAP6 POP DUP1 NOT DUP5 AND SWAP4 POP DUP1 DUP7 AND DUP5 OR SWAP3 POP POP POP SWAP4 SWAP3 POP POP POP JUMP JUMPDEST PUSH1 0x0 DUP2 SWAP1 POP SWAP2 SWAP1 POP JUMP JUMPDEST PUSH1 0x0 DUP2 SWAP1 POP SWAP2 SWAP1 POP JUMP JUMPDEST PUSH1 0x0 PUSH3 0x205 PUSH3 0x1FF PUSH3 0x1F9 DUP5 PUSH3 0x1D0 JUMP JUMPDEST PUSH3 0x1DA JUMP JUMPDEST PUSH3 0x1D0 JUMP JUMPDEST SWAP1 POP SWAP2 SWAP1 POP JUMP JUMPDEST PUSH1 0x0 DUP2 SWAP1 POP SWAP2 SWAP1 POP JUMP JUMPDEST PUSH3 0x221 DUP4 PUSH3 0x1E4 JUMP JUMPDEST PUSH3 0x239 PUSH3 0x230 DUP3 PUSH3 0x20C JUMP JUMPDEST DUP5 DUP5 SLOAD PUSH3 0x17A JUMP JUMPDEST DUP3 SSTORE POP POP POP POP JUMP JUMPDEST PUSH1 0x0 SWAP1 JUMP JUMPDEST PUSH3 0x250 PUSH3 0x241 JUMP JUMPDEST PUSH3 0x25D DUP2 DUP5 DUP5 PUSH3 0x216 JUMP JUMPDEST POP POP POP JUMP JUMPDEST JUMPDEST DUP2 DUP2 LT ISZERO PUSH3 0x285 JUMPI PUSH3 0x279 PUSH1 0x0 DUP3 PUSH3 0x246 JUMP JUMPDEST PUSH1 0x1 DUP2 ADD SWAP1 POP PUSH3 0x263 JUMP JUMPDEST POP POP JUMP JUMPDEST PUSH1 0x1F DUP3 GT ISZERO PUSH3 0x2D4 JUMPI PUSH3 0x29E DUP2 PUSH3 0x148 JUMP JUMPDEST PUSH3 0x2A9 DUP5 PUSH3 0x15D JUMP JUMPDEST DUP2 ADD PUSH1 0x20 DUP6 LT ISZERO PUSH3 0x2B9 JUMPI DUP2 SWAP1 POP JUMPDEST PUSH3 0x2D1 PUSH3 0x2C8 DUP6 PUSH3 0x15D JUMP JUMPDEST DUP4 ADD DUP3 PUSH3 0x262 JUMP JUMPDEST POP POP JUMPDEST POP POP POP JUMP JUMPDEST PUSH1 0x0 DUP3 DUP3 SHR SWAP1 POP SWAP3 SWAP2 POP POP JUMP JUMPDEST PUSH1 0x0 PUSH3 0x2F9 PUSH1 0x0 NOT DUP5 PUSH1 0x8 MUL PUSH3 0x2D9 JUMP JUMPDEST NOT DUP1 DUP4 AND SWAP2 POP POP SWAP3 SWAP2 POP POP JUMP JUMPDEST PUSH1 0x0 PUSH3 0x314 DUP4 DUP4 PUSH3 0x2E6 JUMP JUMPDEST SWAP2 POP DUP3 PUSH1 0x2 MUL DUP3 OR SWAP1 POP SWAP3 SWAP2 POP POP JUMP JUMPDEST PUSH3 0x32F DUP3 PUSH3 0xAA JUMP JUMPDEST PUSH8 0xFFFFFFFFFFFFFFFF DUP2 GT ISZERO PUSH3 0x34B JUMPI PUSH3 0x34A PUSH3 0xB5 JUMP JUMPDEST JUMPDEST PUSH3 0x357 DUP3 SLOAD PUSH3 0x113 JUMP JUMPDEST PUSH3 0x364 DUP3 DUP3 DUP6 PUSH3 0x289 JUMP JUMPDEST PUSH1 0x0 PUSH1 0x20 SWAP1 POP PUSH1 0x1F DUP4 GT PUSH1 0x1 DUP2 EQ PUSH3 0x39C JUMPI PUSH1 0x0 DUP5 ISZERO PUSH3 0x387 JUMPI DUP3 DUP8 ADD MLOAD SWAP1 POP JUMPDEST PUSH3 0x393 DUP6 DUP3 PUSH3 0x306 JUMP JUMPDEST DUP7 SSTORE POP PUSH3 0x403 JUMP JUMPDEST PUSH1 0x1F NOT DUP5 AND PUSH3 0x3AC DUP7 PUSH3 0x148 JUMP JUMPDEST PUSH1 0x0 JUMPDEST DUP3 DUP2 LT ISZERO PUSH3 0x3D6 JUMPI DUP5 DUP10 ADD MLOAD DUP3 SSTORE PUSH1 0x1 DUP3 ADD SWAP2 POP PUSH1 0x20 DUP6 ADD SWAP5 POP PUSH1 0x20 DUP2 ADD SWAP1 POP PUSH3 0x3AF JUMP JUMPDEST DUP7 DUP4 LT ISZERO PUSH3 0x3F6 JUMPI DUP5 DUP10 ADD MLOAD PUSH3 0x3F2 PUSH1 0x1F DUP10 AND DUP3 PUSH3 0x2E6 JUMP JUMPDEST DUP4 SSTORE POP JUMPDEST PUSH1 0x1 PUSH1 0x2 DUP9 MUL ADD DUP9 SSTORE POP POP POP JUMPDEST POP POP POP POP POP POP JUMP JUMPDEST PUSH2 0x2CD4 DUP1 PUSH3 0x41B PUSH1 0x0 CODECOPY PUSH1 0x0 RETURN INVALID PUSH1 0x80 PUSH1 0x40 MSTORE CALLVALUE DUP1 ISZERO PUSH2 0x10 JUMPI PUSH1 0x0 DUP1 REVERT JUMPDEST POP PUSH1 0x4 CALLDATASIZE LT PUSH2 0x14C JUMPI PUSH1 0x0 CALLDATALOAD PUSH1 0xE0 SHR DUP1 PUSH4 0x70A08231 GT PUSH2 0xC3 JUMPI DUP1 PUSH4 0xC87B56DD GT PUSH2 0x7C JUMPI DUP1 PUSH4 0xC87B56DD EQ PUSH2 0x3C1 JUMPI DUP1 PUSH4 0xD0DEF521 EQ PUSH2 0x3F1 JUMPI DUP1 PUSH4 0xDA69502A EQ PUSH2 0x421 JUMPI DUP1 PUSH4 0xE5DBB934 EQ PUSH2 0x451 JUMPI DUP1 PUSH4 0xE985E9C5 EQ PUSH2 0x481 JUMPI DUP1 PUSH4 0xFFA0D809 EQ PUSH2 0x4B1 JUMPI PUSH2 0x14C JUMP JUMPDEST DUP1 PUSH4 0x70A08231 EQ PUSH2 0x2ED JUMPI DUP1 PUSH4 0x7E1C0C09 EQ PUSH2 0x31D JUMPI DUP1 PUSH4 0x95D89B41 EQ PUSH2 0x33B JUMPI DUP1 PUSH4 0x9E28F69E EQ PUSH2 0x359 JUMPI DUP1 PUSH4 0xA22CB465 EQ PUSH2 0x389 JUMPI DUP1 PUSH4 0xB88D4FDE EQ PUSH2 0x3A5 JUMPI PUSH2 0x14C JUMP JUMPDEST DUP1 PUSH4 0x18160DDD GT PUSH2 0x115 JUMPI DUP1 PUSH4 0x18160DDD EQ PUSH2 0x21B JUMPI DUP1 PUSH4 0x23B872DD EQ PUSH2 0x239 JUMPI DUP1 PUSH4 0x42842E0E EQ PUSH2 0x255 JUMPI DUP1 PUSH4 0x42966C68 EQ PUSH2 0x271 JUMPI DUP1 PUSH4 0x4F6CCCE7 EQ PUSH2 0x28D JUMPI DUP1 PUSH4 0x6352211E EQ PUSH2 0x2BD JUMPI PUSH2 0x14C JUMP JUMPDEST DUP1 PUSH3 0x923F9E EQ PUSH2 0x151 JUMPI DUP1 PUSH4 0x1FFC9A7 EQ PUSH2 0x181 JUMPI DUP1 PUSH4 0x6FDDE03 EQ PUSH2 0x1B1 JUMPI DUP1 PUSH4 0x81812FC EQ PUSH2 0x1CF JUMPI DUP1 PUSH4 0x95EA7B3 EQ PUSH2 0x1FF JUMPI JUMPDEST PUSH1 0x0 DUP1 REVERT JUMPDEST PUSH2 0x16B PUSH1 0x4 DUP1 CALLDATASIZE SUB DUP2 ADD SWAP1 PUSH2 0x166 SWAP2 SWAP1 PUSH2 0x1DD8 JUMP JUMPDEST PUSH2 0x4E1 JUMP JUMPDEST PUSH1 0x40 MLOAD PUSH2 0x178 SWAP2 SWAP1 PUSH2 0x1E20 JUMP JUMPDEST PUSH1 0x40 MLOAD DUP1 SWAP2 SUB SWAP1 RETURN JUMPDEST PUSH2 0x19B PUSH1 0x4 DUP1 CALLDATASIZE SUB DUP2 ADD SWAP1 PUSH2 0x196 SWAP2 SWAP1 PUSH2 0x1E93 JUMP JUMPDEST PUSH2 0x50B JUMP JUMPDEST PUSH1 0x40 MLOAD PUSH2 0x1A8 SWAP2 SWAP1 PUSH2 0x1E20 JUMP JUMPDEST PUSH1 0x40 MLOAD DUP1 SWAP2 SUB SWAP1 RETURN JUMPDEST PUSH2 0x1B9 PUSH2 0x56C JUMP JUMPDEST PUSH1 0x40 MLOAD PUSH2 0x1C6 SWAP2 SWAP1 PUSH2 0x1F50 JUMP JUMPDEST PUSH1 0x40 MLOAD DUP1 SWAP2 SUB SWAP1 RETURN JUMPDEST PUSH2 0x1E9 PUSH1 0x4 DUP1 CALLDATASIZE SUB DUP2 ADD SWAP1 PUSH2 0x1E4 SWAP2 SWAP1 PUSH2 0x1DD8 JUMP JUMPDEST PUSH2 0x5FE JUMP JUMPDEST PUSH1 0x40 MLOAD PUSH2 0x1F6 SWAP2 SWAP1 PUSH2 0x1FB3 JUMP JUMPDEST PUSH1 0x40 MLOAD DUP1 SWAP2 SUB SWAP1 RETURN JUMPDEST PUSH2 0x219 PUSH1 0x4 DUP1 CALLDATASIZE SUB DUP2 ADD SWAP1 PUSH2 0x214 SWAP2 SWAP1 PUSH2 0x1FFA JUMP JUMPDEST PUSH2 0x61A JUMP JUMPDEST STOP JUMPDEST PUSH2 0x223 PUSH2 0x630 JUMP JUMPDEST PUSH1 0x40 MLOAD PUSH2 0x230 SWAP2 SWAP1 PUSH2 0x2049 JUMP JUMPDEST PUSH1 0x40 MLOAD DUP1 SWAP2 SUB SWAP1 RETURN JUMPDEST PUSH2 0x253 PUSH1 0x4 DUP1 CALLDATASIZE SUB DUP2 ADD SWAP1 PUSH2 0x24E SWAP2 SWAP1 PUSH2 0x2064 JUMP JUMPDEST PUSH2 0x63A JUMP JUMPDEST STOP JUMPDEST PUSH2 0x26F PUSH1 0x4 DUP1 CALLDATASIZE SUB DUP2 ADD SWAP1 PUSH2 0x26A SWAP2 SWAP1 PUSH2 0x2064 JUMP JUMPDEST PUSH2 0x73C JUMP JUMPDEST STOP JUMPDEST PUSH2 0x28B PUSH1 0x4 DUP1 CALLDATASIZE SUB DUP2 ADD SWAP1 PUSH2 0x286 SWAP2 SWAP1 PUSH2 0x1DD8 JUMP JUMPDEST PUSH2 0x75C JUMP JUMPDEST STOP JUMPDEST PUSH2 0x2A7 PUSH1 0x4 DUP1 CALLDATASIZE SUB DUP2 ADD SWAP1 PUSH2 0x2A2 SWAP2 SWAP1 PUSH2 0x1DD8 JUMP JUMPDEST PUSH2 0x7B0 JUMP JUMPDEST PUSH1 0x40 MLOAD PUSH2 0x2B4 SWAP2 SWAP1 PUSH2 0x2049 JUMP JUMPDEST PUSH1 0x40 MLOAD DUP1 SWAP2 SUB SWAP1 RETURN JUMPDEST PUSH2 0x2D7 PUSH1 0x4 DUP1 CALLDATASIZE SUB DUP2 ADD SWAP1 PUSH2 0x2D2 SWAP2 SWAP1 PUSH2 0x1DD8 JUMP JUMPDEST PUSH2 0x811 JUMP JUMPDEST PUSH1 0x40 MLOAD PUSH2 0x2E4 SWAP2 SWAP1 PUSH2 0x1FB3 JUMP JUMPDEST PUSH1 0x40 MLOAD DUP1 SWAP2 SUB SWAP1 RETURN JUMPDEST PUSH2 0x307 PUSH1 0x4 DUP1 CALLDATASIZE SUB DUP2 ADD SWAP1 PUSH2 0x302 SWAP2 SWAP1 PUSH2 0x20B7 JUMP JUMPDEST PUSH2 0x823 JUMP JUMPDEST PUSH1 0x40 MLOAD PUSH2 0x314 SWAP2 SWAP1 PUSH2 0x2049 JUMP JUMPDEST PUSH1 0x40 MLOAD DUP1 SWAP2 SUB SWAP1 RETURN JUMPDEST PUSH2 0x325 PUSH2 0x8DD JUMP JUMPDEST PUSH1 0x40 MLOAD PUSH2 0x332 SWAP2 SWAP1 PUSH2 0x2049 JUMP JUMPDEST PUSH1 0x40 MLOAD DUP1 SWAP2 SUB SWAP1 RETURN JUMPDEST PUSH2 0x343 PUSH2 0x8E3 JUMP JUMPDEST PUSH1 0x40 MLOAD PUSH2 0x350 SWAP2 SWAP1 PUSH2 0x1F50 JUMP JUMPDEST PUSH1 0x40 MLOAD DUP1 SWAP2 SUB SWAP1 RETURN JUMPDEST PUSH2 0x373 PUSH1 0x4 DUP1 CALLDATASIZE SUB DUP2 ADD SWAP1 PUSH2 0x36E SWAP2 SWAP1 PUSH2 0x1DD8 JUMP JUMPDEST PUSH2 0x975 JUMP JUMPDEST PUSH1 0x40 MLOAD PUSH2 0x380 SWAP2 SWAP1 PUSH2 0x20FD JUMP JUMPDEST PUSH1 0x40 MLOAD DUP1 SWAP2 SUB SWAP1 RETURN JUMPDEST PUSH2 0x3A3 PUSH1 0x4 DUP1 CALLDATASIZE SUB DUP2 ADD SWAP1 PUSH2 0x39E SWAP2 SWAP1 PUSH2 0x2144 JUMP JUMPDEST PUSH2 0x9C8 JUMP JUMPDEST STOP JUMPDEST PUSH2 0x3BF PUSH1 0x4 DUP1 CALLDATASIZE SUB DUP2 ADD SWAP1 PUSH2 0x3BA SWAP2 SWAP1 PUSH2 0x22B9 JUMP JUMPDEST PUSH2 0x9DE JUMP JUMPDEST STOP JUMPDEST PUSH2 0x3DB PUSH1 0x4 DUP1 CALLDATASIZE SUB DUP2 ADD SWAP1 PUSH2 0x3D6 SWAP2 SWAP1 PUSH2 0x1DD8 JUMP JUMPDEST PUSH2 0x9FB JUMP JUMPDEST PUSH1 0x40 MLOAD PUSH2 0x3E8 SWAP2 SWAP1 PUSH2 0x1F50 JUMP JUMPDEST PUSH1 0x40 MLOAD DUP1 SWAP2 SUB SWAP1 RETURN JUMPDEST PUSH2 0x40B PUSH1 0x4 DUP1 CALLDATASIZE SUB DUP2 ADD SWAP1 PUSH2 0x406 SWAP2 SWAP1 PUSH2 0x239C JUMP JUMPDEST PUSH2 0xB0E JUMP JUMPDEST PUSH1 0x40 MLOAD PUSH2 0x418 SWAP2 SWAP1 PUSH2 0x2049 JUMP JUMPDEST PUSH1 0x40 MLOAD DUP1 SWAP2 SUB SWAP1 RETURN JUMPDEST PUSH2 0x43B PUSH1 0x4 DUP1 CALLDATASIZE SUB DUP2 ADD SWAP1 PUSH2 0x436 SWAP2 SWAP1 PUSH2 0x249D JUMP JUMPDEST PUSH2 0xCD2 JUMP JUMPDEST PUSH1 0x40 MLOAD PUSH2 0x448 SWAP2 SWAP1 PUSH2 0x20FD JUMP JUMPDEST PUSH1 0x40 MLOAD DUP1 SWAP2 SUB SWAP1 RETURN JUMPDEST PUSH2 0x46B PUSH1 0x4 DUP1 CALLDATASIZE SUB DUP2 ADD SWAP1 PUSH2 0x466 SWAP2 SWAP1 PUSH2 0x2512 JUMP JUMPDEST PUSH2 0xCE8 JUMP JUMPDEST PUSH1 0x40 MLOAD PUSH2 0x478 SWAP2 SWAP1 PUSH2 0x1E20 JUMP JUMPDEST PUSH1 0x40 MLOAD DUP1 SWAP2 SUB SWAP1 RETURN JUMPDEST PUSH2 0x49B PUSH1 0x4 DUP1 CALLDATASIZE SUB DUP2 ADD SWAP1 PUSH2 0x496 SWAP2 SWAP1 PUSH2 0x2552 JUMP JUMPDEST PUSH2 0xD50 JUMP JUMPDEST PUSH1 0x40 MLOAD PUSH2 0x4A8 SWAP2 SWAP1 PUSH2 0x1E20 JUMP JUMPDEST PUSH1 0x40 MLOAD DUP1 SWAP2 SUB SWAP1 RETURN JUMPDEST PUSH2 0x4CB PUSH1 0x4 DUP1 CALLDATASIZE SUB DUP2 ADD SWAP1 PUSH2 0x4C6 SWAP2 SWAP1 PUSH2 0x1DD8 JUMP JUMPDEST PUSH2 0xDE4 JUMP JUMPDEST PUSH1 0x40 MLOAD PUSH2 0x4D8 SWAP2 SWAP1 PUSH2 0x20FD JUMP JUMPDEST PUSH1 0x40 MLOAD DUP1 SWAP2 SUB SWAP1 RETURN JUMPDEST PUSH1 0x0 PUSH1 0xA PUSH1 0x0 DUP4 DUP2 MSTORE PUSH1 0x20 ADD SWAP1 DUP2 MSTORE PUSH1 0x20 ADD PUSH1 0x0 KECCAK256 PUSH1 0x0 SWAP1 SLOAD SWAP1 PUSH2 0x100 EXP SWAP1 DIV PUSH1 0xFF AND SWAP1 POP SWAP2 SWAP1 POP JUMP JUMPDEST PUSH1 0x0 PUSH4 0x49064906 PUSH1 0xE0 SHL PUSH28 0xFFFFFFFFFFFFFFFFFFFFFFFFFFFFFFFFFFFFFFFFFFFFFFFFFFFFFFFF NOT AND DUP3 PUSH28 0xFFFFFFFFFFFFFFFFFFFFFFFFFFFFFFFFFFFFFFFFFFFFFFFFFFFFFFFF NOT AND EQ DUP1 PUSH2 0x565 JUMPI POP PUSH2 0x564 DUP3 PUSH2 0xDFC JUMP JUMPDEST JUMPDEST SWAP1 POP SWAP2 SWAP1 POP JUMP JUMPDEST PUSH1 0x60 PUSH1 0x0 DUP1 SLOAD PUSH2 0x57B SWAP1 PUSH2 0x25C1 JUMP JUMPDEST DUP1 PUSH1 0x1F ADD PUSH1 0x20 DUP1 SWAP2 DIV MUL PUSH1 0x20 ADD PUSH1 0x40 MLOAD SWAP1 DUP2 ADD PUSH1 0x40 MSTORE DUP1 SWAP3 SWAP2 SWAP1 DUP2 DUP2 MSTORE PUSH1 0x20 ADD DUP3 DUP1 SLOAD PUSH2 0x5A7 SWAP1 PUSH2 0x25C1 JUMP JUMPDEST DUP1 ISZERO PUSH2 0x5F4 JUMPI DUP1 PUSH1 0x1F LT PUSH2 0x5C9 JUMPI PUSH2 0x100 DUP1 DUP4 SLOAD DIV MUL DUP4 MSTORE SWAP2 PUSH1 0x20 ADD SWAP2 PUSH2 0x5F4 JUMP JUMPDEST DUP3 ADD SWAP2 SWAP1 PUSH1 0x0 MSTORE PUSH1 0x20 PUSH1 0x0 KECCAK256 SWAP1 JUMPDEST DUP2 SLOAD DUP2 MSTORE SWAP1 PUSH1 0x1 ADD SWAP1 PUSH1 0x20 ADD DUP1 DUP4 GT PUSH2 0x5D7 JUMPI DUP3 SWAP1 SUB PUSH1 0x1F AND DUP3 ADD SWAP2 JUMPDEST POP POP POP POP POP SWAP1 POP SWAP1 JUMP JUMPDEST PUSH1 0x0 PUSH2 0x609 DUP3 PUSH2 0xEDE JUMP JUMPDEST POP PUSH2 0x613 DUP3 PUSH2 0xF66 JUMP JUMPDEST SWAP1 POP SWAP2 SWAP1 POP JUMP JUMPDEST PUSH2 0x62C DUP3 DUP3 PUSH2 0x627 PUSH2 0xFA3 JUMP JUMPDEST PUSH2 0xFAB JUMP JUMPDEST POP POP JUMP JUMPDEST PUSH1 0x0 PUSH1 0x7 SLOAD SWAP1 POP SWAP1 JUMP JUMPDEST PUSH1 0x0 PUSH20 0xFFFFFFFFFFFFFFFFFFFFFFFFFFFFFFFFFFFFFFFF AND DUP3 PUSH20 0xFFFFFFFFFFFFFFFFFFFFFFFFFFFFFFFFFFFFFFFF AND SUB PUSH2 0x6AC JUMPI PUSH1 0x0 PUSH1 0x40 MLOAD PUSH32 0x64A0AE9200000000000000000000000000000000000000000000000000000000 DUP2 MSTORE PUSH1 0x4 ADD PUSH2 0x6A3 SWAP2 SWAP1 PUSH2 0x1FB3 JUMP JUMPDEST PUSH1 0x40 MLOAD DUP1 SWAP2 SUB SWAP1 REVERT JUMPDEST PUSH1 0x0 PUSH2 0x6C0 DUP4 DUP4 PUSH2 0x6BB PUSH2 0xFA3 JUMP JUMPDEST PUSH2 0xFBD JUMP JUMPDEST SWAP1 POP DUP4 PUSH20 0xFFFFFFFFFFFFFFFFFFFFFFFFFFFFFFFFFFFFFFFF AND DUP2 PUSH20 0xFFFFFFFFFFFFFFFFFFFFFFFFFFFFFFFFFFFFFFFF AND EQ PUSH2 0x736 JUMPI DUP4 DUP3 DUP3 PUSH1 0x40 MLOAD PUSH32 0x64283D7B00000000000000000000000000000000000000000000000000000000 DUP2 MSTORE PUSH1 0x4 ADD PUSH2 0x72D SWAP4 SWAP3 SWAP2 SWAP1 PUSH2 0x25F2 JUMP JUMPDEST PUSH1 0x40 MLOAD DUP1 SWAP2 SUB SWAP1 REVERT JUMPDEST POP POP POP POP JUMP JUMPDEST PUSH2 0x757 DUP4 DUP4 DUP4 PUSH1 0x40 MLOAD DUP1 PUSH1 0x20 ADD PUSH1 0x40 MSTORE DUP1 PUSH1 0x0 DUP2 MSTORE POP PUSH2 0x9DE JUMP JUMPDEST POP POP POP JUMP JUMPDEST PUSH2 0x765 DUP2 PUSH2 0x4E1 JUMP JUMPDEST PUSH2 0x7A4 JUMPI PUSH1 0x40 MLOAD PUSH32 0x8C379A000000000000000000000000000000000000000000000000000000000 DUP2 MSTORE PUSH1 0x4 ADD PUSH2 0x79B SWAP1 PUSH2 0x2675 JUMP JUMPDEST PUSH1 0x40 MLOAD DUP1 SWAP2 SUB SWAP1 REVERT JUMPDEST PUSH2 0x7AD DUP2 PUSH2 0x11D7 JUMP JUMPDEST POP JUMP JUMPDEST PUSH1 0x0 PUSH2 0x7BC PUSH1 0x8 PUSH2 0x125D JUMP JUMPDEST DUP3 LT PUSH2 0x7FD JUMPI PUSH1 0x40 MLOAD PUSH32 0x8C379A000000000000000000000000000000000000000000000000000000000 DUP2 MSTORE PUSH1 0x4 ADD PUSH2 0x7F4 SWAP1 PUSH2 0x26E1 JUMP JUMPDEST PUSH1 0x40 MLOAD DUP1 SWAP2 SUB SWAP1 REVERT JUMPDEST PUSH1 0x1 DUP3 PUSH2 0x80A SWAP2 SWAP1 PUSH2 0x2730 JUMP JUMPDEST SWAP1 POP SWAP2 SWAP1 POP JUMP JUMPDEST PUSH1 0x0 PUSH2 0x81C DUP3 PUSH2 0xEDE JUMP JUMPDEST SWAP1 POP SWAP2 SWAP1 POP JUMP JUMPDEST PUSH1 0x0 DUP1 PUSH20 0xFFFFFFFFFFFFFFFFFFFFFFFFFFFFFFFFFFFFFFFF AND DUP3 PUSH20 0xFFFFFFFFFFFFFFFFFFFFFFFFFFFFFFFFFFFFFFFF AND SUB PUSH2 0x896 JUMPI PUSH1 0x0 PUSH1 0x40 MLOAD PUSH32 0x89C62B6400000000000000000000000000000000000000000000000000000000 DUP2 MSTORE PUSH1 0x4 ADD PUSH2 0x88D SWAP2 SWAP1 PUSH2 0x1FB3 JUMP JUMPDEST PUSH1 0x40 MLOAD DUP1 SWAP2 SUB SWAP1 REVERT JUMPDEST PUSH1 0x3 PUSH1 0x0 DUP4 PUSH20 0xFFFFFFFFFFFFFFFFFFFFFFFFFFFFFFFFFFFFFFFF AND PUSH20 0xFFFFFFFFFFFFFFFFFFFFFFFFFFFFFFFFFFFFFFFF AND DUP2 MSTORE PUSH1 0x20 ADD SWAP1 DUP2 MSTORE PUSH1 0x20 ADD PUSH1 0x0 KECCAK256 SLOAD SWAP1 POP SWAP2 SWAP1 POP JUMP JUMPDEST PUSH1 0x7 SLOAD DUP2 JUMP JUMPDEST PUSH1 0x60 PUSH1 0x1 DUP1 SLOAD PUSH2 0x8F2 SWAP1 PUSH2 0x25C1 JUMP JUMPDEST DUP1 PUSH1 0x1F ADD PUSH1 0x20 DUP1 SWAP2 DIV MUL PUSH1 0x20 ADD PUSH1 0x40 MLOAD SWAP1 DUP2 ADD PUSH1 0x40 MSTORE DUP1 SWAP3 SWAP2 SWAP1 DUP2 DUP2 MSTORE PUSH1 0x20 ADD DUP3 DUP1 SLOAD PUSH2 0x91E SWAP1 PUSH2 0x25C1 JUMP JUMPDEST DUP1 ISZERO PUSH2 0x96B JUMPI DUP1 PUSH1 0x1F LT PUSH2 0x940 JUMPI PUSH2 0x100 DUP1 DUP4 SLOAD DIV MUL DUP4 MSTORE SWAP2 PUSH1 0x20 ADD SWAP2 PUSH2 0x96B JUMP JUMPDEST DUP3 ADD SWAP2 SWAP1 PUSH1 0x0 MSTORE PUSH1 0x20 PUSH1 0x0 KECCAK256 SWAP1 JUMPDEST DUP2 SLOAD DUP2 MSTORE SWAP1 PUSH1 0x1 ADD SWAP1 PUSH1 0x20 ADD DUP1 DUP4 GT PUSH2 0x94E JUMPI DUP3 SWAP1 SUB PUSH1 0x1F AND DUP3 ADD SWAP2 JUMPDEST POP POP POP POP POP SWAP1 POP SWAP1 JUMP JUMPDEST PUSH1 0x0 PUSH2 0x980 DUP3 PUSH2 0x4E1 JUMP JUMPDEST PUSH2 0x9BF JUMPI PUSH1 0x40 MLOAD PUSH32 0x8C379A000000000000000000000000000000000000000000000000000000000 DUP2 MSTORE PUSH1 0x4 ADD PUSH2 0x9B6 SWAP1 PUSH2 0x2675 JUMP JUMPDEST PUSH1 0x40 MLOAD DUP1 SWAP2 SUB SWAP1 REVERT JUMPDEST DUP2 BLOCKHASH SWAP1 POP SWAP2 SWAP1 POP JUMP JUMPDEST PUSH2 0x9DA PUSH2 0x9D3 PUSH2 0xFA3 JUMP JUMPDEST DUP4 DUP4 PUSH2 0x126B JUMP JUMPDEST POP POP JUMP JUMPDEST PUSH2 0x9E9 DUP5 DUP5 DUP5 PUSH2 0x63A JUMP JUMPDEST PUSH2 0x9F5 DUP5 DUP5 DUP5 DUP5 PUSH2 0x13DA JUMP JUMPDEST POP POP POP POP JUMP JUMPDEST PUSH1 0x60 PUSH2 0xA06 DUP3 PUSH2 0xEDE JUMP JUMPDEST POP PUSH1 0x0 PUSH1 0x6 PUSH1 0x0 DUP5 DUP2 MSTORE PUSH1 0x20 ADD SWAP1 DUP2 MSTORE PUSH1 0x20 ADD PUSH1 0x0 KECCAK256 DUP1 SLOAD PUSH2 0xA27 SWAP1 PUSH2 0x25C1 JUMP JUMPDEST DUP1 PUSH1 0x1F ADD PUSH1 0x20 DUP1 SWAP2 DIV MUL PUSH1 0x20 ADD PUSH1 0x40 MLOAD SWAP1 DUP2 ADD PUSH1 0x40 MSTORE DUP1 SWAP3 SWAP2 SWAP1 DUP2 DUP2 MSTORE PUSH1 0x20 ADD DUP3 DUP1 SLOAD PUSH2 0xA53 SWAP1 PUSH2 0x25C1 JUMP JUMPDEST DUP1 ISZERO PUSH2 0xAA0 JUMPI DUP1 PUSH1 0x1F LT PUSH2 0xA75 JUMPI PUSH2 0x100 DUP1 DUP4 SLOAD DIV MUL DUP4 MSTORE SWAP2 PUSH1 0x20 ADD SWAP2 PUSH2 0xAA0 JUMP JUMPDEST DUP3 ADD SWAP2 SWAP1 PUSH1 0x0 MSTORE PUSH1 0x20 PUSH1 0x0 KECCAK256 SWAP1 JUMPDEST DUP2 SLOAD DUP2 MSTORE SWAP1 PUSH1 0x1 ADD SWAP1 PUSH1 0x20 ADD DUP1 DUP4 GT PUSH2 0xA83 JUMPI DUP3 SWAP1 SUB PUSH1 0x1F AND DUP3 ADD SWAP2 JUMPDEST POP POP POP POP POP SWAP1 POP PUSH1 0x0 PUSH2 0xAB1 PUSH2 0x1591 JUMP JUMPDEST SWAP1 POP PUSH1 0x0 DUP2 MLOAD SUB PUSH2 0xAC6 JUMPI DUP2 SWAP3 POP POP POP PUSH2 0xB09 JUMP JUMPDEST PUSH1 0x0 DUP3 MLOAD GT ISZERO PUSH2 0xAFB JUMPI DUP1 DUP3 PUSH1 0x40 MLOAD PUSH1 0x20 ADD PUSH2 0xAE3 SWAP3 SWAP2 SWAP1 PUSH2 0x27A0 JUMP JUMPDEST PUSH1 0x40 MLOAD PUSH1 0x20 DUP2 DUP4 SUB SUB DUP2 MSTORE SWAP1 PUSH1 0x40 MSTORE SWAP3 POP POP POP PUSH2 0xB09 JUMP JUMPDEST PUSH2 0xB04 DUP5 PUSH2 0x15A8 JUMP JUMPDEST SWAP3 POP POP POP JUMPDEST SWAP2 SWAP1 POP JUMP JUMPDEST PUSH1 0x0 DUP1 DUP4 DUP4 SWAP1 POP GT PUSH2 0xB55 JUMPI PUSH1 0x40 MLOAD PUSH32 0x8C379A000000000000000000000000000000000000000000000000000000000 DUP2 MSTORE PUSH1 0x4 ADD PUSH2 0xB4C SWAP1 PUSH2 0x2810 JUMP JUMPDEST PUSH1 0x40 MLOAD DUP1 SWAP2 SUB SWAP1 REVERT JUMPDEST PUSH2 0xB5F PUSH1 0x8 PUSH2 0x1611 JUMP JUMPDEST PUSH1 0x0 PUSH2 0xB6B PUSH1 0x8 PUSH2 0x125D JUMP JUMPDEST SWAP1 POP PUSH2 0xB77 DUP6 DUP3 PUSH2 0x1627 JUMP JUMPDEST PUSH2 0xBC5 DUP2 DUP6 DUP6 DUP1 DUP1 PUSH1 0x1F ADD PUSH1 0x20 DUP1 SWAP2 DIV MUL PUSH1 0x20 ADD PUSH1 0x40 MLOAD SWAP1 DUP2 ADD PUSH1 0x40 MSTORE DUP1 SWAP4 SWAP3 SWAP2 SWAP1 DUP2 DUP2 MSTORE PUSH1 0x20 ADD DUP4 DUP4 DUP1 DUP3 DUP5 CALLDATACOPY PUSH1 0x0 DUP2 DUP5 ADD MSTORE PUSH1 0x1F NOT PUSH1 0x1F DUP3 ADD AND SWAP1 POP DUP1 DUP4 ADD SWAP3 POP POP POP POP POP POP POP PUSH2 0x1720 JUMP JUMPDEST PUSH1 0x1 PUSH1 0xA PUSH1 0x0 DUP4 DUP2 MSTORE PUSH1 0x20 ADD SWAP1 DUP2 MSTORE PUSH1 0x20 ADD PUSH1 0x0 KECCAK256 PUSH1 0x0 PUSH2 0x100 EXP DUP2 SLOAD DUP2 PUSH1 0xFF MUL NOT AND SWAP1 DUP4 ISZERO ISZERO MUL OR SWAP1 SSTORE POP PUSH1 0x0 PUSH2 0xC40 DUP6 DUP6 DUP1 DUP1 PUSH1 0x1F ADD PUSH1 0x20 DUP1 SWAP2 DIV MUL PUSH1 0x20 ADD PUSH1 0x40 MLOAD SWAP1 DUP2 ADD PUSH1 0x40 MSTORE DUP1 SWAP4 SWAP3 SWAP2 SWAP1 DUP2 DUP2 MSTORE PUSH1 0x20 ADD DUP4 DUP4 DUP1 DUP3 DUP5 CALLDATACOPY PUSH1 0x0 DUP2 DUP5 ADD MSTORE PUSH1 0x1F NOT PUSH1 0x1F DUP3 ADD AND SWAP1 POP DUP1 DUP4 ADD SWAP3 POP POP POP POP POP POP POP PUSH2 0xCD2 JUMP JUMPDEST SWAP1 POP DUP1 PUSH1 0x9 PUSH1 0x0 DUP5 DUP2 MSTORE PUSH1 0x20 ADD SWAP1 DUP2 MSTORE PUSH1 0x20 ADD PUSH1 0x0 KECCAK256 DUP2 SWAP1 SSTORE POP DUP6 PUSH20 0xFFFFFFFFFFFFFFFFFFFFFFFFFFFFFFFFFFFFFFFF AND PUSH32 0xCB4D488C9C856F58BF738FD4DECD617B237B9923E4DDEE8A9DBBD326D4914236 DUP4 DUP8 DUP8 DUP6 PUSH1 0x40 MLOAD PUSH2 0xCA6 SWAP5 SWAP4 SWAP3 SWAP2 SWAP1 PUSH2 0x285D JUMP JUMPDEST PUSH1 0x40 MLOAD DUP1 SWAP2 SUB SWAP1 LOG2 PUSH1 0x7 PUSH1 0x0 DUP2 SLOAD DUP1 SWAP3 SWAP2 SWAP1 PUSH2 0xCC1 SWAP1 PUSH2 0x289D JUMP JUMPDEST SWAP2 SWAP1 POP SSTORE POP DUP2 SWAP3 POP POP POP SWAP4 SWAP3 POP POP POP JUMP JUMPDEST PUSH1 0x0 DUP1 DUP3 SWAP1 POP DUP1 DUP1 MLOAD SWAP1 PUSH1 0x20 ADD KECCAK256 SWAP2 POP POP SWAP2 SWAP1 POP JUMP JUMPDEST PUSH1 0x0 PUSH2 0xCF3 DUP4 PUSH2 0x4E1 JUMP JUMPDEST PUSH2 0xD32 JUMPI PUSH1 0x40 MLOAD PUSH32 0x8C379A000000000000000000000000000000000000000000000000000000000 DUP2 MSTORE PUSH1 0x4 ADD PUSH2 0xD29 SWAP1 PUSH2 0x2675 JUMP JUMPDEST PUSH1 0x40 MLOAD DUP1 SWAP2 SUB SWAP1 REVERT JUMPDEST DUP2 PUSH1 0x9 PUSH1 0x0 DUP6 DUP2 MSTORE PUSH1 0x20 ADD SWAP1 DUP2 MSTORE PUSH1 0x20 ADD PUSH1 0x0 KECCAK256 SLOAD EQ SWAP1 POP SWAP3 SWAP2 POP POP JUMP JUMPDEST PUSH1 0x0 PUSH1 0x5 PUSH1 0x0 DUP5 PUSH20 0xFFFFFFFFFFFFFFFFFFFFFFFFFFFFFFFFFFFFFFFF AND PUSH20 0xFFFFFFFFFFFFFFFFFFFFFFFFFFFFFFFFFFFFFFFF AND DUP2 MSTORE PUSH1 0x20 ADD SWAP1 DUP2 MSTORE PUSH1 0x20 ADD PUSH1 0x0 KECCAK256 PUSH1 0x0 DUP4 PUSH20 0xFFFFFFFFFFFFFFFFFFFFFFFFFFFFFFFFFFFFFFFF AND PUSH20 0xFFFFFFFFFFFFFFFFFFFFFFFFFFFFFFFFFFFFFFFF AND DUP2 MSTORE PUSH1 0x20 ADD SWAP1 DUP2 MSTORE PUSH1 0x20 ADD PUSH1 0x0 KECCAK256 PUSH1 0x0 SWAP1 SLOAD SWAP1 PUSH2 0x100 EXP SWAP1 DIV PUSH1 0xFF AND SWAP1 POP SWAP3 SWAP2 POP POP JUMP JUMPDEST PUSH1 0x9 PUSH1 0x20 MSTORE DUP1 PUSH1 0x0 MSTORE PUSH1 0x40 PUSH1 0x0 KECCAK256 PUSH1 0x0 SWAP2 POP SWAP1 POP SLOAD DUP2 JUMP JUMPDEST PUSH1 0x0 PUSH32 0x80AC58CD00000000000000000000000000000000000000000000000000000000 PUSH28 0xFFFFFFFFFFFFFFFFFFFFFFFFFFFFFFFFFFFFFFFFFFFFFFFFFFFFFFFF NOT AND DUP3 PUSH28 0xFFFFFFFFFFFFFFFFFFFFFFFFFFFFFFFFFFFFFFFFFFFFFFFFFFFFFFFF NOT AND EQ DUP1 PUSH2 0xEC7 JUMPI POP PUSH32 0x5B5E139F00000000000000000000000000000000000000000000000000000000 PUSH28 0xFFFFFFFFFFFFFFFFFFFFFFFFFFFFFFFFFFFFFFFFFFFFFFFFFFFFFFFF NOT AND DUP3 PUSH28 0xFFFFFFFFFFFFFFFFFFFFFFFFFFFFFFFFFFFFFFFFFFFFFFFFFFFFFFFF NOT AND EQ JUMPDEST DUP1 PUSH2 0xED7 JUMPI POP PUSH2 0xED6 DUP3 PUSH2 0x177C JUMP JUMPDEST JUMPDEST SWAP1 POP SWAP2 SWAP1 POP JUMP JUMPDEST PUSH1 0x0 DUP1 PUSH2 0xEEA DUP4 PUSH2 0x17E6 JUMP JUMPDEST SWAP1 POP PUSH1 0x0 PUSH20 0xFFFFFFFFFFFFFFFFFFFFFFFFFFFFFFFFFFFFFFFF AND DUP2 PUSH20 0xFFFFFFFFFFFFFFFFFFFFFFFFFFFFFFFFFFFFFFFF AND SUB PUSH2 0xF5D JUMPI DUP3 PUSH1 0x40 MLOAD PUSH32 0x7E27328900000000000000000000000000000000000000000000000000000000 DUP2 MSTORE PUSH1 0x4 ADD PUSH2 0xF54 SWAP2 SWAP1 PUSH2 0x2049 JUMP JUMPDEST PUSH1 0x40 MLOAD DUP1 SWAP2 SUB SWAP1 REVERT JUMPDEST DUP1 SWAP2 POP POP SWAP2 SWAP1 POP JUMP JUMPDEST PUSH1 0x0 PUSH1 0x4 PUSH1 0x0 DUP4 DUP2 MSTORE PUSH1 0x20 ADD SWAP1 DUP2 MSTORE PUSH1 0x20 ADD PUSH1 0x0 KECCAK256 PUSH1 0x0 SWAP1 SLOAD SWAP1 PUSH2 0x100 EXP SWAP1 DIV PUSH20 0xFFFFFFFFFFFFFFFFFFFFFFFFFFFFFFFFFFFFFFFF AND SWAP1 POP SWAP2 SWAP1 POP JUMP JUMPDEST PUSH1 0x0 CALLER SWAP1 POP SWAP1 JUMP JUMPDEST PUSH2 0xFB8 DUP4 DUP4 DUP4 PUSH1 0x1 PUSH2 0x1823 JUMP JUMPDEST POP POP POP JUMP JUMPDEST PUSH1 0x0 DUP1 PUSH2 0xFC9 DUP5 PUSH2 0x17E6 JUMP JUMPDEST SWAP1 POP PUSH1 0x0 PUSH20 0xFFFFFFFFFFFFFFFFFFFFFFFFFFFFFFFFFFFFFFFF AND DUP4 PUSH20 0xFFFFFFFFFFFFFFFFFFFFFFFFFFFFFFFFFFFFFFFF AND EQ PUSH2 0x100B JUMPI PUSH2 0x100A DUP2 DUP5 DUP7 PUSH2 0x19E8 JUMP JUMPDEST JUMPDEST PUSH1 0x0 PUSH20 0xFFFFFFFFFFFFFFFFFFFFFFFFFFFFFFFFFFFFFFFF AND DUP2 PUSH20 0xFFFFFFFFFFFFFFFFFFFFFFFFFFFFFFFFFFFFFFFF AND EQ PUSH2 0x109C JUMPI PUSH2 0x104D PUSH1 0x0 DUP6 PUSH1 0x0 DUP1 PUSH2 0x1823 JUMP JUMPDEST PUSH1 0x1 PUSH1 0x3 PUSH1 0x0 DUP4 PUSH20 0xFFFFFFFFFFFFFFFFFFFFFFFFFFFFFFFFFFFFFFFF AND PUSH20 0xFFFFFFFFFFFFFFFFFFFFFFFFFFFFFFFFFFFFFFFF AND DUP2 MSTORE PUSH1 0x20 ADD SWAP1 DUP2 MSTORE PUSH1 0x20 ADD PUSH1 0x0 KECCAK256 PUSH1 0x0 DUP3 DUP3 SLOAD SUB SWAP3 POP POP DUP2 SWAP1 SSTORE POP JUMPDEST PUSH1 0x0 PUSH20 0xFFFFFFFFFFFFFFFFFFFFFFFFFFFFFFFFFFFFFFFF AND DUP6 PUSH20 0xFFFFFFFFFFFFFFFFFFFFFFFFFFFFFFFFFFFFFFFF AND EQ PUSH2 0x111F JUMPI PUSH1 0x1 PUSH1 0x3 PUSH1 0x0 DUP8 PUSH20 0xFFFFFFFFFFFFFFFFFFFFFFFFFFFFFFFFFFFFFFFF AND PUSH20 0xFFFFFFFFFFFFFFFFFFFFFFFFFFFFFFFFFFFFFFFF AND DUP2 MSTORE PUSH1 0x20 ADD SWAP1 DUP2 MSTORE PUSH1 0x20 ADD PUSH1 0x0 KECCAK256 PUSH1 0x0 DUP3 DUP3 SLOAD ADD SWAP3 POP POP DUP2 SWAP1 SSTORE POP JUMPDEST DUP5 PUSH1 0x2 PUSH1 0x0 DUP7 DUP2 MSTORE PUSH1 0x20 ADD SWAP1 DUP2 MSTORE PUSH1 0x20 ADD PUSH1 0x0 KECCAK256 PUSH1 0x0 PUSH2 0x100 EXP DUP2 SLOAD DUP2 PUSH20 0xFFFFFFFFFFFFFFFFFFFFFFFFFFFFFFFFFFFFFFFF MUL NOT AND SWAP1 DUP4 PUSH20 0xFFFFFFFFFFFFFFFFFFFFFFFFFFFFFFFFFFFFFFFF AND MUL OR SWAP1 SSTORE POP DUP4 DUP6 PUSH20 0xFFFFFFFFFFFFFFFFFFFFFFFFFFFFFFFFFFFFFFFF AND DUP3 PUSH20 0xFFFFFFFFFFFFFFFFFFFFFFFFFFFFFFFFFFFFFFFF AND PUSH32 0xDDF252AD1BE2C89B69C2B068FC378DAA952BA7F163C4A11628F55A4DF523B3EF PUSH1 0x40 MLOAD PUSH1 0x40 MLOAD DUP1 SWAP2 SUB SWAP1 LOG4 DUP1 SWAP2 POP POP SWAP4 SWAP3 POP POP POP JUMP JUMPDEST PUSH1 0x0 PUSH2 0x11E6 PUSH1 0x0 DUP4 PUSH1 0x0 PUSH2 0xFBD JUMP JUMPDEST SWAP1 POP PUSH1 0x0 PUSH20 0xFFFFFFFFFFFFFFFFFFFFFFFFFFFFFFFFFFFFFFFF AND DUP2 PUSH20 0xFFFFFFFFFFFFFFFFFFFFFFFFFFFFFFFFFFFFFFFF AND SUB PUSH2 0x1259 JUMPI DUP2 PUSH1 0x40 MLOAD PUSH32 0x7E27328900000000000000000000000000000000000000000000000000000000 DUP2 MSTORE PUSH1 0x4 ADD PUSH2 0x1250 SWAP2 SWAP1 PUSH2 0x2049 JUMP JUMPDEST PUSH1 0x40 MLOAD DUP1 SWAP2 SUB SWAP1 REVERT JUMPDEST POP POP JUMP JUMPDEST PUSH1 0x0 DUP2 PUSH1 0x0 ADD SLOAD SWAP1 POP SWAP2 SWAP1 POP JUMP JUMPDEST PUSH1 0x0 PUSH20 0xFFFFFFFFFFFFFFFFFFFFFFFFFFFFFFFFFFFFFFFF AND DUP3 PUSH20 0xFFFFFFFFFFFFFFFFFFFFFFFFFFFFFFFFFFFFFFFF AND SUB PUSH2 0x12DC JUMPI DUP2 PUSH1 0x40 MLOAD PUSH32 0x5B08BA1800000000000000000000000000000000000000000000000000000000 DUP2 MSTORE PUSH1 0x4 ADD PUSH2 0x12D3 SWAP2 SWAP1 PUSH2 0x1FB3 JUMP JUMPDEST PUSH1 0x40 MLOAD DUP1 SWAP2 SUB SWAP1 REVERT JUMPDEST DUP1 PUSH1 0x5 PUSH1 0x0 DUP6 PUSH20 0xFFFFFFFFFFFFFFFFFFFFFFFFFFFFFFFFFFFFFFFF AND PUSH20 0xFFFFFFFFFFFFFFFFFFFFFFFFFFFFFFFFFFFFFFFF AND DUP2 MSTORE PUSH1 0x20 ADD SWAP1 DUP2 MSTORE PUSH1 0x20 ADD PUSH1 0x0 KECCAK256 PUSH1 0x0 DUP5 PUSH20 0xFFFFFFFFFFFFFFFFFFFFFFFFFFFFFFFFFFFFFFFF AND PUSH20 0xFFFFFFFFFFFFFFFFFFFFFFFFFFFFFFFFFFFFFFFF AND DUP2 MSTORE PUSH1 0x20 ADD SWAP1 DUP2 MSTORE PUSH1 0x20 ADD PUSH1 0x0 KECCAK256 PUSH1 0x0 PUSH2 0x100 EXP DUP2 SLOAD DUP2 PUSH1 0xFF MUL NOT AND SWAP1 DUP4 ISZERO ISZERO MUL OR SWAP1 SSTORE POP DUP2 PUSH20 0xFFFFFFFFFFFFFFFFFFFFFFFFFFFFFFFFFFFFFFFF AND DUP4 PUSH20 0xFFFFFFFFFFFFFFFFFFFFFFFFFFFFFFFFFFFFFFFF AND PUSH32 0x17307EAB39AB6107E8899845AD3D59BD9653F200F220920489CA2B5937696C31 DUP4 PUSH1 0x40 MLOAD PUSH2 0x13CD SWAP2 SWAP1 PUSH2 0x1E20 JUMP JUMPDEST PUSH1 0x40 MLOAD DUP1 SWAP2 SUB SWAP1 LOG3 POP POP POP JUMP JUMPDEST PUSH1 0x0 DUP4 PUSH20 0xFFFFFFFFFFFFFFFFFFFFFFFFFFFFFFFFFFFFFFFF AND EXTCODESIZE GT ISZERO PUSH2 0x158B JUMPI DUP3 PUSH20 0xFFFFFFFFFFFFFFFFFFFFFFFFFFFFFFFFFFFFFFFF AND PUSH4 0x150B7A02 PUSH2 0x141E PUSH2 0xFA3 JUMP JUMPDEST DUP7 DUP6 DUP6 PUSH1 0x40 MLOAD DUP6 PUSH4 0xFFFFFFFF AND PUSH1 0xE0 SHL DUP2 MSTORE PUSH1 0x4 ADD PUSH2 0x1440 SWAP5 SWAP4 SWAP3 SWAP2 SWAP1 PUSH2 0x293A JUMP JUMPDEST PUSH1 0x20 PUSH1 0x40 MLOAD DUP1 DUP4 SUB DUP2 PUSH1 0x0 DUP8 GAS CALL SWAP3 POP POP POP DUP1 ISZERO PUSH2 0x147C JUMPI POP PUSH1 0x40 MLOAD RETURNDATASIZE PUSH1 0x1F NOT PUSH1 0x1F DUP3 ADD AND DUP3 ADD DUP1 PUSH1 0x40 MSTORE POP DUP2 ADD SWAP1 PUSH2 0x1479 SWAP2 SWAP1 PUSH2 0x299B JUMP JUMPDEST PUSH1 0x1 JUMPDEST PUSH2 0x1500 JUMPI RETURNDATASIZE DUP1 PUSH1 0x0 DUP2 EQ PUSH2 0x14AC JUMPI PUSH1 0x40 MLOAD SWAP2 POP PUSH1 0x1F NOT PUSH1 0x3F RETURNDATASIZE ADD AND DUP3 ADD PUSH1 0x40 MSTORE RETURNDATASIZE DUP3 MSTORE RETURNDATASIZE PUSH1 0x0 PUSH1 0x20 DUP5 ADD RETURNDATACOPY PUSH2 0x14B1 JUMP JUMPDEST PUSH1 0x60 SWAP2 POP JUMPDEST POP PUSH1 0x0 DUP2 MLOAD SUB PUSH2 0x14F8 JUMPI DUP4 PUSH1 0x40 MLOAD PUSH32 0x64A0AE9200000000000000000000000000000000000000000000000000000000 DUP2 MSTORE PUSH1 0x4 ADD PUSH2 0x14EF SWAP2 SWAP1 PUSH2 0x1FB3 JUMP JUMPDEST PUSH1 0x40 MLOAD DUP1 SWAP2 SUB SWAP1 REVERT JUMPDEST DUP1 MLOAD DUP2 PUSH1 0x20 ADD REVERT JUMPDEST PUSH4 0x150B7A02 PUSH1 0xE0 SHL PUSH28 0xFFFFFFFFFFFFFFFFFFFFFFFFFFFFFFFFFFFFFFFFFFFFFFFFFFFFFFFF NOT AND DUP2 PUSH28 0xFFFFFFFFFFFFFFFFFFFFFFFFFFFFFFFFFFFFFFFFFFFFFFFFFFFFFFFF NOT AND EQ PUSH2 0x1589 JUMPI DUP4 PUSH1 0x40 MLOAD PUSH32 0x64A0AE9200000000000000000000000000000000000000000000000000000000 DUP2 MSTORE PUSH1 0x4 ADD PUSH2 0x1580 SWAP2 SWAP1 PUSH2 0x1FB3 JUMP JUMPDEST PUSH1 0x40 MLOAD DUP1 SWAP2 SUB SWAP1 REVERT JUMPDEST POP JUMPDEST POP POP POP POP JUMP JUMPDEST PUSH1 0x60 PUSH1 0x40 MLOAD DUP1 PUSH1 0x20 ADD PUSH1 0x40 MSTORE DUP1 PUSH1 0x0 DUP2 MSTORE POP SWAP1 POP SWAP1 JUMP JUMPDEST PUSH1 0x60 PUSH2 0x15B3 DUP3 PUSH2 0xEDE JUMP JUMPDEST POP PUSH1 0x0 PUSH2 0x15BE PUSH2 0x1591 JUMP JUMPDEST SWAP1 POP PUSH1 0x0 DUP2 MLOAD GT PUSH2 0x15DE JUMPI PUSH1 0x40 MLOAD DUP1 PUSH1 0x20 ADD PUSH1 0x40 MSTORE DUP1 PUSH1 0x0 DUP2 MSTORE POP PUSH2 0x1609 JUMP JUMPDEST DUP1 PUSH2 0x15E8 DUP5 PUSH2 0x1AAC JUMP JUMPDEST PUSH1 0x40 MLOAD PUSH1 0x20 ADD PUSH2 0x15F9 SWAP3 SWAP2 SWAP1 PUSH2 0x27A0 JUMP JUMPDEST PUSH1 0x40 MLOAD PUSH1 0x20 DUP2 DUP4 SUB SUB DUP2 MSTORE SWAP1 PUSH1 0x40 MSTORE JUMPDEST SWAP2 POP POP SWAP2 SWAP1 POP JUMP JUMPDEST PUSH1 0x1 DUP2 PUSH1 0x0 ADD PUSH1 0x0 DUP3 DUP3 SLOAD ADD SWAP3 POP POP DUP2 SWAP1 SSTORE POP POP JUMP JUMPDEST PUSH1 0x0 PUSH20 0xFFFFFFFFFFFFFFFFFFFFFFFFFFFFFFFFFFFFFFFF AND DUP3 PUSH20 0xFFFFFFFFFFFFFFFFFFFFFFFFFFFFFFFFFFFFFFFF AND SUB PUSH2 0x1699 JUMPI PUSH1 0x0 PUSH1 0x40 MLOAD PUSH32 0x64A0AE9200000000000000000000000000000000000000000000000000000000 DUP2 MSTORE PUSH1 0x4 ADD PUSH2 0x1690 SWAP2 SWAP1 PUSH2 0x1FB3 JUMP JUMPDEST PUSH1 0x40 MLOAD DUP1 SWAP2 SUB SWAP1 REVERT JUMPDEST PUSH1 0x0 PUSH2 0x16A7 DUP4 DUP4 PUSH1 0x0 PUSH2 0xFBD JUMP JUMPDEST SWAP1 POP PUSH1 0x0 PUSH20 0xFFFFFFFFFFFFFFFFFFFFFFFFFFFFFFFFFFFFFFFF AND DUP2 PUSH20 0xFFFFFFFFFFFFFFFFFFFFFFFFFFFFFFFFFFFFFFFF AND EQ PUSH2 0x171B JUMPI PUSH1 0x0 PUSH1 0x40 MLOAD PUSH32 0x73C6AC6E00000000000000000000000000000000000000000000000000000000 DUP2 MSTORE PUSH1 0x4 ADD PUSH2 0x1712 SWAP2 SWAP1 PUSH2 0x1FB3 JUMP JUMPDEST PUSH1 0x40 MLOAD DUP1 SWAP2 SUB SWAP1 REVERT JUMPDEST POP POP POP JUMP JUMPDEST DUP1 PUSH1 0x6 PUSH1 0x0 DUP5 DUP2 MSTORE PUSH1 0x20 ADD SWAP1 DUP2 MSTORE PUSH1 0x20 ADD PUSH1 0x0 KECCAK256 SWAP1 DUP2 PUSH2 0x1740 SWAP2 SWAP1 PUSH2 0x2B74 JUMP JUMPDEST POP PUSH32 0xF8E1A15ABA9398E019F0B49DF1A4FDE98EE17AE345CB5F6B5E2C27F5033E8CE7 DUP3 PUSH1 0x40 MLOAD PUSH2 0x1770 SWAP2 SWAP1 PUSH2 0x2049 JUMP JUMPDEST PUSH1 0x40 MLOAD DUP1 SWAP2 SUB SWAP1 LOG1 POP POP JUMP JUMPDEST PUSH1 0x0 PUSH32 0x1FFC9A700000000000000000000000000000000000000000000000000000000 PUSH28 0xFFFFFFFFFFFFFFFFFFFFFFFFFFFFFFFFFFFFFFFFFFFFFFFFFFFFFFFF NOT AND DUP3 PUSH28 0xFFFFFFFFFFFFFFFFFFFFFFFFFFFFFFFFFFFFFFFFFFFFFFFFFFFFFFFF NOT AND EQ SWAP1 POP SWAP2 SWAP1 POP JUMP JUMPDEST PUSH1 0x0 PUSH1 0x2 PUSH1 0x0 DUP4 DUP2 MSTORE PUSH1 0x20 ADD SWAP1 DUP2 MSTORE PUSH1 0x20 ADD PUSH1 0x0 KECCAK256 PUSH1 0x0 SWAP1 SLOAD SWAP1 PUSH2 0x100 EXP SWAP1 DIV PUSH20 0xFFFFFFFFFFFFFFFFFFFFFFFFFFFFFFFFFFFFFFFF AND SWAP1 POP SWAP2 SWAP1 POP JUMP JUMPDEST DUP1 DUP1 PUSH2 0x185C JUMPI POP PUSH1 0x0 PUSH20 0xFFFFFFFFFFFFFFFFFFFFFFFFFFFFFFFFFFFFFFFF AND DUP3 PUSH20 0xFFFFFFFFFFFFFFFFFFFFFFFFFFFFFFFFFFFFFFFF AND EQ ISZERO JUMPDEST ISZERO PUSH2 0x1990 JUMPI PUSH1 0x0 PUSH2 0x186C DUP5 PUSH2 0xEDE JUMP JUMPDEST SWAP1 POP PUSH1 0x0 PUSH20 0xFFFFFFFFFFFFFFFFFFFFFFFFFFFFFFFFFFFFFFFF AND DUP4 PUSH20 0xFFFFFFFFFFFFFFFFFFFFFFFFFFFFFFFFFFFFFFFF AND EQ ISZERO DUP1 ISZERO PUSH2 0x18D7 JUMPI POP DUP3 PUSH20 0xFFFFFFFFFFFFFFFFFFFFFFFFFFFFFFFFFFFFFFFF AND DUP2 PUSH20 0xFFFFFFFFFFFFFFFFFFFFFFFFFFFFFFFFFFFFFFFF AND EQ ISZERO JUMPDEST DUP1 ISZERO PUSH2 0x18EA JUMPI POP PUSH2 0x18E8 DUP2 DUP5 PUSH2 0xD50 JUMP JUMPDEST ISZERO JUMPDEST ISZERO PUSH2 0x192C JUMPI DUP3 PUSH1 0x40 MLOAD PUSH32 0xA9FBF51F00000000000000000000000000000000000000000000000000000000 DUP2 MSTORE PUSH1 0x4 ADD PUSH2 0x1923 SWAP2 SWAP1 PUSH2 0x1FB3 JUMP JUMPDEST PUSH1 0x40 MLOAD DUP1 SWAP2 SUB SWAP1 REVERT JUMPDEST DUP2 ISZERO PUSH2 0x198E JUMPI DUP4 DUP6 PUSH20 0xFFFFFFFFFFFFFFFFFFFFFFFFFFFFFFFFFFFFFFFF AND DUP3 PUSH20 0xFFFFFFFFFFFFFFFFFFFFFFFFFFFFFFFFFFFFFFFF AND PUSH32 0x8C5BE1E5EBEC7D5BD14F71427D1E84F3DD0314C0F7B2291E5B200AC8C7C3B925 PUSH1 0x40 MLOAD PUSH1 0x40 MLOAD DUP1 SWAP2 SUB SWAP1 LOG4 JUMPDEST POP JUMPDEST DUP4 PUSH1 0x4 PUSH1 0x0 DUP6 DUP2 MSTORE PUSH1 0x20 ADD SWAP1 DUP2 MSTORE PUSH1 0x20 ADD PUSH1 0x0 KECCAK256 PUSH1 0x0 PUSH2 0x100 EXP DUP2 SLOAD DUP2 PUSH20 0xFFFFFFFFFFFFFFFFFFFFFFFFFFFFFFFFFFFFFFFF MUL NOT AND SWAP1 DUP4 PUSH20 0xFFFFFFFFFFFFFFFFFFFFFFFFFFFFFFFFFFFFFFFF AND MUL OR SWAP1 SSTORE POP POP POP POP POP JUMP JUMPDEST PUSH2 0x19F3 DUP4 DUP4 DUP4 PUSH2 0x1B7A JUMP JUMPDEST PUSH2 0x1AA7 JUMPI PUSH1 0x0 PUSH20 0xFFFFFFFFFFFFFFFFFFFFFFFFFFFFFFFFFFFFFFFF AND DUP4 PUSH20 0xFFFFFFFFFFFFFFFFFFFFFFFFFFFFFFFFFFFFFFFF AND SUB PUSH2 0x1A68 JUMPI DUP1 PUSH1 0x40 MLOAD PUSH32 0x7E27328900000000000000000000000000000000000000000000000000000000 DUP2 MSTORE PUSH1 0x4 ADD PUSH2 0x1A5F SWAP2 SWAP1 PUSH2 0x2049 JUMP JUMPDEST PUSH1 0x40 MLOAD DUP1 SWAP2 SUB SWAP1 REVERT JUMPDEST DUP2 DUP2 PUSH1 0x40 MLOAD PUSH32 0x177E802F00000000000000000000000000000000000000000000000000000000 DUP2 MSTORE PUSH1 0x4 ADD PUSH2 0x1A9E SWAP3 SWAP2 SWAP1 PUSH2 0x2C46 JUMP JUMPDEST PUSH1 0x40 MLOAD DUP1 SWAP2 SUB SWAP1 REVERT JUMPDEST POP POP POP JUMP JUMPDEST PUSH1 0x60 PUSH1 0x0 PUSH1 0x1 PUSH2 0x1ABB DUP5 PUSH2 0x1C3B JUMP JUMPDEST ADD SWAP1 POP PUSH1 0x0 DUP2 PUSH8 0xFFFFFFFFFFFFFFFF DUP2 GT ISZERO PUSH2 0x1ADA JUMPI PUSH2 0x1AD9 PUSH2 0x218E JUMP JUMPDEST JUMPDEST PUSH1 0x40 MLOAD SWAP1 DUP1 DUP3 MSTORE DUP1 PUSH1 0x1F ADD PUSH1 0x1F NOT AND PUSH1 0x20 ADD DUP3 ADD PUSH1 0x40 MSTORE DUP1 ISZERO PUSH2 0x1B0C JUMPI DUP2 PUSH1 0x20 ADD PUSH1 0x1 DUP3 MUL DUP1 CALLDATASIZE DUP4 CALLDATACOPY DUP1 DUP3 ADD SWAP2 POP POP SWAP1 POP JUMPDEST POP SWAP1 POP PUSH1 0x0 DUP3 PUSH1 0x20 ADD DUP3 ADD SWAP1 POP JUMPDEST PUSH1 0x1 ISZERO PUSH2 0x1B6F JUMPI DUP1 DUP1 PUSH1 0x1 SWAP1 SUB SWAP2 POP POP PUSH32 0x3031323334353637383961626364656600000000000000000000000000000000 PUSH1 0xA DUP7 MOD BYTE DUP2 MSTORE8 PUSH1 0xA DUP6 DUP2 PUSH2 0x1B63 JUMPI PUSH2 0x1B62 PUSH2 0x2C6F JUMP JUMPDEST JUMPDEST DIV SWAP5 POP PUSH1 0x0 DUP6 SUB PUSH2 0x1B1A JUMPI JUMPDEST DUP2 SWAP4 POP POP POP POP SWAP2 SWAP1 POP JUMP JUMPDEST PUSH1 0x0 DUP1 PUSH20 0xFFFFFFFFFFFFFFFFFFFFFFFFFFFFFFFFFFFFFFFF AND DUP4 PUSH20 0xFFFFFFFFFFFFFFFFFFFFFFFFFFFFFFFFFFFFFFFF AND EQ ISZERO DUP1 ISZERO PUSH2 0x1C32 JUMPI POP DUP3 PUSH20 0xFFFFFFFFFFFFFFFFFFFFFFFFFFFFFFFFFFFFFFFF AND DUP5 PUSH20 0xFFFFFFFFFFFFFFFFFFFFFFFFFFFFFFFFFFFFFFFF AND EQ DUP1 PUSH2 0x1BF3 JUMPI POP PUSH2 0x1BF2 DUP5 DUP5 PUSH2 0xD50 JUMP JUMPDEST JUMPDEST DUP1 PUSH2 0x1C31 JUMPI POP DUP3 PUSH20 0xFFFFFFFFFFFFFFFFFFFFFFFFFFFFFFFFFFFFFFFF AND PUSH2 0x1C19 DUP4 PUSH2 0xF66 JUMP JUMPDEST PUSH20 0xFFFFFFFFFFFFFFFFFFFFFFFFFFFFFFFFFFFFFFFF AND EQ JUMPDEST JUMPDEST SWAP1 POP SWAP4 SWAP3 POP POP POP JUMP JUMPDEST PUSH1 0x0 DUP1 PUSH1 0x0 SWAP1 POP PUSH27 0x184F03E93FF9F4DAA797ED6E38ED64BF6A1F010000000000000000 DUP4 LT PUSH2 0x1C99 JUMPI PUSH27 0x184F03E93FF9F4DAA797ED6E38ED64BF6A1F010000000000000000 DUP4 DUP2 PUSH2 0x1C8F JUMPI PUSH2 0x1C8E PUSH2 0x2C6F JUMP JUMPDEST JUMPDEST DIV SWAP3 POP PUSH1 0x40 DUP2 ADD SWAP1 POP JUMPDEST PUSH14 0x4EE2D6D415B85ACEF8100000000 DUP4 LT PUSH2 0x1CD6 JUMPI PUSH14 0x4EE2D6D415B85ACEF8100000000 DUP4 DUP2 PUSH2 0x1CCC JUMPI PUSH2 0x1CCB PUSH2 0x2C6F JUMP JUMPDEST JUMPDEST DIV SWAP3 POP PUSH1 0x20 DUP2 ADD SWAP1 POP JUMPDEST PUSH7 0x2386F26FC10000 DUP4 LT PUSH2 0x1D05 JUMPI PUSH7 0x2386F26FC10000 DUP4 DUP2 PUSH2 0x1CFB JUMPI PUSH2 0x1CFA PUSH2 0x2C6F JUMP JUMPDEST JUMPDEST DIV SWAP3 POP PUSH1 0x10 DUP2 ADD SWAP1 POP JUMPDEST PUSH4 0x5F5E100 DUP4 LT PUSH2 0x1D2E JUMPI PUSH4 0x5F5E100 DUP4 DUP2 PUSH2 0x1D24 JUMPI PUSH2 0x1D23 PUSH2 0x2C6F JUMP JUMPDEST JUMPDEST DIV SWAP3 POP PUSH1 0x8 DUP2 ADD SWAP1 POP JUMPDEST PUSH2 0x2710 DUP4 LT PUSH2 0x1D53 JUMPI PUSH2 0x2710 DUP4 DUP2 PUSH2 0x1D49 JUMPI PUSH2 0x1D48 PUSH2 0x2C6F JUMP JUMPDEST JUMPDEST DIV SWAP3 POP PUSH1 0x4 DUP2 ADD SWAP1 POP JUMPDEST PUSH1 0x64 DUP4 LT PUSH2 0x1D76 JUMPI PUSH1 0x64 DUP4 DUP2 PUSH2 0x1D6C JUMPI PUSH2 0x1D6B PUSH2 0x2C6F JUMP JUMPDEST JUMPDEST DIV SWAP3 POP PUSH1 0x2 DUP2 ADD SWAP1 POP JUMPDEST PUSH1 0xA DUP4 LT PUSH2 0x1D85 JUMPI PUSH1 0x1 DUP2 ADD SWAP1 POP JUMPDEST DUP1 SWAP2 POP POP SWAP2 SWAP1 POP JUMP JUMPDEST PUSH1 0x0 PUSH1 0x40 MLOAD SWAP1 POP SWAP1 JUMP JUMPDEST PUSH1 0x0 DUP1 REVERT JUMPDEST PUSH1 0x0 DUP1 REVERT JUMPDEST PUSH1 0x0 DUP2 SWAP1 POP SWAP2 SWAP1 POP JUMP JUMPDEST PUSH2 0x1DB5 DUP2 PUSH2 0x1DA2 JUMP JUMPDEST DUP2 EQ PUSH2 0x1DC0 JUMPI PUSH1 0x0 DUP1 REVERT JUMPDEST POP JUMP JUMPDEST PUSH1 0x0 DUP2 CALLDATALOAD SWAP1 POP PUSH2 0x1DD2 DUP2 PUSH2 0x1DAC JUMP JUMPDEST SWAP3 SWAP2 POP POP JUMP JUMPDEST PUSH1 0x0 PUSH1 0x20 DUP3 DUP5 SUB SLT ISZERO PUSH2 0x1DEE JUMPI PUSH2 0x1DED PUSH2 0x1D98 JUMP JUMPDEST JUMPDEST PUSH1 0x0 PUSH2 0x1DFC DUP5 DUP3 DUP6 ADD PUSH2 0x1DC3 JUMP JUMPDEST SWAP2 POP POP SWAP3 SWAP2 POP POP JUMP JUMPDEST PUSH1 0x0 DUP2 ISZERO ISZERO SWAP1 POP SWAP2 SWAP1 POP JUMP JUMPDEST PUSH2 0x1E1A DUP2 PUSH2 0x1E05 JUMP JUMPDEST DUP3 MSTORE POP POP JUMP JUMPDEST PUSH1 0x0 PUSH1 0x20 DUP3 ADD SWAP1 POP PUSH2 0x1E35 PUSH1 0x0 DUP4 ADD DUP5 PUSH2 0x1E11 JUMP JUMPDEST SWAP3 SWAP2 POP POP JUMP JUMPDEST PUSH1 0x0 PUSH32 0xFFFFFFFF00000000000000000000000000000000000000000000000000000000 DUP3 AND SWAP1 POP SWAP2 SWAP1 POP JUMP JUMPDEST PUSH2 0x1E70 DUP2 PUSH2 0x1E3B JUMP JUMPDEST DUP2 EQ PUSH2 0x1E7B JUMPI PUSH1 0x0 DUP1 REVERT JUMPDEST POP JUMP JUMPDEST PUSH1 0x0 DUP2 CALLDATALOAD SWAP1 POP PUSH2 0x1E8D DUP2 PUSH2 0x1E67 JUMP JUMPDEST SWAP3 SWAP2 POP POP JUMP JUMPDEST PUSH1 0x0 PUSH1 0x20 DUP3 DUP5 SUB SLT ISZERO PUSH2 0x1EA9 JUMPI PUSH2 0x1EA8 PUSH2 0x1D98 JUMP JUMPDEST JUMPDEST PUSH1 0x0 PUSH2 0x1EB7 DUP5 DUP3 DUP6 ADD PUSH2 0x1E7E JUMP JUMPDEST SWAP2 POP POP SWAP3 SWAP2 POP POP JUMP JUMPDEST PUSH1 0x0 DUP2 MLOAD SWAP1 POP SWAP2 SWAP1 POP JUMP JUMPDEST PUSH1 0x0 DUP3 DUP3 MSTORE PUSH1 0x20 DUP3 ADD SWAP1 POP SWAP3 SWAP2 POP POP JUMP JUMPDEST PUSH1 0x0 JUMPDEST DUP4 DUP2 LT ISZERO PUSH2 0x1EFA JUMPI DUP1 DUP3 ADD MLOAD DUP2 DUP5 ADD MSTORE PUSH1 0x20 DUP2 ADD SWAP1 POP PUSH2 0x1EDF JUMP JUMPDEST PUSH1 0x0 DUP5 DUP5 ADD MSTORE POP POP POP POP JUMP JUMPDEST PUSH1 0x0 PUSH1 0x1F NOT PUSH1 0x1F DUP4 ADD AND SWAP1 POP SWAP2 SWAP1 POP JUMP JUMPDEST PUSH1 0x0 PUSH2 0x1F22 DUP3 PUSH2 0x1EC0 JUMP JUMPDEST PUSH2 0x1F2C DUP2 DUP6 PUSH2 0x1ECB JUMP JUMPDEST SWAP4 POP PUSH2 0x1F3C DUP2 DUP6 PUSH1 0x20 DUP7 ADD PUSH2 0x1EDC JUMP JUMPDEST PUSH2 0x1F45 DUP2 PUSH2 0x1F06 JUMP JUMPDEST DUP5 ADD SWAP2 POP POP SWAP3 SWAP2 POP POP JUMP JUMPDEST PUSH1 0x0 PUSH1 0x20 DUP3 ADD SWAP1 POP DUP2 DUP2 SUB PUSH1 0x0 DUP4 ADD MSTORE PUSH2 0x1F6A DUP2 DUP5 PUSH2 0x1F17 JUMP JUMPDEST SWAP1 POP SWAP3 SWAP2 POP POP JUMP JUMPDEST PUSH1 0x0 PUSH20 0xFFFFFFFFFFFFFFFFFFFFFFFFFFFFFFFFFFFFFFFF DUP3 AND SWAP1 POP SWAP2 SWAP1 POP JUMP JUMPDEST PUSH1 0x0 PUSH2 0x1F9D DUP3 PUSH2 0x1F72 JUMP JUMPDEST SWAP1 POP SWAP2 SWAP1 POP JUMP JUMPDEST PUSH2 0x1FAD DUP2 PUSH2 0x1F92 JUMP JUMPDEST DUP3 MSTORE POP POP JUMP JUMPDEST PUSH1 0x0 PUSH1 0x20 DUP3 ADD SWAP1 POP PUSH2 0x1FC8 PUSH1 0x0 DUP4 ADD DUP5 PUSH2 0x1FA4 JUMP JUMPDEST SWAP3 SWAP2 POP POP JUMP JUMPDEST PUSH2 0x1FD7 DUP2 PUSH2 0x1F92 JUMP JUMPDEST DUP2 EQ PUSH2 0x1FE2 JUMPI PUSH1 0x0 DUP1 REVERT JUMPDEST POP JUMP JUMPDEST PUSH1 0x0 DUP2 CALLDATALOAD SWAP1 POP PUSH2 0x1FF4 DUP2 PUSH2 0x1FCE JUMP JUMPDEST SWAP3 SWAP2 POP POP JUMP JUMPDEST PUSH1 0x0 DUP1 PUSH1 0x40 DUP4 DUP6 SUB SLT ISZERO PUSH2 0x2011 JUMPI PUSH2 0x2010 PUSH2 0x1D98 JUMP JUMPDEST JUMPDEST PUSH1 0x0 PUSH2 0x201F DUP6 DUP3 DUP7 ADD PUSH2 0x1FE5 JUMP JUMPDEST SWAP3 POP POP PUSH1 0x20 PUSH2 0x2030 DUP6 DUP3 DUP7 ADD PUSH2 0x1DC3 JUMP JUMPDEST SWAP2 POP POP SWAP3 POP SWAP3 SWAP1 POP JUMP JUMPDEST PUSH2 0x2043 DUP2 PUSH2 0x1DA2 JUMP JUMPDEST DUP3 MSTORE POP POP JUMP JUMPDEST PUSH1 0x0 PUSH1 0x20 DUP3 ADD SWAP1 POP PUSH2 0x205E PUSH1 0x0 DUP4 ADD DUP5 PUSH2 0x203A JUMP JUMPDEST SWAP3 SWAP2 POP POP JUMP JUMPDEST PUSH1 0x0 DUP1 PUSH1 0x0 PUSH1 0x60 DUP5 DUP7 SUB SLT ISZERO PUSH2 0x207D JUMPI PUSH2 0x207C PUSH2 0x1D98 JUMP JUMPDEST JUMPDEST PUSH1 0x0 PUSH2 0x208B DUP7 DUP3 DUP8 ADD PUSH2 0x1FE5 JUMP JUMPDEST SWAP4 POP POP PUSH1 0x20 PUSH2 0x209C DUP7 DUP3 DUP8 ADD PUSH2 0x1FE5 JUMP JUMPDEST SWAP3 POP POP PUSH1 0x40 PUSH2 0x20AD DUP7 DUP3 DUP8 ADD PUSH2 0x1DC3 JUMP JUMPDEST SWAP2 POP POP SWAP3 POP SWAP3 POP SWAP3 JUMP JUMPDEST PUSH1 0x0 PUSH1 0x20 DUP3 DUP5 SUB SLT ISZERO PUSH2 0x20CD JUMPI PUSH2 0x20CC PUSH2 0x1D98 JUMP JUMPDEST JUMPDEST PUSH1 0x0 PUSH2 0x20DB DUP5 DUP3 DUP6 ADD PUSH2 0x1FE5 JUMP JUMPDEST SWAP2 POP POP SWAP3 SWAP2 POP POP JUMP JUMPDEST PUSH1 0x0 DUP2 SWAP1 POP SWAP2 SWAP1 POP JUMP JUMPDEST PUSH2 0x20F7 DUP2 PUSH2 0x20E4 JUMP JUMPDEST DUP3 MSTORE POP POP JUMP JUMPDEST PUSH1 0x0 PUSH1 0x20 DUP3 ADD SWAP1 POP PUSH2 0x2112 PUSH1 0x0 DUP4 ADD DUP5 PUSH2 0x20EE JUMP JUMPDEST SWAP3 SWAP2 POP POP JUMP JUMPDEST PUSH2 0x2121 DUP2 PUSH2 0x1E05 JUMP JUMPDEST DUP2 EQ PUSH2 0x212C JUMPI PUSH1 0x0 DUP1 REVERT JUMPDEST POP JUMP JUMPDEST PUSH1 0x0 DUP2 CALLDATALOAD SWAP1 POP PUSH2 0x213E DUP2 PUSH2 0x2118 JUMP JUMPDEST SWAP3 SWAP2 POP POP JUMP JUMPDEST PUSH1 0x0 DUP1 PUSH1 0x40 DUP4 DUP6 SUB SLT ISZERO PUSH2 0x215B JUMPI PUSH2 0x215A PUSH2 0x1D98 JUMP JUMPDEST JUMPDEST PUSH1 0x0 PUSH2 0x2169 DUP6 DUP3 DUP7 ADD PUSH2 0x1FE5 JUMP JUMPDEST SWAP3 POP POP PUSH1 0x20 PUSH2 0x217A DUP6 DUP3 DUP7 ADD PUSH2 0x212F JUMP JUMPDEST SWAP2 POP POP SWAP3 POP SWAP3 SWAP1 POP JUMP JUMPDEST PUSH1 0x0 DUP1 REVERT JUMPDEST PUSH1 0x0 DUP1 REVERT JUMPDEST PUSH32 0x4E487B7100000000000000000000000000000000000000000000000000000000 PUSH1 0x0 MSTORE PUSH1 0x41 PUSH1 0x4 MSTORE PUSH1 0x24 PUSH1 0x0 REVERT JUMPDEST PUSH2 0x21C6 DUP3 PUSH2 0x1F06 JUMP JUMPDEST DUP2 ADD DUP2 DUP2 LT PUSH8 0xFFFFFFFFFFFFFFFF DUP3 GT OR ISZERO PUSH2 0x21E5 JUMPI PUSH2 0x21E4 PUSH2 0x218E JUMP JUMPDEST JUMPDEST DUP1 PUSH1 0x40 MSTORE POP POP POP JUMP JUMPDEST PUSH1 0x0 PUSH2 0x21F8 PUSH2 0x1D8E JUMP JUMPDEST SWAP1 POP PUSH2 0x2204 DUP3 DUP3 PUSH2 0x21BD JUMP JUMPDEST SWAP2 SWAP1 POP JUMP JUMPDEST PUSH1 0x0 PUSH8 0xFFFFFFFFFFFFFFFF DUP3 GT ISZERO PUSH2 0x2224 JUMPI PUSH2 0x2223 PUSH2 0x218E JUMP JUMPDEST JUMPDEST PUSH2 0x222D DUP3 PUSH2 0x1F06 JUMP JUMPDEST SWAP1 POP PUSH1 0x20 DUP2 ADD SWAP1 POP SWAP2 SWAP1 POP JUMP JUMPDEST DUP3 DUP2 DUP4 CALLDATACOPY PUSH1 0x0 DUP4 DUP4 ADD MSTORE POP POP POP JUMP JUMPDEST PUSH1 0x0 PUSH2 0x225C PUSH2 0x2257 DUP5 PUSH2 0x2209 JUMP JUMPDEST PUSH2 0x21EE JUMP JUMPDEST SWAP1 POP DUP3 DUP2 MSTORE PUSH1 0x20 DUP2 ADD DUP5 DUP5 DUP5 ADD GT ISZERO PUSH2 0x2278 JUMPI PUSH2 0x2277 PUSH2 0x2189 JUMP JUMPDEST JUMPDEST PUSH2 0x2283 DUP5 DUP3 DUP6 PUSH2 0x223A JUMP JUMPDEST POP SWAP4 SWAP3 POP POP POP JUMP JUMPDEST PUSH1 0x0 DUP3 PUSH1 0x1F DUP4 ADD SLT PUSH2 0x22A0 JUMPI PUSH2 0x229F PUSH2 0x2184 JUMP JUMPDEST JUMPDEST DUP2 CALLDATALOAD PUSH2 0x22B0 DUP5 DUP3 PUSH1 0x20 DUP7 ADD PUSH2 0x2249 JUMP JUMPDEST SWAP2 POP POP SWAP3 SWAP2 POP POP JUMP JUMPDEST PUSH1 0x0 DUP1 PUSH1 0x0 DUP1 PUSH1 0x80 DUP6 DUP8 SUB SLT ISZERO PUSH2 0x22D3 JUMPI PUSH2 0x22D2 PUSH2 0x1D98 JUMP JUMPDEST JUMPDEST PUSH1 0x0 PUSH2 0x22E1 DUP8 DUP3 DUP9 ADD PUSH2 0x1FE5 JUMP JUMPDEST SWAP5 POP POP PUSH1 0x20 PUSH2 0x22F2 DUP8 DUP3 DUP9 ADD PUSH2 0x1FE5 JUMP JUMPDEST SWAP4 POP POP PUSH1 0x40 PUSH2 0x2303 DUP8 DUP3 DUP9 ADD PUSH2 0x1DC3 JUMP JUMPDEST SWAP3 POP POP PUSH1 0x60 DUP6 ADD CALLDATALOAD PUSH8 0xFFFFFFFFFFFFFFFF DUP2 GT ISZERO PUSH2 0x2324 JUMPI PUSH2 0x2323 PUSH2 0x1D9D JUMP JUMPDEST JUMPDEST PUSH2 0x2330 DUP8 DUP3 DUP9 ADD PUSH2 0x228B JUMP JUMPDEST SWAP2 POP POP SWAP3 SWAP6 SWAP2 SWAP5 POP SWAP3 POP JUMP JUMPDEST PUSH1 0x0 DUP1 REVERT JUMPDEST PUSH1 0x0 DUP1 REVERT JUMPDEST PUSH1 0x0 DUP1 DUP4 PUSH1 0x1F DUP5 ADD SLT PUSH2 0x235C JUMPI PUSH2 0x235B PUSH2 0x2184 JUMP JUMPDEST JUMPDEST DUP3 CALLDATALOAD SWAP1 POP PUSH8 0xFFFFFFFFFFFFFFFF DUP2 GT ISZERO PUSH2 0x2379 JUMPI PUSH2 0x2378 PUSH2 0x233C JUMP JUMPDEST JUMPDEST PUSH1 0x20 DUP4 ADD SWAP2 POP DUP4 PUSH1 0x1 DUP3 MUL DUP4 ADD GT ISZERO PUSH2 0x2395 JUMPI PUSH2 0x2394 PUSH2 0x2341 JUMP JUMPDEST JUMPDEST SWAP3 POP SWAP3 SWAP1 POP JUMP JUMPDEST PUSH1 0x0 DUP1 PUSH1 0x0 PUSH1 0x40 DUP5 DUP7 SUB SLT ISZERO PUSH2 0x23B5 JUMPI PUSH2 0x23B4 PUSH2 0x1D98 JUMP JUMPDEST JUMPDEST PUSH1 0x0 PUSH2 0x23C3 DUP7 DUP3 DUP8 ADD PUSH2 0x1FE5 JUMP JUMPDEST SWAP4 POP POP PUSH1 0x20 DUP5 ADD CALLDATALOAD PUSH8 0xFFFFFFFFFFFFFFFF DUP2 GT ISZERO PUSH2 0x23E4 JUMPI PUSH2 0x23E3 PUSH2 0x1D9D JUMP JUMPDEST JUMPDEST PUSH2 0x23F0 DUP7 DUP3 DUP8 ADD PUSH2 0x2346 JUMP JUMPDEST SWAP3 POP SWAP3 POP POP SWAP3 POP SWAP3 POP SWAP3 JUMP JUMPDEST PUSH1 0x0 PUSH8 0xFFFFFFFFFFFFFFFF DUP3 GT ISZERO PUSH2 0x2417 JUMPI PUSH2 0x2416 PUSH2 0x218E JUMP JUMPDEST JUMPDEST PUSH2 0x2420 DUP3 PUSH2 0x1F06 JUMP JUMPDEST SWAP1 POP PUSH1 0x20 DUP2 ADD SWAP1 POP SWAP2 SWAP1 POP JUMP JUMPDEST PUSH1 0x0 PUSH2 0x2440 PUSH2 0x243B DUP5 PUSH2 0x23FC JUMP JUMPDEST PUSH2 0x21EE JUMP JUMPDEST SWAP1 POP DUP3 DUP2 MSTORE PUSH1 0x20 DUP2 ADD DUP5 DUP5 DUP5 ADD GT ISZERO PUSH2 0x245C JUMPI PUSH2 0x245B PUSH2 0x2189 JUMP JUMPDEST JUMPDEST PUSH2 0x2467 DUP5 DUP3 DUP6 PUSH2 0x223A JUMP JUMPDEST POP SWAP4 SWAP3 POP POP POP JUMP JUMPDEST PUSH1 0x0 DUP3 PUSH1 0x1F DUP4 ADD SLT PUSH2 0x2484 JUMPI PUSH2 0x2483 PUSH2 0x2184 JUMP JUMPDEST JUMPDEST DUP2 CALLDATALOAD PUSH2 0x2494 DUP5 DUP3 PUSH1 0x20 DUP7 ADD PUSH2 0x242D JUMP JUMPDEST SWAP2 POP POP SWAP3 SWAP2 POP POP JUMP JUMPDEST PUSH1 0x0 PUSH1 0x20 DUP3 DUP5 SUB SLT ISZERO PUSH2 0x24B3 JUMPI PUSH2 0x24B2 PUSH2 0x1D98 JUMP JUMPDEST JUMPDEST PUSH1 0x0 DUP3 ADD CALLDATALOAD PUSH8 0xFFFFFFFFFFFFFFFF DUP2 GT ISZERO PUSH2 0x24D1 JUMPI PUSH2 0x24D0 PUSH2 0x1D9D JUMP JUMPDEST JUMPDEST PUSH2 0x24DD DUP5 DUP3 DUP6 ADD PUSH2 0x246F JUMP JUMPDEST SWAP2 POP POP SWAP3 SWAP2 POP POP JUMP JUMPDEST PUSH2 0x24EF DUP2 PUSH2 0x20E4 JUMP JUMPDEST DUP2 EQ PUSH2 0x24FA JUMPI PUSH1 0x0 DUP1 REVERT JUMPDEST POP JUMP JUMPDEST PUSH1 0x0 DUP2 CALLDATALOAD SWAP1 POP PUSH2 0x250C DUP2 PUSH2 0x24E6 JUMP JUMPDEST SWAP3 SWAP2 POP POP JUMP JUMPDEST PUSH1 0x0 DUP1 PUSH1 0x40 DUP4 DUP6 SUB SLT ISZERO PUSH2 0x2529 JUMPI PUSH2 0x2528 PUSH2 0x1D98 JUMP JUMPDEST JUMPDEST PUSH1 0x0 PUSH2 0x2537 DUP6 DUP3 DUP7 ADD PUSH2 0x1DC3 JUMP JUMPDEST SWAP3 POP POP PUSH1 0x20 PUSH2 0x2548 DUP6 DUP3 DUP7 ADD PUSH2 0x24FD JUMP JUMPDEST SWAP2 POP POP SWAP3 POP SWAP3 SWAP1 POP JUMP JUMPDEST PUSH1 0x0 DUP1 PUSH1 0x40 DUP4 DUP6 SUB SLT ISZERO PUSH2 0x2569 JUMPI PUSH2 0x2568 PUSH2 0x1D98 JUMP JUMPDEST JUMPDEST PUSH1 0x0 PUSH2 0x2577 DUP6 DUP3 DUP7 ADD PUSH2 0x1FE5 JUMP JUMPDEST SWAP3 POP POP PUSH1 0x20 PUSH2 0x2588 DUP6 DUP3 DUP7 ADD PUSH2 0x1FE5 JUMP JUMPDEST SWAP2 POP POP SWAP3 POP SWAP3 SWAP1 POP JUMP JUMPDEST PUSH32 0x4E487B7100000000000000000000000000000000000000000000000000000000 PUSH1 0x0 MSTORE PUSH1 0x22 PUSH1 0x4 MSTORE PUSH1 0x24 PUSH1 0x0 REVERT JUMPDEST PUSH1 0x0 PUSH1 0x2 DUP3 DIV SWAP1 POP PUSH1 0x1 DUP3 AND DUP1 PUSH2 0x25D9 JUMPI PUSH1 0x7F DUP3 AND SWAP2 POP JUMPDEST PUSH1 0x20 DUP3 LT DUP2 SUB PUSH2 0x25EC JUMPI PUSH2 0x25EB PUSH2 0x2592 JUMP JUMPDEST JUMPDEST POP SWAP2 SWAP1 POP JUMP JUMPDEST PUSH1 0x0 PUSH1 0x60 DUP3 ADD SWAP1 POP PUSH2 0x2607 PUSH1 0x0 DUP4 ADD DUP7 PUSH2 0x1FA4 JUMP JUMPDEST PUSH2 0x2614 PUSH1 0x20 DUP4 ADD DUP6 PUSH2 0x203A JUMP JUMPDEST PUSH2 0x2621 PUSH1 0x40 DUP4 ADD DUP5 PUSH2 0x1FA4 JUMP JUMPDEST SWAP5 SWAP4 POP POP POP POP JUMP JUMPDEST PUSH32 0x546F6B656E20646F6573206E6F74206578697374000000000000000000000000 PUSH1 0x0 DUP3 ADD MSTORE POP JUMP JUMPDEST PUSH1 0x0 PUSH2 0x265F PUSH1 0x14 DUP4 PUSH2 0x1ECB JUMP JUMPDEST SWAP2 POP PUSH2 0x266A DUP3 PUSH2 0x2629 JUMP JUMPDEST PUSH1 0x20 DUP3 ADD SWAP1 POP SWAP2 SWAP1 POP JUMP JUMPDEST PUSH1 0x0 PUSH1 0x20 DUP3 ADD SWAP1 POP DUP2 DUP2 SUB PUSH1 0x0 DUP4 ADD MSTORE PUSH2 0x268E DUP2 PUSH2 0x2652 JUMP JUMPDEST SWAP1 POP SWAP2 SWAP1 POP JUMP JUMPDEST PUSH32 0x496E646578206F7574206F6620626F756E647300000000000000000000000000 PUSH1 0x0 DUP3 ADD MSTORE POP JUMP JUMPDEST PUSH1 0x0 PUSH2 0x26CB PUSH1 0x13 DUP4 PUSH2 0x1ECB JUMP JUMPDEST SWAP2 POP PUSH2 0x26D6 DUP3 PUSH2 0x2695 JUMP JUMPDEST PUSH1 0x20 DUP3 ADD SWAP1 POP SWAP2 SWAP1 POP JUMP JUMPDEST PUSH1 0x0 PUSH1 0x20 DUP3 ADD SWAP1 POP DUP2 DUP2 SUB PUSH1 0x0 DUP4 ADD MSTORE PUSH2 0x26FA DUP2 PUSH2 0x26BE JUMP JUMPDEST SWAP1 POP SWAP2 SWAP1 POP JUMP JUMPDEST PUSH32 0x4E487B7100000000000000000000000000000000000000000000000000000000 PUSH1 0x0 MSTORE PUSH1 0x11 PUSH1 0x4 MSTORE PUSH1 0x24 PUSH1 0x0 REVERT JUMPDEST PUSH1 0x0 PUSH2 0x273B DUP3 PUSH2 0x1DA2 JUMP JUMPDEST SWAP2 POP PUSH2 0x2746 DUP4 PUSH2 0x1DA2 JUMP JUMPDEST SWAP3 POP DUP3 DUP3 ADD SWAP1 POP DUP1 DUP3 GT ISZERO PUSH2 0x275E JUMPI PUSH2 0x275D PUSH2 0x2701 JUMP JUMPDEST JUMPDEST SWAP3 SWAP2 POP POP JUMP JUMPDEST PUSH1 0x0 DUP2 SWAP1 POP SWAP3 SWAP2 POP POP JUMP JUMPDEST PUSH1 0x0 PUSH2 0x277A DUP3 PUSH2 0x1EC0 JUMP JUMPDEST PUSH2 0x2784 DUP2 DUP6 PUSH2 0x2764 JUMP JUMPDEST SWAP4 POP PUSH2 0x2794 DUP2 DUP6 PUSH1 0x20 DUP7 ADD PUSH2 0x1EDC JUMP JUMPDEST DUP1 DUP5 ADD SWAP2 POP POP SWAP3 SWAP2 POP POP JUMP JUMPDEST PUSH1 0x0 PUSH2 0x27AC DUP3 DUP6 PUSH2 0x276F JUMP JUMPDEST SWAP2 POP PUSH2 0x27B8 DUP3 DUP5 PUSH2 0x276F JUMP JUMPDEST SWAP2 POP DUP2 SWAP1 POP SWAP4 SWAP3 POP POP POP JUMP JUMPDEST PUSH32 0x5552492063616E6E6F7420626520656D70747900000000000000000000000000 PUSH1 0x0 DUP3 ADD MSTORE POP JUMP JUMPDEST PUSH1 0x0 PUSH2 0x27FA PUSH1 0x13 DUP4 PUSH2 0x1ECB JUMP JUMPDEST SWAP2 POP PUSH2 0x2805 DUP3 PUSH2 0x27C4 JUMP JUMPDEST PUSH1 0x20 DUP3 ADD SWAP1 POP SWAP2 SWAP1 POP JUMP JUMPDEST PUSH1 0x0 PUSH1 0x20 DUP3 ADD SWAP1 POP DUP2 DUP2 SUB PUSH1 0x0 DUP4 ADD MSTORE PUSH2 0x2829 DUP2 PUSH2 0x27ED JUMP JUMPDEST SWAP1 POP SWAP2 SWAP1 POP JUMP JUMPDEST PUSH1 0x0 PUSH2 0x283C DUP4 DUP6 PUSH2 0x1ECB JUMP JUMPDEST SWAP4 POP PUSH2 0x2849 DUP4 DUP6 DUP5 PUSH2 0x223A JUMP JUMPDEST PUSH2 0x2852 DUP4 PUSH2 0x1F06 JUMP JUMPDEST DUP5 ADD SWAP1 POP SWAP4 SWAP3 POP POP POP JUMP JUMPDEST PUSH1 0x0 PUSH1 0x60 DUP3 ADD SWAP1 POP PUSH2 0x2872 PUSH1 0x0 DUP4 ADD DUP8 PUSH2 0x203A JUMP JUMPDEST DUP2 DUP2 SUB PUSH1 0x20 DUP4 ADD MSTORE PUSH2 0x2885 DUP2 DUP6 DUP8 PUSH2 0x2830 JUMP JUMPDEST SWAP1 POP PUSH2 0x2894 PUSH1 0x40 DUP4 ADD DUP5 PUSH2 0x20EE JUMP JUMPDEST SWAP6 SWAP5 POP POP POP POP POP JUMP JUMPDEST PUSH1 0x0 PUSH2 0x28A8 DUP3 PUSH2 0x1DA2 JUMP JUMPDEST SWAP2 POP PUSH32 0xFFFFFFFFFFFFFFFFFFFFFFFFFFFFFFFFFFFFFFFFFFFFFFFFFFFFFFFFFFFFFFFF DUP3 SUB PUSH2 0x28DA JUMPI PUSH2 0x28D9 PUSH2 0x2701 JUMP JUMPDEST JUMPDEST PUSH1 0x1 DUP3 ADD SWAP1 POP SWAP2 SWAP1 POP JUMP JUMPDEST PUSH1 0x0 DUP2 MLOAD SWAP1 POP SWAP2 SWAP1 POP JUMP JUMPDEST PUSH1 0x0 DUP3 DUP3 MSTORE PUSH1 0x20 DUP3 ADD SWAP1 POP SWAP3 SWAP2 POP POP JUMP JUMPDEST PUSH1 0x0 PUSH2 0x290C DUP3 PUSH2 0x28E5 JUMP JUMPDEST PUSH2 0x2916 DUP2 DUP6 PUSH2 0x28F0 JUMP JUMPDEST SWAP4 POP PUSH2 0x2926 DUP2 DUP6 PUSH1 0x20 DUP7 ADD PUSH2 0x1EDC JUMP JUMPDEST PUSH2 0x292F DUP2 PUSH2 0x1F06 JUMP JUMPDEST DUP5 ADD SWAP2 POP POP SWAP3 SWAP2 POP POP JUMP JUMPDEST PUSH1 0x0 PUSH1 0x80 DUP3 ADD SWAP1 POP PUSH2 0x294F PUSH1 0x0 DUP4 ADD DUP8 PUSH2 0x1FA4 JUMP JUMPDEST PUSH2 0x295C PUSH1 0x20 DUP4 ADD DUP7 PUSH2 0x1FA4 JUMP JUMPDEST PUSH2 0x2969 PUSH1 0x40 DUP4 ADD DUP6 PUSH2 0x203A JUMP JUMPDEST DUP2 DUP2 SUB PUSH1 0x60 DUP4 ADD MSTORE PUSH2 0x297B DUP2 DUP5 PUSH2 0x2901 JUMP JUMPDEST SWAP1 POP SWAP6 SWAP5 POP POP POP POP POP JUMP JUMPDEST PUSH1 0x0 DUP2 MLOAD SWAP1 POP PUSH2 0x2995 DUP2 PUSH2 0x1E67 JUMP JUMPDEST SWAP3 SWAP2 POP POP JUMP JUMPDEST PUSH1 0x0 PUSH1 0x20 DUP3 DUP5 SUB SLT ISZERO PUSH2 0x29B1 JUMPI PUSH2 0x29B0 PUSH2 0x1D98 JUMP JUMPDEST JUMPDEST PUSH1 0x0 PUSH2 0x29BF DUP5 DUP3 DUP6 ADD PUSH2 0x2986 JUMP JUMPDEST SWAP2 POP POP SWAP3 SWAP2 POP POP JUMP JUMPDEST PUSH1 0x0 DUP2 SWAP1 POP DUP2 PUSH1 0x0 MSTORE PUSH1 0x20 PUSH1 0x0 KECCAK256 SWAP1 POP SWAP2 SWAP1 POP JUMP JUMPDEST PUSH1 0x0 PUSH1 0x20 PUSH1 0x1F DUP4 ADD DIV SWAP1 POP SWAP2 SWAP1 POP JUMP JUMPDEST PUSH1 0x0 DUP3 DUP3 SHL SWAP1 POP SWAP3 SWAP2 POP POP JUMP JUMPDEST PUSH1 0x0 PUSH1 0x8 DUP4 MUL PUSH2 0x2A2A PUSH32 0xFFFFFFFFFFFFFFFFFFFFFFFFFFFFFFFFFFFFFFFFFFFFFFFFFFFFFFFFFFFFFFFF DUP3 PUSH2 0x29ED JUMP JUMPDEST PUSH2 0x2A34 DUP7 DUP4 PUSH2 0x29ED JUMP JUMPDEST SWAP6 POP DUP1 NOT DUP5 AND SWAP4 POP DUP1 DUP7 AND DUP5 OR SWAP3 POP POP POP SWAP4 SWAP3 POP POP POP JUMP JUMPDEST PUSH1 0x0 DUP2 SWAP1 POP SWAP2 SWAP1 POP JUMP JUMPDEST PUSH1 0x0 PUSH2 0x2A71 PUSH2 0x2A6C PUSH2 0x2A67 DUP5 PUSH2 0x1DA2 JUMP JUMPDEST PUSH2 0x2A4C JUMP JUMPDEST PUSH2 0x1DA2 JUMP JUMPDEST SWAP1 POP SWAP2 SWAP1 POP JUMP JUMPDEST PUSH1 0x0 DUP2 SWAP1 POP SWAP2 SWAP1 POP JUMP JUMPDEST PUSH2 0x2A8B DUP4 PUSH2 0x2A56 JUMP JUMPDEST PUSH2 0x2A9F PUSH2 0x2A97 DUP3 PUSH2 0x2A78 JUMP JUMPDEST DUP5 DUP5 SLOAD PUSH2 0x29FA JUMP JUMPDEST DUP3 SSTORE POP POP POP POP JUMP JUMPDEST PUSH1 0x0 SWAP1 JUMP JUMPDEST PUSH2 0x2AB4 PUSH2 0x2AA7 JUMP JUMPDEST PUSH2 0x2ABF DUP2 DUP5 DUP5 PUSH2 0x2A82 JUMP JUMPDEST POP POP POP JUMP JUMPDEST JUMPDEST DUP2 DUP2 LT ISZERO PUSH2 0x2AE3 JUMPI PUSH2 0x2AD8 PUSH1 0x0 DUP3 PUSH2 0x2AAC JUMP JUMPDEST PUSH1 0x1 DUP2 ADD SWAP1 POP PUSH2 0x2AC5 JUMP JUMPDEST POP POP JUMP JUMPDEST PUSH1 0x1F DUP3 GT ISZERO PUSH2 0x2B28 JUMPI PUSH2 0x2AF9 DUP2 PUSH2 0x29C8 JUMP JUMPDEST PUSH2 0x2B02 DUP5 PUSH2 0x29DD JUMP JUMPDEST DUP2 ADD PUSH1 0x20 DUP6 LT ISZERO PUSH2 0x2B11 JUMPI DUP2 SWAP1 POP JUMPDEST PUSH2 0x2B25 PUSH2 0x2B1D DUP6 PUSH2 0x29DD JUMP JUMPDEST DUP4 ADD DUP3 PUSH2 0x2AC4 JUMP JUMPDEST POP POP JUMPDEST POP POP POP JUMP JUMPDEST PUSH1 0x0 DUP3 DUP3 SHR SWAP1 POP SWAP3 SWAP2 POP POP JUMP JUMPDEST PUSH1 0x0 PUSH2 0x2B4B PUSH1 0x0 NOT DUP5 PUSH1 0x8 MUL PUSH2 0x2B2D JUMP JUMPDEST NOT DUP1 DUP4 AND SWAP2 POP POP SWAP3 SWAP2 POP POP JUMP JUMPDEST PUSH1 0x0 PUSH2 0x2B64 DUP4 DUP4 PUSH2 0x2B3A JUMP JUMPDEST SWAP2 POP DUP3 PUSH1 0x2 MUL DUP3 OR SWAP1 POP SWAP3 SWAP2 POP POP JUMP JUMPDEST PUSH2 0x2B7D DUP3 PUSH2 0x1EC0 JUMP JUMPDEST PUSH8 0xFFFFFFFFFFFFFFFF DUP2 GT ISZERO PUSH2 0x2B96 JUMPI PUSH2 0x2B95 PUSH2 0x218E JUMP JUMPDEST JUMPDEST PUSH2 0x2BA0 DUP3 SLOAD PUSH2 0x25C1 JUMP JUMPDEST PUSH2 0x2BAB DUP3 DUP3 DUP6 PUSH2 0x2AE7 JUMP JUMPDEST PUSH1 0x0 PUSH1 0x20 SWAP1 POP PUSH1 0x1F DUP4 GT PUSH1 0x1 DUP2 EQ PUSH2 0x2BDE JUMPI PUSH1 0x0 DUP5 ISZERO PUSH2 0x2BCC JUMPI DUP3 DUP8 ADD MLOAD SWAP1 POP JUMPDEST PUSH2 0x2BD6 DUP6 DUP3 PUSH2 0x2B58 JUMP JUMPDEST DUP7 SSTORE POP PUSH2 0x2C3E JUMP JUMPDEST PUSH1 0x1F NOT DUP5 AND PUSH2 0x2BEC DUP7 PUSH2 0x29C8 JUMP JUMPDEST PUSH1 0x0 JUMPDEST DUP3 DUP2 LT ISZERO PUSH2 0x2C14 JUMPI DUP5 DUP10 ADD MLOAD DUP3 SSTORE PUSH1 0x1 DUP3 ADD SWAP2 POP PUSH1 0x20 DUP6 ADD SWAP5 POP PUSH1 0x20 DUP2 ADD SWAP1 POP PUSH2 0x2BEF JUMP JUMPDEST DUP7 DUP4 LT ISZERO PUSH2 0x2C31 JUMPI DUP5 DUP10 ADD MLOAD PUSH2 0x2C2D PUSH1 0x1F DUP10 AND DUP3 PUSH2 0x2B3A JUMP JUMPDEST DUP4 SSTORE POP JUMPDEST PUSH1 0x1 PUSH1 0x2 DUP9 MUL ADD DUP9 SSTORE POP POP POP JUMPDEST POP POP POP POP POP POP JUMP JUMPDEST PUSH1 0x0 PUSH1 0x40 DUP3 ADD SWAP1 POP PUSH2 0x2C5B PUSH1 0x0 DUP4 ADD DUP6 PUSH2 0x1FA4 JUMP JUMPDEST PUSH2 0x2C68 PUSH1 0x20 DUP4 ADD DUP5 PUSH2 0x203A JUMP JUMPDEST SWAP4 SWAP3 POP POP POP JUMP JUMPDEST PUSH32 0x4E487B7100000000000000000000000000000000000000000000000000000000 PUSH1 0x0 MSTORE PUSH1 0x12 PUSH1 0x4 MSTORE PUSH1 0x24 PUSH1 0x0 REVERT INVALID LOG2 PUSH5 0x6970667358 0x22 SLT KECCAK256 0xC9 RETURNDATACOPY ADDMOD 0xC7 SWAP2 PUSH5 0xF8D8D2020 0xAB SWAP14 0xE6 0xE8 0xB4 PUSH14 0x8E713AAD037D182ECD9DB2E2B752 DUP1 PUSH5 0x736F6C6343 STOP ADDMOD XOR STOP CALLER "
				},
				"gasEstimates": {
					"creation": {
						"codeDepositCost": "2295200",
						"executionCost": "infinite",
						"totalCost": "infinite"
					},
					"external": {
						"approve(address,uint256)": "infinite",
						"balanceOf(address)": "infinite",
						"burn(uint256)": "infinite",
						"generateIPFSHash(string)": "infinite",
						"getApproved(uint256)": "infinite",
						"getBlockHashForToken(uint256)": "3059",
						"isApprovedForAll(address,address)": "infinite",
						"mint(address,string)": "infinite",
						"name()": "infinite",
						"nftHashes(uint256)": "2897",
						"ownerOf(uint256)": "infinite",
						"safeTransferFrom(address,address,uint256)": "infinite",
						"safeTransferFrom(address,address,uint256,bytes)": "infinite",
						"setApprovalForAll(address,bool)": "infinite",
						"supportsInterface(bytes4)": "914",
						"symbol()": "infinite",
						"tokenByIndex(uint256)": "infinite",
						"tokenExists(uint256)": "2846",
						"tokenURI(uint256)": "infinite",
						"totalSupply()": "2460",
						"totalTokens()": "2474",
						"transferFrom(address,address,uint256)": "infinite",
						"verifyNFTHash(uint256,bytes32)": "5327"
					}
				},
				"methodIdentifiers": {
					"approve(address,uint256)": "095ea7b3",
					"balanceOf(address)": "70a08231",
					"burn(uint256)": "42966c68",
					"generateIPFSHash(string)": "da69502a",
					"getApproved(uint256)": "081812fc",
					"getBlockHashForToken(uint256)": "9e28f69e",
					"isApprovedForAll(address,address)": "e985e9c5",
					"mint(address,string)": "d0def521",
					"name()": "06fdde03",
					"nftHashes(uint256)": "ffa0d809",
					"ownerOf(uint256)": "6352211e",
					"safeTransferFrom(address,address,uint256)": "42842e0e",
					"safeTransferFrom(address,address,uint256,bytes)": "b88d4fde",
					"setApprovalForAll(address,bool)": "a22cb465",
					"supportsInterface(bytes4)": "01ffc9a7",
					"symbol()": "95d89b41",
					"tokenByIndex(uint256)": "4f6ccce7",
					"tokenExists(uint256)": "00923f9e",
					"tokenURI(uint256)": "c87b56dd",
					"totalSupply()": "18160ddd",
					"totalTokens()": "7e1c0c09",
					"transferFrom(address,address,uint256)": "23b872dd",
					"verifyNFTHash(uint256,bytes32)": "e5dbb934"
				}
			},
			"storageLayout": {
				"storage": [
					{
						"astId": 201,
						"contract": "contracts/NFT.sol:NFT",
						"label": "_name",
						"offset": 0,
						"slot": "0",
						"type": "t_string_storage"
					},
					{
						"astId": 203,
						"contract": "contracts/NFT.sol:NFT",
						"label": "_symbol",
						"offset": 0,
						"slot": "1",
						"type": "t_string_storage"
					},
					{
						"astId": 207,
						"contract": "contracts/NFT.sol:NFT",
						"label": "_owners",
						"offset": 0,
						"slot": "2",
						"type": "t_mapping(t_uint256,t_address)"
					},
					{
						"astId": 211,
						"contract": "contracts/NFT.sol:NFT",
						"label": "_balances",
						"offset": 0,
						"slot": "3",
						"type": "t_mapping(t_address,t_uint256)"
					},
					{
						"astId": 215,
						"contract": "contracts/NFT.sol:NFT",
						"label": "_tokenApprovals",
						"offset": 0,
						"slot": "4",
						"type": "t_mapping(t_uint256,t_address)"
					},
					{
						"astId": 221,
						"contract": "contracts/NFT.sol:NFT",
						"label": "_operatorApprovals",
						"offset": 0,
						"slot": "5",
						"type": "t_mapping(t_address,t_mapping(t_address,t_bool))"
					},
					{
						"astId": 1340,
						"contract": "contracts/NFT.sol:NFT",
						"label": "_tokenURIs",
						"offset": 0,
						"slot": "6",
						"type": "t_mapping(t_uint256,t_string_storage)"
					},
					{
						"astId": 3039,
						"contract": "contracts/NFT.sol:NFT",
						"label": "totalTokens",
						"offset": 0,
						"slot": "7",
						"type": "t_uint256"
					},
					{
						"astId": 3046,
						"contract": "contracts/NFT.sol:NFT",
						"label": "_tokenIds",
						"offset": 0,
						"slot": "8",
						"type": "t_struct(Counter)1502_storage"
					},
					{
						"astId": 3050,
						"contract": "contracts/NFT.sol:NFT",
						"label": "nftHashes",
						"offset": 0,
						"slot": "9",
						"type": "t_mapping(t_uint256,t_bytes32)"
					},
					{
						"astId": 3054,
						"contract": "contracts/NFT.sol:NFT",
						"label": "_tokenExists",
						"offset": 0,
						"slot": "10",
						"type": "t_mapping(t_uint256,t_bool)"
					}
				],
				"types": {
					"t_address": {
						"encoding": "inplace",
						"label": "address",
						"numberOfBytes": "20"
					},
					"t_bool": {
						"encoding": "inplace",
						"label": "bool",
						"numberOfBytes": "1"
					},
					"t_bytes32": {
						"encoding": "inplace",
						"label": "bytes32",
						"numberOfBytes": "32"
					},
					"t_mapping(t_address,t_bool)": {
						"encoding": "mapping",
						"key": "t_address",
						"label": "mapping(address => bool)",
						"numberOfBytes": "32",
						"value": "t_bool"
					},
					"t_mapping(t_address,t_mapping(t_address,t_bool))": {
						"encoding": "mapping",
						"key": "t_address",
						"label": "mapping(address => mapping(address => bool))",
						"numberOfBytes": "32",
						"value": "t_mapping(t_address,t_bool)"
					},
					"t_mapping(t_address,t_uint256)": {
						"encoding": "mapping",
						"key": "t_address",
						"label": "mapping(address => uint256)",
						"numberOfBytes": "32",
						"value": "t_uint256"
					},
					"t_mapping(t_uint256,t_address)": {
						"encoding": "mapping",
						"key": "t_uint256",
						"label": "mapping(uint256 => address)",
						"numberOfBytes": "32",
						"value": "t_address"
					},
					"t_mapping(t_uint256,t_bool)": {
						"encoding": "mapping",
						"key": "t_uint256",
						"label": "mapping(uint256 => bool)",
						"numberOfBytes": "32",
						"value": "t_bool"
					},
					"t_mapping(t_uint256,t_bytes32)": {
						"encoding": "mapping",
						"key": "t_uint256",
						"label": "mapping(uint256 => bytes32)",
						"numberOfBytes": "32",
						"value": "t_bytes32"
					},
					"t_mapping(t_uint256,t_string_storage)": {
						"encoding": "mapping",
						"key": "t_uint256",
						"label": "mapping(uint256 => string)",
						"numberOfBytes": "32",
						"value": "t_string_storage"
					},
					"t_string_storage": {
						"encoding": "bytes",
						"label": "string",
						"numberOfBytes": "32"
					},
					"t_struct(Counter)1502_storage": {
						"encoding": "inplace",
						"label": "struct Counters.Counter",
						"members": [
							{
								"astId": 1501,
								"contract": "contracts/NFT.sol:NFT",
								"label": "_value",
								"offset": 0,
								"slot": "0",
								"type": "t_uint256"
							}
						],
						"numberOfBytes": "32"
					},
					"t_uint256": {
						"encoding": "inplace",
						"label": "uint256",
						"numberOfBytes": "32"
					}
				}
			},
			"userdoc": {
				"kind": "user",
				"methods": {},
				"version": 1
			}
		}
	}
}